:020000040800F2
:100000003825002079B70008A5B70008A5B7000873
:10001000A5B70008A5B70008A5B7000800000000B4
:10002000000000000000000000000000A5B700086C
:10003000A5B7000800000000A5B700088106000869
:10004000A5B70008A5B70008A5B70008A5B7000820
:10005000A5B70008A5B70008A5B70008A5B7000810
:10006000A5B70008A5B70008A5B70008A5B7000800
:10007000A5B70008A5B70008A5B70008A5B70008F0
:10008000A5B70008A5B70008A5B70008A5B70008E0
:10009000A5B70008A5B70008A5B70008A5B70008D0
:1000A000A5B70008A5B70008A5B70008A5B70008C0
:1000B000A5B70008A5B70008A5B70008A5B70008B0
:1000C000A5B70008A5B70008A5B70008A5B70008A0
:1000D000A5B700081D080008A5B70008A5B70008C7
:1000E000A5B70008A5B70008A5B70008A5B7000880
:1000F000A5B70008A5B70008A5B70008A5B7000870
:10010000A5B70008A5B70008A5B70008A5B700085F
:1001100071090008A5B70008A5B70008A5B7000831
:10012000A5B70008A5B70008A5B70008A5B700083F
:10013000A5B70008A5B70008A5B70008A5B700082F
:10014000A5B70008A5B70008A5B70008A5B700081F
:10015000A5B70008A5B70008A5B70008A5B700080F
:10016000A5B70008A5B70008A5B70008A5B70008FF
:10017000A5B70008A5B70008A5B70008A5B70008EF
:08018000A5B70008A5B70008AF
:1001A0002F4A304ED2F888302F4D304C43F4700334
:1001B00080B5C2F8883000F081FA00F0E9F900F06B
:1001C00057F84FF4E13000F065FB4FF4165000F0A3
:1001D0000BFCB14600F08EFCA84600F071FDA24673
:1001E00000F0D2FE002701F085F805F03FFF04F093
:1001F00005FA04F019FE04F0EDFD05F06DF906F0C6
:1002000033F906F0D3F907F0E7FF08F037FD07F000
:100210000BF801F097F801F049F903E02B787BB96E
:100220002378A3B903F06EF906F0ACFA3378002B0B
:10023000F4D009F06BFB89F800702B78002BEFD01D
:1002400007F022FD88F800702378002BEAD0012007
:1002500000F03CF907F0D4FD8AF80070E2E700BF37
:1002600000ED00E00005002008050020100500203A
:100270001F4A2049136843F4E06343F0030313600B
:1002800013680B6843F001030B600A68194B900771
:10029000FBD51968184A21F08071196019685968EE
:1002A0000A405A605A6842F4285242F010025A60DA
:1002B0009A6822F47C4222F0F0029A609A6842F432
:1002C000C00242F480529A601A6842F080721A604A
:1002D0001968084A8901FBD5936823F003039360EA
:1002E000936843F00203936093681B07FCD5704743
:1002F000003C0240003802400080BFFF10B51948A2
:10030000194C03F097FE1021184803F059FEA8215C
:10031000174803F055FE0221164803F051FE164916
:10032000164803F04DFE2146154803F049FE2146CC
:10033000144803F045FE2146134803F041FE1349DB
:10034000134803F03DFE2146124803F039FE2146D2
:10035000114803F035FE21461048BDE8104003F077
:100360002FBE00BFCCE0000800BD0105DCE00008A6
:10037000FCE000081CE100080024F4003CE1000857
:100380005CE100087CE100089CE1000880DE80025E
:10039000BCE10008DCE10008FCE100081CE2000808
:1003A0002DE9F04F834685B00F4600200021CDE9AE
:1003B00000014FF0000EF446F046F14672460297F7
:1003C000CDF80CB00299029B31F8020B1B78029118
:1003D0004FEA820BC0F3C310C0B2ABF1200600FAA3
:1003E00006F503F0030A5600CBF1200120FA01F1D3
:1003F00000FA0BF40AFA06F7DDE900AB0D43C3F38C
:100400008100C3F34111C3F3001393400132B040A4
:10041000B1404AEA040A4BEA050B102ACDE900ABC9
:1004200049EA070948EA00084EEA010E4CEA030CC3
:10043000C8D1DDE90001DDF80CB0CBF80090CBF8B5
:100440000880CBF80CE0CBF804C0CBF82000CBF848
:10045000241005B0BDE8F08F014B80221A8370474D
:1004600000040240014B80225A837047000402407E
:10047000044B5A6912F0800F4FF0800214BF5A8368
:100480001A8370470004024038B5034C8025258349
:1004900000F08CF9658338BD00040240014B402216
:1004A0001A83704700040240014B40225A83704770
:1004B00000040240044B5A6912F0400F4FF0400212
:1004C00014BF5A831A8370470004024038B5034CA6
:1004D0004025258300F06AF9658338BD0004024099
:1004E000034B042208B95A8370471A83704700BF30
:1004F00000000240024B4FF400725A83704700BF65
:1005000000100240024B4FF400721A83704700BF84
:1005100000100240014B80221A83704700100240F5
:10052000014B80225A83704700100240024B4FF467
:1005300080721A83704700BF00100240024B4FF4D4
:1005400080725A83704700BF00100240014B0222A4
:100550001A837047000C0240014B02225A837047F5
:10056000000C0240024B01225A83052000F014B90E
:10057000000C024008B5052000F00EF9034B0122E3
:100580001A830520BDE8084000F006B9000C0240BF
:10059000204B21481A6B2DE9F041204C204EDFF80A
:1005A0009080204F204D42F09F021A6321461B6B22
:1005B000FFF7F6FE04F120013046FFF7F1FE04F1EB
:1005C00040014046FFF7ECFE04F160013846FFF7BA
:1005D000E7FE04F180012846FFF7E2FE04F1A001E6
:1005E0001248FFF7DDFE4FF4007480234FF0040E35
:1005F00040204FF480710222A8F81840A6F81AE0B3
:10060000708373836B8369837A83FFF7B3FF2C83D3
:10061000BDE8F08100380240000002403CE20008E2
:1006200000040240000C024000100240001C024086
:1006300000080240034B4FF400525A83052000F09B
:10064000ABB800BF0004024008B5052000F0A4F8D4
:10065000044B4FF400521A830520BDE8084000F017
:100660009BB800BF00040240014B04225A8370472C
:1006700000040240014B04221A8370470004024028
:100680000D4B1A680132092A13DD9A6801320020E5
:100690000121092A1860197109DD1A6919730132DB
:1006A000092A9860D2BF1A611861197570479A605B
:1006B00070471A60704700BFFC0400203049314B7E
:1006C000314A32482DE9F0410E6C314C314D46F043
:1006D00045060E644F6C4FF080464FF0010847F41A
:1006E000803C42F20F7E5327C1F844C03785A6F8FC
:1006F0001480A6F800801F85C3F82CE0198B89B2FE
:1007000041F4D04119831E8CB6B2002146F0100688
:100710001E8499631E8BB6B246F068061E831E8C3B
:10072000B6B246EA08061E8459639E8AB6B246EA05
:1007300008069E821E88B6B246EA08061E80178505
:10074000C2F82CE0938B9BB243F4D0439383138C79
:100750009BB243F480531384938A9BB243EA080309
:100760009382116413889BB243EA0803F027138035
:100770000726456084F8237081600660BDE8F0813B
:1007800000380240004001400008004010E000E056
:1007900000ED00E01F4801004FF080431A465B6AFD
:1007A0001844536A1B1A002BFBDB704710B44FF040
:1007B00080414FF6FF7406E04A6A02F57A724B6A8E
:1007C0009B1A002BFBDB013880B2A042F4D15DF80C
:1007D000044B70475F2908D891B9012809D00CD380
:1007E000022809D10B4B19647047012842F21B51B2
:1007F000F5D1094B596370477047074B99637047B0
:1008000042F20F7303FB01F16423B1FBF3F189B2F0
:10081000E3E700BF00080040004001401B4A138886
:100820009BB2990610B407D5194990884C680A689C
:10083000121B7F2A80B217DD1B0612D5144BD3F88A
:100840008820D3F88C10914216D0D3F888200F4816
:1008500002F07F011944013291F89010C3F888200A
:1008600081805DF8044B70470A6802F07F040C44F5
:10087000013220720A60DFE7044A5DF8044B938975
:1008800023F080031B041B0C938170470010014070
:1008900014050020F0B40B4C0B4A616C0B4D0C4B53
:1008A000B3FBF0F042F22C070023202641F01001A8
:1008B000C0F30F10616493821382108197816E6080
:1008C000F0BC7047003802400010014000E100E039
:1008D00000D01B500A2810B5044617D00D48D0F898
:1008E0008C20D0F888300B49D31A7F2BF9DC02F02A
:1008F0007F030B44084883F8904083899BB2013200
:1009000043F08003C1F88C20838110BD0D20FFF7D8
:10091000E1FFE3E7140500200010014010B5441C7E
:10092000007828B1FFF7D6FF14F8010B0028F9D1A1
:1009300010BD00BF074A11685368994206D003F002
:100940007F0111440133087A536070474FF0FF3044
:10095000704700BF14050020044AD2F88C10D2F86A
:1009600088308B42FBD10020704700BF1405002067
:100970001B4A13889BB2990610B407D51949908871
:100980004C680A68121B7F2A80B217DD1B0612D53D
:10099000144BD3F88820D3F88C10914216D0D3F89A
:1009A00088200F4802F07F011944013291F890101D
:1009B000C3F8882081805DF8044B70470A6802F014
:1009C0007F040C44013220720A60DFE7044A5DF8BC
:1009D000044B938923F080031B041B0C9381704705
:1009E000004C004024060020F0B40C4C0C4A216C52
:1009F0000C4D0D4BB3FBF0F042F22C0700234FF4EB
:100A0000801641F40021C0F30F10216493821382F9
:100A1000108197816E60F0BC704700BF00380240C3
:100A2000004C004000E100E000E80D2810B40D4C3F
:100A3000D4F88C20D4F888300A49D31A7F2BF9DCFB
:100A400002F07F030B44084C83F89000A3899BB20B
:100A5000013243F08003C1F88C20A3815DF8044B80
:100A6000704700BF24060020004C0040F0B4077817
:100A7000451CDFB10E490F4CD1F88C200E46D1F841
:100A800088300B48D31A7F2BF9DC02F07F03334404
:100A9000013283F89070A3899BB243F08003A38155
:100AA00015F8017B002FEAD1C0F88C20F0BC70470C
:100AB00024060020004C0040074A11685368994200
:100AC00006D003F07F0111440133087A5360704768
:100AD0004FF0FF30704700BF24060020044AD2F8D0
:100AE0008C10D2F888308B42FBD10020704700BFB9
:100AF00024060020044A0549136C4FF4557043F452
:100B0000004313640880704700380240003C0040F6
:100B1000044A0549536C40F2553043F48053536402
:100B2000088070470038024000300140044A0549FF
:100B3000136C40F2553043F48043136408807047CF
:100B40000038024000380040044A0549136C4FF455
:100B5000557043F400431364088070470038024026
:100B6000003C0040044B98811A890349D207FBD509
:100B70008889C0B2704700BF00300140034B9881A4
:100B80001A890249D207FBD58B8970470030014092
:100B9000044B00229A811A890249D207FBD5888921
:100BA000C0B2704700300140044B98811A89034954
:100BB000D207FBD58889C0B2704700BF003800401B
:100BC000034B98811A890249D207FBD58B8970475C
:100BD00000380040044B00229A811A890249D2074A
:100BE000FBD58889C0B2704700380040044B98811B
:100BF0001A890349D207FBD58889C0B2704700BF64
:100C0000003C0040034B98811A890249D207FBD56A
:100C10008B897047003C0040044B00229A811A895E
:100C20000249D207FBD58889C0B27047003C00401A
:100C3000012811D009D3022806D10B4B00214FF413
:100C4000597219801A8070477047074B002140F293
:100C5000653219801A807047034B00214FF455729A
:100C600019801A80704700BF003C00401249134BA6
:100C70000A6C42F4800210B40A641A886FEA424295
:100C80006FEA524292B21A801A88C2F30E021A8098
:100C90001A8822F001021204120C2A24D2202B21DD
:100CA0001A809C80988319841A885DF8044B92B24C
:100CB00042F001021A80704700380240005800409C
:100CC00008B5C820FFF772FDBDE80840FFF7CEBFAA
:100CD00070B4174D2B889BB243F480732B80AC8A81
:100CE000134BE607FBD580B218829C8A1048A407F4
:100CF000FBD5038B9AB14C1E0646551E00218D4232
:100D000003880EDD9BB243F480630380838A5B0615
:100D1000FCD50131338A04F8013F9142EFD170BC18
:100D2000704723F480631B041B0C0380EEE700BFB5
:100D30000058004030B4144D2B889BB243F48073AC
:100D40002B80AC8A104BE407FBD580B21882184682
:100D5000848A0D4BA507FBD5188B4AB188181A4613
:100D600011F8013B1382938A1C06FCD58142F7D10E
:100D700005498B8A044A5B07FBD513889BB243F471
:100D80000073138030BC70470058004010B50F4C02
:100D90000F48218889B203F013F9A1880D4889B260
:100DA00003F00EF9218A0C4889B203F009F9A18AEF
:100DB0000A4889B203F004F9218B094889B203F08B
:100DC000FFF80A20BDE8104003F02EB9005800409B
:100DD000E0E20008F8E2000810E3000828E3000859
:100DE00040E300080A490B4A0B6C43F400130B6400
:100DF000138823F001031B041B0CD2202B2113802A
:100E00009083118413889BB243F0010313807047D1
:100E100000380240005400400D490E4B0A6C42F469
:100E2000000210B40A641A8822F001021204120CA3
:100E30002A24D2202B211A809C80988319841A8816
:100E40005DF8044B92B242F001021A80704700BF75
:100E500000380240005C0040704700BF704700BF90
:100E6000704700BF704700BF10B5194C1948218862
:100E700089B203F0A5F8A188174889B203F0A0F859
:100E80002189164889B203F09BF8A189144889B2D8
:100E900003F096F8218A134889B203F091F8A18AE9
:100EA000114889B203F08CF8218B104889B203F005
:100EB00087F8A18B0E4889B203F082F8218C0D4887
:100EC00089B203F07DF80A20BDE8104003F0ACB809
:100ED0000054004058E3000870E3000888E300086D
:100EE000A0E30008B8E30008D0E30008E8E3000846
:100EF00000E4000818E4000810B5194C19482188CE
:100F000089B203F05DF8A188174889B203F058F858
:100F10002189164889B203F053F8A189144889B28F
:100F200003F04EF8218A134889B203F049F8A18AE8
:100F3000114889B203F044F8218B104889B203F0BC
:100F40003FF8A18B0E4889B203F03AF8218C0D4886
:100F500089B203F035F80A20BDE8104003F064B808
:100F6000005C004030E4000848E4000860E4000849
:100F700078E4000890E40008A8E40008C0E4000851
:100F8000D8E40008F0E4000870B40949094B4A6C41
:100F9000002640F201454FF4C33442F480724FF40E
:100FA00040204A645E609D60DC60186170BC7047E0
:100FB0000038024000200140012819D014D3022833
:100FC0000ED00D4A936843F08043936013680A493A
:100FD0009B07FBD5C86CC0F57F600F3080B27047AF
:100FE000054B0D225A63ECE7034B0F225A63E8E7E7
:100FF000014B06225A63E4E700200140012819D082
:1010000014D302280ED00D4A00231363D3629368D1
:1010100043F080439360136808499B07FBD5C86C75
:1010200080B27047054B0B225A63ECE7034B072253
:101030005A63E8E7014B03225A63E4E700200140CA
:10104000012819D014D302280ED00D4A00231363AF
:10105000D362936843F080439360136808499B0709
:10106000FBD5C86C80B27047054B0C225A63ECE785
:10107000034B0E225A63E8E7014B04225A63E4E76C
:10108000002001401A4A0023092151631363D362EF
:10109000936843F080439360136815499B07FBD521
:1010A00030B4144CC86C144D237882B22A8005F1F8
:1010B0002201A3B10846AB1C23F8022F8342FBD1C7
:1010C0000023AA8823700D4B002001E033F8022F83
:1010D00010448B4280B2F9D1000930BC70470B46F6
:1010E0002C1D33F8020D5880A342FAD1AA80EAE7FA
:1010F00000200140000000203407002038070020B5
:10110000084A00230A2151631363D362936843F0B2
:1011100080439360136803499B07FBD5C86C80B27A
:10112000704700BF00200140254A00230821516379
:101130001363D362936843F080439360136820493C
:101140009B07FBD530B41F4CCB6C1F4D627899B216
:1011500082B0A98405F1460042B3024605F1260398
:1011600023F8021F9342FBD10023298D6370174A95
:10117000002301E032F8021F0B4482429BB2F9D1F6
:101180001B0907EE903A9FED127AF8EE677AC7EEE8
:10119000877AB1EE087A77EE877AFCEEE77ACDEDC2
:1011A000017ABDF8040002B030BC7047034605F177
:1011B000280433F8022D5A80A342FAD12985D6E7B4
:1011C0000020014000000020340700205C070020C0
:1011D000B1E15540154B1B681A8F40F239739A42A2
:1011E00010B50BD8124A92F84830632B14D801334B
:1011F000DBB2642B82F848300ED010BD0D4C0C4A87
:10120000A378002182F84810002BF6D1802007F047
:10121000DFFA0123A37010BD064CA378012BECD19B
:10122000002007F0D5FA0023A37010BD480000206D
:10123000340700200000002010B5134C134802F0C2
:10124000F9FE6168124802F0BBFEA168114802F085
:10125000B7FEE168104802F0B3FE21690F4802F0C2
:10126000AFFEE16A0E4802F0ABFE216B0D4802F0C2
:10127000A7FE616B0C4802F0A3FEE16C0B48BDE8D1
:10128000104002F09DBE00BF0020014008E50008AC
:101290001CE5000830E5000844E5000858E50008B2
:1012A0006CE5000880E5000894E50008A8E5000862
:1012B00038B50D4C2568FFF7E5FE0C4A288700235A
:1012C0000A21246851631363D362936843F0804317
:1012D0009360136805499B07FBD5CB6C6387FFF7C9
:1012E00023FFA08738BD00BF480000200020014038
:1012F000FFF7DEBF0748084B026C10B400214FF423
:10130000803442F000520264996059611C605DF8BB
:10131000044B7047003802400074004040F6FF73F1
:10132000024A984228BF18469060704700740040F7
:1013300040F6FF73024A984228BF18465061704732
:101340000074004008B53E2002F06EFE0248BDE881
:10135000084002F0E1BF00BFBCE5000808B5044842
:1013600002F02EFE0348BDE8084002F0D5BF00BFE2
:10137000C0E50008C4E5000830B403782D2B19D06F
:10138000002211460125825CA2F13004092C16D8F6
:101390000144002303EB830302EB430311F8012F05
:1013A000A2F13004092CA3F13003F3D903FB05F0BB
:1013B00030BC7047012211464FF0FF35E3E70020B3
:1013C000F6E700BF30B403782D2B19D00022114668
:1013D0000125825CA2F13004092C16D801440023B7
:1013E00003EB830302EB430311F8012FA2F1300456
:1013F000092CA3F13003F3D903FB05F030BC70478F
:10140000012211464FF0FF35E3E70020F6E700BF69
:1014100030B4411E002011F8013FA3F13002D4B2D4
:10142000092CA3F161050CD9052DA3F14104A3F109
:101430005702A3F1370304D9052C05D803EB00109C
:10144000E9E702EB0010E6E730BC704730B1037803
:10145000202B03D110F8013F202BFBD0704700BF99
:1014600010B32DE9F041002588462F460E1F037862
:10147000202B044603D114F8013F202BFBD05BB195
:10148000204620210CF0A2FB48B10770013005F185
:10149000010546F8044FEAD12846BDE8F08148F836
:1014A0002540681CBDE8F081704700BF08B50448BE
:1014B00002F0C0FD0348BDE8084002F02DBF00BFA8
:1014C000C8E50008F8E5000808B54A4802F0B2FD92
:1014D000494802F0AFFD494802F0ACFD484802F02F
:1014E000A9FD484802F0A6FD474802F0A3FD474881
:1014F00002F0A0FD464802F09DFD464802F09AFD2C
:10150000454802F097FD454802F094FD444802F03A
:1015100091FD444802F08EFD434802F08BFD4348A4
:1015200002F088FD424802F085FD424802F082FD4B
:10153000414802F07FFD414802F07CFD404802F046
:1015400079FD404802F076FD3F4802F073FD3F48C8
:1015500002F070FD3E4802F06DFD3E4802F06AFD6B
:101560003D4802F02DFD3D4802F02AFD3C4802F0C6
:1015700061FD3C4802F05EFD3B4802F05BFD3B48EC
:1015800002F058FD3A4802F055FD3A4802F052FD8B
:10159000394802F04FFD394802F04CFD384802F05E
:1015A00049FD384802F046FD374802F043FD374810
:1015B00002F040FD364802F03DFD364802F03AFDAB
:1015C000354802F037FD354802F034FD344802F06A
:1015D00031FD344802F02EFD334802F02BFD334834
:1015E00002F028FD324802F025FD3248BDE80840EF
:1015F00002F020BD28E6000844E6000880E6000866
:10160000B8E60008F0E6000828E7000850E7000800
:1016100080E70008B4E70008E4E7000810E80008E5
:101620003CE8000868E8000894E80008CCE80008F6
:101630000CE900084CE9000884E90008BCE900084E
:10164000FCE9000834EA00086CEA0008C0EA000877
:1016500014EB000868EB000880EB0008D0EB0008F2
:1016600020EC00084CEC000878EC0008A4EC000822
:10167000DCEC000814ED000858ED000870ED0008DF
:10168000ACED0008E0ED000830EE000880EE000848
:10169000C0EE0008F4EE000844EF000880EF0008F8
:1016A000C4EF0008D8EF000818F0000850F0000858
:1016B00084F00008BCF000082DE9F0410F680D46E9
:1016C0000646C44938460CF0EFFA3C4628B9012ECC
:1016D00001F00685032E01F044833846BE490CF024
:1016E000E3FA8046002800F02D873846BB490CF00D
:1016F000DBFA002800F029823846B9490CF0D4FA08
:10170000002800F02B82B74920460CF0CDFA0028C3
:1017100000F03982B44920460CF0C6FA002800F0E7
:101720003C82B24920460CF0BFFA10B9032E01F0FA
:101730002F81AF4920460CF0B7FA002800F09987B6
:10174000AC4920460CF0B0FA002800F08D87AA4979
:1017500020460CF0A9FA002800F02D87A749204662
:101760000CF0A2FA10B9042E01F04882A4492046D8
:101770000CF09AFA002800F01887A24920460CF0D5
:1017800093FA28B9042E01F08D8103F0D9FF2C685B
:101790009D4920460CF088FA002800F016879B49E6
:1017A00020460CF081FA002800F00A87984920466C
:1017B0000CF07AFA10B9022E01F0A9822046954960
:1017C0000CF072FA10B9042E01F00A8192492046F9
:1017D0000CF06AFA002800F00C87904920460CF0C3
:1017E00063FA002800F000878D4920460CF05CFA6F
:1017F00010B9022E01F067828A4920460CF054FA93
:10180000002800F0EC86884920460CF04DFA0028AC
:1018100000F0E086854920460CF046FA28B9032EF0
:1018200001F0A18103F0D8FA2C68814920460CF020
:101830003BFA002800F013877E4920460CF034FA6A
:10184000002800F0EB867C4920460CF02DFA002899
:1018500000F0F286794920460CF026FA002800F0C4
:10186000F586774920460CF01FFA002840F0998150
:10187000022E00F0AA8705F061FE2C68714920460F
:101880000CF012FA18B9002005F0A2FE2C686E497F
:1018900020460CF009FA0746002840F09381042EF8
:1018A00000F0BA82052E01F06183204667490CF0F2
:1018B000FBF90746002840F00482022E00F048831E
:1018C000032E01F05384204661490CF0EDF9002805
:1018D00040F06E8320465F490CF0E6F9002840F0A6
:1018E0000482022E00F0F684032E01F010832046BD
:1018F00059490CF0D9F9002840F05782012E01F027
:10190000DE83022E00F06485204654490CF0CCF9A9
:10191000074610B9032E00F0FF86204650490CF010
:10192000C3F9002840F06B83022E00F08783032E5A
:1019300000F0208720464B490CF0B6F9002840F013
:10194000AB83012E00F0F783022E00F06F83204658
:1019500045490CF0A9F90746002840F0AB83022E58
:1019600000F0E487032E01F07B83404920460CF011
:101970009BF9002800F0D7833D4920460CF094F9EC
:10198000074610B9042E00F037873A4920460CF07C
:101990008BF9002800F0B886374920460CF084F90E
:1019A000002800F0A586354920460CF07DF9002876
:1019B00000F09286324920460CF076F9002800F0BB
:1019C0008686304920460CF06FF9002800F07A86B0
:1019D0005AE000BFE8F000080CF1000814F100081C
:1019E0001CF1000838F100083CF1000840F1000843
:1019F00048F1000850F1000858F1000860F10008B3
:101A000068F1000870F1000878F1000884F100081E
:101A10008CF1000894F100089CF10008A4F1000882
:101A2000ACF10008B4F10008BCF10008C4F10008F2
:101A3000CCF10008D8F10008E4F10008F0F100084A
:101A4000FCF1000808F2000814F2000824F2000873
:101A500034F2000844F2000864F2000884F200083E
:101A600090F20008A0F20008B4F20008D4F20008D6
:101A7000E0F20008ECF2000800F3000824F300088C
:101A80004CF3000854F30008CF4920460CF00CF941
:101A9000002800F00B86CD4920460CF005F90028FF
:101AA00000F0F885CA4920460CF0FEF806460028EA
:101AB00000F0E485C74920460CF0F6F800BB6B68DF
:101AC0001A782D2A01F04781014601261A5CA2F1FD
:101AD0003000092801F28C831944002303EB8303AF
:101AE00002EB430311F8012FA2F13004092CA3F1FA
:101AF0003003F3D906FB03F080B206F0A5F92C6899
:101B0000B54920460CF0D0F8002800F08285B34992
:101B100020460CF0C9F8002800F07085B049204636
:101B20000CF0C2F8002800F03785AE4920460CF0D2
:101B3000BBF8002800F01885AB4920460CF0B4F83B
:101B4000002800F0FB84BDE8F08104F09BFD2F68C5
:101B5000A64938463C460CF0A7F818B9022E00F00A
:101B6000B3863C46A24920460CF09EF800287FF43C
:101B7000CAAD04F087FD2C689E4920460CF094F80D
:101B800000287FF4C7AD04F049FF2C689A4920462D
:101B90000CF08AF800287FF4C4AD05F0F3F82C6847
:101BA000BFE5204695490CF07FF800287FF46FAE22
:101BB000022E7FF468AE6868FFF72AFCC0B205F019
:101BC00007FD2C688E4920460CF06EF800287FF443
:101BD0006CAE042E00F01A84052E7FF466AE6868A1
:101BE000FFF716FCAB681A782D2AC0B201F01883F3
:101BF0000022114601279A5CA2F13004092C01F25F
:101C00006B841944002303EB830302EB430311F8B5
:101C1000012FA2F13004092CA3F13003F3D907FB03
:101C200003F3DBB24FF4616707FB03F7EB681A7845
:101C30002D2A01F0CE83002211464FF0010E9A5C4E
:101C4000A2F13004092C01F230841944002303EB83
:101C5000830302EB430311F8012FA2F13004092C96
:101C6000A3F13003F3D90EFB03F3DBB2C3EB031391
:101C70004FEA830C2B691A782D2A01F0A4830022E5
:101C8000144601219A5CA2F1300EBEF1090F01F257
:101C900028841C44002303EB830302EB430314F862
:101CA000012FA2F1300EBEF1090FA3F13003F2D9DA
:101CB00001FB03F3DBB207EB0C01194405F02AFE2C
:101CC0002C68504920460BF0EFFF002840F01F81A0
:101CD000022E00F08182032E01F0928020464A49B4
:101CE0000BF0E2FF00287FF4F5AD204647490BF0EA
:101CF000DBFF002840F01E81022E00F01583032E2A
:101D00007FF4F5AD6868FFF783FBAB681A782D2A7E
:101D1000C0B201F091820022114601279A5CA2F123
:101D20003004092C01F2CF831944002303EB830311
:101D300002EB430311F8012FA2F13004092CA3F1A7
:101D40003003F3D907FB03F3D9B205F0C9FE2C68C1
:101D50002F4920460BF0A8FF00287FF4C8AD686823
:101D6000FFF756FBAB681A782D2AC0B201F05E82ED
:101D70000022114601279A5CA2F13004092C01F2DD
:101D80009F831944002303EB830302EB430311F801
:101D9000012FA2F13004092CA3F13003F3D907FB82
:101DA00003F3D9B205F0D2FE2C681A4920460BF095
:101DB0007BFF002840F01181012E01F08B81022E63
:101DC0007FF4A2AD12E300BF5CF3000878F30008D3
:101DD000ACF30008B4F30008BCF30008C0F300083B
:101DE000C4F30008CCF30008D4F300081CF1000889
:101DF00014F1000838F100083CF1000808F200086E
:101E00001CF200082CF200083CF200084CF200081A
:101E100058F2000870F200086A6813782D2B01F060
:101E20006A82034601240146D35CA3F130000928ED
:101E300001F231831144002202EB820203EB4202E1
:101E400011F8013FA3F130000928A2F13002F3D9C3
:101E500004FB02F2D2B24FF4616404FB02F4AA68FC
:101E600013782D2B01F05982002319464FF0010EF3
:101E7000D35CA3F13000092801F2E2821144002270
:101E800002EB820203EB420211F8013FA3F13000A2
:101E90000928A2F13002F3D90EFB02F2D2B2C2EB52
:101EA00002129100EB681A782D2A01F03C82002280
:101EB00010464FF0010C9A5CA2F1300EBEF1090FF2
:101EC00011D81844002303EB830302EB430310F8FB
:101ED000012FA2F1300EBEF1090FA3F13003F2D9A8
:101EE0000CFB03F3DFB221443944102005F0E6FC7B
:101EF0002C68A74920460BF0D7FE002800F0868208
:101F00002046A4490BF0D0FE00287FF4DAAE20462C
:101F1000A1490BF0C9FE00284AD1022E00F08681AB
:101F2000032E00F09A8720469C490BF0BDFE002846
:101F30007FF4DBAE20469A490BF0B6FE00287FF412
:101F4000D6AC022E00F01A82032E7FF4D0AC06E746
:101F50006B681A782D2A01F0C28101460124DA5DEE
:101F6000A2F13000092801F286821944002303EB14
:101F7000830302EB430311F8012FA2F1300009287B
:101F8000A3F13003F3D904FB03F3D9B2102005F019
:101F9000EDFC2C68834920460BF086FE002800F0FB
:101FA0001B8120467C490BF07FFE002800F03E811B
:101FB00020467D490BF078FE00287FF48BAC022E82
:101FC00000F05E81032E00F07587204677490BF004
:101FD0006BFE00283FF48BACACE7204674490BF055
:101FE00063FE00287FF490AC022E7FF48DAC68680D
:101FF000FFF70EFAC0B205F00FFE2C688DE4204604
:102000006C490BF051FE00287FF494AC022E7FF453
:1020100091AC6868FFF7FCF9C0B205F01FFB2C68B3
:10202000654920460BF040FE002835D16868FFF76F
:10203000EFF9C0B205F054FB2C6888E46B681A789D
:102040002D2A01F04081014601241A5CA2F13000E2
:10205000092801F216821944002303EB830302EBE3
:10206000430311F8012FA2F130000928A3F1300336
:10207000F3D904FB03F399B2202005F0D1FA2C68C0
:102080004C4920460BF010FE0028C2D020464A4999
:102090000BF00AFE0028C9D0204648490BF004FE88
:1020A00000287FF454AC012E7FF451AC202005F0C1
:1020B00029FB2C68424920460BF0F6FD00284AD146
:1020C000022E00F01082032E7FF44FAC6868FFF7F9
:1020D0009FF9AB681A782D2AC0B201F09B800022CC
:1020E000114601279A5CA2F13004092C01F2FF810C
:1020F0001944002303EB830302EB430311F8012F80
:10210000A2F13004092CA3F13003F3D907FB03F348
:10211000D9B205F0CDFA2C682A4920460BF0C4FD4F
:1021200000287FF429AC6868FFF772F9C0B205F0A7
:1021300041FB2C6820E4202005F0D2FA2C681F49CE
:1021400020460BF0B1FD0028B0D020461E490BF010
:10215000ABFD0028AED120461C490BF0A5FD0028A0
:102160007FF403AC022E7FF400AC6C681849204663
:102170000BF09AFD002801F02F80164920460BF045
:1021800093FD002801F063802C68FFF7EEBB00BFD1
:102190001CF2000824F2000834F2000844F200089F
:1021A00058F200082CF200083CF200084CF200083B
:1021B00078F2000898F20008A0F20008ACF20008DB
:1021C000BCF20008D4F20008B4F20008C4F200081F
:1021D000CCF20008D0F200086B681A782D2A00F0C3
:1021E000BF870022114601249A5CA2F13000092821
:1021F00001F20B811944002303EB830302EB430339
:1022000011F8012FA2F130000928A3F13003F3D90E
:1022100004FB03F3D9B2102005F0BEFB2C68D549AE
:1022200020460BF041FD00287FF4C2AE6B681A789F
:102230002D2A00F067870022114601249A5CA2F142
:102240003000092801F20E811944002303EB8303B7
:1022500002EB430311F8012FA2F130000928A3F18A
:102260003003F3D904FB03F3D9B2102005F0AAFB25
:102270002C68C14920460BF017FD00287FF42AABDB
:102280006B681A782D2A00F04F870022114601242E
:102290009A5CA2F13000092801F2D580194400238C
:1022A00003EB830302EB430311F8012FA2F130008B
:1022B0000928A3F13003F3D904FB03F399B21020EA
:1022C00005F096FB2C68AD4920460BF0EDFC00288C
:1022D0007FF40BAD6B681A782D2A00F01987002265
:1022E000114601249A5CA2F13000092801F2B18064
:1022F0001944002303EB830302EB430311F8012F7E
:10230000A2F130000928A3F13003F3D904FB03F351
:1023100099B2102005F0A2FB2C68994920460BF0D9
:10232000C3FC00287FF406AE6B681A782D2A00F0F3
:10233000F5860022114601249A5CA2F1300009289A
:1023400001F293801944002303EB830302EB430360
:1023500011F8012FA2F130000928A3F13003F3D9BD
:1023600004FB03F3D9B2102005F0BAFB2C688549B1
:1023700020460BF099FC00287FF4B9AA6B681A7804
:102380002D2A00F0B9860022114601249A5CA2F1A0
:102390003000092801F25A801944002303EB83031B
:1023A00002EB430311F8012FA2F130000928A3F139
:1023B0003003F3D904FB03F3D9B2102005F0C6FBB8
:1023C0002C68714920460BF06FFC00287FF4EDACBF
:1023D0006868FFF71DF8C0B205F0FAFB2C686B497E
:1023E00020460BF061FC00287FF4F7AD6868FFF72A
:1023F0000FF8C0B205F0FEFB2C68654920460BF0D3
:1024000053FC00283FF4F3ADFFF77EBA6B681A78EF
:102410002D2A00F08F860022114601249A5CA2F139
:102420003000092801F218801944002303EB8303CC
:1024300002EB430311F8012FA2F130000928A3F1A8
:102440003003F3D904FB03F3DBB24FF4616404FB04
:1024500003F4A86803782D2B00F059870023194650
:102460000127C25CA2F13003092B01F20D80084460
:10247000002303EB830302EB430310F8012FA2F1C7
:1024800030010929A3F13003F3D907FB03F3DBB2D1
:10249000C3EB03139900EB681A782D2A00F03187FB
:1024A000002210464FF0010E9A5CA2F13007092F6E
:1024B00000F2A3871844002303EB830302EB4303DA
:1024C00010F8012FA2F13007092FA3F13003F3D93F
:1024D0000EFB03F2D2B221441144102005F01AFA87
:1024E0002C68FFF7EEBB6B681A782D2A00F0FE858A
:1024F0000022114601249A5CA2F13000092800F262
:10250000AE871944002303EB830302EB430311F866
:10251000012FA2F130000928A3F13003F3D904FB05
:1025200003F3D9B2202005F0C3F82C6819492046DE
:102530000BF0BAFB00287FF418AA16E6BDE8F041BC
:1025400005F096BB04F080F840464146FEF742F99C
:1025500001204146FEF73EF941460220FEF73AF9D6
:102560002F683C46FFF7C1B8FEF7AEFF2C68FFF7B7
:10257000E3BA00BF34F200083CF2000844F200085D
:102580004CF2000858F2000864F2000870F20008EB
:1025900078F20008C4F20008BB4801F04BFDBB48CC
:1025A00001F0BAFE2C68FFF7C0BA012003F0A6F8CC
:1025B0002C68FFF7E2B803F039FB2C68FFF7CEB8C0
:1025C00003F0ACF92C68FFF7F1B803F0E7F82C68DA
:1025D000FFF7E5B802F0C8FA2C68FFF71BB903F063
:1025E00075FC2C68FFF70FB902F06AFF2C68FFF743
:1025F000FBB803F003FC2C68FFF7EFB803F094F985
:1026000002F064FF02F0B6FA05F018FC2C68FFF740
:1026100085BA05F00DFC2C68FFF779BA6868FEF7FB
:10262000F7FEC0B204F022FF2C68994920460BF057
:102630003BFB00287FF40EA904F0C0FD2C689549EF
:1026400020460BF031FB00287FF40BA96868FEF7E9
:10265000DFFEC0B204F04AFF2C68FFF702B903F0B6
:1026600073FC2C68FFF7E8B804F0E6FD2C68FFF770
:102670006EB803F003FB2C68FFF762B807F0CCF8E4
:1026800030464FF448714FF4F07207F0DDF82C68D3
:10269000FFF710BA804801F0CDFCC820FEF786F89D
:1026A0007E4801F039FE2C68FFF7FCB97C4801F048
:1026B000C1FCC820FEF77AF87A4801F02DFE2C689C
:1026C000FFF7E9B900F0C0FF2C68FFF7DDB900F0B3
:1026D0009FFF2C68FFF775B9734801F0ABFCC82069
:1026E000FEF764F8714801F017FE2C68FFF762B935
:1026F0006F4801F09FFCC820FEF758F86D4801F0C4
:102700000BFE2C68FFF74FB96B4801F093FC00F00B
:1027100053FF2C68FFF740B96868FEF779FEAB6895
:102720001A782D2AC0B200F0C28539464FF0010E4A
:10273000DA5DA2F13004092C00F27F8619440023EF
:1027400003EB830302EB430311F8012FA2F13004E2
:10275000092CA3F13003F3D90EFB03F399B209B2AC
:1027600005F06CFA2C68554920460BF09DFA0028BC
:102770007FF4E0A86868FEF74BFEAB681A782D2A54
:10278000C0B200F02F850022114601279A5CA2F109
:102790003004092C00F28F861944002303EB8303D5
:1027A00002EB430311F8012FA2F13004092CA3F12D
:1027B0003003F3D907FB03F303EB8303590089B21A
:1027C00004F02EFF2C68FFF7B5B86868FEF720FE0E
:1027D000C0B204F0B3FE2C68394920460BF064FA0D
:1027E00000283FF4E8A9204636490BF05DFA00289E
:1027F0003FF45BA8FFF7E6B96868FEF709FEAC682E
:1028000023782D2BC0B200F0588539460126E25DB1
:10281000A2F13003092B00F231862144002303EB9F
:10282000830302EB430311F8012FA2F13004092CBA
:10283000A3F13003F3D906FB03F3D9B2EB681A789E
:102840002D2A00F009850022144601279A5CA2F186
:102850003006092E00F2DC851C44002303EB8303C1
:1028600002EB430314F8012FA2F13006092EA3F165
:102870003003F3D907FB03F292B212B204F078FFEF
:102880002C68FFF782B800BFC8E50008F8E500082B
:10289000E4F10008F0F1000880F3000898F3000864
:1028A00064F3000874F300082CF3000844F30008F4
:1028B00008F3000820F30008F4F2000890F2000882
:1028C00008F2000814F200086B681A782D2A00F04C
:1028D0000C850022114601249A5CA2F130000928DF
:1028E00000F2D5851944002303EB830302EB430375
:1028F00011F8012FA2F130000928A3F13003F3D918
:1029000004FB03F4E4B22146B94801F059FB214627
:102910000020FDF75FFF21460120FDF75BFF214608
:102920000220FDF757FF2C68FFF71CB96B681A7877
:102930002D2A00F0CE8401460124DA5DA2F1300098
:10294000092800F295851944002303EB830302EB69
:10295000430311F8012FA2F130000928A3F130033D
:10296000F3D904FB03F3D9B2202004F089FE2C68CC
:10297000A04920460BF098F900283FF4B4AD20465A
:102980009D490BF091F900283FF4EFABFEF7EDBF46
:102990006B681A782D2A00F08484014601241A5CA1
:1029A000A2F13000092800F245851944002303EB09
:1029B000830302EB430311F8012FA2F13000092831
:1029C000A3F13003F3D904FB03F4E4B2A868FEF7E3
:1029D0001FFDC1B2204603F065F92C68FEF7A9BEC1
:1029E0006C6823782D2B00F0568401460127225C69
:1029F000A2F13003092B00F21A852144002303EBD6
:102A0000830302EB430311F8012FA2F13004092CD8
:102A1000A3F13003F3D907FB03F3D8B2AC682378F2
:102A20002D2B00F09184002319460127E25CA2F1CE
:102A30003003092B00F2D6842144002303EB8303E7
:102A400002EB430311F8012FA2F13004092CA3F18A
:102A50003003F3D907FB03F3D9B2EB681A782D2AB8
:102A600000F06C84002214464FF0010E9A5CA2F133
:102A70003007092F00F2B3841C44002303EB8303C7
:102A800002EB430314F8012FA2F13007092FA3F141
:102A90003003F3D90EFB03F39AB203F07FF92C68ED
:102AA000FEF794BE6C6823782D2B00F0EF8301466F
:102AB0000127225CA2F13003092B00F2B5842144E6
:102AC000002303EB830302EB430311F8012FA2F170
:102AD0003004092CA3F13003F3D907FB03F3D8B278
:102AE000AC6823782D2B00F0408400231946012781
:102AF000E25CA2F13003092B00F28284214400231E
:102B000003EB830302EB430311F8012FA2F130041E
:102B1000092CA3F13003F3D907FB03F3D9B2EB6817
:102B20001A782D2A00F01B84002214464FF0010E63
:102B30009A5CA2F13007092F00F259841C4400234B
:102B400003EB830302EB430314F8012FA2F13007D8
:102B5000092FA3F13003F3D90EFB03F3DAB202F02D
:102B600061FDFEF712BE6C6823782D2B00F089837F
:102B700001460127225CA2F13003092B00F25184A7
:102B80002144002303EB830302EB430311F8012FDD
:102B9000A2F130000928A3F13003F3D907FB03F3B6
:102BA000D8B2AB681A782D2A00F0D48300221146DF
:102BB00001279A5CA2F13004092C00F21B8419440D
:102BC000002303EB830302EB430311F8012FA2F16F
:102BD0003004092CA3F13003F3D907FB03F189B2C8
:102BE00009B203F097F902F0E7F8FEF71BBE00BF49
:102BF00024F10008BCF20008C4F200086C682378D5
:102C00002D2B00F0398301460127225CA2F130030D
:102C1000092B00F204842144002303EB830302EB1D
:102C2000430311F8012FA2F13004092CA3F1300362
:102C3000F3D907FB03F3D8B2AC6823782D2B00F04F
:102C40007883002319460127E25CA2F13003092BA7
:102C500000F2CB832144002303EB830302EB430305
:102C600011F8012FA2F13004092CA3F13003F3D99C
:102C700007FB03F3D9B2EB681A782D2A00F07B83A7
:102C8000002214464FF0010E9A5CA2F13007092F82
:102C900000F2B9831C44002303EB830302EB4303DC
:102CA00014F8012FA2F13007092FA3F13003F3D953
:102CB0000EFB03F3DAB202F011FC012002F01EFD5C
:102CC0002C68FEF753BD6B681A782D2A00F0CF826E
:102CD000014601241A5CA2F13000092800F29D830C
:102CE0001944002303EB830302EB430311F8012F84
:102CF000A2F130000928A3F13003F3D904FB03F05B
:102D00000138C0B201F03CFC2C68FEF775BD6B6861
:102D10001A782D2A00F0A682014601241A5CA2F13D
:102D20003000092800F277831944002303EB830362
:102D300002EB430311F8012FA2F130000928A3F19F
:102D40003003F3D904FB03F00138C0B202F0ACF950
:102D50002C68FEF73BBD012001464FF0FF36FEF721
:102D6000B5BE6A6813782D2B00F00A8303464FF036
:102D700001080446D15CA1F13003092B00F29083D5
:102D80001444002303EB830301EB430314F8011FF6
:102D9000A1F13002092AA3F13003F3D908FB03F8AB
:102DA0005FFA88F84146AA6813782D2B00F0ED826F
:102DB00000231F464FF0010ED45CA4F13003092B11
:102DC00000F26C833A44002303EB830304EB4303D8
:102DD00012F8014FA4F130000928A3F13003F3D910
:102DE0000EFB03F3DCB220460246D54801F0E8F8BA
:102DF0002146404603F0DCFB2F683C46FEF76DBCE5
:102E00006868FEF705FBAB681A782D2AC0B200F09F
:102E1000F7810022114601279A5CA2F13004092CA7
:102E200000F256831944002303EB830302EB4303B0
:102E300011F8012FA2F13004092CA3F13003F3D9CA
:102E400007FB03F3D9B204F0A7FD2C68BD49204667
:102E50000AF02AFF00287FF4ABA86868FEF7D8FACA
:102E6000AB681A782D2AC0B200F0C5810022114645
:102E700001279A5CA2F13004092C00F2278319443F
:102E8000002303EB830302EB430311F8012FA2F1AC
:102E90003004092CA3F13003F3D907FB03F3D9B2B3
:102EA00004F090FD2C68A84920460AF0FDFE002899
:102EB0007EF410AD6868FEF7ABFAAB681A782D2A7D
:102EC000C0B200F0A2810022114601279A5CA2F153
:102ED0003004092C00F2FE821944002303EB830323
:102EE00002EB430311F8012FA2F13004092CA3F1E6
:102EF0003003F3D907FB03F399B204F079FD2C6892
:102F0000924920460AF0D0FE00287EF4EEAE6868B2
:102F1000FEF77EFAAB681A782D2AC0B200F09281D3
:102F20000022114601279A5CA2F13004092C00F21C
:102F3000C5821944002303EB830302EB430311F81A
:102F4000012FA2F13004092CA3F13003F3D907FBC0
:102F500003F399B204F082FD2C687D4920460AF003
:102F6000A3FE00287EF4E6AFFEF7CCBE6868FEF74D
:102F70004FFAAB681A782D2AC0B200F015823A4693
:102F80004FF0010E39469A5CA2F13004092C00F290
:102F9000AB821944002303EB830302EB430311F8D4
:102FA000012FA2F13004092CA3F13003F3D90EFB59
:102FB00003F3DBB24FF4616E0EFB03FEEA68137895
:102FC0002D2B00F0FB81002319464FF0010CD35C40
:102FD000A3F13004092C00F282821144002202EB9A
:102FE000820203EB420211F8013FA3F13004092CE5
:102FF000A2F13002F3D90CFB02F2D2B2C2EB021200
:1030000091002B691A782D2A00F0D38100221446F2
:103010004FF001089A5CA2F1300CBCF1090F11D8F5
:103020001C44002303EB830302EB430314F8012F3A
:10303000A2F1300CBCF1090FA3F13003F2D908FB67
:1030400003F3DFB27144394404F038FC2C68414981
:1030500020460AF029FE00287EF452AFFEF7BFBDDD
:103060006868FEF7D5F9AB681A782D2AC0B200F06F
:10307000968139464FF0010EDA5DA2F13004092C39
:1030800000F217821944002303EB830302EB43038E
:1030900011F8012FA2F13004092CA3F13003F3D968
:1030A0000EFB03F3D9B204F0EBFA2C682A49204650
:1030B0000AF0FAFD00287EF458ACFFF707B810209C
:1030C00004F086FD2C68254920460AF0EDFD002815
:1030D0007EF41AAC102004F08DFD2C68FEF714BCB1
:1030E00003F0AAFA2F683C46FEF7F7BA0122114610
:1030F0004FF0FF34FFF7FFB9012211464FF0FF34C4
:10310000FFF744B9012211464FF0FF34FFF796B89C
:10311000012211464FF0FF34FFF7E4B801221146B7
:103120004FF0FF34FFF708B9012211464FF0FF348A
:10313000FFF7AEB8012211464FF0FF34FFF76EB92A
:10314000ECF0000834F200083CF2000844F20008F9
:103150004CF200081CF20008BCF2000870F20008F3
:10316000012211464FF0FF34FFF73EB86868FEF7C2
:103170004FF9AB681A782D2AC0B200F00B8139469E
:103180004FF0010EDA5DA2F13004092C00F28B81C0
:103190001944002303EB830302EB430311F8012FCF
:1031A000A2F13004092CA3F13003F3D90EFB03F391
:1031B000D9B204F0DBFB2C68CE4920460AF074FD3E
:1031C00000283FF41DAE2046CB490AF06DFD0028D3
:1031D0003FF443AEFEF7ECBE202004F0A5FA6C6885
:1031E000FEF7CBBF012211464FF0FF37FFF7CEBAF3
:1031F0000020FEF782BC012211464FF0FF3738E66F
:10320000012211464FF0FF3706E6012211464FF02A
:10321000FF375BE6012211464FF0FF37FEF762BF32
:10322000012211464FF0FF37FEF7E5BC012211469F
:103230004FF0FF37FEF79FBD012211464FF0FF37D9
:10324000FEF76CBD012211464FF0FF376BE62020E0
:1032500004F07CFAFEF798BF012214464FF0FF37C6
:10326000FFF7F4BA012001464FF0FF3456E5012084
:1032700001464FF0FF342DE5012001464FF0FF37A6
:10328000C3E4012001464FF0FF3773E401200146FB
:103290004FF0FF370DE4012001464FF0FF37FFF7F5
:1032A000A6BB012001464FF0FF34FFF778BB012792
:1032B00039464FF0FF3EFFF73BBA012739464FF042
:1032C000FF36FFF7A4BA012001464FF0FF34FEF7A6
:1032D000BCBE012739464FF0FF34FFF72EBB012754
:1032E00039464FF0FF34FEF73ABE012211464FF047
:1032F000FF34FFF7F1BA012319464FF0FF34FEF710
:1033000093BD012210464FF0FF3EFFF7CDB80123D9
:1033100019464FF0FF37FFF7A4B8012319464FF0C5
:10332000FF3EFEF7A5BD012210464FF0FF3CFEF721
:10333000C2BD012319464FF0FF3785E40122144630
:103340004FF0FF3EFFF792BB012319464FF0FF37C6
:10335000FFF76CBB012211464FF0FF3729E4012231
:1033600014464FF0FF3EFFF7E3BB012319464FF031
:10337000FF37FFF7BDBB012214464FF0FF3E83E449
:1033800001231C464FF0FF38F4E401231F464FF0A1
:10339000FF3E11E5012739464FF0FF3EF2E60127D7
:1033A00039464FF0FF3E67E6012211464FF0FF3EDF
:1033B000E9E5012214464FF0FF382BE601231946B8
:1033C0004FF0FF3C03E6012214464FF0FF31FEF7B9
:1033D00059BC012211464FF0FF3EFEF730BC0022DF
:1033E000FFF75BBB0021FFF738BB002143E400225D
:1033F000FFF7B5BB0021FFF7F3BB0022FFF76BB867
:103400000021FFF78CBB002255E40021FEF703BF2B
:103410000022FFF732BAFF2098E4FF2072E4002078
:103420000AE40020FFF7BDBB0020FFF759BB0020D6
:10343000FFF7F4BA0024FFF7C9BA0021FFF78FB9EC
:103440000021FEF72FBD0021FEF739BF0021FEF756
:10345000B4BF0021FEF75DBF0024FEF7FABF0021D4
:10346000FFF760B80021FEF700BF0021FEF77BBF29
:103470000021FFF779BA0021FEF788BD0021FFF790
:10348000DDB90021FEF7F8BD0021FFF704B80021E7
:103490000C46FFF739BA0024FEF7E1BC0024A3E490
:1034A000002188467FE4002183E64FF0000CFEF700
:1034B000E1BB0021F7E50021FFF782B9002149E5D2
:1034C0000021FEF76FBC0021FEF73FBC0021E7E4BE
:1034D0000021B8E4002110E50027FEF7A7BB00217A
:1034E0008FE50023FEF7E7BB4FF0000E66E50021F5
:1034F000FEF70FBE2CF2000834F2000808B1FEF708
:10350000DBB8704738B5FDF715FA002816DB0A2836
:103510001CD00D281AD0082811D07F280FD0194BA5
:103520001B6803445B7813F0970F07D0164A137893
:10353000190603D4154C591CE054117038BD124AB9
:103540001378002BFAD0013B137038BD0A2000F02D
:103550006BFD0D4B0D4C1D780D4900222046625528
:103560001A70FDF77DFF0B4A106038B93E2000F05D
:103570005BFD0948BDE8384000F0CEBE0449FEF7C7
:103580009BF8F3E7C8000020FC090020000A002097
:10359000D0090020F8090020BCE5000803480449D0
:1035A000044A002303700B7013707047C40A002094
:1035B000900A0020800A002038B5044C4FF40075B2
:1035C0006583C820FDF7F2F8258338BD0008024066
:1035D00008B50649002000F00BFD6420FDF7E6F871
:1035E0000348BDE8084000F097BE00BFDCF30008C8
:1035F00020F3000808B50020034900F0F9FC034857
:10360000BDE8084000F088BEF8F3000844F3000865
:1036100008B5094B1B78012B04D00848BDE80840C9
:1036200000F008BD064800F077FE00200549BDE81F
:10363000084000F0DDBC00BFC40A002038F40008D8
:1036400010F4000814F4000808B5044800F064FE03
:1036500000200349BDE8084000F0CABC58F4000847
:103660005CF4000830B505460146A9B01F4800F0DB
:10367000A7FC2B78EBB1002428462246214609E01E
:10368000252B04D01544013205F8A03CD2B210F825
:10369000013F73B128AD2C2B05EB4415F0D12A4422
:1036A00010F8013F02F8A01C0134E4B20022002B04
:1036B000F0D19DF82030302B02D0002029B030BD51
:1036C00010A80B490AF0F0FA04460028F5D1694623
:1036D00008480AF055FC084B0849064A20460124D0
:1036E0001C7000F085FC204629B030BD80F4000835
:1036F000A0F40008840A0020900A0020ACF400081E
:1037000010B501460446044800F006FE2146034871
:10371000BDE8104000F054BCE0F40008E8F40008F4
:10372000F8B50546FDF7C8F9002814DB704B1C7886
:10373000A4B915F0FD0257D0052A55D0012D00F08F
:10374000B680042D00F0A580062D04D11F221A702A
:10375000452800F0BA8000242046F8BD621E1F2ACA
:10376000F9D801A151F822F0ED37000827380008F8
:1037700057370008573700085737000857370008F1
:1037800057370008573700085737000857370008E1
:10379000B3380008033800085737000857370008C7
:1037A00057370008573700085737000857370008C1
:1037B0005737000857370008973800087138000855
:1037C00057370008573700085737000857370008A1
:1037D0005737000857370008573700085737000891
:1037E000513700088D38000801221A702528B2D1FF
:1037F000404C414901250222257008701A700024AE
:10380000AAE7202836D03D4B1B6803445B7813F0B1
:10381000970FA0D0374A384913785C1CC8541470ED
:1038200000242046F8BD2528EDD1324F324E97F8BE
:1038300000E00EF10102D2B2002106F80E003A704B
:10384000B1541970002D49D0022D49D0052D45D015
:10385000072D80D130462A490AF026FA00283DD0AB
:10386000304628490AF020FA002818BF002473E7E0
:103870004B28C8D11F4D204C2E78721CD2B200218B
:10388000A0552A70A1541970012465E74428BAD1C3
:10389000F0E715221A7041287FF45DAF154C1649E8
:1038A00001251622257008701A70002454E70B2297
:1038B0001A7043287FF44FAF0E4C0F4901250C229C
:1038C000257008701A70002446E70A4C0A49012541
:1038D0002022257008701A7000243DE701243BE780
:1038E0003046FFF7BFFE041C18BF012434E700BFB9
:1038F00081070020980A0020C80A0020C800002084
:10390000FCF400080CF5000870B5744C63780D2BBE
:1039100012D8DFE803F03A4A555D6B737E86919AC0
:10392000A6AB07120720FFF7FBFE0128054600F0B3
:10393000CC80022800F0A68070BDFDF7BDF80028FD
:10394000FADB0A2800F0A4800D2800F0A1800828E6
:1039500000F0B3807F2800F0B080614B1B68034407
:103960005B7813F0970F07D05E4A1378FF2B03D0D4
:103970005D4C591CE0541170FCF7DCFF011EDBDDCF
:103980005A48BDE8704000F0C7BC5949594A5A4DE1
:1039900000234FF400760B701370C8206E83FCF781
:1039A00005FF01232E83637070BD0020FFF7B8FE72
:1039B0000028C1D0514800F03DFB0223637070BD68
:1039C0004F4800F037FBFFF703FE0323637070BD21
:1039D0000120FFF7A5FE0028AED04A4800F02AFBE0
:1039E000434A012104231170637070BD464800F002
:1039F00021FBFFF70DFE0523637070BD0220FFF76A
:103A00008FFE002898D0414800F014FB0623637015
:103A100070BD3F4800F00EFBFFF716FE07236370F2
:103A200070BD0420FFF77CFE002885D0394800F0E7
:103A300001FB0823637070BD374800F0FBFA37487C
:103A4000FFF75EFE0923637070BD0520FFF768FE77
:103A500000283FF471AF324800F0ECFA0A2363709B
:103A600070BDFFF7C7FD0B23637070BD0620FFF725
:103A700057FE00283FF460AF2A4800F0DBFA0C2321
:103A8000637070BD284800F0D5FA0023637070BDE4
:103A90002648154C00F040FC124B25491D780022A9
:103AA00020461A706255FDF7DBFC224B2049186056
:103AB000FFF724FDFDF746FC5EE70A4A1378002B6A
:103AC0003FF45AAF013B137056E71B4800F0B2FABF
:103AD000084A0D231570637070BD00BF8107002078
:103AE000C8000020980A0020C80A002060F60008DC
:103AF000C40A0020800A0020000802401CF50008CB
:103B000008F3000834F5000858F500087CF50008B3
:103B100094F50008A8F50008C0F50008840A002004
:103B2000E0F5000800F6000840F6000824E600086A
:103B30009C0A0020940A002018F600082DE9F043A2
:103B400010EE104AC4F30F4101F4FF41B1F5FF4FED
:103B5000C4F31603C4F3C7527AD0A2F1960111F14F
:103B60001F0F43F4000320DB0029BABF494223FAA8
:103B700001F603FA01F6763A1BD41F2A71DC0028FD
:103B800003FA02F31ADB072819DD4048A3FB000102
:103B900000280A4676DB3E490020531DC8730A22DE
:103BA0004FF0060EB3FBF2F21EE0763A4FF000063D
:103BB000E3D55242002823FA02F3E4DA0020354A22
:103BC00052F82020A2FB0389B8F1000F4A465ADBC5
:103BD000531D314A2E49A2FB03230025DA08CD7379
:103BE00000284CD000F1FF3E2C48DFF8ACC0CEF1ED
:103BF0000E0705460F44ACFB0231C90801EB8103F7
:103C0000A2EB4302303205F8012DBD420A46F2D143
:103C10006FEA0E0108442E2300F8013C01381E4DC6
:103C20009319A5FB0312D20802EB8201A3EB410317
:103C3000303300F8013D1346002AF2D1002C05DA9A
:103C40002D2300F8013C0138BDE8F083BDE8F08386
:103C50007BB9134B134830EA240028BF1846BDE84F
:103C6000F083002808DB07284FF00003A7DD1A4681
:103C700091E70D48BDE8F08300200246A8E701F176
:103C80000F00CCE70720931DA3E700BF00E1F50577
:103C90008407002064F60008CDCCCCCC930700202C
:103CA00088F6000890F6000884F600080EB400B507
:103CB00082B003AA52F8041B019200F005F802B08A
:103CC0005DF804EB03B070472DE9F04F8DB08946E5
:103CD0000390934604464FF0200A99F8002009F11A
:103CE000010352B1252A0ED09946227099F800207E
:103CF000013409F10103002AF4D1039B2270E01A78
:103D00000DB0BDE8F08F99F80120302A18BF4FF0B0
:103D1000000E05D113F8012F302AFBD04FF0010E11
:103D2000A2F13001C8B209284FF000060AD813F8F2
:103D3000012F06EB860601EB4606A2F13001C8B260
:103D40000928F4D92E2A33D01A784FF0FF3502F023
:103D5000FB01682904BF5A780133A2F1580103F12D
:103D600001090B46202B00F2FB80DFE813F09E00D8
:103D7000F900F900F900F900F900F900F900F9007B
:103D8000F900F90092003800E300E300E300F900D5
:103D9000CB00F900F900F900F900F900F900BC00C6
:103DA000F900F900AD00F9003800F900F9009E00B3
:103DB0005978A1F13002D0B2092803F1010300F2D1
:103DC000EB80002513F8011F05EB850502EB450587
:103DD000A1F13002D0B20928F4D90A46B7E70BF1B5
:103DE0000403642A02934FF00A01DBF8003065D027
:103DF000DFF8C08100228DF82F20002B00F0C98051
:103E0000DFF8B4C10DF12F07B3FBF1F201FB123063
:103E100013461CF8002007F8012D002BF4D16B1C71
:103E200000F0A180DDF808B06FF0004138460AF0DC
:103E300033F92D1A029040460AF000F9029B98F8D7
:103E4000002025EAE575301AE918401A2AB104F86D
:103E5000012B18F8012F002AF9D1002D00F08F80D6
:103E60002544302204F8012BAC42FBD1002B08DDA5
:103E70006A1EFC1817F8011B02F8011FA742F9D1AE
:103E80001D4400287DDD2C1805F801ABA542FBD1AF
:103E900023E70CAFDBF8003007F8203D0BF1040BF3
:103EA00001210025DFF80C81C0E70BF10403642A2F
:103EB00002934FF01001DBF8003099D1002B97DA14
:103EC0005B42DFF8F88095E76A1C0BF10403DBF82E
:103ED0000070DFF8E08019BF29469B469B466FF0D3
:103EE00000410025A2E70022DBF800308DF82F20EA
:103EF0000BF104020292002B51D0DFF8B8801021A0
:103F000008257DE7DBF800302949DFF8A880C3F3F6
:103F100007401A0E8DE805000BF1040CDAB204A874
:103F2000C3F30723E34607460025FFF7BFFE6FF004
:103F300000417BE70BF1070C2CF0070CDCE90001DA
:103F40000CF1080B09F0ECFD00EE100A2846FFF713
:103F5000F5FD002507466FF00041DFF8588065E762
:103F600022700134B9E6BEF1000F0CD040460AF0D1
:103F700065F8DDF808B0351A6FF0004156E72546C0
:103F800074E72C46A9E6DDF808B06FF00041012582
:103F90004CE70DF12F0742E70A460025D7E6934686
:103FA0006FF0004108250DF12F07DFF808803DE78D
:103FB00098F6000844FF0008A4F600088C0D0108DC
:103FC0000FB410B582B004AA084C52F8041B019239
:103FD0002046FFF779FE2046FCF7A0FC20460AF0B9
:103FE0002DF802B0BDE8104004B0704794070020DF
:103FF000A0B10EB400B582B004AB1A4603990948CB
:104000000193FFF761FE0748FCF788FC05480AF0BA
:1040100015F802B05DF804EB03B070474FF0FF30C5
:10402000704700BF0C08002008B5FCF753FC0020C7
:1040300008BD00BF08B5FCF771FC0A20FCF74AFC7C
:10404000002008BDFCF776BC2DE9F04F8DB0894605
:104050000390934604464FF0200A99F8002009F196
:10406000010352B1252A0ED09946227099F80020FA
:10407000013409F10103002AF4D1039B2270E01AF4
:104080000DB0BDE8F08F99F80120302A18BF4FF02D
:10409000000E05D113F8012F302AFBD04FF0010E8E
:1040A000A2F13001C8B209284FF000060AD813F86F
:1040B000012F06EB860601EB4606A2F13001C8B2DD
:1040C0000928F4D92E2A23D01A784FF0FF3502F0B0
:1040D000FB01682904BF5A780133A2F1580103F1AA
:1040E00001090B46202B00F2D780DFE803F0C4D58E
:1040F000D5D5D5D5D5D5D5D5D58228D5D5D5D5AC99
:10410000D5D5D5D5D5D59DD5D58ED528D5D5C40071
:104110005978A1F13002D0B2092803F1010300F26D
:10412000E080002513F8011F05EB850502EB45052E
:10413000A1F13002D0B20928F4D90A46C7E70BF141
:104140000403642A02934FF00A01DBF8003000F008
:104150009C80DFF8988100228DF82F20002B00F042
:10416000B480DFF88CC10DF12F07B3FBF1F201FB36
:10417000123013461CF8002007F8012D002BF4D153
:104180006B1C00F08C80DDF808B06FF00041384601
:1041900009F082FF2D1A0290404609F04FFF029B62
:1041A00098F8002025EAE575301AE918401A2AB176
:1041B00004F8012B18F8012F002AF9D1002D7CD02A
:1041C0002544302204F8012BAC42FBD1002B08DD42
:1041D0006A1EFC1817F8011B02F8011FA742F9D14B
:1041E0001D44002867DD2C1805F801ABA542FBD162
:1041F00033E70CAFDBF8003007F8203D0BF1040B80
:1042000001210025DFF8E480C1E76A1C0BF10403FB
:10421000DBF80070DFF8D48019BF29469B469B4627
:104220006FF000410025B2E70022DBF800308DF886
:104230002F200BF104020292002B49D0DFF8AC8052
:10424000102108258DE7DBF800302749DFF89C8036
:10425000C3F307401A0E8DE805000BF1040CDAB227
:1042600004A8C3F30723E3460746002500F044F8FB
:104270006FF000418BE70BF10403642A02934FF0C7
:104280001001DBF800307FF464AF002BBFF661AFA4
:104290005B42DFF860805EE722700134DDE6BEF14C
:1042A000000F0CD0404609F0C9FEDDF808B0351A01
:1042B0006FF000416BE72C46CFE6254686E7DDF838
:1042C00008B06FF00041012561E70DF12F0757E7B6
:1042D00093466FF0004108250DF12F07DFF80C80A1
:1042E00055E70A460025F2E698F6000844FF000864
:1042F000A4F600088C0D01080EB400B582B004AB22
:104300001A4604490193FFF79FFE02B05DF804EBE3
:1043100003B0704798F600080FB410B582B004AA35
:10432000084C52F8041B01922046FFF78DFE2046F0
:10433000FCF79CFB204609F081FE02B0BDE810406E
:1043400004B0704784080020A0B10EB400B582B05C
:1043500004AB1A46039909480193FFF775FE074815
:10436000FCF784FB054809F069FE02B05DF804EB38
:1043700003B070474FF0FF30704700BFFC080020CB
:104380002DE9F04F8BB00023454E009381460F4638
:1043900098460DF126050DF1060423464FF6FF72EF
:1043A00023F8022FAB42FBD1102F5ED8002367B158
:1043B0000AAA09EB030102EB43020133DBB211F855
:1043C000081022F8201CBB42F2D3012301939DF870
:1043D000001034480901FFF7F3FD0DF1060A4FF014
:1043E000000B0AE0FFF7ECFD0BF1010355455FFA06
:1043F00083FB14D0BBF1080F4ED03AF8021F2A48B5
:104400000FFA81FEBEF1FF3FC9B2EBD12748FFF79B
:10441000D7FD0BF1010355455FFA83FBEAD1244830
:10442000FFF7CEFD0AE0326813445B7813F0970F74
:1044300008BF2E20FFF7F8FDAC420AD034F8023F47
:10444000DBB22A2B1846EED12D20FFF7EDFDAC4252
:10445000F4D1009B0A2001330093FFF7E5FD019B97
:10446000002B98D00BB0BDE8F08F08F1FF3308F1B6
:104470000F004B4448440DF1060213F8011F22F8C7
:10448000021F8342F9D1103F08F110080023BFB288
:104490001FFA88F801939AE70648FFF791FDACE709
:1044A000C8000020B8F60008C4F60008CCF60008E2
:1044B000D0F60008C0F60008F8B50B4C0B4D0746C7
:1044C00004F5807634F8020F00F2FF7080B2FCF73A
:1044D0002FFF3846FCF792FD25F8020F0220FCF76B
:1044E0005BF9B442EED1F8BD5E0D00206A0E0020EB
:1044F0000A4B30B4002040F6FF7403F5807533F8A2
:10450000022F11B28142A8BF90B2A142D8BF94B28B
:10451000AB42F4D1001B80B230BC70476A0E002061
:10452000F0B4154F3D5C03B2CDB9144EDB0103F17D
:104530007E05354433442A4632F8024D54809A426F
:10454000FAD1C0010A463152002001E033F8022FAF
:10455000AB421044FAD1C0F38F10F0BC7047DC01BD
:10456000064EA21E7E343244344422F8021FA24278
:10457000FBD1013D3D54D9E704000020C80B0020C9
:1045800002280DD830B4074B074D1B68074C5874F0
:10459000002101221974D9739A732A70207030BCDB
:1045A000704700BF4800002074090020480D00201B
:1045B000012819D010D3022807D00F4B0121022265
:1045C0001983C8205A83FCF7E7B80B4B01221A83E2
:1045D0001883C820FCF7E0B8074B01210222598359
:1045E000C8201A83FCF7D8B8034B022258835A8399
:1045F000C820FCF7D1B800BF001C024038B503202A
:104600002DED028BFFF7D4FFFBF784FF1B4D002439
:10461000E0B201F019FC0134032CA5EC010AF7D13A
:1046200000200021164DDFED178A9FED178A002428
:1046300011E007EE904AF8EEE77A67EEA87A67EEA7
:10464000887A17EE900A08F035FF41EC100B07F05E
:1046500063F951EC100B00220C4B08F07FFF09F0BE
:1046600017FA0134802C25F8020FE2D1084B1B68A1
:1046700000221A74BDEC028B38BD00BF0800002078
:104680005E0D0020DB0FC9400000003C00007940B7
:1046900048000020F8B53C4E3C4D33686878002453
:1046A0009C73FFF785FF6878FFF706FF384B6F783C
:1046B000204603F5807E40F6FF7433F8022F11B2D6
:1046C0008142A8BF90B2A142D8BF94B27345F4D141
:1046D000031B9BB22F4A304C22F81730194638463C
:1046E000FFF71EFF3368DFF8C8C09FED2C7A2CF867
:1046F000170003EB470CB3EE096ABCF82430DFED7A
:10470000285A284A2849DFF8ACE0284E07EE903AAC
:10471000F8EE677AF7EE006A87EE877A4FF47A73DD
:1047200003FB00F382FB0302DB17C3EBE21301EB95
:1047300087014EF827307A1CD2B2022A98BF6A70DD
:10474000B0EE665A37EE467A07EE903AA7EE255A53
:10475000F8EEE77AC6EE856A91ED016A67EE867A31
:10476000FCEEE77AB8EE677A17EE903A67EE267AB3
:1047700046F82730FCEEE77A17EE903A44F82730F7
:1047800084BF00236B70F8BD48000020740900202E
:104790006A0E0020580D00204C0D00200000C84279
:1047A0000AD7A33C1F85EB5104000020600E0020B7
:1047B000780F00206C0F00202DE9F047914E2DED71
:1047C000028BB478022C82B000F0CB8014D8002C7D
:1047D00000F0B680012C0AD18B4D8C48297801312C
:1047E000FFF7EEFB2A788A4902238C54B37002B09B
:1047F000BDEC028BBDE8F087032C1AD0632CF6D1F8
:10480000814B844819780024FFF7DAFB01F05EFB46
:104810003470B480FBF726FEFBF746FE03F008FB7E
:104820007D4BB4701B681C7402B0BDEC028BBDE8FC
:10483000F087754DFBF73EFE2878FFF73DFE774B7E
:1048400095F8008003F5807740F6FF74002033F878
:10485000022F11B28142A8BF90B2A142D8BF94B238
:10486000BB42F4D1011B6E4B6B4CDFF8E0916D4FF6
:1048700089B2404623F81810FFF752FE29782368C2
:104880009FED697A9FED696A694ADFF8C4C122F831
:10489000180003EB4103F3EE095A9B8C32F811A088
:1048A000B6F804E0634A6448DFF8588107EE903AAE
:1048B000F8EE677AF7EE006A87EE877A4FF47A733C
:1048C00003FB0AF38CFB03ACDB17C3EBEC1349F8D7
:1048D0002130A2FB0EC2D20802EB8202AEEB4202F2
:1048E00092B207EE903A37EE657AF0EE665AE7EE4E
:1048F000065AF8EEE77AC6EEA56AFCEEE77A17EEFE
:10490000903AF8EE677A40F8213067EEA67AFCEE2E
:10491000E77A17EE903A47F82130002A34D0BEF5F6
:10492000966F46D20EF101039BB22268B3804FF41A
:1049300096619382518202B0BDEC028BBDE8F08794
:10494000FBF7ACFDF47000F0C1FDF47003F076FAF3
:10495000314B1B68DB7B002B3FF449AF0123B37065
:1049600045E7294C354821780131FFF729FB2078AC
:10497000FFF71EFE284B1A6803231374B37002B0AE
:10498000BDEC028BBDE8F087CEF5966EA2F19932B0
:1049900082FB0EC24FEAEE7E40F6B83CCEEBA2029E
:1049A0002748CDF800C00131FFF70AFBB8F804E052
:1049B000B5E72B78DFED237A57F8232008EE102A8D
:1049C000B8EE488A5F1C87EE888A18EE100A08F055
:1049D00071FD02460B461C483946FFF7F1FA28786C
:1049E000B0EE480A01F02AFA094B2978226803EB55
:1049F00081016320002381ED018A1074B070B380BF
:104A000095E700BF74090020480D0020D4F6000887
:104A100004000020B8F70008480000206A0E0020BB
:104A2000580D00204C0D00200000C8420AD7A33CBE
:104A3000780F0020CDCCCCCC600E0020F8F600081A
:104A40003CF7000800803B458CF700086C0F002005
:104A50001F85EB5108B5084B1B784BB9FFF71AFEC1
:104A6000064A074B07CA1B6859819A81188108BDFD
:104A7000BDE80840FFF7A0BE740900204C0D0020DF
:104A8000480000202DE9F04FDFF890B0DFF890A04B
:104A9000DFF89090DFF89080194F1A4E1A4D83B0CE
:104AA0000024DBF8002039F814E03AF814301748F5
:104AB00002EB44016422B1F824C0CDF800E0A5FB6C
:104AC0000CE1490902FB11C292B2FFF779FA58F8DA
:104AD00024100F48FFF774FA57F824100D48FFF719
:104AE0006FFA56F824100C480134FFF769FA032CCA
:104AF000D7D10A2003B0BDE8F04FFFF795BA00BF49
:104B0000600E00204C0D00201F85EB51D8F70008E7
:104B1000F4F7000804F8000814F800084800002022
:104B2000580D0020780F00206C0F002070B5074C46
:104B3000074D04F5807634F9021F064835F9022F37
:104B4000FFF73EFAB442F6D170BD00BF5E0D002003
:104B50006A0E002028F80008024BDB7803B9704782
:104B6000FFF790BF74090020014B0122DA707047F3
:104B700074090020014B0022DA707047740900208C
:104B8000034A044B07CA1B68188159819A817047F0
:104B90004C0D00204800002070B4164D6B5CD3B95A
:104BA000154E0BB2DB0103F17E05354433442A4632
:104BB00032F8024D54809A42FAD1C901024670522D
:104BC000002001E033F8022FAB421044FAD1C0F3C9
:104BD0008F1070BC70470BB2DC01074EA21E7E34F2
:104BE0003244344422F8020FA242FBD100226A541C
:104BF000D8E700BF14000020800F00202DE9D0432B
:104C000042F2107303FB00F3C0F58050B3FBF0F0E9
:104C100007EE900A2DED028BF8EE677A82B017EE60
:104C2000900A0C4608F046FC41EC100B41EC180BC6
:104C300006F0C6FE57EC106BB0EE480AF0EE680ABC
:104C400006F0BEFE51EC100BB0EE480AF0EE680A1A
:104C5000CDE9000106F0B4FE59EC108B1FA3D3E997
:104C60000023DDE9000108F079FC42464B4608F0DC
:104C700075FC1CA3D3E9002308F0BEFA02460B46DC
:104C80003046394608F06AFC18A3D3E9002308F03F
:104C9000B3FA02460B4600200D4908F089FD0AA32D
:104CA000D3E9002308F0A6FA00220A4B08F056FCCC
:104CB00008F016FF084B33F81430184480B202B0E5
:104CC000BDEC028BBDE8D08300000060661271402D
:104CD0000000F03F000059400C11002000000000CF
:104CE0003D51E63D000000A09096303F000000607E
:104CF00026C1503FF8B50A4F0A4E0024E5B22846B7
:104D0000FCF79EF92946FFF747FF294647F824009C
:104D1000FFF774FF26F814000134032CEED1F8BD20
:104D2000001100201411002008B5FFF7E3FF054B28
:104D3000054A1B68108851889288D9841A859884FE
:104D400008BD00BF4800002014110020022900D82F
:104D500022E70020704700BF022901D900207047D8
:104D60004CE700BF114B12491248F0B59C885D8892
:104D70001F88A1FB0426A1FB0523760964225B0999
:104D8000A1FB07E185B002FB135502FB164449095C
:104D900002FB1172ADB2A4B200959BB2029492B222
:104DA0000196FFF70DF905B0F0BD00BF141100200A
:104DB0001F85EB513CF8000838B5054D0024E0B2E2
:104DC00001F0AEF825F814000134032CF7D138BDFA
:104DD0000C110020FFF7F0BF38B5FFF7EDFF084DCD
:104DE000002435F91420074821460134FFF7E8F87C
:104DF000032CF6D10A20BDE83840FFF715B900BFF3
:104E00000C11002060F80008044B054A1B6810884C
:104E1000518892889884D9841A8570474800002068
:104E200014110020AFF30080F8B5234E234F002467
:104E3000E5B20421284600F0C1FF072126F814003E
:104E4000284600F0BBFF27F814000134032CEFD1F3
:104E50001B480022B0EE086AF1EE004AB1EE0C5A8F
:104E6000F6EE005A36F8121037F8123007EE901AA4
:104E7000B8EE677A07EE903A5B1AF8EE676A07EECB
:104E8000903A27EE067AF8EEE77A66EE866A87EEC3
:104E9000277A0132032AC6EEA77A34EEC77A75EE76
:104EA000677A77EE277A67EEA57AE0EC017AD9D1B6
:104EB000BDE8F840FBF73ABBA8120020C012002062
:104EC0009C120020F0B5534C534E236887B0002548
:104ED0001D77039504950595E8B2FCF76DF826F863
:104EE00015000135032DF7D14C4F3B78002B7BD1BA
:104EF0004B48494D00F5C076A0F17E01034633F8DA
:104F0000022D5A809942FAD135F8023B20F87E3CB6
:104F10008030B042F0D1434EDFF820E100273A461E
:104F20003D460DF10C0CBB1E07F17E0033443044AE
:104F300033F8021F98420A44FAD193094CF825200D
:104F40004EF825300135032D07F1800702D05CF8BB
:104F50002520E8E721683448344F354EDFF8E0C0BB
:104F6000DFED344A9FED345A14310023B0EE086A65
:104F7000F2EE0C5A5EF8235036F8134037F813203F
:104F8000F0EC016A07EE905A121BB8EE677A07EE52
:104F9000902A27EE067AF8EEE77A5C00C7EE277AC9
:104FA0004FF4AF6277EEA67AF5EEC07AF1EE10FA22
:104FB0000DD4F4EEE57AF1EE10FA0ADD0133032B9D
:104FC0002CF8042021F8022FD4D107B0F0BD002224
:104FD000F4E777EEA47A67EE857AFCEEE77ACDED1A
:104FE000017ABDF80420E9E70B4D0E4E0020831E28
:104FF00000F17E0235F8021B3344324423F8021FCD
:105000009A42FBD18030B0F5C07FF0D100233B70D5
:1050100082E700BF48000020B012002018000020E6
:105020009A1100201C1100209C120020C0120020A8
:10503000A81200200AD7A33B0000C8427C09002028
:10504000B8120020F8B50C4F0C4E0021642537F83B
:1050500011300B48A6FB034252094C1C05FB1233CE
:1050600021469BB2FEF7ACFF032C2146EFD10A206C
:10507000BDE8F840FEF7D8BFB81200201F85EB51FD
:105080006CF8000838B5064D00235C1C55F8232049
:1050900004482146FEF794FF032C2346F5D138BD82
:1050A0007C0900207CF8000802280CD830B4064B9C
:1050B00006491B68064CD877002501225D771A77D0
:1050C0000870227330BC704748000020AE120020E8
:1050D0007C090020F0B5AC4E737B83B0092B5ED801
:1050E000DFE813F07100800089009800B500D0005F
:1050F0000A00DF00F0005F00A44DFBF7DBF9287821
:10510000FBF75AFFDFF898E29EF80130002B40F0E1
:10511000E4802B789E49DF0107F17E040C440F44A4
:1051200034F8022D6280BC42FAD1DA010746885277
:1051300002F17E0E8E440A44002401E032F8027F20
:1051400072453C44FAD1B18A924A8F4FA2FB01E2E8
:10515000D20802EB8202A1EB4202A40992B2B4612E
:10516000002A00F071818C4C874F23684FF49660C1
:105170004A1C814259841884B28210D3BB692978B1
:10518000A3F29E73C82B40F22C8101318348FEF7B5
:1051900017FF216807231E228B777B73BA8203B027
:1051A000F0BD7F4B012200245A703473B482FBF7A8
:1051B00059F9FBF779F902F03BFE774B74731B68E2
:1051C00009229A77EBE7FBF769F902F037FE724B99
:1051D0006D491B685B7F0022B273002BDFD0012377
:1051E0004B73DCE7694B6F4819780131FEF7E8FE35
:1051F00002237373D3E7654B6B4819780131FEF7CF
:10520000DFFE654B664A18680121032383777373B9
:105210005170C4E75D4DFBF74DF92878FBF7CCFEE4
:10522000DFF87CE19EF80130002B67D02B785849DD
:10523000DA01941E7E320C440A4424F8020F944290
:10524000FBD1DC0100220F5B8EF8012065E0B28A01
:105250004D4CB2F5967F80F0BF804E4BA3FB0213FE
:10526000DB0803EB8303A2EB43039BB2002B00F0AC
:10527000A380494B1B68501C4FF496715A84B0822E
:1052800019848CE7414B494819780131FEF798FEA3
:10529000414B434A18680121062383777373517089
:1052A0007DE7B38A384C1E2B00F0DF805A1E36494A
:1052B000B282002B7FF473AF374B1A6809239377C0
:1052C0004B736CE7B38A304C142BEFD13848FEF7A0
:1052D000B1FE00F093FDA38AE8E72B782C49DA01B0
:1052E000941E7E320C440A4424F8020F9442FBD1EF
:1052F000DA0100248F5A8EF8014019E72B782449EF
:10530000DF0107F17E040C440F4434F8022D628063
:10531000BC42FAD1DC010746085304F17E0E0A199B
:105320008E44002401E032F8027F72453C44FAD1F9
:10533000B18A184A144FA2FB01E2D20802EB8202A2
:10534000A1EB4202A40992B23461002A6BD0124F41
:105350000D4C3B684FF496604A1C81425984188476
:10536000B282FFF41CAF23692978A3F5D763C82B59
:105370004ED901310F48FEF723FE396807231E225C
:105380008B776373A2820AE77C090020AE120020AB
:105390001C110020CDCCCCCC48000020F8F900082E
:1053A000180000208CF80008B0F80008B8F90008D0
:1053B00088FA000838F900082E4B2F4D19782F482D
:1053C000C2F5967385FB0352DB17C3EBA2020131D2
:1053D000FEF7F6FDA28A4CE700220523A282637342
:1053E000DDE601312648FEF7EBFD28783A8A0421F4
:1053F00000F0D4FC3A8B2878072100F0CFFCFFF7AF
:1054000013FD2168082314228B777B73BA82C6E6CA
:1054100001311C48FEF7D4FD3968042300228B7744
:105420006373A282BBE6C1F59661A2F19932009442
:1054300082FB0124CA17C2EBA402591C034612487E
:10544000FEF7BEFDB98A82E7C1F59661A2F19932F5
:10545000009482FB0124CA17C2EBA402591C034624
:105460000948FEF7ADFDB98A7DE60848FEF7E2FD82
:10547000A38A1BE7AE1200206766666690F90008F3
:1054800024FA000864F90008F0F8000850FA00084F
:10549000034B1B7B0BB9FFF715BDFFF71BBE00BF0E
:1054A0007C09002008B5054B9B7B03B908BDFFF7BD
:1054B000E9FDBDE80840FFF7C5BD00BF7C0900203D
:1054C000014B01229A7370477C090020014B002296
:1054D0009A7370477C090020704700BF172801D8D5
:1054E0003B2900D970473B2AFCD8F0B51E4D144625
:1054F000A5FB0136A5FB0023DA0802EB8203F608C0
:1055000083B006EB8607A0EB430040EA0213A1EB51
:10551000470141EA06118DF806300020A5FB04354D
:105520008DF80510ED08FBF783FBFAF7E3FF802009
:10553000FBF768FB05EB8502A4EB420242EA05108B
:10554000C0B2FBF75FFB9DF80500FBF75BFB9DF826
:105550000600FBF757FBFAF7D5FF012003B0BDE8C3
:10556000F040FBF765BB00BFCDCCCCCC2DE9F047BC
:10557000002082B0FBF75CFBFAF7BCFF0020FBF7D2
:1055800041FBFBF749FB8DF80400FBF745FB8DF869
:105590000500FBF741FB8DF80600FAF7B3FF012089
:1055A000FBF746FB9DF804009DF805509DF806406A
:1055B000164BDFF864801870C0F30211C5F30212B5
:1055C000C4F30113DFF854C0DFF854E0104F114E5C
:1055D0008CF8005000F00F0005F00F0A04F00F09DE
:1055E00001EB810102EB820203EB830300EB41013B
:1055F0000AEB420209EB430388F800108EF8002002
:105600003C70337002B0BDE8F08700BFCD120020BF
:10561000CB120020C6120020CC120020C81200209D
:10562000CE1200204B1E0B2B01D8632800D97047E7
:105630001F2AFCD8F0B51B4D1446A5FB0132A5FB73
:105640000063DB08D20803EB830602EB820783B01A
:10565000A1EB4701A0EB460040EA031041EA02112A
:10566000A5FB04358DF805108DF80600ED08FAF756
:1056700041FF8420FBF7C6FA05EB8502A4EB42024A
:1056800042EA0510C0B2FBF7BDFA9DF80500FBF732
:10569000B9FA9DF80600FBF7B5FA03B0BDE8F04093
:1056A000FAF730BFCDCCCCCC30B583B0FAF722FFBF
:1056B0000420FBF7A7FAFBF7AFFA8DF80400FBF71D
:1056C000ABFA8DF80500FBF7A7FA8DF80600FAF79C
:1056D00019FF074C0749084B9DF804509DF8050039
:1056E0009DF80620257008701A7003B030BD00BF09
:1056F000C7120020C9120020CA12002010B50446AB
:10570000FFF734FF09490A4A0A4B097812781B78D7
:105710000948FEF755FC24B90848BDE81040FEF7DB
:105720004FBC0A20BDE81040FEF77EBCC612002028
:10573000CE120020CC120020BCFA0008F8FA0008B3
:105740002DE9F041FFF7B0FF104B114A1D78114BC6
:1057500011781C781048C5F30012C1F301139700AB
:1057600005F00F063A4403EB83050A2701F00F0307
:10577000210904F00F0406EB420203EB450307FB8B
:105780000141BDE8F041FEF71BBC00BFC91200207B
:10579000C7120020CA120020CCFA00082DE9F041FF
:1057A000FFF7E4FEFFF780FF2049214A214B0E78E6
:1057B00015781C782048C6F30111C5F30212C4F312
:1057C000021306F00F0605F00F0504F00F0401EBBD
:1057D000810102EB820203EB830306EB410105EB3F
:1057E000420204EB4303FEF7EBFB144B144A1D7813
:1057F000144B11781C781448C5F30012C1F301133F
:10580000970005F00F063A4403EB83050A2701F0E1
:105810000F03210904F00F0406EB420203EB4503DA
:1058200007FB0141BDE8F041FEF7CABBCB120020E7
:10583000C8120020CD120020E4FA0008C91200208E
:10584000C7120020CA120020CCFA000808B5FFF7E2
:105850008DFE084B1B781BB9074B1B78012B00D919
:1058600008BD102001F06AFE2020BDE8084001F0CC
:1058700065BE00BFC8120020CD12002010B5FFF792
:1058800075FE0C4A0C4B126818780C4B10701B7884
:105890000B495370C3EB03134FF4616409789170A3
:1058A0009B0004FB003319445160BDE81040FFF732
:1058B000CDBF00BF48000020C6120020CE1200203D
:1058C000CC12002008B5FFF751FE074B187848B9F5
:1058D000064B1B783BB9064B187801288CBF00207B
:1058E000012008BD002008BDCB120020C8120020F6
:1058F000CD12002008B5FFF739FE064B1B7833B9EF
:10590000054B187801288CBF0020012008BD00201D
:1059100008BD00BFC8120020CD120020014B01229B
:105920001A70704798090020014B00221A707047C6
:105930009809002010B40B4A0B4B126818780B4BD7
:1059400010701B780A495370C3EB03134FF4616462
:10595000097891709B0004FB0033194451605DF895
:10596000044B704748000020C6120020CE120020D1
:10597000CC12002030B587B0FAF7BCFD0020FBF751
:1059800041F90DF103040DF11605FBF745F904F893
:10599000010FAC42F9D1FAF7B5FD01A81321FEF7CA
:1059A000EFFC07B030BD00BF10B504460220FBF786
:1059B0003FF9FAF73FFE600900F0080040F00300ED
:1059C000FBF720F9E0B2FBF71DF9FBF725F90446D8
:1059D000FAF73AFE0120FBF72BF9204610BD00BF75
:1059E00099B1F8B50E461746451E0024381980B205
:1059F000FFF7DAFF0134B44205F8010FF6D10020B9
:105A00000449BDE8F840FEF7F3BA00200149FEF76B
:105A1000EFBA00BFFCFA000838B50546FFF7C4FF2F
:105A20000446681C80B2FFF7BFFF40EA042080B242
:105A300038BD00BF70B58400063482B005462046EC
:105A40000E46FFF7E9FF2A4600903346044900203E
:105A5000FEF7CEFA204602B0BDE87040FFF7DCBF8B
:105A600018FB0008F8B50546FFF79EFF0746681CBF
:105A700080B2FFF799FF0446A81C80B2FFF794FF9D
:105A80000646E81C80B2FFF78FFF240444EA07644F
:105A9000204340EA0620F8BDF8B50546FFF784FF2D
:105AA0000746681C80B2FFF77FFF0446A81C80B23F
:105AB000FFF77AFF0646E81C80B2FFF775FF240463
:105AC00044EA0764204340EA062000EE100AF8BDCD
:105AD00010B50220FBF7ACF8FAF7ACFD0520FBF798
:105AE00091F8FBF799F80446FAF7AEFD0120FBF7B1
