:020000040800F2
:1000000000800020792F0008BD2F0008BD2F0008B8
:10001000BD2F0008BD2F0008BD2F00080000000004
:10002000000000000000000000000000BD2F0008DC
:10003000BD2F000800000000BD2F0008BD2F0008E4
:10004000BD2F0008BD2F0008BD2F0008BD2F0008E0
:10005000BD2F0008BD2F0008BD2F0008BD2F0008D0
:10006000BD2F0008BD2F0008BD2F0008BD2F0008C0
:10007000BD2F0008BD2F0008BD2F0008BD2F0008B0
:10008000BD2F0008BD2F0008BD2F0008BD2F0008A0
:10009000BD2F0008BD2F000871180008BD2F0008F3
:1000A00000000000BD2F0008BD2F0008BD2F000874
:1000B000BD2F0008BD2F0008590B0008BD2F0008F8
:1000C000BD2F0008BD2F0008BD2F0008BD2F000860
:1000D000BD2F0008BD2F0008810C0008BD2F0008AF
:1000E000BD2F0008BD2F0008BD2F0008BD2F000840
:1000F000810B000800000000BD2F0008BD2F000884
:100100000000000000000000BD2F0008BD2F000807
:10011000BD2F0008BD2F0008BD2F00080000000003
:10012000BD2F0008000000000000000000000000DB
:0C01300000000000000000005FF808F173
:10014000104B10B41968104A41F480711960996815
:100150000E480A409A601A68002422F0885222F061
:1001600001121A601A684FF0006122F480221A60AE
:100170009A6822F47D029A60DC6081605DF8044B2D
:10018000704700BF003802400CC0FF8800ED00E05F
:100190001C4B10B49B6803F00C030C2B16D8DFE843
:1001A00003F01515151507151515071515151F005D
:1001B000154A1648134B16499B685DF8044BC3F368
:1001C000031303441B7BDA400A6070470D4B4FF466
:1001D00000425B680D48C3F3423301339A40E9E7BC
:1001E000084B0A489A680849C2F38342845C9A68BB
:1001F00001FB04F1C2F381520132B1FBF2F29B68C0
:10020000D8E700BF0038024000127A001832000818
:1002100000000020000000002DE9F04F431E83B0D5
:100220008246002400E0013413F8010F2028A0F1D9
:100230000902F8D0012AF6D92B2800F09F802D283A
:1002400000F0A480644B0022CDE90023A0F130032C
:10025000092B4FF000064FF0000700F2B480DFF8E2
:1002600088810AEB040B2625002D05F1FF35A0F14E
:100270003000C5F14B0904F101040DDB02F0A6F8D2
:10028000D8E9002302F008F902460B463046394609
:1002900001F050FF06460F461BF8010FA8F10808B1
:1002A000A0F13003092BDFD92E2808BF01341AF83A
:1002B00004300AEB040BA3F13000C2B2092A1FD8A4
:1002C000464B03EBC508002D04F1010405F1FF3591
:1002D0000DDB02F07BF8D8E9002302F0DDF80246DE
:1002E0000B463046394601F025FF06460F461BF8FF
:1002F000013FA8F10808A3F13000C2B2092AE2D9EF
:1003000003F0DF03452B18D0B9F14B0F0FDC334B53
:10031000304603EBC9093946D9E9002302F0BCF89D
:10032000DDE9002302F0B8F803B0BDE8F08FB9F1C1
:100330004C0F33D000202A49F2E7631C1AF803203F
:100340002B2A35D02D2A38D00121A2F130000928DE
:10035000DAD89A44002303EB830302EB43031AF831
:10036000012F303BA2F130000928F4D903FB019999
:10037000B9F1000FC8DA00200021D1E7164B013493
:1003800000221AF80400CDE900235FE7154B013481
:1003900000221AF80400CDE9002357E70CA3D3E9A3
:1003A00000233046394602F0E9FA0028AFD1C1E710
:1003B000A31C1AF803200121C7E7A31C1AF8032085
:1003C0004FF0FF31C1E74FF0250926256CE700BF4C
:1003D000000000A0FB38FB3F0000F03F4032000867
:1003E0000000F07F0000F0BF70330008AFF3008022
:1003F0002DE9F04F87B0109F119E04468846009269
:1004000033EA230528BF062538463146002200235B
:1004100002F0B4FA002840F012813846314600223A
:10042000002302F0A1FA00283ED1DFF88C92384672
:10043000D9E90023314602F0A1FA002800F0218119
:100440004FF04C0B0EE079E90223384631460BF1B0
:10045000FF3B02F093FA002800F0BE80BBF1000FD2
:1004600000F0FF80B8F1660FEDD1BBF1260FEADC9A
:10047000ABF1260AABF125094D44009AAB1C93421F
:10048000C0F2E380152300931225BBF1000F00F0AA
:10049000BA80854B4FF0010903EBCB0C03934FF06F
:1004A0006508DCE900231EE04FF001094FF0000A67
:1004B0004FF0260BB8F1670FDED0B8F1660FDBD036
:1004C0000135122DA8BF1225B8F1650F00F0D580B7
:1004D000754BC5F1270203EBCB0C4FF001090393D9
:1004E0000092DCE900233846314602F0FFF8039B16
:1004F000009A064603EBC20B0F46DBE9000100221F
:100500006A4B01F0C9FF0B4602463946304601F0FE
:1005100011FE04AA02F054FDDDE9042306460F464D
:10052000104619460022624BCDE9000102F03AFA6A
:1005300050B1DDE900013123237000225C4B01F052
:10054000F7FDCDE904010134002D1BDD4FF0000B58
:10055000CB45DDE904010BF1010B00F0A18002F0B5
:1005600035FA30302070394630460022504B01F0C9
:1005700093FF04AA02F024FDAB4504F101040646F2
:100580000F46E5D1B8F1660F21D06523BAF1000F0F
:10059000237004F10201B4BF2D232B2363700C469A
:1005A000444BB8BFCAF1000A83FB0A034FEAEA7260
:1005B000C2EBA303C3EB4312C3EB82020AF1300A7E
:1005C0000AEB420A303304F8023B81F801A0002311
:1005D000237007B0BDE8F08FB8F1670FABF1260AC2
:1005E000ABF125097FF469AFB9F1060F7FF744AF8E
:1005F0000135122DA8BF1225C5F127030093BBF1C9
:10060000000F7FF446AF284B3846D3E900890393A7
:10061000314642464B4602F0B1F938B338463146CE
:100620000022234B01F038FF6FF0260A42464B466A
:1006300007460E464FF001094FF0650853E72D239A
:10064000237006F100460134E7E6174BC5F1270297
:1006500003EBCB0C039300924FF06608DCE9002318
:1006600041E76FF024096FF0250A23E742464B4625
:100670004FF065084FF0010935E7C5F127030093F6
:1006800003E7B8F1670F06D04FF027094FF0260AAD
:100690004FF04C0B11E74FF0260A4FF04C0BA7E739
:1006A0002E23237001345AE7403200080000E03F57
:1006B0000000244067666666A03400080C4B1946AB
:1006C0001A6A42F400721A621A6842F001021A6051
:1006D0000B68074A9B07FBD5064B9360536823F4CE
:1006E00060435360536843F440435360704700BF16
:1006F0000038024001000001054B064A9A605A6822
:1007000022F460425A605A6842F440425A6070478C
:100710000038024001000001104B114A1946586A86
:1007200040F080505862106840F480701060126889
:100730005A6B42F480725A634B6B084A9B05FBD597
:10074000536B074943F480335363536B43F4800383
:1007500053630B6823F480730B60704700380240CA
:1007600000700040064B1A46196A41F40071196284
:10077000196841F00101196013689B07FCD57047A7
:1007800000380240024A136823F0010313607047E7
:10079000003802400B494B680A4ADB06FBD411467D
:1007A000136823F4C05343F4006313604B6813F0E1
:1007B0001003FBD1044A054953609360D3608B60FA
:1007C000704700BF00700040002004E000000140BE
:1007D000094B01225A611A6822F001021A605A6814
:1007E00042F001025A609A6842F001029A60DA68A7
:1007F00022F00102DA6070470004014008B50E4B98
:100800001A6822F002021A601A6842F001021A60A5
:100810005A6822F001025A601A6842F00C021A600B
:1008200000F0EEF8FFF7D4FF044A136943F0040325
:10083000136120BF08BD00BF0070004000ED00E064
:10084000094B01225A611A6822F001021A605A68A3
:1008500022F001025A609A6822F001029A60DA6876
:1008600022F00102DA6070470004014008B5FFF78A
:10087000E7FF074A136923F004031361FFF772FFD0
:1008800000F0E0F8BDE808400A2000F0E3B900BF3E
:1008900000ED00E0024A136843F4007313607047F0
:1008A00000700040024A136823F40073136070471D
:1008B00000700040044B1A6842F001021A601A6886
:1008C00042F480421A60704700700040044B1A687E
:1008D00022F480421A601A6822F001021A607047FE
:1008E0000070004007494B68064AD806FBD4114601
:1008F000136823F4C05343F4006313604B68DB06B2
:10090000FCD47047007000402DE9F04F4FF0000E0E
:1009100083460F46F446F046F146724685B0002005
:100920000021CDE900010297CDF80CB00299029B9D
:1009300031F8020B4FEA820BC0F3C3101B78C0B230
:10094000ABF120060291CBF1200100FA06F520FA66
:1009500001F103F0030A00FA0BF40D43C3F3810025
:10096000C3F34111C3F300135600934001320AFA56
:1009700006F7B040DDE900ABB1404AEA040A4BEAB1
:10098000050B102ACDE900AB49EA070948EA00083F
:100990004EEA010E4CEA030CC8D1DDF80CB0DDE9DB
:1009A0000001CBF82000CBF82410CBF80090CBF856
:1009B0000880CBF80CE0CBF804C005B0BDE8F08FA0
:1009C0000B4A38B5D3690B4C0B4D43F00303D3618D
:1009D00020462946FFF798FF05F120010748FFF759
:1009E00093FF4FF080624FF00073A261A36138BDA6
:1009F0000038024000000240A83400080004024011
:100A000010B50B4C0B4804F14001FFF77DFF04F1DA
:100A100060010948FFF778FF04F180010748FFF7FC
:100A200073FF04F1A0010648BDE810406CE700BF69
:100A3000A834000800000240000402400008024000
:100A40000014024010B5054C05482146FFF75CFF35
:100A500004F120010348BDE8104055E7A834000820
:100A60000000024000040240024B4FF400729A6101
:100A7000704700BF00000240024B4FF000729A61C5
:100A8000704700BF00000240044B5A6992054CBFFA
:100A90004FF000724FF400729A61704700000240FC
:100AA00010B5054C4FF40073A36100F0D3F84FF07C
:100AB0000073A36110BD00BF00000240024B4FF461
:100AC00080629A61704700BF00000240024B4FF005
:100AD00080629A61704700BF00000240044B5A696F
:100AE00052054CBF4FF080624FF480629A617047AC
:100AF0000000024010B5054C4FF48063A36100F084
:100B0000A9F84FF08063A36110BD00BF0000024050
:100B1000084A09491368002023F4703343F48033F2
:100B2000136048620B684FF4807043F001030B6060
:100B30009061704700040240000C0040054A4FF4E9
:100B40000001136823F4703343F480431360916110
:100B5000704700BF0004024038B5074B074C002522
:100B60001D61236823B9FFF7E9FF0123236038BD26
:100B7000FFF7CEFF256038BD0008004008000020C8
:100B8000114A124B002111611A780132D2B2092A9E
:100B90001A705A7805D901200244D2B219705A70DD
:100BA00098700A2ADA7806D00A2A03D10121002295
:100BB0005971DA70704701200244D2B20021DA7014
:100BC00018715970F0E700BF001400409801002030
:100BD0002DE9F04143F67F66DFF858E01149DEF871
:100BE0002450114A114C124FDFF84CC00123002051
:100BF00045F03C054FF48058CEF824508862CE6210
:100C00004B61CB600B60B8627B61A0626361236063
:100C10009062D6625361D3601360CCF80480BDE863
:100C2000F08100BF000800400014004000100040A8
:100C3000000C00400038024000E100E0044B1A467E
:100C40005B6A184480B2536A1B1A1B04FBD47047BA
:100C50000010004010B409494FF6FF7407E04B6ADA
:100C600003F57A739BB24A6AD21A1204FBD4013894
:100C700080B2A042F3D15DF8044B704700100040F1
:100C8000194A10B41368990606D51849546848687B
:100C90000A68121A7F2A17DD1B0612D5134BD3F8E8
:100CA0008820D3F88C10914216D0D3F888200E48B3
:100CB00002F07F01194491F890100132C3F88820A6
:100CC00041605DF8044B70470A6802F07F000844F9
:100CD000013204720A60DFE7034A5DF8044BD3680F
:100CE00023F08003D360704700440040A00100203F
:100CF0000B4BF0B4B3FBF0F04AF22C07094C0A4B53
:100D0000626A0A4D0021402642F40032C008626245
:100D1000596119619860DF606E60F0BC704700BF78
:100D20000040420F003802400044004000E100E073
:100D30000A2810B5044616D00D48D0F88C20D0F8FB
:100D400088300B49D31A7F2BF9DC02F07F030B4468
:100D5000084883F89040C368013243F08003C1F82B
:100D60008C20C36010BD0D20FFF7E2FFE4E700BF59
:100D7000A00100200044004010B504460078013472
:100D800028B1FFF7D5FF14F8010B0028F9D110BDE9
:100D9000074A11685368994206D003F07F01114455
:100DA0000133087A536070474FF0FF30704700BF3F
:100DB000A0010020044AD2F88C10D2F888308B426F
:100DC000FBD10020704700BFA00100200EB400B589
:100DD00082B003AB53F8041B1A46019300F006F8E7
:100DE00002B05DF804EB03B0704700BF2DE9F04F8F
:100DF0008946934604468DB0039099F8003009F176
:100E0000010253B1252B0ED09146237099F8003082
:100E1000013409F10102002BF4D12370039BE01A85
:100E20000DB0BDE8F08F99F80130302B18BF4FF0AE
:100E3000000E05D112F8013F302BFBD04FF0010E10
:100E4000A3F13001C8B209284FF000060AD812F801
:100E5000013F06EB860601EB4606A3F13001C8B25E
:100E60000928F4D92E2B32D011784FF0FF3501F03C
:100E7000FB03682B04BF51780132A1F1580302F142
:100E80000109202B00F2FD80DFE813F0EA00FB00EF
:100E9000FB00FB00FB00FB00FB00FB00FB00FB007A
:100EA000FB0092003600D400D400D400FB00BC004C
:100EB000FB00FB00FB00FB00FB00FB00AD00FB00A8
:100EC000FB009E00FB003600FB00FB00EA005178AF
:100ED0000025A1F13000C3B2092B02F10102C6D8EE
:100EE00012F8011F05EB850500EB4505A1F1300067
:100EF000C3B2092BF4D9BAE70BF1040364299A466B
:100F00004FF00A00DBF8003000F0B480DFF8BC815D
:100F100000228DF82F20002B00F0CA80DFF8B0C12E
:100F20000DF12F07B3FBF0F200FB12331CF8031096
:100F3000134607F8011D002AF4D16B1C00F0A480B1
:100F4000D3466FF00041384602F030F90246404681
:100F5000AD1A029202F0FCF8029A25EAE57598F8BB
:100F60000030301AA918401A2BB104F8013B18F8C8
:100F7000013F002BF9D1002D00F093802544302350
:100F800004F8013BAC42FBD1002A08DD6B1EBC1803
:100F900017F8011BA74203F8011FF9D115440028D7
:100FA0007DDD2C18202305F8013BA542FAD124E76A
:100FB000DBF800300CAF012107F8203D0BF1040BEA
:100FC0000025DFF80881BEE76A1C0BF10403DBF89B
:100FD000007019BF29469B469B466FF000410025D3
:100FE000DFF8E880AFE70022DBF800308DF82F2033
:100FF0000BF104029246002B5DD0DFF8D080102068
:1010000008258BE7DBF800300BF1040CC3F3074134
:101010001A0E8DE8060004A8DAB22B49C3F30723A1
:10102000E34607460025FFF7D1FEDFF8A0806FF00A
:10103000004188E70BF1070C2CF0070CDCE900AB52
:101040002B46CDE900AB04A820220CF1080B074683
:101050000025FFF7CDF9DFF874806FF0004172E7EB
:101060000BF1040364299A464FF01000DBF80030BE
:101070007FF44CAF002BBFF649AF5B42DFF85480E2
:1010800046E721700134B8E6BEF1000F0BD04046B0
:1010900002F05EF8D346351A6FF0004153E72C4654
:1010A000ABE6254670E7D3466FF0004101254AE7DD
:1010B0000DF12F0741E793466FF0004108250DF130
:1010C0002F07DFF808803EE76C350008203700085E
:1010D00078350008683500080FB410B582B004AB4D
:1010E00053F8041B084C1A4620460193FFF77EFE76
:1010F0002046FFF741FE204602F02AF802B0BDE884
:10110000104004B0704700BFB0020020A0B10EB480
:1011100000B582B004AB1A46039909480193FFF762
:1011200065FE0748FFF728FE054802F011F802B0F7
:101130005DF804EB03B070474FF0FF30704700BF1D
:10114000B003002000232DE9F04F81460F4698465A
:101150008BB0464E00930DF126050DF10604234693
:101160004FF6FF7223F8022FAB42FBD1102F61D84C
:10117000002367B109EB030212F80810581C0AAAF1
:1011800002EB4302C3B2BB4222F8201CF2D301237C
:1011900001939DF8001036480901FFF79DFF0DF1FE
:1011A000060A4FF0000B0AE0FFF796FF0BF1010370
:1011B00055455FFA83FB14D0BBF1080F51D03AF8C4
:1011C000021F2C480FFA81FEBEF1FF3FC9B2EBD1DE
:1011D0002948FFF781FF0BF1010355455FFA83FBB7
:1011E000EAD12648FFF778FF03E0FFF775FFAC422E
:1011F00010D034F8021F2248C9B22A2916D0336809
:101200000B445B7813F0970FEFD11E48FFF764FF94
:10121000AC42EED1009B1C4801330093FFF75CFF0A
:10122000019B002B99D00BB0BDE8F08F1748FFF75A
:1012300053FFDCE708F1FF3308F10F000DF1060260
:101240004B44484413F8011F834222F8021FF9D18E
:10125000103F08F110080023BFB21FFA88F801936D
:1012600097E70B48FFF738FFA9E700BF940100207C
:101270008C35000898350008A0350008A435000812
:10128000A8350008AC350008B035000868350008FE
:101290009435000838B5046805460C49204601F02D
:1012A0005DFD50B120460A4901F058FD00B138BD3E
:1012B0000848BDE83840FFF70FBF0748FFF70CFFAD
:1012C0000648FFF709FF2C68ECE700BFB4350008BB
:1012D0000836000810360008BC350008DC35000868
:1012E0000148FFF7F9BE00BF383600080148FFF794
:1012F000F3BE00BF3C36000830B403782D2B18D065
:10130000002211460125825CA2F13004092C15D877
:101310000144002303EB830302EB430311F8012F85
:10132000303BA2F13004092CF4D903FB05F030BCAA
:101330007047012211464FF0FF35E4E70020F6E741
:1013400030B403782D2B18D0002211460125825C81
:10135000A2F13004092C15D80144002303EB8303C8
:1013600002EB430311F8012F303BA2F13004092CAA
:10137000F4D903FB05F030BC7047012211464FF051
:10138000FF35E4E70020F6E730B10378202B03D1E6
:1013900010F8013F202BFBD0704700BF10B32DE9A0
:1013A000F041002588462F460E1F03780446202B67
:1013B00003D114F8013F202BFBD05BB12046202144
:1013C00001F060FE48B10770013005F1010546F8F3
:1013D000044FEAD12846BDE8F08148F82540681C52
:1013E000BDE8F081704700BF08B1084652E770477A
:1013F00008B50448FFF770FEBDE808400248FFF753
:101400006BBE00BFBC350008DC3500080148FFF7A3
:1014100063BE00BF1036000838B5FFF7B9FC041EE4
:101420001ADB1D482146FFF757FE0A2C1CD00D2C55
:101430001AD0082C11D07F2C0FD0184B1B682344D6
:101440005B7813F0970F07D0154A1378190603D469
:101450001448591CC454117038BD114A1378002B1C
:10146000FAD0013B137038BD0F48FFF735FE0C4B27
:101470000C4C1D78002220460C491A706255FFF76B
:101480008DFF0B4B186010B10848FFF703FFBDE854
:1014900038400848FFF720BEA83500089401002016
:1014A0007C04002080040020B03500085004002097
:1014B000780400203C3600080B4A70B4D4690B4B0A
:1014C0000B4D44F08074D46100264FF42A64D26935
:1014D0001E609D60D86059601C601A6870BC42F044
:1014E00001021A60704700BF0038024008600240E5
:1014F00058240140024A136843F001031360704707
:10150000086002400549064A0B6823F001030B609E
:10151000D36923F08073D361704700BF0860024035
:101520000038024010B5104C1048FFF7D5FD216877
:101530000F48FFF7D1FD61680E48FFF7CDFD0E485B
:10154000FFF7CAFDA1680D48FFF7C6FDE1680C482A
:10155000FFF7C2FD21690B48FFF7BEFD61690A482C
:10156000BDE81040FFF7B8BD0060024040360008FB
:101570005C360008743600088C360008AC3600086B
:10158000C4360008DC360008F4360008F0B50A4915
:101590000A4B0A6A0A4F0B4E0B4D0C4C42F4007278
:1015A0004FF4003E00200A62C7F804E0DE601D61CF
:1015B0005C619860F0BD00BF00380240002401402B
:1015C00000270140972449129224493A9224491253
:1015D00010B50F4A0F4C0023126823632364A368DD
:1015E000322043F00103A360FFF734FB2146A368D8
:1015F00043F08043A3600B68064A9B07FBD5044970
:101600000023906D93600B6823F003030B6010BD03
:10161000000002400024014010B5204C2048FFF794
:101620005BFD21681F48FFF757FD61681E48FFF703
:1016300053FDA1681D48FFF74FFDE1681C48FFF707
:101640004BFD21691B48FFF747FD61691A48FFF709
:1016500043FD216B1948FFF73FFD616B1848FFF709
:101660003BFDA16B1748FFF737FDE16B1648FFF70D
:1016700033FD216C1548FFF72FFDA16D1448FFF7CE
:101680002BFDD4F800131348FFF726FDD4F80413FC
:101690001148BDE81040FFF71FBD00BF0024014006
:1016A0000C37000824370008383700084C3700088A
:1016B0006037000874370008883700089C37000836
:1016C000B0370008C4370008D8370008EC370008E6
:1016D0000038000814380008283800080A480B4B66
:1016E000426A0B4970B442F0004203264FF4803541
:1016F0004FF400344262DE608D618C615A6870BCC8
:1017000022F000425A60704700380240047C0040DA
:1017100000000240054A4FF480339361136823F0C0
:10172000030343F001031360704700BF0000024051
:10173000024A136823F0030313607047000002405D
:10174000054A4FF400339361136823F00C0343F010
:1017500004031360704700BF00000240024A136890
:1017600023F00C031360704700000240044A022378
:101770009361136823F00C0343F004031360704774
:10178000000002402DE9F041354D364E2F462B68C2
:10179000354C82B0072BFDD8DFE803F00408202B7E
:1017A00033373B430122002385E80C004FF480339C
:1017B000A36123684FF4003223F0030343F00103D5
:1017C0002360A26123684FF4FA7023F00C0343F006
:1017D00004032360FFF732FA02232B6023680A20F8
:1017E00023F003032360236823F00C032360FFF737
:1017F00025FA0223A361236823F00C0343F00403BA
:101800002360236823F00C03236003220623726005
:101810002B602369DB070ED50123AB6007232B6008
:10182000B8E7AA6800237360DFF834803AB902226F
:1018300013463A60AEE76B6801336B60EEE7D8F8A9
:1018400004100A480A460193FFF746FC019BC8F8BA
:101850000830C8F80430C8F8003002B0BDE8F081A4
:1018600040040020047C0040000002403C38000896
:101870000A4A08B54FF48001094B51611A680949B9
:1018800022F001021A605B6A18460B6000F050F803
:10189000054B1860BDE80840FFF7EEB800040140B2
:1018A000000C0040100500200C0500200F48104BD4
:1018B000426A4FF4800142F0004230B44262596102
:1018C0001A680C4C0A431A605A680B4822F48002CA
:1018D0005A609A684FF480250A439A60DA6822F4C5
:1018E0008002DA602560016030BC70470038024039
:1018F00000040140007C004000E100E0074A084B82
:1019000010B510681C6800F073FD02460B460548D0
:101910002146BDE81040FFF7DFBB00BF0C050020EB
:101920001005002048380008704700BF704700BF0E
:101930002DE9F84F00F03AFDEA4C8046E068894610
:1019400000F056FD02460B464046494600F0A4FD15
:10195000D4F820A006460F465046A16801F0AEF824
:1019600000F046FD02460B463046394600F0E2FBE9
:1019700006460F466068616A01F0A0F800F038FD85
:1019800002460B463046394600F0D4FB0646E06975
:101990000F4600F02DFD02460B463046394600F05A
:1019A0007BFDE56A06460F462846A16901F086F8E8
:1019B00000F01EFD02460B463046394600F0B8FBEB
:1019C00006460F466069216B01F078F800F010FDC3
:1019D00002460B463046394600F0AAFBC4F824A064
:1019E00006460F464046494601F018F8394620623F
:1019F0002563304601F012F88146606CC4F82C90E3
:101A0000D4F85880656E00F0F3FC02460B46304671
:101A1000394600F041FD06460F464046216C01F074
:101A20004DF800F0E5FC02460B463046394600F022
:101A300081FB06460F46E06BE16D01F03FF800F0D8
:101A4000D7FC02460B463046394600F073FB06468B
:101A5000606D0F4600F0CCFC02460B46304639461E
:101A600000F01AFD06460F462846216D01F026F8C3
:101A700000F0BEFC02460B463046394600F058FBEB
:101A800006460F46E06CA16E01F018F800F0B0FCBD
:101A900002460B463046394600F04AFBC4F85890DF
:101AA000C4F85C80A5668B46824600F0B7FF074607
:101AB000E06F676600F09CFC02460B4650465946B4
:101AC00000F0EAFCD4F89060804689463046A16F69
:101AD00000F0F4FF00F08CFC02460B4640464946FD
:101AE00000F028FBD4F89C5080468946606FD4F8FB
:101AF000941000F0E3FF00F07BFC02460B464046EA
:101B0000494600F017FB8046D4F88C00894600F067
:101B10006FFC02460B464046494600F0BDFC80463D
:101B200089462846D4F8881000F0C8FF00F060FC11
:101B300002460B464046494600F0FAFA804689467E
:101B4000D4F88400D4F8A01000F0B8FF00F050FCE6
:101B500002460B464046494600F0EAFAC4F8907047
:101B6000C4F89460C4F8A0508946804600F056FF3F
:101B70000746D4F8B400C4F89C7000F039FC024663
:101B80000B464046494600F087FCD4F8C8608046C2
:101B900089463046D4F8B01000F090FF00F028FCE1
:101BA00002460B464046494600F0C4FA8046894644
:101BB000D4F8AC00D4F8CC1000F080FF00F018FC92
:101BC00002460B464046494600F0B4FA8046D4F837
:101BD000C400D4F8D450894600F00AFC02460B46F3
:101BE0004046494600F058FC804689462846D4F8CD
:101BF000C01000F063FF00F0FBFB02460B464046BE
:101C0000494600F095FA80468946D4F8BC00D4F8DD
:101C1000D81000F053FF00F0EBFB02460B464046A5
:101C2000494600F085FAC4F8C870C4F8CC60C4F81E
:101C3000D8508946804600F0F1FE0646D4F8EC0004
:101C4000C4F8D46000F0D4FB02460B464046494637
:101C500000F022FCD4F80051804689462846D4F88A
:101C6000E81000F02BFF00F0C3FB02460B46404695
:101C7000494600F05FFA80468946D4F8E400D4F87B
:101C8000041100F01BFF00F0B3FB02460B46404678
:101C9000494600F04FFA8046D4F8FC00894600F02F
:101CA000A7FB02460B464046494600F0F5FBD4F838
:101CB0000C71804689463846D4F8F81000F0FEFED4
:101CC00000F096FB02460B464046494600F030FACB
:101CD00080468946D4F8F400D4F8101100F0EEFEE6
:101CE00002E000BF0C00002000F082FB02460B4621
:101CF0004046494600F01CFAC4F80061C4F804519B
:101D0000C4F810718946804600F088FE0546D4F874
:101D10002401C4F80C5100F06BFB02460B46404610
:101D2000494600F0B9FBD4F8386180468946304610
:101D3000D4F8201100F0C2FE00F05AFB02460B4618
:101D40004046494600F0F6F980468946D4F81C0121
:101D5000D4F83C1100F0B2FE00F04AFB02460B46FC
:101D60004046494600F0E6F98046D4F834018946F9
:101D700000F03EFB02460B464046494600F08CFB15
:101D8000D4F84471804689463846D4F8301100F0C2
:101D900095FE00F02DFB02460B464046494600F0FA
:101DA000C7F980468946D4F82C01D4F8481100F0D0
:101DB00085FE00F01DFB02460B464046494600F0FA
:101DC000B7F9C4F83C61C4F83851C4F84871894681
:101DD000804600F023FE0646D4F85C01C4F8446156
:101DE00000F006FB02460B464046494600F054FB15
:101DF000D4F87051804689462846D4F8581100F02E
:101E00005DFE00F0F5FA02460B464046494600F0FA
:101E100091F980468946D4F85401D4F8741100F041
:101E20004DFE00F0E5FA02460B464046494600F0FA
:101E300081F98046D4F86C01894600F0D9FA02464F
:101E40000B464046494600F027FBD4F87C7180469B
:101E500089463846D4F8681100F030FE00F0C8FA20
:101E600002460B464046494600F062F980468946E4
:101E7000D4F86401D4F8801100F020FE00F0B8FA24
:101E800002460B464046494600F052F9C4F87061DC
:101E9000C4F87451C4F8807100F0C0FDC4F87C012E
:101EA000BDE8F88F2DE9F84F0446C0699046994681
:101EB00000F09EFA8246E0688B4600F099FA0246EE
:101EC0000B464046494600F0E7FA256A06460F46AB
:101ED0002846A16800F0F2FD00F08AFA02460B469F
:101EE0003046394600F026F906460F466068616ABA
:101EF00000F0E4FD00F07CFA02460B46304639461D
:101F000000F018F902460B465046594600F0C4FA54
:101F1000D4F82CA006460F465046A16900F0CEFD2D
:101F200000F066FA02460B463046394600F000F9EA
:101F300006460F466069216B00F0C0FD00F058FABC
:101F400002460B463046394600F0F2F86562064616
:101F50000F464046494600F061FD39462062C4F80C
:101F600030A0304600F05AFD3946E0623046BDE808
:101F7000F88F00BF2DE9F0470446C06916461F469A
:101F800000F036FA02460B463046394600F084FA35
:101F9000256A06460F462846A16900F08FFD00F02D
:101FA00027FA02460B463046394600F0C1F8D4F80D
:101FB00024A006460F465046616900F07FFD00F000
:101FC00017FA02460B463046394600F0B1F806468D
:101FD0000F46E06800F00CFA32463B4600F05CFA2F
:101FE000804689462846A16800F068FD00F000FAA6
:101FF00002460B464046494600F09CF8804689461A
:102000005046616800F05AFD00F0F2F902460B46B6
:102010004046494600F08EF8656280468946304663
:10202000394600F0FBFC494620624046BDE8F08797
:1020300084B008B50DF1080E8EE80F00099800F085
:10204000D7F902460B462848FFF746F8089800F0F3
:10205000CFF902460B462548FFF73EF8079800F0F7
:10206000C7F902460B462248FFF736F8059800F0FC
:10207000BFF902460B461F48FFF72EF8049800F000
:10208000B7F902460B461C48FFF726F8039800F004
:10209000AFF902460B461948FFF71EF80A9800F000
:1020A000A7F902460B461648FFF716F80B9800F002
:1020B0009FF902460B461348FFF70EF80D9800F003
:1020C00097F902460B461048FFF706F80E9800F005
:1020D0008FF902460B460D48FEF7FEFFBDE80840AB
:1020E0000B4804B0FEF7F8BF5838000868380008FD
:1020F000783800088838000898380008A8380008A0
:10210000B8380008C8380008D8380008E83800088F
:10211000F8380008003A000800000020980100206C
:10212000980100201405002081F0004102E000BF6A
:1021300083F0004330B54FEA41044FEA430594EA87
:10214000050F08BF90EA020F1FBF54EA000C55EAC2
:10215000020C7FEA645C7FEA655C00F0E2804FEA93
:102160005454D4EB5555B8BF6D420CDD2C4480EA75
:10217000020281EA030382EA000083EA010180EAA5
:10218000020281EA0303362D88BF30BD11F0004FF3
:102190004FEA01314FF4801C4CEA113102D0404229
:1021A00061EB410113F0004F4FEA03334CEA133364
:1021B00002D0524263EB430394EA050F00F0A7807C
:1021C000A4F10104D5F1200E0DDB02FA0EFC22FA77
:1021D00005F2801841F1000103FA0EF2801843FA6B
:1021E00005F359410EE0A5F120050EF1200E012A5C
:1021F00003FA0EFC28BF4CF0020C43FA05F3C0189A
:1022000051EBE37101F0004507D54FF0000EDCF112
:10221000000C7EEB00006EEB0101B1F5801F1BD3BB
:10222000B1F5001F0CD349085FEA30004FEA3C0CBF
:1022300004F101044FEA445212F5800F80F09A80B5
:10224000BCF1004F08BF5FEA500C50F1000041EBB9
:10225000045141EA050130BD5FEA4C0C404141EBBD
:10226000010111F4801FA4F10104E9D191F0000FE4
:1022700004BF01460020B1FA81F308BF2033A3F167
:102280000B03B3F120020CDA0C3208DD02F1140C5E
:10229000C2F10C0201FA0CF021FA02F10CE002F199
:1022A0001402D8BFC2F1200C01FA02F120FA0CFC92
:1022B000DCBF41EA0C019040E41AA2BF01EB0451DB
:1022C000294330BD6FEA04041F3C1CDA0C340EDCD9
:1022D00004F11404C4F1200220FA04F001FA02F31C
:1022E00040EA030021FA04F345EA030130BDC4F1DA
:1022F0000C04C4F1200220FA02F001FA04F340EACF
:102300000300294630BD21FA04F0294630BD94F07F
:10231000000F83F4801306BF81F480110134013D66
:102320004EE77FEA645C18BF7FEA655C29D094EAD7
:10233000050F08BF90EA020F05D054EA000C04BF55
:102340001946104630BD91EA030F1EBF0021002040
:1023500030BD5FEA545C05D14000494128BF41F0DF
:10236000004130BD14F580043CBF01F5801130BD43
:1023700001F0004545F0FE4141F470014FF00000CE
:1023800030BD7FEA645C1ABF194610467FEA655C7F
:102390001CBF0B46024650EA013406BF52EA033521
:1023A00091EA030F41F4002130BD00BF90F0000F0F
:1023B00004BF0021704730B54FF4806404F132044B
:1023C0004FF000054FF0000150E700BF90F0000F04
:1023D00004BF0021704730B54FF4806404F132042B
:1023E00010F0004548BF40424FF000013EE700BFFB
:1023F00042004FEAE2014FEA31014FEA02701FBF8B
:1024000012F07F4393F07F4F81F06051704792F05C
:10241000000F14BF93F07F4F704730B54FF46074D6
:1024200001F0004521F0004120E700BF50EA010221
:1024300008BF704730B54FF000050AE050EA0102CE
:1024400008BF704730B511F0004502D5404261EB3E
:1024500041014FF4806404F132045FEA915C3FF47F
:10246000DCAE4FF003025FEADC0C18BF03325FEA18
:10247000DC0C18BF033202EBDC02C2F1200300FACD
:1024800003FC20FA02F001FA03FE40EA0E0021FAF2
:1024900002F11444C1E600BF70B54FF0FF0C4CF4DC
:1024A000E06C1CEA11541DBF1CEA135594EA0C0F92
:1024B00095EA0C0F00F0DEF82C4481EA030621EACD
:1024C0004C5123EA4C5350EA013518BF52EA033508
:1024D00041F4801143F4801338D0A0FB02CE4FF0BA
:1024E0000005E1FB02E506F00042E0FB03E54FF0EA
:1024F0000006E1FB03569CF0000F18BF4EF0010EE2
:10250000A4F1FF04B6F5007F64F5407404D25FEADD
:102510004E0E6D4146EB060642EAC62141EA555190
:102520004FEAC52040EA5E504FEACE2EB4F1FD0CD2
:1025300088BFBCF5E06F1ED8BEF1004F08BF5FEA50
:10254000500E50F1000041EB045170BD06F0004602
:1025500046EA010140EA020081EA0301B4EB5C04AF
:10256000C2BFD4EB0C0541EA045170BD41F48011A7
:102570004FF0000E013C00F3AB8014F1360FDEBFCC
:10258000002001F0004170BDC4F10004203C35DAA8
:102590000C341BDC04F11404C4F1200500FA05F32B
:1025A00020FA04F001FA05F240EA020001F00042CC
:1025B00021F0004110EBD37021FA04F642EB060142
:1025C0005EEA430E08BF20EAD37070BDC4F10C046C
:1025D000C4F1200500FA04F320FA05F001FA04F230
:1025E00040EA020001F0004110EBD37041F100011C
:1025F0005EEA430E08BF20EAD37070BDC4F1200527
:1026000000FA05F24EEA020E20FA04F301FA05F28E
:1026100043EA020321FA04F001F0004121FA04F236
:1026200020EA020000EBD3705EEA430E08BF20EA06
:10263000D37070BD94F0000F0FD101F00046400040
:1026400041EB010111F4801F08BF013CF7D041EAC2
:10265000060195F0000F18BF704703F000465200C6
:1026600043EB030313F4801F08BF013DF7D043EA97
:102670000603704794EA0C0F0CEA135518BF95EA4D
:102680000C0F0CD050EA410618BF52EA4306D1D1D4
:1026900081EA030101F000414FF0000070BD50EAF3
:1026A000410606BF1046194652EA430619D094EA7D
:1026B0000C0F02D150EA013613D195EA0C0F05D167
:1026C00052EA03361CBF104619460AD181EA0301BB
:1026D00001F0004141F0FE4141F470014FF0000073
:1026E00070BD41F0FE4141F4780170BD70B54FF00E
:1026F000FF0C4CF4E06C1CEA11541DBF1CEA13558E
:1027000094EA0C0F95EA0C0F00F0A7F8A4EB05046F
:1027100081EA030E52EA03354FEA013100F0888066
:102720004FEA03334FF0805545EA131343EA12632F
:102730004FEA022245EA111545EA10654FEA0026E4
:102740000EF000419D4208BF964244F1FD0404F59D
:10275000407402D25B084FEA3202B61A65EB0305F9
:102760005B084FEA32024FF480104FF4002CB6EBB6
:10277000020E75EB030E22BFB61A754640EA0C0036
:102780005B084FEA3202B6EB020E75EB030E22BF76
:10279000B61A754640EA5C005B084FEA3202B6EBB7
:1027A000020E75EB030E22BFB61A754640EA9C0076
:1027B0005B084FEA3202B6EB020E75EB030E22BF46
:1027C000B61A754640EADC0055EA060E18D04FEA04
:1027D000051545EA16754FEA06164FEAC30343EAA4
:1027E00052734FEAC2025FEA1C1CC0D111F4801F71
:1027F0000BD141EA00014FF000004FF0004CB6E76A
:1028000011F4801F04BF01430020B4F1FD0C88BF08
:10281000BCF5E06F3FF6AFAEB5EB030C04BFB6EB13
:10282000020C5FEA500C50F1000041EB045170BD06
:102830000EF0004E4EEA113114EB5C04C2BFD4EB33
:102840000C0541EA045170BD41F480114FF0000EB7
:10285000013C90E645EA060E8DE60CEA135594EA33
:102860000C0F08BF95EA0C0F3FF43BAF94EA0C0F36
:102870000AD150EA01347FF434AF95EA0C0F7FF4AB
:1028800025AF104619462CE795EA0C0F06D152EAFF
:1028900003353FF4FDAE1046194622E750EA4106E3
:1028A00018BF52EA43067FF4C5AE50EA41047FF4F4
:1028B0000DAF52EA43057FF4EBAE12E74FF0FF3C59
:1028C00006E000BF4FF0010C02E000BF4FF0010C2A
:1028D0004DF804CD4FEA410C7FEA6C5C4FEA430CA3
:1028E00018BF7FEA6C5C1BD001B050EA410C0CBFF2
:1028F00052EA430C91EA030F02BF90EA020F002054
:10290000704710F1000F91EA030F58BF994208BFBA
:1029100090422CBFD8176FEAE37040F00100704777
:102920004FEA410C7FEA6C5C02D150EA013C07D1CE
:102930004FEA430C7FEA6C5CD6D152EA033CD3D019
:102940005DF8040B704700BF8446104662468C4613
:102950001946634600E000BF01B5FFF7B7FF002846
:1029600048BF10F1000F01BD4DF808EDFFF7F4FF6F
:102970000CBF012000205DF808FB00BF4DF808EDFA
:10298000FFF7EAFF34BF012000205DF808FB00BF1D
:102990004DF808EDFFF7E0FF94BF012000205DF83F
:1029A00008FB00BF4DF808EDFFF7CEFF94BF0120F4
:1029B00000205DF808FB00BF4DF808EDFFF7C4FFED
:1029C00034BF012000205DF808FB00BF4FEA410240
:1029D00012F5001215D211D56FF47873B3EB625271
:1029E00012D94FEAC12343F0004343EA505311F098
:1029F000004F23FA02F018BF404270474FF000002A
:102A0000704750EA013005D111F0004008BF6FF067
:102A1000004070474FF00000704700BF4FEA41028E
:102A2000B2F1E04324BFB3F5001CDCF1FE5C0DD92C
:102A300001F0004C4FEAC0024CEA5070B2F1004F76
:102A400040EB830008BF20F00100704711F0804F79
:102A500021D113F13872BCBF01F00040704741F43E
:102A600080114FEA5252C2F11802C2F1200C10FA42
:102A70000CF320FA02F018BF40F001004FEAC12326
:102A80004FEAD32303FA0CFC40EA0C0023FA02F3CA
:102A90004FEA4303CCE77FEA625307D150EA0133A0
:102AA0001EBF4FF0FE4040F44000704701F0004070
:102AB00040F0FE4040F40000704700BF4FF0FF0CB4
:102AC0001CEAD0521EBF1CEAD15392EA0C0F93EAC3
:102AD0000C0F6FD01A4480EA010C400218BF5FEA65
:102AE00041211ED04FF0006343EA501043EA5111D8
:102AF000A0FB01310CF00040B1F5000F3EBF4900D2
:102B000041EAD3715B0040EA010062F17F02FD2AD5
:102B10001DD8B3F1004F40EBC25008BF20F00100B8
:102B2000704790F0000F0CF0004C08BF49024CEACF
:102B3000502040EA51207F3AC2BFD2F1FF0340EA61
:102B4000C250704740F400004FF00003013A5DDCD2
:102B500012F1190FDCBF00F000407047C2F1000213
:102B6000410021FA02F1C2F1200200FA02FC5FEA00
:102B7000310040F1000053EA4C0308BF20EADC704A
:102B8000704792F0000F00F0004C02BF400010F4BC
:102B9000000F013AF9D040EA0C0093F0000F01F069
:102BA000004C02BF490011F4000F013BF9D041EA8B
:102BB0000C018FE70CEAD15392EA0C0F18BF93EA8D
:102BC0000C0F0AD030F0004C18BF31F0004CD8D1B7
:102BD00080EA010000F00040704790F0000F17BF3E
:102BE00090F0004F084691F0000F91F0004F14D084
:102BF00092EA0C0F01D142020FD193EA0C0F03D1DC
:102C00004B0218BF084608D180EA010000F00040DE
:102C100040F0FE4040F40000704740F0FE4040F4B9
:102C2000400070474FF0FF0C1CEAD0521EBF1CEA58
:102C3000D15392EA0C0F93EA0C0F69D0A2EB030276
:102C400080EA010C49024FEA402037D04FF0805310
:102C500043EA111143EA10130CF000408B4238BFD5
:102C60005B0042F17D024FF4000C8B4224BF5B1AE3
:102C700040EA0C00B3EB510F24BFA3EB510340EA31
:102C80005C00B3EB910F24BFA3EB910340EA9C00DF
:102C9000B3EBD10F24BFA3EBD10340EADC001B014F
:102CA00018BF5FEA1C1CE0D1FD2A3FF650AF8B42F3
:102CB00040EBC25008BF20F0010070470CF0004C00
:102CC0004CEA50207F32C2BFD2F1FF0340EAC2502B
:102CD000704740F400004FF00003013A37E792F0EC
:102CE000000F00F0004C02BF400010F4000F013A4A
:102CF000F9D040EA0C0093F0000F01F0004C02BF45
:102D0000490011F4000F013BF9D041EA0C0195E7AD
:102D10000CEAD15392EA0C0F08D142027FF47DAF46
:102D200093EA0C0F7FF470AF084676E793EA0C0F36
:102D300004D14B023FF44CAF08466EE730F0004C34
:102D400018BF31F0004CCAD130F000427FF45CAFC4
:102D500031F000437FF43CAF5FE700BF80EA010C35
:102D60001CF0030F37D110F0030C20F0030021F00A
:102D7000030150F8042B08BF51F8043B0ED08CF02F
:102D8000030C6FF07F434FEACC0C23FA0CFC51F894
:102D9000043B42EA0C0243EA0C0300BFA2F1013CEF
:102DA0009A4201BF2CEA020C1CF0803F50F8042B21
:102DB00051F8043BF2D04FEA02604FEA1222012898
:102DC00028BFB0EB036F08BF1B0AF4D003F0FF036A
:102DD000000EC01A704710F0030F0AD010F8012B34
:102DE00011F8013B012A28BF9A42F4D0A2EB03005C
:102DF00070474DF8045D50F8042B01F0030521F0F5
:102E0000030151F8043B022D26D04DD822F07F4516
:102E1000B5EB132FA2F1013C2CEA020C0DD11CF0F2
:102E2000803C08BF51F8043B0AD185EA0205B5EBA6
:102E3000036F0CD150F8042BE8E74FEA13235BE053
:102E40003CF07F4C54D10B784FEA126554E04FEAC6
:102E5000126503F0FF034FE04FEA0245A2F1013C87
:102E60004FEA15452CEA020CB5EB134F18D11CF0B4
:102E7000803C08BF51F8043B07D185EA0205B5EB59
:102E8000034F09D150F8042BE6E75FEA0C4C2FD131
:102E90000B884FEA12452FE04FEA03434FEA1245F1
:102EA0004FEA134328E000BF02F0FF05B5EB136FB4
:102EB000A2F1013C2CEA020C0DD11CF0803C08BFB1
:102EC00051F8043B0AD185EA0205B5EB032F0AD17C
:102ED00050F8042BE8E74FEA13630DE012F0FF0F00
:102EE00006D051F8043B4FEA122523F07F4303E05C
:102EF0004FF0000020BC704705F0FF0203F0FF0018
:102F0000012828BF904204BF2D0A1B0AF4D0A2EB6F
:102F1000000020BC704700BF80B5154D154CFDF773
:102F2000CDFBFDF755FEFDF74BFD4FF4E130FDF70E
:102F3000DFFE2F46FEF72AFBA046FDF72BFCFEF72F
:102F4000CDFBFEF7F1FCFEF761FA0026FEF764FA0E
:102F50002B7803B13E702378002BF7D00A20FDF7C1
:102F6000C9FDFEF70FFC002388F80030EDE700BF35
:102F70009C0100209D010020002103E00A4B5B58CA
:102F80004350043109480A4B42189A42F6D3094A81
:102F900002E0002342F8043B074B9A42F9D3FDF7C5
:102FA000CFF8FFF7B9FF7047003A00080000002093
:102FB000980100209801002014050020FEE7000081
:102FC0002DE9F843C1F30A57A7F2FF35132D0B463D
:102FD0000446864613DC002D47DB294F47FA05F5EA
:102FE00005EA010757EA000E1ED12046194603F0F4
:102FF0000045C2E9000170462946BDE8F883332D3B
:103000001EDCA7F213474FF0FF35FD4015EA00071D
:1030100021D0894620EA0508C2E900890B464246CC
:10302000FFF786F8BDE8F8834FF0000821EA0509AC
:10303000C2E900894B464246FFF77AF8BDE8F883BB
:1030400020461946002403F00045C2E9000120464D
:103050002946BDE8F8832046194603F00045C2E939
:10306000000138462946BDE8F883002003F00041FE
:1030700006460F4620461946C2E90067BDE700BF75
:10308000FFFF0F00C9B270B4002933D0850710D0FC
:103090000378002B59D0994218BF431C06D127E072
:1030A00013F8012B002A4DD0914221D09A071846DF
:1030B000F6D141EA0126036846EA064601E050F8E7
:1030C000043F83EA0605A5F10134A3F1013224EAA5
:1030D000050422EA0303234313F0803FEFD0037873
:1030E00023B932E010F8013F002B2ED09942F9D1DC
:1030F00070BC704784070BD00378002BF8D0431CBA
:1031000003E002780133002AF2D099071846F8D17B
:103110000268A2F1013323EA020313F0803F08D1D1
:1031200050F8042FA2F1013323EA020313F0803F89
:10313000F6D00378002BDBD010F8013F002BFBD139
:1031400070BC7047104670BC7047184670BC704722
:1031500020F0030110F00300C0F1000051F8043B1F
:1031600000F1040C4FEACC0C6FF000021CBF22FAF5
:103170000CF213434FF0010C4CEA0C2C4CEA0C4CB3
:10318000A3EB0C0222EA030212EACC1204BF51F8AC
:10319000043B0430F4D0C2F1000102EA0102B2FAA9
:1031A00082F2C2F11F0200EBD200704799B103789E
:1031B0009BB110B40144431C02E01C78013334B1CC
:1031C0008B421A46F9D1181A5DF8044B7047101A51
:1031D0005DF8044B7047084670471846704700BFBB
:1031E0001000000000000000017A5200027C0E0175
:1031F0001B0C0D00200000001800000060FBFFFF0A
:10320000BA01000000024D0E048501027F0A41C58B
:083210000E00410B4EC50E003B
:10321800030406080C10182030000000000000000D
:10322800000000000102030406070809000000006E
:10323800010203040000000000000080FB380B3886
:10324800000000409D034138000000A08444753808
:10325800000000C0A595AA38000000A0879DE038AE
:1032680000000080E9C41439000000E023F6493961
:1032780000000060D6398039000000004C48B4399D
:10328800000000005F5AE939000000C0F6B01F3A9C
:10329800000000409ACE533A000000C040C2883A6D
:1032A80000000000D1F2BE3A000000A0C257F33A75
:1032B80000000040B32D283B0000002020395E3B71
:1032C80000000000B4E3923B00000000A19CC73B53
:1032D80000000040C983FD3B000000E05D72323C05
:1032E80000000040F50E673C000000A0B2D29C3CF4
:1032F800000000A0AF03D23C000000809B84063D84
:1033080000000060C2253C3D000000809997713D97
:10331800000000E07FFDA53D000000E0DF7CDB3D14
:10332800000000E00B2E113E000000E08E79453EC3
:10333800000000A0F2D77A3E000000A0F7C6B03E19
:1033480000000080B5F8E43E000000E0E2361A3FD5
:10335800000000E04D62503F00000040E17A843FE9
:10336800000000A09999B93F000000000000F03F5C
:103378000000000000002440000000000000594048
:103388000000000000408F40000000000088C3409B
:1033980000000000006AF8400000000080842E4110
:1033A80000000000D01263410000000084D797415C
:1033B8000000000065CDCD41000000205FA0024262
:1033C800000000E076483742000000A0941A6D42E1
:1033D800000000E09C30A24200000020C4BCD6429D
:1033E80000000020F56B0C430000004079C3414306
:1033F8000000008057347643000000606DC1AB4385
:1034080000000060E458E143000000801DAF15444F
:10341800000000E0E41A4B4400000000CFF08044B4
:10342800000000C0022DB544000000804378EA4443
:10343800000000202A8B2045000000C0F4AD544550
:10344800000000E071D9894500000020E727C04549
:1034580000000000E131F44500000040593E2946D3
:1034680000000080EF8D5F46000000C0B5B89346AD
:1034780000000020E3A6C846000000E09BD0FE46FE
:103488000000008061423347000000C0F91268471D
:1034980000000040B8179E4700000020D3CED24756
:1034A80008000800AA03AA030300400040004000E7
:1034B8000A0001000100110040000A000A00010092
:1034C80020002100400003004000030040001100DC
:1034D8000100010082038203010003000300400091
:1034E80020004300A203230043004300430043009D
:1034F80043004300030043004300400040004300F2
:1035080023002300430043004300430043004300DB
:10351800430043000300030043000300030043008B
:103528000000000000000000000000000000000093
:1035380000000000000000000000430043004300BA
:1035480043004300000000000000000000000000ED
:103558000000000000000000000000000000000063
:103568002D00000025642E25642E25642E25640078
:1035780030313233343536373839616263646566E1
:103588000000000023307825303478202D200000FA
:1035980025303278200000002D2D20003A20000030
:1035A800256300002E0000000A00000068656C70AA
:1035B8000000000068656C7020202020202020205A
:1035C8002020202020203A20746869732068656CC8
:1035D800700A000076657273696F6E2020202020C3
:1035E8002020202020203A2076657273696F6E2093
:1035F800696E666F726D6174696F6E0A0000000013
:1036080076657273696F6E00232D204D4F495354B0
:103618004552202D2076302E31202D204D617920E5
:1036280031302032303232202D207262202D0A00B3
:103638000A3E00003E0000002D2D20636F6D6D6F67
:103648006E20444D412072656769737465727320FA
:103658002D2D0A00444D415F49535220202020203F
:103668002020203A202530386C780A00444D415FEC
:1036780049464352202020202020203A2025303857
:103688006C780A002D2D20444D4131204368616E2D
:103698006E656C3120726567697374657273202D6D
:1036A8002D0A0000444D41315F4348315F43435286
:1036B8002020203A202530386C780A00444D4131CA
:1036C8005F4348315F434E445452203A20253038F6
:1036D8006C780A00444D41315F4348315F435041A3
:1036E8005220203A202530386C780A00444D413168
:1036F8005F4348315F434D415220203A20253038FE
:103708006C780A002D2D2041444320726567697347
:1037180074657273202D2D0A000000004144433166
:103728005F5352202020203A202530386C780A0038
:10373800414443315F4352312020203A202530381C
:103748006C780A00414443315F4352322020203ACA
:10375800202530386C780A00414443315F534D507E
:103768005231203A202530386C780A0041444331E0
:103778005F534D505232203A202530386C780A0079
:10378800414443315F534D505233203A202530385D
:103798006C780A00414443315F5351523120203A3A
:1037A800202530386C780A00414443315F53515228
:1037B8003220203A202530386C780A0041444331C1
:1037C8005F5351523320203A202530386C780A0054
:1037D800414443315F5351523420203A2025303838
:1037E8006C780A00414443315F5351523520203AE6
:1037F800202530386C780A00414443315F44522018
:103808002020203A202530386C780A004144435F54
:10381800435352202020203A202530386C780A0063
:103828004144435F434352202020203A202530382A
:103838006C780A00636E743A2025642025640A00B7
:103848006361703A20256C642025342E32660A00A4
:10385800236130203A2025382E34660A0000000003
:10386800236131203A2025382E34660A00000000F2
:10387800236132203A2025382E34660A00000000E1
:10388800236230203A2025382E34660A00000000D2
:10389800236231203A2025382E34660A00000000C1
:1038A800236232203A2025382E34660A00000000B0
:1038B800237831203A2025382E34660A000000008B
:1038C800237832203A2025382E34660A000000007A
:1038D800237931203A2025382E34660A000000006A
:1038E800237932203A2025382E34660A0000000059
:1038F800230A000000202020202020202020282823
:103908002828282020202020202020202020202097
:1039180020202020208810101010101010101010D7
:103928001010101010040404040404040404041007
:103938001010101010104141414141410101010195
:10394800010101010101010101010101010101015F
:10395800101010101010424242424242020202026B
:10396800020202020202020202020202020202022F
:1039780010101010200000000000000000000000DF
:10398800000000000000000000000000000000002F
:10399800000000000000000000000000000000001F
:1039A800000000000000000000000000000000000F
:1039B80000000000000000000000000000000000FF
:1039C80000000000000000000000000000000000EF
:1039D80000000000000000000000000000000000DF
:1039E80000000000000000000000000000000000CF
:0839F8000000000000000000C7
:103A000068FF1F000A000000010000000000000025
:103A1000965F553F699FACBF965F553F0000000021
:103A20002CBF2A3F699FACBF0000803F0000000010
:103A30000000000000000000000000000000000086
:103A40000000000000000000E866733F95EAC4BF74
:103A5000E866733F00000000BD00653FEBD8D5BFAE
:103A60000000803F00000000000000000000000097
:103A70000000000000000000000000000000000046
:103A800023B5653F5BD6B9BF23B5653F0000000095
:103A90005C1E583F73E3A4BF0000803F000000009D
:103AA0000000000000000000000000000000000016
:103AB00000000000000000008F2A84398F2A043A99
:103AC0008F2A843900000000DB17713FE36AF8BFDA
:103AD0000000803F00000000000000000000000027
:103AE00000000000000000000000000000000000D6
:103AF000DF73E539DF73653ADF73E53900000000F5
:103B0000BA8B733F808CF9BF0000803F000000003B
:103B100000000000000000000000000000000000A5
:103B2000000000000000000091643E3A9164BE3A3B
:103B300091643E3A0000000000C6773FCE83FBBF91
:103B40000000803F000000000000000000000000B6
:103B50000000000000000000000000000000000065
:103B60003469793A3469F93A3469793A00000000E5
:103B7000C4197D3F2D10FEBF0000803F00000000F3
:103B80000000000000000000000000000000000035
:083B900000000000FC380008F1
:00000001FF
