:020000040800F2
:1000000000800020893E0008CD3E0008CD3E00085B
:10001000CD3E0008CD3E0008CD3E000800000000A7
:10002000000000000000000000000000CD3E0008BD
:10003000CD3E000800000000CD3E0008CD3E000887
:10004000CD3E0008CD3E0008CD3E0008CD3E000864
:10005000CD3E0008CD3E0008CD3E0008CD3E000854
:10006000CD3E0008CD3E0008CD3E0008CD3E000844
:10007000CD3E0008CD3E0008CD3E0008CD3E000834
:10008000CD3E0008CD3E0008CD3E0008CD3E000824
:10009000CD3E0008CD3E0008CD3E0008CD3E000814
:1000A00000000000CD3E0008CD3E0008CD3E000817
:1000B000CD3E0008CD3E0008CD3E0008CD3E0008F4
:1000C000CD3E0008CD3E0008CD3E0008CD3E0008E4
:1000D000CD3E0008CD3E0008D90B0008250D0008D4
:1000E000CD3E0008CD3E0008CD3E0008CD3E0008C4
:1000F000F90A000800000000CD3E0008CD3E0008CF
:100100000000000000000000CD3E0008CD3E0008C9
:10011000CD3E0008CD3E0008CD3E000800000000A6
:10012000CD3E0008000000000000000000000000BC
:0C01300000000000000000005FF808F173
:10014000104B10B41968104A41F480711960996815
:100150000E480A409A601A68002422F0885222F061
:1001600001121A601A684FF0006122F480221A60AE
:100170009A6822F47D029A60DC6081605DF8044B2D
:10018000704700BF003802400CC0FF8800ED00E05F
:100190001C4B10B49B6803F00C030C2B16D8DFE843
:1001A00003F01515151507151515071515151F005D
:1001B000154A1648134B16499B685DF8044BC3F368
:1001C000031303441B7BDA400A6070470D4B4FF466
:1001D00000425B680D48C3F3423301339A40E9E7BC
:1001E000084B0A489A680849C2F38342845C9A68BB
:1001F00001FB04F1C2F381520132B1FBF2F29B68C0
:10020000D8E700BF0038024000127A0070460008AC
:1002100000000020000000002DE9F04F431E83B0D5
:100220008246002400E0013413F8010F2028A0F1D9
:100230000902F8D0012AF6D92B2800F09F802D283A
:1002400000F0A480644B0022CDE90023A0F130032C
:10025000092B4FF000064FF0000700F2B480DFF8E2
:1002600088810AEB040B2625002D05F1FF35A0F14E
:100270003000C5F14B0904F101040DDB02F092FEE0
:10028000D8E9002302F0F4FE02460B463046394618
:1002900002F03CFD06460F461BF8010FA8F10808C6
:1002A000A0F13003092BDFD92E2808BF01341AF83A
:1002B00004300AEB040BA3F13000C2B2092A1FD8A4
:1002C000464B03EBC508002D04F1010405F1FF3591
:1002D0000DDB02F067FED8E9002302F0C9FE0246FA
:1002E0000B463046394602F011FD06460F461BF814
:1002F000013FA8F10808A3F13000C2B2092AE2D9EF
:1003000003F0DF03452B18D0B9F14B0F0FDC334B53
:10031000304603EBC9093946D9E9002302F0A8FEAB
:10032000DDE9002302F0A4FE03B0BDE8F08FB9F1CF
:100330004C0F33D000202A49F2E7631C1AF803203F
:100340002B2A35D02D2A38D00121A2F130000928DE
:10035000DAD89A44002303EB830302EB43031AF831
:10036000012F303BA2F130000928F4D903FB019999
:10037000B9F1000FC8DA00200021D1E7164B013493
:1003800000221AF80400CDE900235FE7154B013481
:1003900000221AF80400CDE9002357E70CA3D3E9A3
:1003A00000233046394603F0D5F80028AFD1C1E725
:1003B000A31C1AF803200121C7E7A31C1AF8032085
:1003C0004FF0FF31C1E74FF0250926256CE700BF4C
:1003D000000000A0FB38FB3F0000F03F98460008FB
:1003E0000000F07F0000F0BFC8470008AFF30080B6
:1003F0002DE9F04F87B0109F119E04468846009269
:1004000033EA230528BF062538463146002200235B
:1004100003F0A0F8002840F012813846314600224F
:10042000002303F08DF800283ED1DFF88C92384687
:10043000D9E90023314603F08DF8002800F021812E
:100440004FF04C0B0EE079E90223384631460BF1B0
:10045000FF3B03F07FF8002800F0BE80BBF1000FE7
:1004600000F0FF80B8F1660FEDD1BBF1260FEADC9A
:10047000ABF1260AABF125094D44009AAB1C93421F
:10048000C0F2E380152300931225BBF1000F00F0AA
:10049000BA80854B4FF0010903EBCB0C03934FF06F
:1004A0006508DCE900231EE04FF001094FF0000A67
:1004B0004FF0260BB8F1670FDED0B8F1660FDBD036
:1004C0000135122DA8BF1225B8F1650F00F0D580B7
:1004D000754BC5F1270203EBCB0C4FF001090393D9
:1004E0000092DCE900233846314602F0EBFE039B24
:1004F000009A064603EBC20B0F46DBE9000100221F
:100500006A4B02F0B5FD0B4602463946304602F012
:10051000FDFB04AA03F0DCFCDDE9042306460F46DC
:10052000104619460022624BCDE9000103F026F87F
:1005300050B1DDE900013123237000225C4B02F051
:10054000E3FBCDE904010134002D1BDD4FF0000B6E
:10055000CB45DDE904010BF1010B00F0A18003F0B4
:1005600021F830302070394630460022504B02F0DE
:100570007FFD04AA03F0ACFCAB4504F10104064680
:100580000F46E5D1B8F1660F21D06523BAF1000F0F
:10059000237004F10201B4BF2D232B2363700C469A
:1005A000444BB8BFCAF1000A83FB0A034FEAEA7260
:1005B000C2EBA303C3EB4312C3EB82020AF1300A7E
:1005C0000AEB420A303304F8023B81F801A0002311
:1005D000237007B0BDE8F08FB8F1670FABF1260AC2
:1005E000ABF125097FF469AFB9F1060F7FF744AF8E
:1005F0000135122DA8BF1225C5F127030093BBF1C9
:10060000000F7FF446AF284B3846D3E900890393A7
:10061000314642464B4602F09DFF38B338463146DC
:100620000022234B02F024FD6FF0260A42464B467F
:1006300007460E464FF001094FF0650853E72D239A
:10064000237006F100460134E7E6174BC5F1270297
:1006500003EBCB0C039300924FF06608DCE9002318
:1006600041E76FF024096FF0250A23E742464B4625
:100670004FF065084FF0010935E7C5F127030093F6
:1006800003E7B8F1670F06D04FF027094FF0260AAD
:100690004FF04C0B11E74FF0260A4FF04C0BA7E739
:1006A0002E23237001345AE7984600080000E03FEB
:1006B0000000244067666666F84800080C4B19463F
:1006C0001A6A42F400721A621A6842F001021A6051
:1006D0000B68074A9B07FBD5064B9360536823F4CE
:1006E00060435360536843F440435360704700BF16
:1006F0000038024001000001054B064A9A605A6822
:1007000022F460425A605A6842F440425A6070478C
:100710000038024001000001104B114A1946586A86
:1007200040F080505862106840F480701060126889
:100730005A6B42F480725A634B6B084A9B05FBD597
:10074000536B074943F480335363536B43F4800383
:1007500053630B6823F480730B60704700380240CA
:1007600000700040064B1A46196A41F40071196284
:10077000196841F00101196013689B07FCD57047A7
:1007800000380240024A136823F0010313607047E7
:10079000003802400B494B680A4ADB06FBD411467D
:1007A000136823F4C05343F4006313604B6813F0E1
:1007B0001003FBD1044A054953609360D3608B60FA
:1007C000704700BF00700040002004E000000140BE
:1007D000094B01225A611A6822F001021A605A6814
:1007E00042F001025A609A6842F001029A60DA68A7
:1007F00022F00102DA6070470004014008B50E4B98
:100800001A6822F002021A601A6842F001021A60A5
:100810005A6822F001025A601A6842F00C021A600B
:1008200000F0EEF8FFF7D4FF044A136943F0040325
:10083000136120BF08BD00BF0070004000ED00E064
:10084000094B01225A611A6822F001021A605A68A3
:1008500022F001025A609A6822F001029A60DA6876
:1008600022F00102DA6070470004014008B5FFF78A
:10087000E7FF084A136923F004031361FFF772FFCF
:10088000FFF73AFF00F0DEF8BDE808400A2000F06C
:100890008DB900BF00ED00E0024A136843F4007315
:1008A0001360704700700040024A136823F400731D
:1008B0001360704700700040044B1A6842F0010258
:1008C0001A601A6842F480421A6070470070004053
:1008D000044B1A6822F480421A601A6822F001025E
:1008E0001A6070470070004007494B68064AD806F6
:1008F000FBD41146136823F4C05343F40063136020
:100900004B68DB06FCD47047007000402DE9F04FC7
:100910004FF0000E83460F46F446F046F14672460D
:1009200085B000200021CDE900010297CDF80CB080
:100930000299029B31F8020B4FEA820BC0F3C310FD
:100940001B78C0B2ABF120060291CBF1200100FA76
:1009500006F520FA01F103F0030A00FA0BF40D4347
:10096000C3F38100C3F34111C3F300135600934056
:1009700001320AFA06F7B040DDE900ABB1404AEABD
:10098000040A4BEA050B102ACDE900AB49EA070936
:1009900048EA00084EEA010E4CEA030CC8D1DDF823
:1009A0000CB0DDE90001CBF82000CBF82410CBF827
:1009B0000090CBF80880CBF80CE0CBF804C005B071
:1009C000BDE8F08F0A4A38B5D3690A4C0A4D43F0A6
:1009D0000303D36120462946FFF798FF05F1200164
:1009E0000648FFF793FF4FF00073A36138BD00BFC7
:1009F00000380240000002400049000800040240A4
:100A000010B50B4C0B4804F14001FFF77FFF04F1D8
:100A100060010948FFF77AFF04F180010748FFF7FA
:100A200075FF04F1A0010648BDE810406EE700BF65
:100A30000049000800000240000402400008024093
:100A40000014024010B5054C05482146FFF75EFF33
:100A500004F120010348BDE8104057E700490008B1
:100A60000000024000040240024B4FF400729A6101
:100A7000704700BF00000240024B4FF000729A61C5
:100A8000704700BF00000240044B5A6992054CBFFA
:100A90004FF000724FF400729A61704700000240FC
:100AA00010B5054C4FF40073A36100F07FF84FF0D0
:100AB0000073A36110BD00BF00000240024B4FF065
:100AC00000629A61704700BF00000240024B4FF481
:100AD00000629A61704700BF00000240024B4FF471
:100AE00000329A61704700BF00000240014B0222B1
:100AF0009A61704700000240114A124B00211161B7
:100B00001A780132D2B2092A1A705A7805D901200E
:100B10000244D2B219705A7098700A2ADA7806D054
:100B20000A2A03D1012100225971DA70704701208D
:100B30000244D2B20021DA7018715970F0E700BF98
:100B40000014004054040020F0B543F67F670D4CBC
:100B50000D4B606A0D490E4D012240F030004FF000
:100B60000F0C4FF0000E4FF480566062C1F828C0A1
:100B70004A610A60C3F828E0DF625A61DA601A60ED
:100B80006E60F0BD003802400014004000100040CC
:100B900000E100E0044B1A465B6A184480B2536AD5
:100BA0001B1A1B04FBD470470010004010B4094905
:100BB0004FF6FF7407E04B6A03F57A739BB24A6AFB
:100BC000D21A1204FBD4013880B2A042F3D15DF8EE
:100BD000044B704700100040194A10B4136899067E
:100BE00006D51849546848680A68121A7F2A17DD22
:100BF0001B0612D5134BD3F88820D3F88C109142E2
:100C000016D0D3F888200E4802F07F01194491F8DD
:100C100090100132C3F8882041605DF8044B7047A2
:100C20000A6802F07F000844013204720A60DFE7BC
:100C3000034A5DF8044BD36823F08003D360704708
:100C4000004400405C0400200B4BF0B4B3FBF0F018
:100C50004AF22C07094C0A4B626A0A4D00214026D1
:100C600042F40032C0086262596119619860DF6025
:100C70006E60F0BC704700BF0040420F0038024079
:100C80000044004000E100E00A2810B5044616D0F8
:100C90000D48D0F88C20D0F888300B49D31A7F2B20
:100CA000F9DC02F07F030B44084883F89040C368E6
:100CB000013243F08003C1F88C20C36010BD0D20C9
:100CC000FFF7E2FFE4E700BF5C04002000440040BF
:100CD00010B504460078013428B1FFF7D5FF14F8A9
:100CE000010B0028F9D110BD074A116853689942D9
:100CF00006D003F07F0111440133087A5360704736
:100D00004FF0FF30704700BF5C040020044AD2F867
:100D10008C10D2F888308B42FBD10020704700BF86
:100D20005C040020194A10B41368990606D51849C6
:100D3000546848680A68121A7F2A17DD1B0612D504
:100D4000134BD3F88820D3F88C10914216D0D3F8E7
:100D500088200E4802F07F01194491F8901001326A
:100D6000C3F8882041605DF8044B70470A6802F0C0
:100D70007F000844013204720A60DFE7034A5DF82D
:100D8000044BD36823F08003D360704700480040D1
:100D90006C0500200B4BF0B4B3FBF0F042F22C07D3
:100DA000094C0A4B626A0A4D0021802642F48022D7
:100DB00000096262596119619860DF606E60F0BC81
:100DC000704700BF0040420F00380240004800401A
:100DD00000E100E00A2810B5044616D00D48D0F80E
:100DE0008C20D0F888300B49D31A7F2BF9DC02F025
:100DF0007F030B44084883F89040C368013243F0F6
:100E00008003C1F88C20C36010BD0D20FFF7E2FF06
:100E1000E4E700BF6C05002000480040044AD2F817
:100E20008C10D2F888308B42FBD10020704700BF75
:100E30006C05002010B504460078013428B1FFF796
:100E4000C9FF14F8010B0028F9D110BD074A116839
:100E50005368994206D003F07F0111440133087AA8
:100E6000536070474FF0FF30704700BF6C050020A3
:100E700000F1774303F57803B3F5805F10D20B4B95
:100E800010B45A68D2070CD4084CA369074ADB0790
:100E9000FBD4016053685DF8044B43F001035360D9
:100EA0007047034C034ADC60DA60EDE7003C024027
:100EB000EFCDAB890504030200F1774303F5780316
:100EC000B3F5805F34BF006800207047044B5A6858
:100ED000D20703D50349044AD960DA60704700BFDE
:100EE000003C0240EFCDAB8905040302024A53687F
:100EF00043F0010353607047003C0240B0F5805F4F
:100F000000D370470146014800F0A2BB000008086A
:100F100010B5164C1648216800F0C4F961681548F0
:100F200000F0C0F9A168144800F0BCF9E16813486A
:100F300000F0B8F92169124800F0B4F9616911486C
:100F400000F0B0F9A169104800F0ACF9E1690F4870
:100F500000F0A8F9216A0E4800F0A4F9D4F8801036
:100F60000C48BDE8104000F09DB900BF003C0240B5
:100F7000C0490008DC490008F8490008144A000884
:100F8000304A00084C4A0008684A0008844A0008B1
:100F9000A04A0008BC4A00080EB400B582B003ABFA
:100FA00053F8041B1A46019300F006F802B05DF8EE
:100FB00004EB03B0704700BF2DE9F04F894693461C
:100FC00004468DB0039099F8003009F1010253B145
:100FD000252B0ED09146237099F80030013409F189
:100FE0000102002BF4D12370039BE01A0DB0BDE881
:100FF000F08F99F80130302B18BF4FF0000E05D15B
:1010000012F8013F302BFBD04FF0010EA3F130015D
:10101000C8B209284FF000060AD812F8013F06EBC3
:10102000860601EB4606A3F13001C8B20928F4D9BF
:101030002E2B32D011784FF0FF3501F0FB03682BD7
:1010400004BF51780132A1F1580302F10109202BAC
:1010500000F2FD80DFE813F0EA00FB00FB00FB007C
:10106000FB00FB00FB00FB00FB00FB00FB00920011
:101070003600D400D400D400FB00BC00FB00FB0011
:10108000FB00FB00FB00FB00AD00FB00FB009E0033
:10109000FB003600FB00FB00EA0051780025A1F1BF
:1010A0003000C3B2092B02F10102C6D812F8011FA9
:1010B00005EB850500EB4505A1F13000C3B2092B16
:1010C000F4D9BAE70BF1040364299A464FF00A00F9
:1010D000DBF8003000F0B480DFF8BC8100228DF82E
:1010E0002F20002B00F0CA80DFF8B0C10DF12F07D0
:1010F000B3FBF0F200FB12331CF80310134607F8A1
:10110000011D002AF4D16B1C00F0A480D3466FF0BF
:101110000041384603F076FA02464046AD1A029284
:1011200003F042FA029A25EAE57598F80030301A81
:10113000A918401A2BB104F8013B18F8013F002B05
:10114000F9D1002D00F093802544302304F8013BB1
:10115000AC42FBD1002A08DD6B1EBC1817F8011B3E
:10116000A74203F8011FF9D1154400287DDD2C1892
:10117000202305F8013BA542FAD124E7DBF8003033
:101180000CAF012107F8203D0BF1040B0025DFF81F
:101190000881BEE76A1C0BF10403DBF8007019BF7D
:1011A00029469B469B466FF000410025DFF8E8800A
:1011B000AFE70022DBF800308DF82F200BF104029E
:1011C0009246002B5DD0DFF8D080102008258BE7F9
:1011D000DBF800300BF1040CC3F307411A0E8DE865
:1011E000060004A8DAB22B49C3F30723E3460746F7
:1011F0000025FFF7D1FEDFF8A0806FF0004188E7FF
:101200000BF1070C2CF0070CDCE900AB2B46CDE909
:1012100000AB04A820220CF1080B07460025FFF7BD
:10122000E7F8DFF874806FF0004172E70BF1040318
:1012300064299A464FF01000DBF800307FF44CAF81
:10124000002BBFF649AF5B42DFF8548046E72170C0
:101250000134B8E6BEF1000F0BD0404603F0A4F90C
:10126000D346351A6FF0004153E72C46ABE62546CE
:1012700070E7D3466FF0004101254AE70DF12F07D3
:1012800041E793466FF0004108250DF12F07DFF885
:1012900008803EE7DC4A0008C04D0008E84A000824
:1012A000D84A00080FB410B582B004AB53F8041B41
:1012B000084C1A4620460193FFF77EFE2046FFF7B2
:1012C00007FD204603F070F902B0BDE8104004B0FD
:1012D000704700BF7C060020A0B10EB400B582B0FC
:1012E00004AB1A46039909480193FFF765FE0748C6
:1012F000FFF7EEFC054803F057F902B05DF804EB88
:1013000003B070474FF0FF30704700BF7C070020EC
:101310000EB400B582B004AB1A460449019300F044
:1013200007F802B05DF804EB03B07047DC4A000830
:101330002DE9F04F8946934604468DB0039099F805
:10134000003009F1010253B1252B0ED091462370D4
:1013500099F80030013409F10102002BF4D1237017
:10136000039BE01A0DB0BDE8F08F99F80130302BE7
:1013700018BF4FF0000E05D112F8013F302BFBD003
:101380004FF0010EA3F13001C8B209284FF000065A
:101390000AD812F8013F06EB860601EB4606A3F1D8
:1013A0003001C8B20928F4D92E2B32D011784FF071
:1013B000FF3501F0FB03682B04BF51780132A1F126
:1013C000580302F10109202B00F2FD80DFE813F041
:1013D000EA00FB00FB00FB00FB00FB00FB00FB0046
:1013E000FB00FB00FB0092003600D400D400D400C8
:1013F000FB00BC00FB00FB00FB00FB00FB00FB0054
:10140000AD00FB00FB009E00FB003600FB00FB0074
:10141000EA0051780025A1F13000C3B2092B02F196
:101420000102C6D812F8011F05EB850500EB450542
:10143000A1F13000C3B2092BF4D9BAE70BF10403D0
:1014400064299A464FF00A00DBF8003000F0B480BF
:10145000DFF8BC8100228DF82F20002B00F0CA801D
:10146000DFF8B0C10DF12F07B3FBF0F200FB123330
:101470001CF80310134607F8011D002AF4D16B1C59
:1014800000F0A480D3466FF00041384603F0BAF86C
:1014900002464046AD1A029203F086F8029A25EA07
:1014A000E57598F80030301AA918401A2BB104F8E5
:1014B000013B18F8013F002BF9D1002D00F093807B
:1014C0002544302304F8013BAC42FBD1002A08DD5F
:1014D0006B1EBC1817F8011BA74203F8011FF9D1B6
:1014E000154400287DDD2C18202305F8013BA5427A
:1014F000FAD124E7DBF800300CAF012107F8203DDA
:101500000BF1040B0025DFF80881BEE76A1C0BF124
:101510000403DBF8007019BF29469B469B466FF019
:1015200000410025DFF8E880AFE70022DBF800305B
:101530008DF82F200BF104029246002B5DD0DFF8CE
:10154000D080102008258BE7DBF800300BF1040C6D
:10155000C3F307411A0E8DE8060004A8DAB22B493E
:10156000C3F30723E34607460025FFF7D1FEDFF864
:10157000A0806FF0004188E70BF1070C2CF0070CFE
:10158000DCE900AB2B46CDE900AB04A820220CF12E
:10159000080B07460025FEF72BFFDFF874806FF07D
:1015A000004172E70BF1040364299A464FF01000E2
:1015B000DBF800307FF44CAF002BBFF649AF5B4245
:1015C000DFF8548046E721700134B8E6BEF1000F21
:1015D0000BD0404602F0E8FFD346351A6FF00041C9
:1015E00053E72C46ABE6254670E7D3466FF0004143
:1015F00001254AE70DF12F0741E793466FF00041BF
:1016000008250DF12F07DFF808803EE7DC4A0008C7
:10161000C04D0008E84A0008D84A00080FB410B5C9
:1016200082B004AB53F8041B084C1A4620460193C1
:10163000FFF77EFE2046FFF7FDFB204602F0B4FFD9
:1016400002B0BDE8104004B0704700BFFC070020A6
:1016500000232DE9F04F81460F4698468BB0464E49
:1016600000930DF126050DF1060423464FF6FF7297
:1016700023F8022FAB42FBD1102F61D8002367B1B2
:1016800009EB030212F80810581C0AAA02EB4302E5
:10169000C3B2BB4222F8201CF2D3012301939DF870
:1016A000001036480901FFF7FDFD0DF1060A4FF065
:1016B000000B0AE0FFF7F6FD0BF1010355455FFA59
:1016C00083FB14D0BBF1080F51D03AF8021F2C480D
:1016D0000FFA81FEBEF1FF3FC9B2EBD12948FFF7F7
:1016E000E1FD0BF1010355455FFA83FBEAD1264882
:1016F000FFF7D8FD03E0FFF7D5FDAC4210D034F87A
:10170000021F2248C9B22A2916D033680B445B78DD
:1017100013F0970FEFD11E48FFF7C4FDAC42EED196
:10172000009B1C4801330093FFF7BCFD019B002B7D
:1017300099D00BB0BDE8F08F1748FFF7B3FDDCE799
:1017400008F1FF3308F10F000DF106024B44484445
:1017500013F8011F834222F8021FF9D1103F08F14C
:1017600010080023BFB21FFA88F8019397E70B48CF
:10177000FFF798FDA9E700BF24000020FC4A0008FD
:10178000084B0008104B00084C4D0008144B000893
:10179000184B00086C4D0008D84A0008044B00089C
:1017A000F8B50C680D460746A449204602F066FAD3
:1017B000002800F00A812046A14902F05FFA0028C3
:1017C00000F0FB8020469F4902F058FA002800F004
:1017D000ED8020469C4902F051FA28B9022F7ED0B4
:1017E0009A48FFF71BFF2C682046994902F046FAF9
:1017F000002800F09D802046964902F03FFA00281C
:1018000000F0A1802046944902F038FA002800F048
:10181000A5802046914902F031FA002800F0A98005
:1018200020468F4902F02AFA30B9022F00F09A813F
:101830008C48FFF7F3FE2C6820468B4902F01EFA15
:10184000002800F0F6802046884902F017FA0028A8
:1018500000F0E7802046864902F010FA002800F0E8
:10186000DB802046834902F009FA002800F0C88096
:101870002046814902F002FA002800F0AB802046A1
:101880007E4902F0FBF9064610B9032F00F02681CD
:1018900020467B4902F0F2F9002800F0AD80204696
:1018A000784902F0EBF9002800F0A0802046764944
:1018B00002F0E4F9002873D02046744902F0DEF902
:1018C000002867D02046724902F0D8F9002859D084
:1018D0002046704902F0D2F900284ED0F8BD696860
:1018E0000B782D2B00F04981034604460126CA5C83
:1018F000A2F13003092B0FD82144002303EB83030B
:1019000002EB430311F8012F303BA2F13004092C04
:10191000F4D906FB03F080B201465F48FFF77EFE74
:101920002C684B49204602F0A9F900287FF463AFE8
:101930005A48FFF773FE2C684649204602F09EF98C
:1019400000287FF45FAF5648FFF768FE2C684249D5
:10195000204602F093F900287FF45BAF5148FFF76F
:101960005DFE2C683D49204602F088F900287FF48E
:1019700057AF01F0FBF82C6852E74B48BDE8F84040
:10198000FFF790BC4948FFF78DFC4948FFF78AFCF8
:101990002C689DE700F0A6FB00F0DCFB2C6891E7CB
:1019A00000F010FC00F0D6FB2C6885E74148FFF7FB
:1019B00079FC01F023F82C680BE73F48FFF772FC35
:1019C0003E48FFF72BFE2C68FCE63D48FFF726FE5D
:1019D0002C68F0E63B48FFF765FC01F099F86420BD
:1019E000FFF7E4F801F00AF82C6848E700F0CEFBB6
:1019F00000F0B0FB2C6859E700F0D8FF2C684EE7E8
:101A00003148FFF74FFC01F00FF86420FFF7CEF8E4
:101A100000F0F4FF2C682BE72C48FFF7FFFD2C6843
:101A20001FE72B48FFF73EFC2A48FFF7F7FD2C681D
:101A300010E72948FFF7F2FD2C6804E71C4B00086B
:101A4000244B0008544B0008784B0008904B0008CA
:101A50009C4B0008B04B0008BC4B0008CC4B000866
:101A6000D44B0008E84B0008F44B0008084C000871
:101A7000384C00084C4C00086C4C00088C4C00089A
:101A80009C4C0008A44C0008A84C0008AC4C000872
:101A9000B44C0008084D0008804B0008A44B000817
:101AA000B44B0008C04B0008104D0008BC4C0008A7
:101AB000DC4C00085C4B00082C4B0008484B00082D
:101AC000204B0008744C0008544C0008404C00089F
:101AD000104C0008284C0008FC4B0008686803788C
:101AE0002D2B4FD0324631460127825CA2F13004C3
:101AF000092C51D80144002303EB830302EB430379
:101B000011F8012F303BA2F13004092CF4D907FB66
:101B100003F7AB681A782D2A39D0002211464FF00E
:101B2000010E9A5CA2F1300009280ED81944002059
:101B300000EB800002EB400011F8012F3038A2F1D9
:101B40003004092CF4D90EFB00F63246394613480E
:101B5000FFF7A8FB3846314600F018FF00F0E8FE1A
:101B60002C6895E600F03CFF0A20FFF71FF80C48B0
:101B70006968FFF753FD2C685EE601231C464FF0B1
:101B8000FF36B4E6012211464FF0FF37ADE70122E0
:101B900011464FF0FF3EC4E70027BAE7904C00081B
:101BA000DC4B00080148FFF77DBB00BF384D000843
:101BB0000148FFF777BB00BF3C4D000830B4037805
:101BC0002D2B18D0002211460125825CA2F1300491
:101BD000092C15D80144002303EB830302EB4303D4
:101BE00011F8012F303BA2F13004092CF4D903FB8A
:101BF00005F030BC7047012211464FF0FF35E4E795
:101C00000020F6E730B403782D2B18D000221146BF
:101C10000125825CA2F13004092C15D8014400236F
:101C200003EB830302EB430311F8012F303BA2F1D6
:101C30003004092CF4D903FB05F030BC70470122B5
:101C400011464FF0FF35E4E70020F6E730B10378A6
:101C5000202B03D110F8013F202BFBD0704700BF91
:101C600010B32DE9F041002588462F460E1F03785A
:101C70000446202B03D114F8013F202BFBD05BB18D
:101C80002046202102F02AFC48B10770013005F1FE
:101C9000010546F8044FEAD12846BDE8F08148F82E
:101CA0002540681CBDE8F081704700BF00B177E5B2
:101CB000704700BF08B50448FFF7F4FABDE80840D4
:101CC0000248FFF7EFBA00BFBC4C0008DC4C00082C
:101CD0000148FFF7E7BA00BF104D000838B5FFF71D
:101CE00003F8041E1ADB1D482146FFF7DBFA0A2C15
:101CF0001CD00D2C1AD0082C11D07F2C0FD0184BD3
:101D00001B6823445B7813F0970F07D0154A1378AC
:101D1000190603D41448591CC454117038BD114A13
:101D20001378002BFAD0013B137038BD0F48FFF732
:101D3000B9FA0C4B0C4C1D78002220460C49625518
:101D40001A70FFF78DFF0B4A106010B10849FFF7BA
:101D500027FDBDE838400848FFF7A4BA144B000837
:101D60002400002040090020440900206C4D000898
:101D7000140900203C0900203C4D00082DE9F047E3
:101D80008146364B4FF400129A61354F1A6857F866
:101D9000201022F440624FF48030884042F4806288
:101DA0001A60986149001D680320884001228A401A
:101DB00025EA000002431A6032201C46FEF7EAFEC4
:101DC00057F82910274EDFF8A4804A004FF0000A88
:101DD00012E0B9F1020F36D0B9F1000F01D1224B58
:101DE000B3600023B36023699B062FD440F6BA3357
:101DF0000AF1010A9A452CD02368032523F4406395
:101E00002360236805FA02F223EA020323600A2012
:101E1000FEF7C0FE57F82910012301FA03F295409E
:101E2000ED4303FA01F1A1612168934029400B437E
:101E300023602368B9F1010F05EA03052560C8D1C5
:101E4000C6F80880CDE73023B360CAE75046BDE846
:101E5000F08742F20F70BDE8F08700BF0004024037
:101E600004000020047C0040200000082000001036
:101E7000F0B50E4C0E4B616A0E4A002041F0004155
:101E80004FF4700C4FF4001E4FF480074FF400061F
:101E90004FF480156162C2F80CC0C3F818E09F616E
:101EA0009E619D6150609060F0BD00BF00380240AF
:101EB00000040240047C0040054A4FF40013936183
:101EC000136823F4406343F480631360704700BFDA
:101ED00000040240024A136823F440631360704711
:101EE000000402400A4A0B4952F820204FF4803384
:101EF000934010B48B610C68520003209040012382
:101F000024EA0000934003430B605DF8044B7047E4
:101F100004000020000402400A4A012352F8202055
:101F2000094903FA02F010B488619A400868032452
:101F30009440934020EA040213430B605DF8044B85
:101F4000704700BF0400002000040240074B10B49B
:101F500053F82010064C0323226849008B4022EAE4
:101F6000030323605DF8044B704700BF04000020AA
:101F70000004024001280BD0022805D000B17047B0
:101F8000054B064A9A607047034B30229A607047AF
:101F9000014B034A9A607047047C0040200000080F
:101FA00020000010022802DD42F20F707047E5E6C3
:101FB00010B50020FFF7E2FE054C20600120FFF77E
:101FC000DDFE60600220FFF7D9FEA06010BD00BFFB
:101FD000C40900202DE9F843DFF88490DFF88480FD
:101FE0001A4F002459F8245058F82400401B01F0DF
:101FF0000BFC064657F82400401B01F005FC014687
:10200000304601F009FD124901F052FC002105465D
:1020100001F0ECFD0E4980B9284601F005FE78B1CB
:102020000C4B002201340C48FFF73CF9032CD9D1AA
:10203000BDE8F8430948FFF735B900220023F1E76E
:10204000284600F0C1FF02460B46EBE7D00900200E
:102050000000C84200005940404D00086C4D000887
:10206000DC090020C409002038B50C48FFF71AF934
:102070000B4C04F10C0554F8040B01F0C5FB00F007
:10208000A3FF02460B460748FFF70CF9AC42F2D11A
:10209000BDE838400448FFF705B900BF484D0008C7
:1020A000C4090020404D00086C4D000838B50A48AE
:1020B000FFF7B4FA094C04F10C0554F8040B01F0D5
:1020C000A3FB00F081FF02460B460548FFF7A6FA86
:1020D000AC42F2D138BD00BF484D0008C409002011
:1020E000404D000838B50D48FEF7E6FE0C4D0D4C8E
:1020F00028600D48FEF7E0FE68600C48FEF7DCFE45
:10210000A8600B48FEF7D8FE20600A48FEF7D4FE10
:1021100060600948FEF7D0FEA06038BD00000808E6
:10212000DC090020D0090020040008080800080885
:102130000C000808100008081400080808B500F191
:10214000007000F500308000FEF792FEBDE8084008
:10215000FFF7C8BF70B50948FFF7A4F8084E094D4E
:102160000024214656F8242055F82430064801342E
:10217000FFF798F8032CF4D170BD00BF504D000854
:10218000DC090020D0090020704D0008F8B50C4F84
:102190000026102400253046FFF7F0FD013C0544E1
:1021A000F9D1291EB8BF0F31384609110136FEF7A3
:1021B0005FFEFFF797FF032E07F10407E9D1F8BD93
:1021C00000000808F8B50C4F002610240025304602
:1021D000FFF7D4FD013C0544F9D1291EB8BF0F31EA
:1021E000384609110136FEF743FEFFF77BFF032E49
:1021F00007F10407E9D1F8BD0C0008082DE9F04704
:102200001448154B026A1549DFF864A0DFF86490A2
:10221000DFF86480DFF864E0114F124E124DDFF8F2
:1022200060C0002442F4007202624C600F489C605F
:102230001C21C3F80CA0C3F81090C3F81480C3F895
:1022400030C0C3F834E09F63DE631D64BDE8F0472F
:1022500000F028BA00380240002401400027014065
:10226000A518630CA494520A84104208FC090020AB
:10227000972449129224E93A92B46D12C698730ECB
:10228000E79CB301114B10B419461C464FF4801261
:102290001A6318649A6842F001029A600B680B4A4C
:1022A0005B06FBD52368D805F8D41146936843F044
:1022B000804393600B68054A9B07FBD593685DF8E4
:1022C000044B23F001039360906D7047002401409C
:1022D000364A2DE9F0415368052043F4000353606A
:1022E000FEF764FC082400271120FFF7CBFF07440A
:1022F0000520FEF74FFC013CF6D12C4A25465368D9
:10230000082423F400035360FEF7D8FB0520FEF7F2
:102310004DFC1320FFF7B6FF013C0544F9D1082618
:102320001420FFF7AFFF013E0444F9D1FEF7CEFBC6
:102330001F4A204BFF081888176001F065FA1E49F4
:1023400001F0B6FA0646384601F05AFA1B498046B3
:1023500001F0AEFA0746284601F052FA4FF07851E4
:1023600001F0A6FA0146304601F0A2FA014601F05A
:1023700097F9394601F050FB114D2860204601F0D5
:102380003FFA4FF0785101F093FA314601F090FA9C
:10239000014601F085F9394601F03EFB414668608F
:1023A000304601F039FBA860BDE8F081002701400C
:1023B000E8090020F800F81F0000404000F07F45C9
:1023C000FC080020034A0520536843F400035360CF
:1023D000FEF7ECBB00270140024A536823F40003D8
:1023E0005360704700270140D0B50C4C84B0A06802
:1023F00000F0EAFD064660680F4600F0E5FDCDE915
:102400000001206800F0E0FD3246CDE902013B46C4
:102410000348FEF747FF04B0D0BD00BFFC08002012
:10242000844D0008D0B50C4C84B0A06800F0CCFD01
:10243000064660680F4600F0C7FDCDE90001206840
:1024400000F0C2FD3246CDE902013B460348FFF7EA
:10245000E5F804B0D0BD00BFFC080020844D0008A2
:1024600010B5204C2048FEF71DFF21681F48FEF7DD
:1024700019FF61681E48FEF715FFA1681D48FEF7A9
:1024800011FFE1681C48FEF70DFF21691B48FEF7AC
:1024900009FF61691A48FEF705FF216B1948FEF72D
:1024A00001FF616B1848FEF7FDFEA16B1748FEF7B0
:1024B000F9FEE16B1648FEF7F5FE216C1548FEF7B4
:1024C000F1FEA16D1448FEF7EDFED4F80013134899
:1024D000FEF7E8FED4F804131148BDE81040FEF7FB
:1024E000E1BE00BF00240140AC4D0008C44D00080F
:1024F000D84D0008EC4D0008004E0008144E0008AE
:10250000284E00083C4E0008504E0008644E00085B
:10251000784E00088C4E0008A04E0008B44E00080B
:10252000C84E000810B588B06A46031F183053F82B
:10253000041F834242F8041FF9D1062401AB002294
:1025400007E0196853F8040F814284BF43F8040C74
:102550001960A24202F10102F3DB013CEED10498C2
:1025600001F04EF908B010BD224B70B5194618465F
:10257000214E224D4FF488724FF480741E631D6407
:102580005C609A609A6842F001029A600B68194A8E
:102590005D06FBD50368DC05F8D41146936843F06B
:1025A000804393600B689807FCD5154C23689A0705
:1025B00005D40A20FEF7EEFA23689B07F9D5104AE6
:1025C0000C495368002443F0020353600D488C60AB
:1025D000FFF7A8FF0C4C20600C48FFF7A3FF6060DA
:1025E0000B48FFF79FFFA0600A48FFF79BFFE060E2
:1025F00070BD00BF00240140E79CB3018410420875
:1026000000600240FC090020EC090020180A0020AC
:10261000340A0020500A002038B5FEF75FFA052082
:10262000FEF7C4FA154C00250420FFF72BFE2060AE
:102630000520FFF727FEE0610620FFF723FEA063D9
:102640000720FFF71FFE0135072D606504F1040424
:10265000EAD1FEF74BFA0948FFF764FF084C206007
:102660000848FFF75FFF60600748FFF75BFFA06067
:102670000648FFF757FFE06038BD00BFFC090020A7
:10268000EC090020180A0020340A0020500A00201B
:1026900008B5FFF71DFE6420FEF788FABDE8084084
:1026A000FFF7BABF0B4A70B4D4690B4B0B4D44F023
:1026B0008074D46100264FF42A64D2691E609D6044
:1026C000D86059601C601A6870BC42F001021A6040
:1026D000704700BF003802400860024058240140A3
:1026E000024A136843F00103136070470860024018
:1026F0000549064A0B6823F001030B60D36923F0F8
:102700008073D361704700BF086002400038024008
:1027100010B5104C1048FEF7C5FD21680F48FEF7B4
:10272000C1FD61680E48FEF7BDFD0E48FEF7BAFD1B
:10273000A1680D48FEF7B6FDE1680C48FEF7B2FD52
:1027400021690B48FEF7AEFD61690A48BDE81040FB
:10275000FEF7A8BD00600240DC4E0008F84E0008FD
:10276000104F0008284F0008484F0008604F00082D
:10277000784F0008904F000843F6982303FB00F3BE
:10278000C0F580502DE9F047B3FBF0F08A4601F028
:1027900037F800F019FC04460D4601F0FBFB064635
:1027A0000F462046294601F0F5FB80468946204623
:1027B000294601F0EFFB1CA3D3E9002304460D4694
:1027C0004046494600F054FC22462B4600F050FC9F
:1027D00017A3D3E9002300F099FA02460B463046CE
:1027E000394600F045FC14A3D3E9002300F08EFA2B
:1027F00002460B460020144900F064FD10A3D3E903
:10280000002300F081FA114B044653F82A000D46CC
:1028100000F0DAFB02460B462046294600F076FA25
:1028200000F0E8FEBDE8F087000000003D51E63D05
:10283000000000A09096303F0000006026C1503F8D
:1028400000000060661271400000F03F6C0A00203A
:1028500008B5054B03449800FEF72EFB00F0D4FFAB
:10286000024901F0D9F808BD080002020000204129
:1028700070B5084E084D002456F8040B01F0DEF93F
:10288000E1B2FFF779FF0134042C45F8040BF3D1D2
:1028900070BD00BFEC0900207C0A0020032901D98B
:1028A0000020704768E700BFD0B50E4C86B02068A6
:1028B00000F08AFB064660680F4600F085FBCDE914
:1028C0000001A06800F080FBCDE90201E06800F0A3
:1028D0007BFB3246CDE904013B460348FEF7E2FCB0
:1028E00006B0D0BD7C0A0020A84F0008D0B50E4C21
:1028F00086B0206800F068FB064660680F4600F06E
:1029000063FBCDE90001A06800F05EFBCDE90201A8
:10291000E06800F059FB3246CDE904013B4603482C
:10292000FEF77CFE06B0D0BD7C0A0020A84F000850
:1029300038B5054D00242046FFF78AFF0134042CEA
:1029400045F8040BF7D138BD6C0A0020FFF7F0BF43
:1029500038B5FFF7EDFF0A4D002455F8040B00F0E1
:1029600033FB02460B46074821460134FEF79AFC2A
:10297000042CF2D1BDE838400348FEF793BC00BFF9
:102980006C0A0020C84F00086C4D0008032800DDC9
:102990007047024B03449800FEF76ABA080002022F
:1029A000032801DD0020704752E700BF10B5094839
:1029B000FEF778FC00242046FFF74AFF00F004FBF6
:1029C00002460B46044821460134FEF76BFC042CFA
:1029D000F1D110BDD44F0008EC4F0008AFF30080D8
:1029E00008B50448FEF71AFEBDE808400020024979
:1029F000FEF772BC204B0008FC4F000810B5094CD4
:102A00004FF08053A3613220FEF7D0F84FF480528C
:102A10004FF48013A2610A20A361BDE81040FEF7C5
:102A2000C5B800BF0004024008B50448FEF7F6FD33
:102A3000BDE8084000200249FEF74EBC10500008D7
:102A40001C50000810B5294C23785BB96388052B0E
:102A500008D8DFE803F0080E16230703FFF7CEFFC0
:102A60000023638010BD01236380FFF7DDFFFDF7C6
:102A7000C5FEFDF7FBFE0A20FEF712F80223638075
:102A800010BDFFF795FAFFF703FEFFF7F1FE0020F8
:102A90001749FEF721FC0323638010BD1548FEF79C
:102AA000BDFD15491548FEF7B9FD134A144900202C
:102AB000FEF712FC61681348FEF7B0FD6268124928
:102AC0000020FEF709FCFFF7ADFCFFF70FFFFFF753
:102AD000EDFA0E490020FEF7FFFB0648FEF79EFDCB
:102AE0006368052201336360628010BD080900201D
:102AF000385000086C4D00081000002050500008AD
:102B000058500008605000086450000868500008E1
:102B100008B50448FEF782FDBDE8084000200249E0
:102B2000FEF7DABB78500008845000080020014905
:102B3000FEF7D2BBA050000800200149FEF7CCBB35
:102B4000BC50000808B5FFF74BFF0A20FEF72EF82F
:102B50000448FEF763FDBDE8084000200249FEF787
:102B6000BBBB00BFE84B0008D45000080148024935
:102B7000FEF798BBE85000081000002010B504468E
:102B8000FFF72EFF0A20FEF711F821460448FEF752
:102B900045FDBDE8104000200249FEF79DBB00BF87
:102BA000804B0008F450000808B5FFF727FF4FF4EA
:102BB000FA70FDF7FBFFFFF7C5FF4FF47A70FDF7E2
:102BC000F5FF40F2EE20FFF7D9FFBDE808404FF4D3
:102BD0007A70FDF7EBBF00BFF0B5002485B000941C
:102BE00001940294039400293FD00D4620490646E3
:102BF00001F044F8C8B34FF0FF3723463846F119C7
:102C000005E03D2A08BF1F460133AB4207D011F84B
:102C1000012F2B2AF5D118460133AB42F7D1421CC4
:102C200023D07B1C21D0431C381A834209DA334459
:102C300030440DF1FF3213F8011B834202F8011FEB
:102C4000F9D168460B4901F019F870B97B1CAB4209
:102C50000BDA094AAB1EDB1B1344F019013A10F8DA
:102C6000011F02F8011F9A42F9D105B0F0BD00BF63
:102C70000C510008105100081000002038B5FEF774
:102C8000E5F8002812DB0A2811D0134B1B68034417
:102C90005B7813F0970F09D0104A1378FF2B05D0FB
:102CA0007E2803D00E4C591CE054117038BD0B4CDB
:102CB0000C4B21780A481A78002545540AB91B7A2A
:102CC00023B107490848FEF7EDFA21780448FFF7D9
:102CD00083FF0023237038BD240000208C0A0020CD
:102CE000900A002008090020E44B00082852000840
:102CF000000000205404002054040020900B002009
:102D000081F0004102E000BF83F0004330B54FEA9C
:102D100041044FEA430594EA050F08BF90EA020F09
:102D20001FBF54EA000C55EA020C7FEA645C7FEA9C
:102D3000655C00F0E2804FEA5454D4EB5555B8BFBF
:102D40006D420CDD2C4480EA020281EA030382EA30
:102D5000000083EA010180EA020281EA0303362DC2
:102D600088BF30BD11F0004F4FEA01314FF4801C95
:102D70004CEA113102D0404261EB410113F0004FA7
:102D80004FEA03334CEA133302D0524263EB43035E
:102D900094EA050F00F0A780A4F10104D5F1200EFC
:102DA0000DDB02FA0EFC22FA05F2801841F1000157
:102DB00003FA0EF2801843FA05F359410EE0A5F12B
:102DC00020050EF1200E012A03FA0EFC28BF4CF05C
:102DD000020C43FA05F3C01851EBE37101F0004512
:102DE00007D54FF0000EDCF1000C7EEB00006EEB1F
:102DF0000101B1F5801F1BD3B1F5001F0CD34908A9
:102E00005FEA30004FEA3C0C04F101044FEA4452FF
:102E100012F5800F80F09A80BCF1004F08BF5FEA86
:102E2000500C50F1000041EB045141EA050130BD66
:102E30005FEA4C0C404141EB010111F4801FA4F109
:102E40000104E9D191F0000F04BF01460020B1FA5E
:102E500081F308BF2033A3F10B03B3F120020CDA96
:102E60000C3208DD02F1140CC2F10C0201FA0CF074
:102E700021FA02F10CE002F11402D8BFC2F1200CD9
:102E800001FA02F120FA0CFCDCBF41EA0C0190408F
:102E9000E41AA2BF01EB0451294330BD6FEA0404D8
:102EA0001F3C1CDA0C340EDC04F11404C4F12002C3
:102EB00020FA04F001FA02F340EA030021FA04F3D5
:102EC00045EA030130BDC4F10C04C4F1200220FA2C
:102ED00002F001FA04F340EA0300294630BD21FA6A
:102EE00004F0294630BD94F0000F83F4801306BF30
:102EF00081F480110134013D4EE77FEA645C18BF24
:102F00007FEA655C29D094EA050F08BF90EA020FBA
:102F100005D054EA000C04BF1946104630BD91EAB2
:102F2000030F1EBF0021002030BD5FEA545C05D1B5
:102F30004000494128BF41F0004130BD14F58004F4
:102F40003CBF01F5801130BD01F0004545F0FE4168
:102F500041F470014FF0000030BD7FEA645C1ABF9D
:102F6000194610467FEA655C1CBF0B46024650EAD4
:102F7000013406BF52EA033591EA030F41F4002100
:102F800030BD00BF90F0000F04BF0021704730B586
:102F90004FF4806404F132044FF000054FF000015B
:102FA00050E700BF90F0000F04BF0021704730B51C
:102FB0004FF4806404F1320410F0004548BF4042F1
:102FC0004FF000013EE700BF42004FEAE2014FEA46
:102FD00031014FEA02701FBF12F07F4393F07F4F21
:102FE00081F06051704792F0000F14BF93F07F4F53
:102FF000704730B54FF4607401F0004521F0004196
:1030000020E700BF50EA010208BF704730B54FF01B
:1030100000050AE050EA010208BF704730B511F020
:10302000004502D5404261EB41014FF4806404F158
:1030300032045FEA915C3FF4DCAE4FF003025FEADA
:10304000DC0C18BF03325FEADC0C18BF033202EB62
:10305000DC02C2F1200300FA03FC20FA02F001FABC
:1030600003FE40EA0E0021FA02F11444C1E600BF5B
:1030700070B54FF0FF0C4CF4E06C1CEA11541DBF0E
:103080001CEA135594EA0C0F95EA0C0F00F0DEF8D9
:103090002C4481EA030621EA4C5123EA4C5350EABE
:1030A000013518BF52EA033541F4801143F480130F
:1030B00038D0A0FB02CE4FF00005E1FB02E506F0A0
:1030C0000042E0FB03E54FF00006E1FB03569CF0F5
:1030D000000F18BF4EF0010EA4F1FF04B6F5007FFB
:1030E00064F5407404D25FEA4E0E6D4146EB06066D
:1030F00042EAC62141EA55514FEAC52040EA5E50F6
:103100004FEACE2EB4F1FD0C88BFBCF5E06F1ED89F
:10311000BEF1004F08BF5FEA500E50F1000041EBD6
:10312000045170BD06F0004646EA010140EA020083
:1031300081EA0301B4EB5C04C2BFD4EB0C0541EAA5
:10314000045170BD41F480114FF0000E013C00F3BA
:10315000AB8014F1360FDEBF002001F0004170BDDE
:10316000C4F10004203C35DA0C341BDC04F11404F7
:10317000C4F1200500FA05F320FA04F001FA05F283
:1031800040EA020001F0004221F0004110EBD37050
:1031900021FA04F642EB06015EEA430E08BF20EA7C
:1031A000D37070BDC4F10C04C4F1200500FA04F31F
:1031B00020FA05F001FA04F240EA020001F00041B1
:1031C00010EBD37041F100015EEA430E08BF20EA24
:1031D000D37070BDC4F1200500FA05F24EEA020E6C
:1031E00020FA04F301FA05F243EA020321FA04F09B
:1031F00001F0004121FA04F220EA020000EBD37052
:103200005EEA430E08BF20EAD37070BD94F0000F51
:103210000FD101F00046400041EB010111F4801F85
:1032200008BF013CF7D041EA060195F0000F18BF36
:10323000704703F00046520043EB030313F4801F72
:1032400008BF013DF7D043EA0603704794EA0C0F2C
:103250000CEA135518BF95EA0C0F0CD050EA410642
:1032600018BF52EA4306D1D181EA030101F00041BF
:103270004FF0000070BD50EA410606BF10461946E7
:1032800052EA430619D094EA0C0F02D150EA0136F3
:1032900013D195EA0C0F05D152EA03361CBF104634
:1032A00019460AD181EA030101F0004141F0FE41D3
:1032B00041F470014FF0000070BD41F0FE4141F457
:1032C000780170BD70B54FF0FF0C4CF4E06C1CEA57
:1032D00011541DBF1CEA135594EA0C0F95EA0C0F0C
:1032E00000F0A7F8A4EB050481EA030E52EA0335C7
:1032F0004FEA013100F088804FEA03334FF08055E8
:1033000045EA131343EA12634FEA022245EA111514
:1033100045EA10654FEA00260EF000419D4208BFC5
:10332000964244F1FD0404F5407402D25B084FEA72
:103330003202B61A65EB03055B084FEA32024FF41E
:1033400080104FF4002CB6EB020E75EB030E22BF7B
:10335000B61A754640EA0C005B084FEA3202B6EB3B
:10336000020E75EB030E22BFB61A754640EA5C00EA
:103370005B084FEA3202B6EB020E75EB030E22BF7A
:10338000B61A754640EA9C005B084FEA3202B6EB7B
:10339000020E75EB030E22BFB61A754640EADC003A
:1033A00055EA060E18D04FEA051545EA16754FEA9C
:1033B00006164FEAC30343EA52734FEAC2025FEABA
:1033C0001C1CC0D111F4801F0BD141EA00014FF049
:1033D00000004FF0004CB6E711F4801F04BF01431A
:1033E0000020B4F1FD0C88BFBCF5E06F3FF6AFAE36
:1033F000B5EB030C04BFB6EB020C5FEA500C50F1C6
:10340000000041EB045170BD0EF0004E4EEA113148
:1034100014EB5C04C2BFD4EB0C0541EA045170BD4F
:1034200041F480114FF0000E013C90E645EA060E93
:103430008DE60CEA135594EA0C0F08BF95EA0C0FC1
:103440003FF43BAF94EA0C0F0AD150EA01347FF409
:1034500034AF95EA0C0F7FF425AF104619462CE7E0
:1034600095EA0C0F06D152EA03353FF4FDAE104643
:10347000194622E750EA410618BF52EA43067FF494
:10348000C5AE50EA41047FF40DAF52EA43057FF424
:10349000EBAE12E74FF0FF3C06E000BF4FF0010C2F
:1034A00002E000BF4FF0010C4DF804CD4FEA410C93
:1034B0007FEA6C5C4FEA430C18BF7FEA6C5C1BD060
:1034C00001B050EA410C0CBF52EA430C91EA030FE1
:1034D00002BF90EA020F0020704710F1000F91EA3E
:1034E000030F58BF994208BF90422CBFD8176FEA0C
:1034F000E37040F0010070474FEA410C7FEA6C5CDA
:1035000002D150EA013C07D14FEA430C7FEA6C5CE0
:10351000D6D152EA033CD3D05DF8040B704700BF0C
:103520008446104662468C461946634600E000BF5A
:1035300001B5FFF7B7FF002848BF10F1000F01BD2C
:103540004DF808EDFFF7F4FF0CBF012000205DF8F7
:1035500008FB00BF4DF808EDFFF7EAFF34BF01207C
:1035600000205DF808FB00BF4DF808EDFFF7E0FF15
:1035700094BF012000205DF808FB00BF4DF808ED66
:10358000FFF7CEFF94BF012000205DF808FB00BFCD
:103590004DF808EDFFF7C4FF34BF012000205DF8AF
:1035A00008FB00BF4FEA410212F5001215D211D5F7
:1035B0006FF47873B3EB625212D94FEAC12343F030
:1035C000004343EA505311F0004F23FA02F018BFB2
:1035D000404270474FF00000704750EA013005D17B
:1035E00011F0004008BF6FF0004070474FF000003E
:1035F000704700BF4FEA4102B2F1E04324BFB3F588
:10360000001CDCF1FE5C0DD901F0004C4FEAC00259
:103610004CEA5070B2F1004F40EB830008BF20F03D
:103620000100704711F0804F21D113F13872BCBFF7
:1036300001F00040704741F480114FEA5252C2F14C
:103640001802C2F1200C10FA0CF320FA02F018BF95
:1036500040F001004FEAC1234FEAD32303FA0CFCE8
:1036600040EA0C0023FA02F34FEA4303CCE77FEA77
:10367000625307D150EA01331EBF4FF0FE4040F4C1
:103680004000704701F0004040F0FE4040F4000070
:10369000704700BF80F0004002E000BF81F00041B1
:1036A00042001FBF5FEA410392EA030F7FEA226CE8
:1036B0007FEA236C6AD04FEA1262D2EB1363C1BF78
:1036C000D218414048404140B8BF5B42192B88BFE7
:1036D000704710F0004F40F4000020F07F4018BF0A
:1036E000404211F0004F41F4000121F07F4118BF2A
:1036F000494292EA030F3FD0A2F1010241FA03FCD2
:1037000010EB0C00C3F1200301FA03F100F00043B9
:1037100002D5494260EB4000B0F5000F13D3B0F181
:10372000807F06D340084FEA310102F10102FE2AF0
:1037300051D2B1F1004F40EBC25008BF20F0010060
:1037400040EA03007047490040EB000010F4000F0E
:10375000A2F10102EDD1B0FA80FCACF1080CB2EBA1
:103760000C0200FA0CF0AABF00EBC2505242184300
:10377000BCBFD0401843704792F0000F81F40001A5
:1037800006BF80F400000132013BB5E74FEA410378
:103790007FEA226C18BF7FEA236C21D092EA030FE4
:1037A00004D092F0000F08BF0846704790EA010F5E
:1037B0001CBF0020704712F07F4F04D1400028BF8B
:1037C00040F00040704712F100723CBF00F500006D
:1037D000704700F0004343F0FE4040F400007047A3
:1037E0007FEA226216BF08467FEA2363014642024F
:1037F00006BF5FEA412390EA010F40F48000704762
:103800004FF0000304E000BF10F0004348BF404207
:103810005FEA000C08BF704743F0964301464FF043
:1038200000001CE050EA010208BF70474FF000039F
:103830000AE000BF50EA010208BF704711F00043E0
:1038400002D5404261EB41015FEA010C02BF8446B0
:103850000146002043F0B64308BFA3F18053A3F50F
:103860000003BCFA8CF2083AA3EBC25310DB01FA56
:1038700002FC634400FA02FCC2F12002BCF1004FDA
:1038800020FA02F243EB020008BF20F0010070476B
:1038900002F1200201FA02FCC2F1200250EA4C00BF
:1038A00021FA02F243EB020008BF20EADC70704705
:1038B0004FF0FF0C1CEAD0521EBF1CEAD15392EA13
:1038C0000C0F93EA0C0F6FD01A4480EA010C4002EF
:1038D00018BF5FEA41211ED04FF0006343EA501049
:1038E00043EA5111A0FB01310CF00040B1F5000F8B
:1038F0003EBF490041EAD3715B0040EA010062F13A
:103900007F02FD2A1DD8B3F1004F40EBC25008BF23
:1039100020F00100704790F0000F0CF0004C08BF41
:1039200049024CEA502040EA51207F3AC2BFD2F10E
:10393000FF0340EAC250704740F400004FF000031C
:10394000013A5DDC12F1190FDCBF00F00040704756
:10395000C2F10002410021FA02F1C2F1200200FA94
:1039600002FC5FEA310040F1000053EA4C0308BF5B
:1039700020EADC70704792F0000F00F0004C02BFAC
:10398000400010F4000F013AF9D040EA0C0093F027
:10399000000F01F0004C02BF490011F4000F013B81
:1039A000F9D041EA0C018FE70CEAD15392EA0C0FEF
:1039B00018BF93EA0C0F0AD030F0004C18BF31F05A
:1039C000004CD8D180EA010000F00040704790F030
:1039D000000F17BF90F0004F084691F0000F91F0D4
:1039E000004F14D092EA0C0F01D142020FD193EA9A
:1039F0000C0F03D14B0218BF084608D180EA010022
:103A000000F0004040F0FE4040F40000704740F0FD
:103A1000FE4040F4400070474FF0FF0C1CEAD052CB
:103A20001EBF1CEAD15392EA0C0F93EA0C0F69D027
:103A3000A2EB030280EA010C49024FEA402037D092
:103A40004FF0805343EA111143EA10130CF0004089
:103A50008B4238BF5B0042F17D024FF4000C8B4279
:103A600024BF5B1A40EA0C00B3EB510F24BFA3EB59
:103A7000510340EA5C00B3EB910F24BFA3EB910329
:103A800040EA9C00B3EBD10F24BFA3EBD10340EA83
:103A9000DC001B0118BF5FEA1C1CE0D1FD2A3FF6C9
:103AA00050AF8B4240EBC25008BF20F0010070477E
:103AB0000CF0004C4CEA50207F32C2BFD2F1FF0321
:103AC00040EAC250704740F400004FF00003013A52
:103AD00037E792F0000F00F0004C02BF400010F4F6
:103AE000000F013AF9D040EA0C0093F0000F01F00A
:103AF000004C02BF490011F4000F013BF9D041EA2C
:103B00000C0195E70CEAD15392EA0C0F08D142025E
:103B10007FF47DAF93EA0C0F7FF470AF084676E731
:103B200093EA0C0F04D14B023FF44CAF08466EE70A
:103B300030F0004C18BF31F0004CCAD130F00042D8
:103B40007FF45CAF31F000437FF43CAF5FE700BF30
:103B50004FF0FF3C06E000BF4FF0010C02E000BF59
:103B60004FF0010C4DF804CD4FEA40024FEA4103FB
:103B70007FEA226C18BF7FEA236C11D001B052EAB1
:103B8000530C18BF90EA010F58BFB2EB030088BF77
:103B9000C81738BF6FEAE17018BF40F001007047E6
:103BA0007FEA226C02D15FEA402C05D17FEA236CC8
:103BB000E4D15FEA412CE1D05DF8040B704700BF0F
:103BC000844608466146FFE70FB5FFF7C9FF0028A6
:103BD00048BF10F1000F0FBD4DF808EDFFF7F4FFDF
:103BE0000CBF012000205DF808FB00BF4DF808ED78
:103BF000FFF7EAFF34BF012000205DF808FB00BF9B
:103C00004DF808EDFFF7E0FF94BF012000205DF8BC
:103C100008FB00BF4DF808EDFFF7D2FF94BF01206D
:103C200000205DF808FB00BF4DF808EDFFF7C8FF66
:103C300034BF012000205DF808FB00BF42000ED217
:103C4000B2F1FE4F0BD34FF09E03B3EB126209D4D7
:103C50004FEA002343F0004323FA02F070474FF08D
:103C60000000704712F1610F01D1420202D14FF002
:103C7000FF3070474FF00000704700BF80EA010C32
:103C80001CF0030F37D110F0030C20F0030021F0DB
:103C9000030150F8042B08BF51F8043B0ED08CF000
:103CA000030C6FF07F434FEACC0C23FA0CFC51F865
:103CB000043B42EA0C0243EA0C0300BFA2F1013CC0
:103CC0009A4201BF2CEA020C1CF0803F50F8042BF2
:103CD00051F8043BF2D04FEA02604FEA1222012869
:103CE00028BFB0EB036F08BF1B0AF4D003F0FF033B
:103CF000000EC01A704710F0030F0AD010F8012B05
:103D000011F8013B012A28BF9A42F4D0A2EB03002C
:103D100070474DF8045D50F8042B01F0030521F0C5
:103D2000030151F8043B022D26D04DD822F07F45E7
:103D3000B5EB132FA2F1013C2CEA020C0DD11CF0C3
:103D4000803C08BF51F8043B0AD185EA0205B5EB77
:103D5000036F0CD150F8042BE8E74FEA13235BE024
:103D60003CF07F4C54D10B784FEA126554E04FEA97
:103D7000126503F0FF034FE04FEA0245A2F1013C58
:103D80004FEA15452CEA020CB5EB134F18D11CF085
:103D9000803C08BF51F8043B07D185EA0205B5EB2A
:103DA000034F09D150F8042BE6E75FEA0C4C2FD102
:103DB0000B884FEA12452FE04FEA03434FEA1245C2
:103DC0004FEA134328E000BF02F0FF05B5EB136F85
:103DD000A2F1013C2CEA020C0DD11CF0803C08BF82
:103DE00051F8043B0AD185EA0205B5EB032F0AD14D
:103DF00050F8042BE8E74FEA13630DE012F0FF0FD1
:103E000006D051F8043B4FEA122523F07F4303E02C
:103E10004FF0000020BC704705F0FF0203F0FF00E8
:103E2000012828BF904204BF2D0A1B0AF4D0A2EB40
:103E3000000020BC704700BF08B5FCF73FFC114CE8
:103E4000FCF782FEFCF7BEFD4FF4E130FCF7FCFE10
:103E50004FF4E130FCF79EFF2646FCF79BFCFEF793
:103E600007F8FEF7CBF9FEF771FDFEF79DFEFDF7B3
:103E70002FFF00252378002BFCD0FEF7E3FD3570E3
:103E8000F8E700BF59040020002103E00A4B5B580B
:103E90004350043109480A4B42189A42F6D3094A62
:103EA00002E0002342F8043B074B9A42F9D3FCF7A7
:103EB00047F9FFF7C1FF70472852000800000020B3
:103EC0005404002054040020900B0020FEE7000062
:103ED0002DE9F843C1F30A57A7F2FF35132D0B461E
:103EE0000446864613DC002D47DB294F47FA05F5CB
:103EF00005EA010757EA000E1ED12046194603F0D5
:103F00000045C2E9000170462946BDE8F883332D1B
:103F10001EDCA7F213474FF0FF35FD4015EA0007FE
:103F200021D0894620EA0508C2E900890B464246AD
:103F3000FEF7EAFEBDE8F8834FF0000821EA050924
:103F4000C2E900894B464246FEF7DEFEBDE8F88333
:103F500020461946002403F00045C2E9000120462E
:103F60002946BDE8F8832046194603F00045C2E91A
:103F7000000138462946BDE8F883002003F00041DF
:103F800006460F4620461946C2E90067BDE700BF56
:103F9000FFFF0F002DE9F0438BB006460F4600F0FF
:103FA0007BF8DFF8E880044698F900300D460133CD
:103FB0000BD03046394600F057FA30B1304639461A
:103FC00000220023FFF7E4FA20B1204629460BB077
:103FD000BDE8F0832A4B98F800400890CDE90267CD
:103FE000CDE9046701939CB9264D4FF060443046FB
:103FF000394600220023CDE90645FFF7A1FA002843
:1040000035D101230093684600F05AFAA8B910E0B0
:10401000DFF87C904FF0000830463946002200233C
:10402000CDE90689FFF78CFA98B90123022C009399
:10403000E9D100F04DFA21230360134800F042FA61
:10404000CDE90601089BABB9DDE906010BB0BDE87F
:10405000F08302239C42009304D0684600F030FABB
:104060000028EFD100F034FA22230360EAE70223AC
:104070000093F2E700F02CFA089B0360E4E700BF2E
:1040800018510008FFFFEFC7C04D000820000020B6
:104090000000F0FF000000002DE9F04FB1F5801F97
:1040A00085B006460F460B465ADA024621F0004418
:1040B000224300F0F5800029C0F271810022DE4B1E
:1040C000FEF7D6FF0B460F46DC4906468B426FF0E3
:1040D000350249DCC3F3130505F5152404F66474B1
:1040E00004F4801E8EF07F5181F440111B15A3F261
:1040F000FF3341EA05079C1830460022D04B394671
:1041000004EB1E54FEF700FEAB1CC3F31303022B9B
:1041100082468B464FF000022FDC0023FFF710FA97
:10412000002800F0C680002C00F042812046FEF7F7
:1041300039FFADA3D3E9002306460F46FEF798FFEB
:10414000ABA3D3E9002304460D4630463946FEF7BB
:104150008FFF02460B4620462946FEF7D7FD09E0B1
:10416000B64900228B42B5DD3046394632463B46E1
:10417000FEF7CCFD05B0BDE8F08F4FF08043FEF7B1
:10418000C5FD02460B4650465946FFF79BF80646CA
:104190000F462046CDE90067FEF704FF3246CDE921
:1041A00002013B4630463946FEF762FF02460B46A7
:1041B00080468946FEF75CFF8FA3D3E900230646BD
:1041C0000F46FEF755FF8EA3D3E90023FEF79EFDB1
:1041D00032463B46FEF74CFF8BA3D3E90023FEF7A4
:1041E00095FD32463B46FEF743FF89A3D3E9002302
:1041F000FEF78CFD42464B46FEF73AFF86A3D3E915
:1042000000238046894630463946FEF731FF84A3B5
:10421000D3E90023FEF77AFD32463B46FEF728FF3E
:1042200081A3D3E90023FEF771FD32463B46FEF73A
:104230001FFF0B46024649464046FEF767FDA5F5BF
:10424000C223C5F5D725A3F27A4351351D43002D6E
:1042500006460F4653DD00227A4B50465946FEF77C
:1042600007FF52465B46FEF703FF80468946002C57
:1042700060D132463B46FEF749FDDDE90023FEF7FB
:10428000F7FE02460B4640464946FEF73DFD024614
:104290000B4650465946FEF737FD05B0BDE8F08F96
:1042A0000022002300206849FFF70CF805B0BDE8A4
:1042B000F08F52465B4650465946FEF7D9FE5CA346
:1042C000D3E9002306460F4650465946FEF7D0FE76
:1042D00002460B4600205B49FEF716FD02460B46E0
:1042E00030463946FEF7C4FE06460F46002C62D122
:1042F0005046594632463B46FEF706FD3AE7002C4B
:1043000000F0A48038A3D3E90023DDE90289404608
:104310004946FEF7ADFE32463B4604460D46504642
:104320005946FEF7F1FCDDE90023FEF7A1FE064643
:104330000F464CE02CA3D3E90023DDE90201FEF790
:1043400097FE32463B4604460D4640464946FEF738
:10435000DDFCDDE90023FEF78BFE25A3D3E9002376
:1043600006460F46DDE90201FEF782FE02460B46D5
:1043700030463946FEF7CAFC02460B4640464946DF
:10438000FEF7C2FC52465B46FEF7BEFC02460B46F9
:1043900020462946FEF7B8FC05B0BDE8F08F02467E
:1043A0000B46FEF7B1FC00220023FEF78BFFE1E68F
:1043B00000200021DEE62046FEF7F4FD0AA3D3E943
:1043C000002380468946FEF753FE04460D4608A3A7
:1043D000D3E9002340464946FEF74AFE02460B4613
:1043E00030463946CCE700BF0000E0FE422EE63FF3
:1043F000763C7935EF39EA3D44523EDF12F1C23F57
:10440000DE03CB966446C73F599322942449D23F9A
:10441000935555555555E53F9FC678D0099AC33FEA
:10442000AF788E1DC571CC3F04FA97999999D93F01
:10443000555555555555D53F00005043FFFFEF7F6B
:104440000000F03F0000E03F000050C302460B4672
:1044500050465946FEF758FCDDE90023FEF708FEFA
:1044600015E700BFAFF3008010B431F0004408D06E
:10447000114BA1F580129A4208D804205DF8044B34
:10448000704718B902205DF8044B704701F1FF41F5
:10449000094B01F5E0019942EFD9B4F5801F01D233
:1044A0000320EBE7054B9C4201D00020E6E7B0FA81
:1044B00080F04009E2E700BFFFFFDF7F0000F07FF0
:1044C0000020704700200149704700BF0000F87FBE
:1044D000014B1868704700BF50040020C9B270B487
:1044E000002933D0850710D00378002B59D099428A
:1044F00018BF431C06D127E013F8012B002A4DD02A
:10450000914221D09A071846F6D141EA0126036864
:1045100046EA064601E050F8043F83EA0605A5F1A5
:104520000134A3F1013224EA050422EA0303234300
:1045300013F0803FEFD0037823B932E010F8013F49
:10454000002B2ED09942F9D170BC704784070BD054
:104550000378002BF8D0431C03E002780133002AD3
:10456000F2D099071846F8D10268A2F1013323EA84
:10457000020313F0803F08D150F8042FA2F1013359
:1045800023EA020313F0803FF6D00378002BDBD040
:1045900010F8013F002BFBD170BC7047104670BC77
:1045A0007047184670BC704720F0030110F00300FC
:1045B000C0F1000051F8043B00F1040C4FEACC0CB0
:1045C0006FF000021CBF22FA0CF213434FF0010CF3
:1045D0004CEA0C2C4CEA0C4CA3EB0C0222EA030232
:1045E00012EACC1204BF51F8043B0430F4D0C2F1FB
:1045F000000102EA0102B2FA82F2C2F11F0200EBEC
:10460000D200704799B103789BB110B40144431CA8
:1046100002E01C78013334B18B421A46F9D1181AE2
:104620005DF8044B7047101A5DF8044B704708465C
:1046300070471846704700BF1000000000000000DF
:10464000017A5200027C0E011B0C0D0020000000BC
:104650001800000028F6FFFFBA01000000024D0E0E
:10466000048501027F0A41C50E00410B4EC50E00B4
:10467000030406080C1018203000000000000000A1
:104680000000000001020304060708090000000002
:10469000010203040000000000000080FB380B381A
:1046A000000000409D034138000000A0844475389C
:1046B000000000C0A595AA38000000A0879DE03842
:1046C00000000080E9C41439000000E023F64939F5
:1046D00000000060D6398039000000004C48B43931
:1046E000000000005F5AE939000000C0F6B01F3A30
:1046F000000000409ACE533A000000C040C2883A01
:1047000000000000D1F2BE3A000000A0C257F33A08
:1047100000000040B32D283B0000002020395E3B04
:1047200000000000B4E3923B00000000A19CC73BE6
:1047300000000040C983FD3B000000E05D72323C98
:1047400000000040F50E673C000000A0B2D29C3C87
:10475000000000A0AF03D23C000000809B84063D17
:1047600000000060C2253C3D000000809997713D2B
:10477000000000E07FFDA53D000000E0DF7CDB3DA8
:10478000000000E00B2E113E000000E08E79453E57
:10479000000000A0F2D77A3E000000A0F7C6B03EAD
:1047A00000000080B5F8E43E000000E0E2361A3F69
:1047B000000000E04D62503F00000040E17A843F7D
:1047C000000000A09999B93F000000000000F03FF0
:1047D00000000000000024400000000000005940DC
:1047E0000000000000408F40000000000088C3402F
:1047F00000000000006AF8400000000080842E41A4
:1048000000000000D01263410000000084D79741EF
:104810000000000065CDCD41000000205FA00242F5
:10482000000000E076483742000000A0941A6D4274
:10483000000000E09C30A24200000020C4BCD64230
:1048400000000020F56B0C430000004079C3414399
:104850000000008057347643000000606DC1AB4318
:1048600000000060E458E143000000801DAF1544E3
:10487000000000E0E41A4B4400000000CFF0804448
:10488000000000C0022DB544000000804378EA44D7
:10489000000000202A8B2045000000C0F4AD5445E4
:1048A000000000E071D9894500000020E727C045DD
:1048B00000000000E131F44500000040593E294667
:1048C00000000080EF8D5F46000000C0B5B8934641
:1048D00000000020E3A6C846000000E09BD0FE4692
:1048E0000000008061423347000000C0F9126847B1
:1048F00000000040B8179E4700000020D3CED247EA
:1049000008000900AA03AA03030003000300030030
:104910000A0001004000110040000A000A000100E6
:10492000210040004000400000000800080008008E
:10493000080000008203820301000300030040001E
:1049400020002300A2032300430043004300430050
:104950004300430003004300430040004000430085
:10496000430043004300430043004300430043002F
:10497000430043000300030023000300030043003F
:104980000000000000000000000000000000000027
:10499000000000000000000000004300430043004E
:1049A0004300430000000000000000000000000081
:1049B00000000000000000000000000000000000F7
:1049C000464C4153485F41435220202020203A204A
:1049D00030782530386C780A00000000464C41538E
:1049E000485F50454352202020203A20307825301F
:1049F000386C780A00000000464C4153485F504430
:104A00004B45595220203A2030782530386C780AAE
:104A100000000000464C4153485F50454B455952F9
:104A200020203A2030782530386C780A00000000C9
:104A3000464C4153485F5052474B455952203A200B
:104A400030782530386C780A00000000464C41531D
:104A5000485F4F50544B455952203A20307825300A
:104A6000386C780A00000000464C4153485F5352AE
:104A70002020202020203A2030782530386C780AF9
:104A800000000000464C4153485F4F425220202016
:104A900020203A2030782530386C780A0000000059
:104AA000464C4153485F57525052312020203A2003
:104AB00030782530386C780A00000000464C4153AD
:104AC000485F57525052322020203A20307825300B
:104AD000386C780A000000002D00000025642E25A7
:104AE000642E25642E256400303132333435363758
:104AF0003839616263646566000000002330782500
:104B0000303478202D20000025303278200000003D
:104B10002D2D2000256300002E0000006174000090
:104B200041540A00737265736574000023736F66E5
:104B3000747761726520726573657420424C4520FC
:104B40004D6F64756C650A0041542B5245424F4FBE
:104B5000540A00006872657365740000236861720E
:104B6000647761726520726573657420424C4520DC
:104B70004D6F64756C650A00616476696E000000B3
:104B800041542B414456494E3D25640A0000000023
:104B900041542B414456494E0A0000006469736336
:104BA0000000000041542B444953430A0000000018
:104BB0007665720041542B5645520A0061647200BA
:104BC00041542B414444520A00000000626E616D62
:104BD000650000006E616D650000000041542B4EC1
:104BE000414D453D25730A0041542B4E414D450A28
:104BF00000000000626175640000000041542B4217
:104C00004155440A000000007363616E000000001B
:104C1000237363616E20666F7220424C45204465A9
:104C200076696365730A000041542B5343414E3D3E
:104C3000312C34380A000000726F6C6500000000EF
:104C400041542B524F4C450A000000006C706D5FC0
:104C50006F6E000023656E746572204C6F77205074
:104C60006F776572204D6F64650A00006C706D5F30
:104C70006F666600236C65617665204C6F77205007
:104C80006F776572204D6F64650A000063616C0088
:104C90004E544325643A2025640A00006364756D10
:104CA000700000006D696E006D61780064756D7054
:104CB0000000000068656C700000000068656C70A2
:104CC00020202020202020202020202020203A20CA
:104CD000746869732068656C700A00007665727389
:104CE000696F6E20202020202020202020203A20C4
:104CF00076657273696F6E20696E666F726D61742E
:104D0000696F6E0A0000000076657273696F6E004D
:104D1000232D204D4F4953544552202D2076312EBE
:104D200030202D2041756720203120323032322052
:104D30002D207262202D0A000A3E00003E00000075
:104D400025332E3166200000534F494C3A20000095
:104D500023202D2D20536F696C2053656E736F7265
:104D600020426F756E6473202D2D0A230A00000007
:104D7000232073656E736F7225643A2025642025A5
:104D8000640A0000564444413A2025312E32662000
:104D900056736F6C3A2025312E326620566261744C
:104DA0003A2025312E326620200000002D2D204192
:104DB000444320726567697374657273202D2D0AF0
:104DC00000000000414443315F5352202020203A2C
:104DD000202530386C780A00414443315F4352311A
:104DE0002020203A202530386C780A004144433195
:104DF0005F4352322020203A202530386C780A0058
:104E0000414443315F534D505231203A20253038D0
:104E10006C780A00414443315F534D505232203A7E
:104E2000202530386C780A00414443315F534D509F
:104E30005233203A202530386C780A0041444331FF
:104E40005F5351523120203A202530386C780A00C7
:104E5000414443315F5351523220203A20253038AB
:104E60006C780A00414443315F5351523320203A59
:104E7000202530386C780A00414443315F53515249
:104E80003420203A202530386C780A0041444331E0
:104E90005F5351523520203A202530386C780A0073
:104EA000414443315F4452202020203A20253038AD
:104EB0006C780A004144435F435352202020203A3B
:104EC000202530386C780A004144435F4343522028
:104ED0002020203A202530386C780A002D2D2063C0
:104EE0006F6D6D6F6E20444D4120726567697374FC
:104EF000657273202D2D0A00444D415F49535220A5
:104F0000202020202020203A202530386C780A00EC
:104F1000444D415F49464352202020202020203A22
:104F2000202530386C780A002D2D20444D41312049
:104F30004368616E6E656C31207265676973746574
:104F40007273202D2D0A0000444D41315F434831DA
:104F50005F4343522020203A202530386C780A00E5
:104F6000444D41315F4348315F434E445452203AEF
:104F7000202530386C780A00444D41315F43483178
:104F80005F4350415220203A202530386C780A0087
:104F9000444D41315F4348315F434D415220203AF7
:104FA000202530386C780A004E54433A2025322EA2
:104FB00031662025322E31662025322E316620259D
:104FC000322E316620200000234525643A2025300A
:104FD00032642000234E5443206F6666736574204C
:104FE0006572726F72733A0A00000000234E5443D8
:104FF00025643A2025312E3166200A002373656E20
:105000006420415420636F6D6D616E640A0000007E
:1050100041542B4C504D3D310A00000023424C4579
:1050200020656E746572204C6F7720506F776572C3
:10503000204D6F64650A00002373656E736F7220E4
:1050400075706461746520646F6E650A000000000D
:1050500025733A20000000002325733A2000000049
:105060002564200025640A0023646174612054785B
:1050700020646F6E650A000041542B4C504D3D304A
:105080000A00000023424C45206C65617665204C87
:105090006F7720506F776572204D6F64650A00004E
:1050A00023424C4520656E74657220436F6D6D61BF
:1050B0006E64204D6F64650A0000000023424C4579
:1050C00020656E7465722044617461204D6F646563
:1050D0000A0000002373656E64206E616D652063B5
:1050E0006F6D6D616E640A00236E616D653A2025F7
:1050F000730A00002373656E6420616476696E2014
:10510000636F6D6D616E640A000000004F4B00001C
:105110004E414D45000000006C6F670000202020CC
:105120002020202020202828282828202020202057
:105130002020202020202020202020202088101027
:105140001010101010101010101010101004040483
:105150000404040404040410101010101010414141
:10516000414141410101010101010101010101012F
:105170000101010101010101101010101010424243
:1051800042424242020202020202020202020202FF
:10519000020202020202020210101010200000009F
:1051A00000000000000000000000000000000000FF
:1051B00000000000000000000000000000000000EF
:1051C00000000000000000000000000000000000DF
:1051D00000000000000000000000000000000000CF
:1051E00000000000000000000000000000000000BF
:1051F00000000000000000000000000000000000AF
:10520000000000000000000000000000000000009E
:10521000000000000000000000000000000000008E
:085220004300000028000020FB
:1052280068FF1F00060000000700000004000000DF
:105238004D4F495354455200000000000000000043
:10524800010000001C5100080000000014030020A9
:105258007C030020E40300200000000000000000A0
:105268000000000000000000000000000000000036
:1052780000000000000000000000000020520008AC
:105288000000000000000000000000000000000016
:105298000000000000000000000000000000000006
:1052A80000000000000000000000000000000000F6
:1052B80000000000000000000000000000000000E6
:1052C80000000000000000000000000000000000D6
:1052D80000000000000000000000000000000000C6
:1052E80000000000000000000000000000000000B6
:1052F80001000000000000000E33CDAB34126DE653
:10530800ECDE05000B0000000000000000000000BB
:105318000000000000000000000000000000000085
:105328000000000000000000000000000000000075
:105338000000000000000000000000000000000065
:105348000000000000000000000000000000000055
:0456780028000020E6
:00000001FF
