:020000040800F2
:1000000000180020996500081566000815660008AC
:1000100000000000000000000000000000000000E0
:10002000000000000000000000000000156600084D
:1000300000000000000000001566000815660008BA
:1000400015660008156600081566000815660008A4
:100050001566000815660008156600081566000894
:100060001566000815660008156600081566000884
:100070001566000869040008156600081566000882
:10008000156600080000000000000000156600086A
:1000900000000000156600081566000815660008D7
:1000A000000000001566000815660008810F0008B2
:1000B000ED10000800000000156600081566000835
:1000C0000121114B1A680A431A6058680F4A02400E
:1000D0005A6018680E4A02401A6018680D4A0240B9
:1000E0001A6058680C4A02400F205A60DA6A82434C
:1000F000DA62186B094A02401A635A6B8A435A63E0
:1001000000229A607047C046001002400CB8FF08F9
:10011000FFFFF6FEFFFFFBFFFFFFC0FF2CFEFFFF10
:100120000C21164A70B553680B40082B16D1506845
:100130005568D36AC02603311940802380027602B5
:10014000000F3540841C01315B029D4201D0B54255
:100150000FD00B4803F09EFA604300E00848074BBD
:10016000084A5B681B061B0FD35CD840064B18601F
:1001700070BD064803F08EFA6043F0E700100240BD
:1001800000127A003068000800000020006CDC02D9
:100190000022024B5A609A60DA60704700580140B2
:1001A0000E490F4B0A68022013400B600B680123B5
:1001B0000A6813430B600A68084B1042FBD0012207
:1001C0000220596A0A435A625A6A04491042FBD013
:1001D00000234B60A023DB044B60704700100240FB
:1001E000FFFFFFFE0022034B5A60A022D2045A6098
:1001F0007047C046001002400123044A516A0B4375
:1002000002215362536A1942FCD070470010024029
:100210000121024A536A8B43536270470010024027
:100220000123044A11680B43022113601368194229
:10023000FCD07047001002400121024A13688B4332
:1002400013607047001002408021054A490213687C
:100250000B4380211360890213680B42FCD0704766
:10026000001002408021054A490413680B43802195
:100270001360890413680B42FCD0704700100240E1
:10028000034B044A19680A401A601B687047C0464D
:1002900000100240FFFFFFFEF0B556465F464D4698
:1002A00044460023F0B483B0019300939C469846E3
:1002B000203381460026002700229A460CE0181CB5
:1002C000A040041C584683401E43019B0132234337
:1002D00001930231102A2CD00B7854009807800F1C
:1002E000A040834640465D46284380461807800F5D
:1002F000A040834660465D46284384465806800FEA
:10030000A040041CDB06DB0F009893402043202410
:100310001F430B8800905B05900064421B0F8346CF
:100320000419CCD550465C46041B181CE040041C44
:10033000C8E74B4642461A6062469A60009ADA6005
:10034000019A5F601E625A6203B03CBC90469946B7
:10035000A246AB46F0BDC0468C2190200A4A10B59B
:1003600053690A4CC9030B435361211CC005FFF7B5
:1003700093FF211C06482031FFF78EFF211C054802
:100380004031FFF789FF10BD0010024048680008A7
:1003900000040048001400480223024A51690B433C
:1003A00053617047000400480221024A53698B439D
:1003B00053617047000400480223064A51690B420A
:1003C00003D151690B43536170475169994351619E
:1003D000FAE7C0460004004838B50225044C6369BA
:1003E0002B43636100F0F4F86369AB43636138BD8C
:1003F0000004004890228023D20551690B435361C9
:100400007047C04690228021D20553698B435361C7
:100410007047C04690228023D20551690B4203D118
:1004200051690B4353617047516999435161FAE730
:1004300038B590248025E40563692B43636100F09F
:10044000C7F86369AB43636138BDC0469022D205EB
:10045000002804D1202153698B4353617047202326
:1004600051690B435361F9E70021134B1961134B99
:100470001A780132D2B21A70092A0AD85A780A2A8E
:1004800010D0DA780A2A03D1093A5A710022DA70B8
:10049000704701229A705A7819700132D2B25A709C
:1004A0000A2AEED101221A7100225A70DA7801323A
:1004B000D2B2DA70E6E7C046002C014048000020C6
:1004C000C121344BC9029A69F0B50A4304219A61EB
:1004D000DA69FF310A43DA610020012307252E4A39
:1004E0002E4990625361D162D36013602C4AC131AE
:1004F00011602C4A63249562536113608022D026D8
:100500002949D2059162D46290639169F601314321
:1005100091611021166A80273143116211683F02F0
:100520001943116051691943516168211F4A95624D
:10053000D462506396690E439661166A1E43166232
:1005400016681E43166056691E435661184A956226
:10055000D462506396690E439661166A1E43166212
:10056000566C3E43566416681E43166056691E4319
:100570005661104A9562D46250639069014391615B
:10058000106A18431062516C3943516451690B432E
:100590005361F0BD00100240002C01403F1F0000DD
:1005A00000E100E0000400401F03000000200040C4
:1005B0000044014000480140044A536AC01880B218
:1005C000536A1B1A1B04FBD47047C046000400404A
:1005D00010B50949094C09E0FA22920094464B6A89
:1005E00063449BB24A6AD21A1204FBD4013880B227
:1005F000A042F1D110BDC04600040040FFFF000042
:1006000010B5002915D0041C4800411848010818ED
:10061000642103F0CFF8013083B2012C1FD0002CED
:1006200013D0022C04D1164AD26A01329A4209D25E
:1006300010BD012819D000281DD00228F8D10023B0
:100640000F4AD26A0E4A5363F2E78022D205D26A79
:1006500001329342ECD88022D2059363E8E7094A3D
:10066000D26A01329342E3D802E00023054AD26AFB
:10067000044A5363DCE78023DB05DB6A0023EAE7F7
:100680000044014000200040174830B5036843682B
:10069000036801689B029B0F9A00D3180903134C4F
:1006A0005B00090F5918E160026803685204520F99
:1006B0009500AA181B051B0F5200D218226103686F
:1006C00000685B065B0F9D00EB180F255B00284060
:1006D0001818E1231B014B431501AA1A92009B181D
:1006E0001B186061A36130BD002800409C040020FD
:1006F000E120074A0001D168414310690301181A3B
:100700008300C81853699C46604490617047C04696
:100710009C04002000B5094B83B01B78002B0AD045
:10072000FFF7B2FF0648C16802694369806900901B
:10073000044801F0A9F803B000BDC0464E000020F7
:100740009C040020586E0008802370B5094DEA68AB
:100750001343EB60EB685B060BD4074C402602E0CA
:10076000013C002C05D00A20FFF726FFEB681E4253
:10077000F6D070BD00280040E7030000802270B56D
:10078000094DEB689343EB60EB685B060BD5074CB8
:10079000402602E0013C002C05D00A20FFF70CFFA8
:1007A000EB681E42F6D170BD00280040E703000050
:1007B00080218020174B4905DA6910B50A43DA61B8
:1007C000154A40001168154C0143116082211268DE
:1007D0001A6A09020A431A62CA236362773B636298
:1007E000FFF7B2FF0E4B2361002323606360FFF726
:1007F000C5FF8020221C4002D36808490342FBD178
:100800007123054ACB638E334B621168054B0B4055
:10081000136010BD0010024000700040002800402E
:1008200041017F00FFFEFFFFF8B54F464646C0B4CA
:10083000172803D83B2901D83B2A03D90CBC904682
:100840009946F8BD161C8022234F52003B680D1CB0
:1008500013433B603B68214B041C9846CA23424625
:100860005362773B5362FFF76FFF301C0A2102F09F
:1008700011FFC0B203019946301C0A2102F090FF1B
:100880004E46C9B20E43281C0A2102F003FFC1B232
:1008900009030E43281C0A2102F082FF351CC9B24D
:1008A00009020D43201C0A2102F0F4FEC1B2090521
:1008B0000D43201C0A2102F073FF4346C9B209040C
:1008C00029431960FFF75AFFFF23424653623A68F3
:1008D000034B13403B60B1E700700040002800402C
:1008E000FFFEFFFFF0B5474680B4232803D85F29F9
:1008F00001D85F2A02D904BC9046F0BD9046802200
:100900000E4E520033680E4F134333603368CA23D0
:100910007B62773B7B620D1C041CFFF715FF424690
:1009200029020A43200410433860FFF727FFFF2302
:100930007B623268034B13403360DCE70070004099
:1009400000280040FFFEFFFF0122014B1A70704794
:100950004E0000200022014B1A7070474E0000200C
:1009600010B52E4C2E4800F08FFF21682D4800F066
:100970008BFF61682C4800F087FFA1682B4800F0CE
:1009800083FFE1682A4800F07FFF2169294800F0D1
:100990007BFFE169284800F077FF616A274800F093
:1009A00073FFA16A264800F06FFFE16A254800F056
:1009B0006BFF216B244800F067FF616B234800F058
:1009C00063FFA16B224800F05FFFE16B214800F05C
:1009D0005BFF216C204800F057FF616C1F4800F05E
:1009E00053FF216D1E4800F04FFF616D1D4800F060
:1009F0004BFFA16D1C4800F047FFE16D1B4800F064
:100A000043FF216E1A4800F03FFF1A4800F03CFFF8
:100A1000194B1A48196800F037FF10BD0028004034
:100A2000706E0008806E0008986E0008B06E0008B6
:100A3000C86E0008E06E0008F86E0008106F00082D
:100A4000286F0008406F0008586F0008706F00089A
:100A5000886F0008A06F0008B86F0008D06F00080A
:100A6000E86F000800700008187000083070000877
:100A700048700008D47300080070004060700008DF
:100A800010210A4B1A6B8A4380211A63DA698903A1
:100A90000A43DA610122064B19689143196005493E
:100AA000196119680A431A607047C0460010024075
:100AB00000540040130F42108021084A8903D36973
:100AC0000B43D3610122064B196891431960054914
:100AD000196119680A431A607047C0460010024045
:100AE00000540040130F42108023F0B547469B048A
:100AF00080B41843171C130480220F4C1843606005
:100B00006368920113438846636000260125002F25
:100B10000CD0A3691D42FCD043469A5D064B0120D0
:100B20009A620136FFF754FDB742F2DC0348FFF743
:100B300043FD04BC9046F0BD00540040DC050000BD
:100B40000D4B30B51843031C1404234380240B4879
:100B5000A401436043680025234343600424002A22
:100B600008D083691C42FCD0044B5B6A4B550135AD
:100B7000AA42F6DC30BDC04600040002005400402A
:100B800010B5124C1248216800F07EFE61681148D1
:100B900000F07AFEA168104800F076FEE1680F4888
:100BA00000F072FE21690E4800F06EFEA1690D484A
:100BB00000F06AFEA16A0C4800F066FE616A0B480C
:100BC00000F062FE0A4800F05FFE10BD00540040D5
:100BD0007870000890700008A8700008C0700008C5
:100BE000D8700008F0700008087100082071000833
:100BF000D473000810B5002907D00023034A8900E8
:100C0000D458C45004338B42FAD110BD007C000884
:100C1000144BF0B557469A46134B45464E469946F7
:100C20000123E0B4984600255246AB00D458434611
:100C30006421E617201C1E4302F0BCFD071C201C8B
:100C40006421704302F09CFE48460B1C3A1C291C90
:100C5000013500F019FE032DE6D11CBC90469946E3
:100C6000A246F0BD007C00083871000830B50124B0
:100C7000114DEB68104A1C42FBD113691B0603D5CA
:100C80000E4B53600E4B536001230B4A14692343F0
:100C900013610180090C41800120D3680649184284
:100CA000FBD12023CA68134200D0CB600121024A45
:100CB00013698B43136130BD002002402301674557
:100CC000AB89EFCD012110B5124CE368114A1942EE
:100CD000FBD113691B0603D50F4B53600F4B5360B9
:100CE00002230C4A11690B43136140235061012018
:100CF00011690B431361D36806491842FBD12023C5
:100D0000CA68134200D0CB600221024A13698B43A8
:100D1000136110BD0020024023016745AB89EFCD70
:100D200008B5094BDA68094B9A4207D00848FFF723
:100D3000C9FF0020074900F0BFFD08BD064900209B
:100D400000F0BAFDF9E7C046007C0008D2040000BC
:100D5000007C00084871000884710008F0B547461F
:100D6000804680B40D480F1CFFF7ACFF002F13D056
:100D7000002400250A4E4346301919590135FFF762
:100D800075FF0434BD42F6DB301C06490C30FFF71A
:100D90006DFF04BC9046F0BD014EF5E7007C0008F5
:100DA000007C0008D2040000FF20054B00041B68F3
:100DB0001840020AFF2003401A43101C7047C04627
:100DC00004F8FF1F01210648C368054A1942FBD1F8
:100DD00013691B0603D5034B5360034B53607047E5
:100DE0000020024023016745AB89EFCD01210A486D
:100DF000C368094A1942FBD113691B0603D5074B87
:100E00005360074B5360044B1A69920503D4034A9D
:100E10009A60034A9A6070470020024023016745A8
:100E2000AB89EFCD10230E4A10B51469800023431F
:100E30001361FF230B4C0B4003530B4B090AC152A8
:100E40000120D36806491842FBD12023CA68134207
:100E500000D0CB601021024A13698B43136110BD8F
:100E60000020024000F8FF1F02F8FF1F20230C4A59
:100E7000012011690B431361402311690B43136176
:100E8000D36807491842FBD12023CA68134200D017
:100E9000CB602021024A13698B4313617047C0461F
:100EA0000020024010B5041CFFF7A0FFFFF7DEFF93
:100EB00000200849FFF7B6FF211C074C0120FFF76F
:100EC000B1FF211C0220FFF7ADFF0320211CFFF71B
:100ED000A9FF10BDAAFF0000FFFF000070B50024AD
:100EE000074D084E211C2A1C2B68301C013400F0D1
:100EF000CBFC0435042CF5D1034800F0C5FC70BDD3
:100F000000F8FF1FB8710008E4710008044B18686E
:100F1000044B1B685840044B1B6858407047C04640
:100F2000B0F7FF1FACF7FF1FB4F7FF1F10B50D4C54
:100F30000D48216800F0A8FCE1680C4800F0A4FC12
:100F400021690B4800F0A0FC61690A4800F09CFC94
:100F5000E169094800F098FC216A084800F094FC17
:100F600010BDC04600200240EC7100080472000869
:100F70001C720008347200084C7200086472000889
:100F8000154A10B5D369990607D5928C90B2134AC9
:100F900011685468091B7F2911DD802119420DD089
:100FA0000F4A9368D068984211D09368591C916099
:100FB0007F210B40D3181A7C074B1A8510BD11688E
:100FC0004C1C14607F24214052181072E5E7024A3D
:100FD00013688B431360F1E7003801405000002094
:100FE000D00000200849CA688B68D31A7F2BFBDC2D
:100FF000531CCB607F231A408A181074034A0133B4
:1010000011680B4313607047D00000200038014086
:10101000034AD16893688B42FCD100207047C046D8
:10102000D0000020F0B5474680B40678002E1BD0D3
:101030000F497F27CA680D1C831A984680239C4657
:101040000C4C8B68D31A7F2BFBDC501C3A40AA183F
:101050001674624623681343236043461E5C002EC9
:1010600001D0021CEDE7E86004BC9046F0BDC0462C
:10107000D00000200038014080220A495202CB698A
:101080001342FCD1084A11685368994206D0591C92
:1010900051607F210B40D318187A704701204042DD
:1010A000FBE7C0460038014050000020011C8020B2
:1010B0000A4AC001936910B5034393610023084CA9
:1010C0000848A360636002F0E5FA2D23802200093E
:1010D000E0602360044B12051A6010BD001002404E
:1010E000003801400020A10700E100E0154A10B5DA
:1010F000D369990607D5928C90B2134A1168546847
:10110000091B7F2911DD802119420DD00F4A9368F8
:10111000D068984211D09368591C91607F210B4090
:10112000D3181A7C074B1A8510BD11684C1C14602B
:101130007F24214052181072E5E7024A13688B435E
:101140001360F1E70044004060010020E00100204E
:1011500010B5041E0A2C11D00A49CA688B68D31A2C
:101160007F2BFBDC531CCB607F231A408A1814743E
:10117000054A013311680B43136010BD0D20FFF7C2
:10118000E7FFE9E7E001002000440040034AD1689E
:1011900093688B42FCD100207047C046E0010020DC
:1011A00010B5041C00780134002805D0FFF7D0FFEB
:1011B000207801340028F9D110BDC046074A1168D3
:1011C0005368994206D0591C51607F210B40D318B7
:1011D000187A704701204042FBE7C04660010020BA
:1011E000011C80200A4A8002D36910B50343D361F1
:1011F0000023084C0848A360636002F04BFA2D23DB
:1012000080220009E0602360044B52051A6010BD83
:1012100000100240004400400020A10700E100E06F
:101220000EB400B582B004AA0349019200F006F89A
:1012300002B008BC03B018477C720008F0B54D46F8
:101240005F46564644468B46F0B49146051C8FB027
:1012500005905A465B4612780133002A0AD0252AA7
:1012600012D09B462A705A465B46127801350133EC
:10127000002AF4D1059B2A70E81A0FB03CBC9046B6
:101280009946A246AB46F0BD5A465278302A00D065
:101290000FE101331A78302AFBD001210391111C90
:1012A0003039C8B2002409280AD8A2000133141921
:1012B0001A7864006418111C3039C8B20928F4D9AE
:1012C0002E2A15D00126197876420422081C904354
:1012D000682801D15978013301339B460B1C583BD8
:1012E000DBB2202B00D9D9E0824A9B00D3589F461D
:1012F0005978581C0A1C303AD3B2092B00D9F6E0B1
:10130000031C0026B10001338E1919787600B61837
:101310000A1C303AD0B20928F4D9D6E70A239A46F3
:101320004B46043304934B461B68994664297AD094
:10133000714F002206ABDA774B46002B00D1C5E097
:1013400004AA94462723221C6344A8464C461D1C2D
:10135000B14656469246201C311C02F021FA674BDA
:10136000013D5B5C201C2B70311C02F093F9041EC4
:10137000F1D12B1C4E46454654469846731C00D16D
:101380008FE0049B5E499946404605F025FA361ADF
:10139000F3438246DB17381C1E4005F0E9F953463B
:1013A000241AF0183B78241A002B06D001356A1E47
:1013B000013713703B78002BF8D1002E06D0302275
:1013C0002B1CAD191A7001339D42FBD15346002BE3
:1013D00008DD002341465046CA5CEA54013383428B
:1013E000FAD1ED18002C00DC33E720222B1C2D193C
:1013F0001A7001339D42FBD12BE74A46127806ABA7
:101400001A70042294460121E144002698463A4F7E
:10141000BAE710239A464B46043304934B461B68A5
:101420009946642984D1002B82DA5B429946354F74
:101430007FE74A464B46126804339046721C40D000
:10144000311C994600262C4F9EE74B4604330493EB
:101450004B461B680022994606ABDA774B46002BB9
:101460003AD0102308269A46234F69E7FF274B46B8
:101470003A1C19681E1D080C38400A400B0A090E58
:101480003B400090019106A81F49FFF7C9FE06AB3B
:10149000B1461B4900269846174F75E7297001355C
:1014A000D7E6039B002B07D0381C05F061F9261AFC
:1014B00067E700210391F2E6049B11499946012652
:1014C00062E799460E4900260B4F5DE704AA2723E1
:1014D00094466344984651E7049B04AA994694466F
:1014E00027236344064908269846034F4CE7031C0C
:1014F0000026EAE6A8680008207300088C7200083D
:10150000FFFFFF7F887200087C7200080FB410B5DF
:1015100082B004AA084C02CA201C0192FFF78EFE7A
:10152000201CFFF77FFD201C05F022F902B010BC43
:1015300008BC04B01847C046700200200EB410B5B5
:1015400083B0002812D00B4C06AA78340599201CD1
:101550000192FFF773FE201CFFF764FD201C05F0CD
:1015600007F903B010BC08BC03B018470120404283
:10157000F7E7C0467002002008B5FFF733FD0020F2
:1015800008BDC04608B5FFF74DFD0A20FFF72AFD4C
:10159000002008BD08B5FFF76FFD08BDF0B54D464A
:1015A0005F46564644468B46F0B49146051C8FB0C4
:1015B00005905A465B4612780133002A0AD0252A44
:1015C00012D09B462A705A465B4612780135013389
:1015D000002AF4D1059B2A70E81A0FB03CBC904653
:1015E0009946A246AB46F0BD5A465278302A00D002
:1015F0000FE101331A78302AFBD001210391111C2D
:101600003039C8B2002409280AD8A20001331419BD
:101610001A7864006418111C3039C8B20928F4D94A
:101620002E2A15D00126197876420422081C9043F0
:10163000682801D15978013301339B460B1C583B74
:10164000DBB2202B00D9D9E0824A9B00D3589F46B9
:101650005978581C0A1C303AD3B2092B00D9F6E04D
:10166000031C0026B10001338E1919787600B618D4
:101670000A1C303AD0B20928F4D9D6E70A239A4690
:101680004B46043304934B461B68994664297AD031
:10169000714F002206ABDA774B46002B00D1C5E034
:1016A00004AA94462723221C6344A8464C461D1CCA
:1016B000B14656469246201C311C02F071F8674B29
:1016C000013D5B5C201C2B70311C01F0E3FF041E0C
:1016D000F1D12B1C4E46454654469846731C00D10A
:1016E0008FE0049B5E499946404605F075F8361A2E
:1016F000F3438246DB17381C1E4005F039F8534689
:10170000241AF0183B78241A002B06D001356A1EE3
:10171000013713703B78002BF8D1002E06D0302211
:101720002B1CAD191A7001339D42FBD15346002B7F
:1017300008DD002341465046CA5CEA540133834227
:10174000FAD1ED18002C00DC33E720222B1C2D19D8
:101750001A7001339D42FBD12BE74A46127806AB43
:101760001A70042294460121E144002698463A4F1B
:10177000BAE710239A464B46043304934B461B6842
:101780009946642984D1002B82DA5B429946354F11
:101790007FE74A464B46126804339046721C40D09D
:1017A000311C994600262C4F9EE74B460433049388
:1017B0004B461B680022994606ABDA774B46002B56
:1017C0003AD0102308269A46234F69E7FF274B4655
:1017D0003A1C19681E1D080C38400A400B0A090EF5
:1017E0003B400090019106A81F4900F03FF806AB6E
:1017F000B1461B4900269846174F75E729700135F9
:10180000D7E6039B002B07D0381C04F0B1FF261A43
:1018100067E700210391F2E6049B114999460126EE
:1018200062E799460E4900260B4F5DE704AA27237D
:1018300094466344984651E7049B04AA994694460B
:1018400027236344064908269846034F4CE7031CA8
:101850000026EAE62C690008207300088C72000854
:10186000FFFFFF7F887200087C7200080EB400B58D
:1018700082B004AA03490192FFF790FE02B008BCAF
:1018800003B018477C7200080FB410B582B004AAE8
:10189000084C02CA201C0192FFF780FE201CFFF7B3
:1018A0007FFC201C04F064FF02B010BC08BC04B034
:1018B0001847C046600300200EB410B583B000285E
:1018C00012D00B4C06AA78340599201C0192FFF720
:1018D00065FE201CFFF764FC201C04F049FF03B0E8
:1018E00010BC08BC03B0184701204042F7E7C046CF
:1018F00060030020000000002DE9F84F5C4A82469A
:10190000002600E001361AF80690A9F10903D9B2C1
:10191000172903D85BB212FA03F3F3D4B9F12B0FF2
:1019200002D0B9F12D0F08D10136B9F12B0F14BF38
:101930004FF0FF394FF0010901E04FF00109262770
:1019400000240025DFF82CB114E0002F10DB0BEB96
:10195000C70804F02FFD4346D3E9002303F0E0FE5F
:1019600002460B462046294602F074FF04460D4607
:10197000013F01361AF80630C7F14B08A3F13000D9
:10198000C2B2092AE1D92E2B16D114E0002F11DBA7
:10199000384B03EBC70B04F00DFD5B46D3E9002386
:1019A00003F0BEFE02460B462046294602F052FFD7
:1019B00004460D46013F01361AF80630A3F1300007
:1019C000C2B2092AE2D9652B01D0452B21D1731C63
:1019D0001AF803202B2A01D02D2A06D1B31C2B2A5A
:1019E00014BF4FF0FF32012200E001220AEB030096
:1019F0000A27002302E007FB0313303B10F8011B0A
:101A0000A1F13006092EF6D902FB0388B8F1000FC8
:101A100019DBB8F14B0F0ADDB8F14C0F16D112A348
:101A2000D3E900232046294601F0CCFF70B1114BC9
:101A3000204603EBC8032946D3E9002303F070FED8
:101A400004460D4604E00024002501E00A4D002470
:101A5000484604F0AFFC02460B462046294603F0F8
:101A60005FFEBDE8F88F00BFE478AA9DFB38FB3F1E
:101A7000000100C0B06900080000F07FAFF30080F3
:101A80002DE9F04F85B00E9D0F9F80468946164682
:101A900033EA230B28BF4FF0060B284639460022B5
:101AA000002301F08FFF20B12D2307F1004708F834
:101AB000013B284639460022002301F07DFF98B9FA
:101AC000DFF8BCA14C2405E0B9F1660F01D1262C4A
:101AD0000BDD013C284639467AE9022301F072FF0A
:101AE00018B1002CF0D100E02624B9F1670FA4F161
:101AF000260AA4F1250C04D1BCF1060F00F3A8803E
:101B000003E0B9F1660F40F0A580E3440BF1020356
:101B1000B34280F29B804FF0660917E0A4B9554BA1
:101B200028463946D3E9002301F04CFF60B128462E
:101B300039460022504B03F0F3FD6FF0260A0546AC
:101B40000F464FF0010C01E04FF0010C494E2846C2
:101B500006EBC404D4E900233946CDF804C003F0F1
:101B6000A1F9CBF1270306EBC30604460D4600227C
:101B7000D6E90001414B03F0D3FD0B46024629464E
:101B8000204602F067FE02AA04F046FDDDE9026786
:101B900004460D46304639460022374B01F030FFEF
:101BA000DDF804C070B1312308F8013B30463946F6
:101BB0000022314BCDF804C004F04CF8CDE902010D
:101BC000DDF804C000262E271AE0664508BF08F895
:101BD000017BDDE90201CDF804C004F0B5FB303033
:101BE00008F8010B294620460022234B03F098FDFC
:101BF00002AA04F011FDDDF804C004460D460136CA
:101C00005E45E2DBB9F1660F1CD065224346BAF1AE
:101C1000000F03F8022B03DACAF1000A2D2200E0BC
:101C20002B2288F801200A229AFBF2F202F13001FD
:101C300019700AF1300A6FF0090101FB02A203F1E9
:101C400002085A70002388F800300FE04FF0120BA2
:101C50004FF065090BF1010BBBF1120FA8BF4FF05C
:101C6000120BB9F1650F3FF459AF6DE705B0BDE850
:101C7000F08F00BFB0690008000024400000E03F82
:101C8000186C000808B50248FFF7FEFD08BDC04605
:101C9000A072000808B50248FFF7F6FD08BDC0466F
:101CA000A472000830B503782D2B17D0002201252F
:101CB0000021825C141C303C092C14D800234118EC
:101CC0009C00E3185B009B184A78303B141C303CA6
:101CD0000131092CF4D96B43181C30BD01250122B8
:101CE0006D420121E5E70020F7E7C04630B50378F3
:101CF0002D2B17D0002201250021825C141C303CC2
:101D0000092C14D8002341189C00E3185B009B1891
:101D10004A78303B141C303C0131092CF4D96B4318
:101D2000181C30BD012501226D420121E5E700208C
:101D3000F7E7C046021C13780020191C3039092926
:101D40000ED93139052910D92031052911D80001C2
:101D50003738C01801321378191C30390929F0D8E6
:101D600000013038C0180132F5E700015738C018BB
:101D7000F0E77047F8B50D68061C0C1C281CCC4910
:101D800004F072FB002800D117E2281CC94904F0B6
:101D90006BFB002800D102E2281CC74904F064FB59
:101DA000002800D1E5E1281CC44904F05DFB0028AF
:101DB00002D1022E00D16BE2281CC14904F054FB71
:101DC000002800D115E2281CBE4904F04DFB002874
:101DD00000D10AE2281CBC4904F046FB002800D1CF
:101DE000FFE1281CB94904F03FFB002800D1ECE1D9
:101DF000281CB74904F038FB002805D1032E00D178
:101E00000CE2FEF705FF2568281CB24904F02CFB04
:101E1000002800D1B1E1281CAF4904F025FB0028BF
:101E200000D0C3E0022E00D172E1012000F072FB6D
:101E30002568AA49281C04F017FB002800D046E2B8
:101E4000012000F035FB2568A549281C04F00CFB97
:101E5000002800D126E1281CA24904F005FB002837
:101E600000D1FAE0281CA04904F0FEFA002800D1B5
:101E7000FDE0281C9D4904F0F7FA002800D100E19C
:101E8000281C9B4904F0F0FA002861D165682B7882
:101E90002D2B00D1BEE1002301200021EA5C131CA0
:101EA000303B092B00D930E2002369189D00EB1864
:101EB0005B009B184A78303B151C303D0131092DE1
:101EC000F4D95843C0B2A66833782D2B00D10AE26A
:101ED000002301210025F25C131C303B092B00D9A3
:101EE00011E2002375199E00F3185B009B186A78B5
:101EF000303B161C303E0135092EF4D95943C9B286
:101F0000E3681A782D2A00D1F2E10026012200258B
:101F10009E5D371C303F092F00D9F2E15D19002387
:101F20009F00FB185B009B196E78303B371C303FDD
:101F30000135092FF4D95A43D2B2FEF775FCFA20C5
:101F40004000FEF739FBFEF79FFBFEF7E3FB256839
:101F5000281C684904F088FA002800D119E1281CDF
:101F6000654904F081FA00280FD165686349281C8F
:101F700004F07AFA002800D13FE1281C604904F0FF
:101F800073FA002800D142E12568281C5D4904F05D
:101F90006BFA002800D1F4E0281C5B4904F064FAD5
:101FA000002802D15948FFF76FFCF8BD281C4B49A7
:101FB00004F05AFA00286CD1022E00D040E7636882
:101FC0001A782D2A00D1CFE00022012000219A5C4E
:101FD000151C303D092D00D9A8E1591800239D009A
:101FE000EB185B009B184A78303B151C303D0131E3
:101FF000092DF4D94343D8B200F042FA2568281CD1
:10200000374904F031FA002800D024E763681A78D1
:102010002D2A00D170E10022012000219A5C151CBC
:10202000303D092D00D983E1591800239D00EB189C
:102030005B009B184A78303B151C303D0131092D5F
:10204000F4D94343D8B200F079FA25682549281C11
:1020500004F00AFA002800D004E700F0B1FA25687D
:102060002149281C04F000FA002800D001E7FEF7FF
:102070006BFC25681D49281C04F0F6F9002800D0E7
:10208000FEE600210022FEF7CFFBFEF75DFC25688F
:10209000F6E6281C124904F0E7F9002800D0DAE639
:1020A000022EB3D0012000F077FA2568D3E6C046AF
:1020B000A8720008C4720008CC720008D47200082C
:1020C000DC720008E8720008F4720008FC72000874
:1020D000247300082C730008347300084073000850
:1020E0004C7300085473000860730008687300089C
:1020F0006C73000878730008847300088C73000800
:10210000907300089473000898730008A073000887
:1021100063681A782D2A00D1E1E000220120002115
:102120009A5C151C303D092D00D9FDE0591800239B
:102130009D00EB185B009B184A78303B151C303D26
:102140000131092DF4D95843C0B200F0C5F9256812
:102150007B49281C04F088F9002800D04FE7636809
:102160001A782D2A00D02FE701202C3A4042012175
:102170002DE701F025F9256815E601F0B9F8256885
:1021800049E6FEF7E7FB01F0B9F801F0FBF8256836
:1021900002E7FEF779FAFEF7BDFA2568DFE6606828
:1021A000FFF7C8FD80B2FEF77DFEFEF7FDFD011CC6
:1021B0006448FFF769FB2568EEE5FEF7F5FD011CB5
:1021C0006048FFF761FB2568DFE55F48FFF75CFBD0
:1021D000FEF71EFD5D48FFF757FB01F05BF8256831
:1021E00006E601F0C9F82568FBE501F0B5F82568B9
:1021F000F0E501F09FF82568E5E500F067FA65680D
:102200005349281C04F030F9002800D0BCE600F047
:1022100069FAB9E62C3B013801213FE665682B7865
:102220002D2B7DD0002301200021EA5C131C303BC4
:10223000092B7FD8002369189D00EB185B009B18C1
:102240004A78303B151C303D0131092DF4D95843F3
:10225000C0B2A3681A782D2A59D000210127002284
:10226000595C0D1C303D092D66D89A1800239D003D
:10227000EB185B005B185178303B0D1C303D013290
:10228000092DF4D97B4399B209B200F0F7FFB8E504
:1022900063681A782D2A3FD00022012000219A5C21
:1022A000151C303D092D49D8591800239D00EB1805
:1022B0005B009B184A78303B151C303D0131092DDD
:1022C000F4D9584380B201F063F8256874E5281CFE
:1022D000204904F0C9F8002800D1E3E6BBE52C3A18
:1022E000013801211CE701212C3B49420125F2E57F
:1022F00001262E3A01250BE601202C3A404201210D
:102300008CE6002219E60021FAE50020DBE5012732
:1023100001217F422C3AA3E72C3A01380121BEE784
:102320002C3B0138012180E700200EE7002063E606
:10233000002088E600208CE70021A5E70020C2E706
:1023400040730008B072000804730008147300089A
:10235000907300084C730008002801D103E001309D
:102360000378202BFBD07047F0B54746021C80B4A1
:102370008846002821D00E1C002500271378141C45
:10238000202B03D101342378202BFBD0002B0BD042
:10239000201C202104F080F9002807D0421C07707F
:1023A000013510C6002AE9D1281C03E04346681C09
:1023B000AD00EC5004BC9046F0BD0020FAE7C046EA
:1023C00010B5FEF7FBFE002817DB0D281DD00A28EC
:1023D0001BD0082812D07F2810D06822194B1B6808
:1023E0001B185B78934308D0174A137859B2002919
:1023F00003DB591C1170154AD05410BD124A1378D2
:10240000002BFAD0013B1370F7E71148FFF73CFAB5
:1024100000220D4B0D4819780E4C4254211C1A70A5
:10242000FFF7A2FF0C4B1860002803D10B48FFF701
:102430002BFAE2E7211CFFF79DFC0848FFF724FA7E
:10244000DBE7C04644000020E4040020E80400204C
:10245000D4730008B8040020E0040020A072000833
:1024600008B5002801D0FFF785FC08BD08B5024873
:10247000FFF70AFA08BDC046A07300087047C046BF
:1024800010B5094C64280BD9642364212370002003
:10249000FEF7B6F8227805490020FFF70DFA10BDC7
:1024A0002070011CF3E7C0466B050020D8730008BC
:1024B00010B5064B041C19780548FFF7E5F9002C08
:1024C00002D00448FFF7E0F910BDC0466B050020BC
:1024D000F4730008D473000810B5094C64280BD9B4
:1024E0006423642123700220FEF78AF822780549CC
:1024F0000020FFF7E1F910BD2070011CF3E7C04692
:102500006A05002004740008014B18787047C04623
:102510006A05002010B5064B041C19780548FFF722
:10252000B3F9002C02D00448FFF7AEF910BDC04645
:102530006A05002020740008D473000810B5094C07
:1025400064280BD96423642123700120FEF758F816
:10255000227805490020FFF7AFF910BD2070011C5B
:10256000F3E7C046680500203074000808B5002075
:10257000FFF786FF0020FFF7AFFF0020FFF7DEFF29
:102580000022014B1A7008BD69050020014B187824
:102590007047C0466805002010B5064B041C19782A
:1025A0000548FFF771F9002C02D00448FFF76CF9D9
:1025B00010BDC046680500204C740008D4730008A4
:1025C00008B50020FFF7A6FF0020FFF771FF0020ED
:1025D000FFF7E2FF0148FFF757F908BDD473000881
:1025E00070B5274B1B78002B1DD0264C2378012B70
:1025F0001AD0002B21D0022B15D1A2882389D31801
:10260000FF221340204AD05C64235843000AFFF79E
:1026100063FFA3885A1CA280FE2B04D91B4BA2790E
:102620001A700023237070BD63885A1C6280184A98
:102630009342F8D902232370F5E7A380134B18784F
:10264000A07132280ED9002264260F4DAB5C511CBC
:1026500073438AB21B128342F8DB22810123237069
:102660006380E0E7FE21084D642600E0111C4B1E4C
:102670009AB26B5C73431B128342F7DC2181EDE756
:102680006905002050040020186C00086A0500202D
:10269000E7030000F0B50B4B474680250024984621
:1026A000642680B4084F6D003A5D211C7243404699
:1026B00012120134FFF7E8F8AC42F5D104BC9046A1
:1026C000F0BDC0465C740008186C00080122034B82
:1026D0001A700022024B1A707047C046690500202C
:1026E000500400200022014B1A7070476905002039
:1026F00008B5FEF759FB014B187008BD8C0500208A
:1027000038B5FEF7B9FC011E13DB464C2368032BDA
:102710004DD00FD9052B3ED034D3622B1CD0632B68
:1027200007D10123002040492373FFF7C5F8002398
:10273000236038BD012B50D014D85528F9D100237F
:1027400001252371394B3A491870552200206571D3
:10275000FFF7B2F82560ECE73648FFF795F800235D
:102760002360E6E76079314A431CDBB26371D3181A
:102770001154013B1A7800202F49FFF79DF80323DD
:102780002360D6E72379A2680133DBB22371934239
:1027900041D9052323606379244A0020D154FF22C4
:1027A0000A402649FFF788F863232360B9E7102819
:1027B00026DCA06060791D4A431CDBB26371D3182C
:1027C0001154013B1A7800201D49FFF775F8A368E2
:1027D000002B12D004232360ABE76079134A431C1B
:1027E000DBB26371D3181154013B1A7800201549EC
:1027F000FFF762F8022323609BE70523236098E735
:102800000A4A63791048D318013B1A78FFF73CF85D
:10281000622323608DE763795A1C6271034AD054A6
:1028200087E7C0465C0400200C7500086C0500209A
:102830006474000828750008A0740008F07400088B
:10284000D874000884740008BC74000838B5124DB0
:1028500000222B1CEC78E01C2818597801334A40E0
:102860008342FAD12C192379934209D00B4B0C489F
:102870005A69196901325A61FFF706F8002038BD1C
:10288000064B00201A69074901321A615B69FFF79C
:1028900013F80120F3E7C0466C0500205C0400201B
:1028A000587500083C75000808B5094B9A78A12AAC
:1028B00000D008BD5A78074B1B789A42F9D1012203
:1028C000054B064901201A76FEF7F6FFF1E7C046F0
:1028D0006C0500208C0500205C0400207475000845
:1028E00030B555240C4DA9702C706870EA70002129
:1028F000002A05D05C5C6818013104719142F9DB53
:102900002B1C0021D41C2C19587801334140A342C0
:10291000FAD1AA18117130BD7C050020F8B5114E0E
:102920000520F478FDF754FE05340120FDF78EFDF7
:10293000E4B26420FDF740FE3719002C0AD0802451
:10294000094D3078FEF74EFBEB691C42FCD0013696
:10295000BE42F6D10520FDF73BFE0020FDF776FDD7
:10296000F8BDC0467C0500200038014010B50C4B76
:102970000C4C5B782078984200D010BDA02100223A
:102980000023FFF7ADFFFFF7C9FF0122064B074900
:102990005A76002201201A762278FEF78DFFECE7A6
:1029A0006C0500208C0500205C0400209475000854
:1029B00008B5034B9B78A02B01D1FFF7D7FF08BDCB
:1029C0006C05002070B5784C82B06378202B05D060
:1029D000764A12789A4201D002B070BDA1782629B9
:1029E00000D1DEE00ED9292900D1C0E048D9A229C2
:1029F00000D1B3E0B2295BD02A297DD06C48FEF724
:102A000043FFE9E7222900D1C7E007D9242900D1F3
:102A1000A1E06ED82079FFF791FDDDE720293FD0B6
:102A20002129EBD100F0C6FC624901F0B3FB01F0B3
:102A30002BF885B2002000F0FFF95E4901F0AAFBF7
:102A400001F022F884B2032000F0F6F9594901F0B0
:102A5000A1FB01F019F869462A0A83B20A70220A1A
:102A60008A704B711A0A514B4D701878CC700A71EC
:102A70006B4621210622FFF733FFFFF74FFFABE73D
:102A800027290AD02829B9D16179A37909025918CF
:102A9000207909B200F0F2FB9EE7FFF723FE9BE7E7
:102AA000207963790002181880B200F071FC93E776
:102AB00020796179A279FDF715FF267965793309C7
:102AC0009900C9180F234A001E4091192A09A079BC
:102AD0009400A2181D40040952005219A5002C1997
:102AE0006400184023183448FEF7CEFEFDF712FEAE
:102AF00072E700F031FC6FE7012000F09DF92D49ED
:102B000001F048FB00F0C0FF85B2022000F094F90C
:102B1000284901F03FFB00F0B7FF84B2032000F02A
:102B20008BF9244901F036FB00F0AEFF69462A0A12
:102B300083B20A70220A8A704B711A0A1B4B4D70BD
:102B40001878CC700A716B462A210622FFF7C8FE5E
:102B5000FFF7E4FE40E700F0EDFB3DE70022174BF6
:102B6000174901205A761A76FEF7A6FE34E7FFF7DA
:102B7000CBFC6B461870FFF709FD6B46587000F0F0
:102B800079FD6B469870094B2921187803226B4612
:102B9000FFF7A6FEFFF7C2FE1EE72079FFF79CFCB9
:102BA0001AE7FFF793FD17E76C0500208C0500205E
:102BB000007600080000C842DC7500085C040020B4
:102BC000B875000810B5124CA37E012B14D0002B51
:102BD00008D0022B05D1FFF7F5FE237E002B00D194
:102BE000A37610BD0B4B9B78A02B0DD0637E002BE2
:102BF000F7D00123A376F4E7FFF756FE237E002BE0
:102C0000EFD00223A376ECE7FFF7B0FEEEE7C04675
:102C10005C0400206C05002010B5074C237B002BC2
:102C200000D110BDFFF712FE002802D1002323734C
:102C3000F7E7FFF7C7FFF9E75C04002008B5044891
:102C4000FEF722FE0348C178053100F013F808BDF5
:102C5000247600087C05002008B50448FEF714FE21
:102C60000348C178053100F005F808BD2C7600084E
:102C70006C050020F0B5002356468A465F464D4657
:102C800044469B46534600218246F0B48DB00193E2
:102C900004AC0122231C0CAD52421A800233AB4219
:102CA000FBD1019B102B64D8019A0023002A11D07C
:102CB0005E46A04657468C460199F8185A00805D3A
:102CC000013304ACDBB210538B42F6D3B346444617
:102CD0006146BA46012302934B1CDBB20901354819
:102CE00004AF0393FEF7D0FD398800260BB2013301
:102CF0000ED00136C9B23048F6B2FEF7C5FD102E2F
:102D00000DD0082E51D0023739880BB20133F0D1E3
:102D100001362A48F6B2FEF7B7FD102EF1D1284849
:102D2000FEF7B2FD274B284E9946284B984605E002
:102D30004046FEF7A9FD0234AC420ED021782A2984
:102D400013D0682233685B185B789343F0D1484610
:102D50000234FEF799FDAC42F0D11D48FEF794FD18
:102D6000029B002B1AD1039992E71A48FEF78CFDBB
:102D7000E1E7564600235E44F05C5A0004AF01339D
:102D8000D053102BF8D1019F103FBBB201935B468B
:102D900010339BB29B46002302939DE70DB03CBCD1
:102DA00090469946A246AB46F0BD0B48FEF76CFD37
:102DB0000237A9E734760008407600084876000814
:102DC0004C76000854760008440000205076000835
:102DD000D4730008887200083C76000810B582B0F1
:102DE0006B46DC1D1B23211CD02001222370FDF724
:102DF0007BFE211CD2200122FDF776FED620211C6D
:102E00000122FDF771FE02B010BDC04610B582B0C0
:102E100001AC211C0322FDF793FE207863780002A9
:102E2000181880B202B010BD08B502480321FDF7A2
:102E3000E1FE08BD7804002008B50B4B002805D042
:102E400001280CD002280CD0986808BD5968186871
:102E500000F032FEFC21890501F09CF9F5E71868C5
:102E6000F3E75868F1E7C04604000020F0B5574684
:102E70004E464546E0B4204E8246336903279946C4
:102E8000F3680025984602240823F3185969013C89
:102E9000281CE4B201F07EF9A300F318596900F090
:102EA0000BFE011C002CF2D1514601F0A5FA494657
:102EB000041C281C01F06EF9414600F0FDFD011CC8
:102EC000201C00F075FF011C281C01F095FA013F41
:102ED000FFB2051C002F07D0002100F0ADFD002837
:102EE00007D108230224D0E71CBC90469946A2468D
:102EF000F0BD10230424C8E704000020F8B50C1C22
:102F0000061C01F05FFC364DA400E96A01F042F9AD
:102F1000A96A00F0D1FD051CFFF7A8FF314B071C83
:102F2000E05801F007FC304900F042FF391C00F086
:102F3000C3FD0021041C00F07FFD002805D1201CEA
:102F40002A4900F08DFD002800D0294C321C294967
:102F50000020FEF7B1FC2449281C01F01BF900F009
:102F600093FD85B2281C642100F094FB642186B295
:102F7000281C00F015FC321C8BB200201E49FEF705
:102F80009BFC381C184901F005F900F07DFD85B265
:102F9000281C642100F07EFB642186B2281C00F00E
:102FA000FFFB321C8BB200201449FEF785FC0E4952
:102FB000201C01F0EFF800F067FD85B2281C6421A9
:102FC00000F068FB642186B2281C00F0E9FB321C8B
:102FD0008BB200200A49FEF76FFC201CF8BDC046EA
:102FE00004000020780400200000C842000048428D
:102FF000E1FAC74258760008647600087076000847
:103000008476000838B5114D041C2B1C3033185C35
:10301000FFF7FCFE0E4AA3003435D0502A5D002A8B
:103020000DD10C49CD58EA00521B80180A4AC0083D
:10303000D050C850211C80B2FFF760FF38BD064A4F
:103040000449D05000222A55F3E7C046040000206E
:10305000A80500209C0500209005002010B5002048
:10306000FFF7D0FF074C20600120FFF7CBFF606027
:103070000220FFF7C7FF0449A0600020FEF71CFCF8
:1030800010BDC04604000020D473000870B50021B4
:10309000061C00F0D1FC002812D1082302240A4D9E
:1030A000EB185969013C301CE4B201F073F8A3003D
:1030B000EB18596900F000FD011C002CF2D170BD25
:1030C00010230424EBE7C04604000020013970B54A
:1030D000CCB2A300051C161C1858002C0AD0013CC9
:1030E000311CE4B201F056F8A300595900F0E4FC99
:1030F000002CF4D170BDC046F0B5474680B4234BD8
:1031000084B01B7B002B3DD0214C2249206801F06C
:1031100041F800F0B9FC1F4986B2606801F03AF846
:1031200000F0B2FC1B4985B2A06801F033F800F052
:10313000ABFC642184B2301C00F0ACFA642183B291
:10314000301C984600F02CFB281C8FB2642100F044
:10315000A1FA642186B2281C00F022FB89B20091FA
:10316000201C642100F096FA80B201906421201C9A
:1031700000F016FB89B20291074841463A1C331C05
:10318000FEF782FB04B004BC9046F0BD780400203A
:10319000040000200000C84294760008F0B54746BD
:1031A00080B4214C84B02068204900F0F3FF00F087
:1031B0006BFC1E4986B2606800F0ECFF00F064FC16
:1031C0001A4985B2A06800F0E5FF00F05DFC6421BB
:1031D00084B2301C00F05EFA642183B2301C984641
:1031E00000F0DEFA281C8FB2642100F053FA64214B
:1031F00086B2281C00F0D4FA89B20091201C642108
:1032000000F048FA80B201906421201C00F0C8FA56
:1032100089B202913A1C4146331C0548FEF734FB43
:1032200004B004BC9046F0BD040000200000C84279
:103230009476000808B5044B044819685A689B68DE
:10324000FEF722FB08BDC046A8050020C076000896
:1032500008B5044B044819685A689B68FEF714FBCC
:1032600008BDC04690050020E476000808B5024875
:103270000321FDF7BFFC08BD7804002008B5044A0F
:1032800083009950101C0321FDF768FD08BDC0465E
:1032900078040020144BF0B557469A46134B454628
:1032A0004E4699460123E0B4984600255246AB00AD
:1032B000D45843466421E617201C1E4300F07AFAD6
:1032C000071C201C6421704300F05AFB48460B1C6D
:1032D0003A1C291C0135FEF7D7FA032DE6D11CBC98
:1032E00090469946A246F0BD780400203871000847
:1032F0000122014B1A737047780400200022014B11
:103300001A73704778040020054B064A1A600023A0
:10331000054A1370054A1370054A13707047C0467A
:10332000B40500200000C841C8050020B8050020F1
:10333000C0050020002208B5044B01201A600122BC
:10334000034B04491A70FEF7B7FA08BD8804002041
:10335000C80500200877000808B50020FFF790F89E
:103360000022034B012003491A70FEF7A5FA08BD9D
:10337000C8050020307700080122014B1A70704701
:10338000B80500200022014B1A707047B8050020D4
:1033900008B501F017FA044900F00AFD0022034BBA
:1033A0001860034B1A6008BD0000C842B405002035
:1033B00088040020014B18687047C046B4050020FF
:1033C00038B5174B1749186800F0E4FE00F05CFBB5
:1033D00084B2201C642100F05DF9642185B2201CB8
:1033E00000F0DEF910488AB2291CFEF74DFA0F4BA7
:1033F0000C49186800F0CEFE00F046FB84B2201C99
:10340000642100F047F9642185B2201C00F0C8F95E
:1034100007488AB2291CFEF737FAFFF7BFFE38BD0E
:10342000BC0500200000C84258770008B405002001
:1034300068770008F8B556465F464D46444600207A
:10344000F0B4FFF7F9FC6F4B6F4E1B78011C306036
:10345000002B00D1B8E06D4B1868994600F0CCFF06
:103460006B4B6C4F18603968041C984600F092FE54
:10347000694D824668606949201C00F0DDFA002829
:1034800000D1A7E0201C796800F084FE296800F0D4
:1034900013FB634B041C2860191C201C9B4600F086
:1034A000DFFA002800D0A6E05E4B201C191C9B46CA
:1034B00000F0C2FA002800D09DE0211C504600F028
:1034C000FBFAA96800F0F8FA5749E86000F062FEDC
:1034D00001F010F983B218B2C043C017184003B20C
:1034E000642B00DD642084B2E0B2FEF7C9FF4F4BCD
:1034F0001B78002B00D082E04D4B1B78002B63D053
:103500003068494900F046FE00F0BEFA86B2301C31
:10351000642100F0BFF8642183B2301C9A4600F0A9
:103520003FF944488AB25146FEF7AEF94B463E4950
:10353000186800F02FFE00F0A7FA86B26421301C54
:1035400000F0A8F8642183B2301C994600F028F9F5
:1035500039488AB24946FEF797F943463249186816
:1035600000F018FE01F0C6F801B23448FEF78CF9FD
:103570002D49686800F00EFE01F0BCF801B2304839
:10358000FEF782F92F49286800F004FE01F0B2F836
:1035900001B22D48FEF778F921B22C48FEF774F9F4
:1035A0002849386800F0F6FD00F06EFA81B228482C
:1035B000FEF76AF92349786800F0ECFD00F064FA40
:1035C00081B22448FEF760F93CBC90469946A24679
:1035D000AB46F8BD201C204900F042FA002800D07C
:1035E00050E70F4B2C68191C201C9B4600F038FA42
:1035F000002800D158E75B465C462B605DE7FFF78B
:10360000DFFE79E7C8050020BC050020B4050020D6
:10361000C40500203C000020880400200000204059
:1036200000002041000020C10000C842B805002071
:10363000C0050020587700086877000878770008F0
:103640008077000800007A448877000890770008A7
:10365000A0770008AC770008000020C0014B18607C
:103660007047C0463C000020014B58607047C04680
:103670003C000020014B18787047C046C805002068
:10368000BC7800080000002048000020480000200E
:10369000CC050020002243088B4274D303098B42DF
:1036A0005FD3030A8B4244D3030B8B4228D3030C12
:1036B0008B420DD3FF22090212BA030C8B4202D3B4
:1036C0001212090265D0030B8B4219D300E0090ADC
:1036D000C30B8B4201D3CB03C01A5241830B8B42E5
:1036E00001D38B03C01A5241430B8B4201D34B03CE
:1036F000C01A5241030B8B4201D30B03C01A524133
:10370000C30A8B4201D3CB02C01A5241830A8B42B7
:1037100001D38B02C01A5241430A8B4201D34B02A0
:10372000C01A5241030A8B4201D30B02C01A524104
:10373000CDD2C3098B4201D3CB01C01A52418309B8
:103740008B4201D38B01C01A524143098B4201D3F2
:103750004B01C01A524103098B4201D30B01C01A1D
:103760005241C3088B4201D3CB00C01A5241830897
:103770008B4201D38B00C01A524143088B4201D3C4
:103780004B00C01A5241411A00D201465241104624
:103790007047FFE701B5002000F0FCF802BDC0460D
:1037A0000029F7D003B5FFF775FF0EBC4243891A15
:1037B0001847C04603460B437FD4002243088B4280
:1037C00074D303098B425FD3030A8B4244D3030BA8
:1037D0008B4228D3030C8B420DD3FF22090212BA6D
:1037E000030C8B4202D31212090265D0030B8B42E9
:1037F00019D300E0090AC30B8B4201D3CB03C01AD3
:103800005241830B8B4201D38B03C01A5241430BAD
:103810008B4201D34B03C01A5241030B8B4201D39D
:103820000B03C01A5241C30A8B4201D3CB02C01A08
:103830005241830A8B4201D38B02C01A5241430A80
:103840008B4201D34B02C01A5241030A8B4201D36F
:103850000B02C01A5241CDD2C3098B4201D3CB0116
:10386000C01A524183098B4201D38B01C01A5241C5
:1038700043098B4201D34B01C01A524103098B42C9
:1038800001D30B01C01A5241C3088B4201D3CB00B4
:10389000C01A524183088B4201D38B00C01A524197
:1038A00043088B4201D34B00C01A5241411A00D247
:1038B00001465241104670475DE0CA0F00D04942B0
:1038C000031000D34042534000229C4603098B4220
:1038D0002DD3030A8B4212D3FC22890112BA030AA8
:1038E0008B420CD3890192118B4208D3890192112A
:1038F0008B4204D389013AD0921100E08909C309AF
:103900008B4201D3CB01C01A524183098B4201D3B0
:103910008B01C01A524143098B4201D34B01C01A9B
:10392000524103098B4201D30B01C01A5241C30813
:103930008B4201D3CB00C01A524183088B4201D382
:103940008B00C01A5241D9D243088B4201D34B009D
:10395000C01A5241411A00D20146634652415B10DF
:10396000104601D34042002B00D5494270476346C0
:103970005B1000D3404201B5002000F00BF802BDFF
:103980000029F8D003B5FFF715FF0EBC4243891A92
:103990001847C0467047C0468446101C62468C4695
:1039A000191C634600E0C0461FB501F053FE002815
:1039B00001D40021C8421FBD10B501F097FD40425F
:1039C000013010BD10B501F045FE002801DB0020DC
:1039D00010BD012010BDC04610B501F03BFE00280F
:1039E00001DD002010BD012010BDC04610B501F062
:1039F000C1FD002801DC002010BD012010BDC04623
:103A000010B501F0B7FD002801DA002010BD01203B
:103A100010BDC0468446081C6146FFE71FB500F094
:103A200073FB002801D40021C8421FBD10B500F06F
:103A3000F7FA4042013010BD10B500F065FB0028D8
:103A400001DB002010BD012010BDC04610B500F004
:103A50005BFB002801DD002010BD012010BDC04629
:103A600010B500F007FB002801DC002010BD01208C
:103A700010BDC04610B500F0FDFA002801DA0020A4
:103A800010BD012010BDC0469E2110B5C905041C03
:103A9000FFF7F0FF002803D1201C00F02BFE10BD23
:103AA0009E21201CC90500F0A7FC00F023FE802306
:103AB0001B069C466044F2E7F8B54A004302440006
:103AC0004E02C50F240E281C9B09120EC90FB70900
:103AD0008D4240D0A01A002800DC84E0002A1CD1CE
:103AE000002F5CD15A0704D00F221A40042A00D0BC
:103AF00004338022D2041A40281C002A24D0013426
:103B0000FF2C00D17BE09B015B0AE4B25B02E40581
:103B10005B0A2343C0071843F8BDFF2CE2D0802284
:103B2000D204174301261B2808DC391C20223E1C26
:103B3000C140101A8640771EBE410E439B1B5A019E
:103B400033D4281C5A07CFD1DB08FF2C1ED05B02D0
:103B50005B0AE4B2DAE7A11A002957DD002A3AD05D
:103B6000FF2CBFD08022D204174301261B2972DD0F
:103B70009B195A01E5D50134FF2C00D187E00121C2
:103B80008A4A194013405B080B43ABE7002B36D041
:103B90008022D20313435B025B0AFF24B6E701389D
:103BA00000283FD1DB1B5A01CBD59B019E09301C5D
:103BB00002F03CFC05388640844223DC001B1F24B5
:103BC000321C431C201ADA408640131C741EA64186
:103BD0000024334386E7002F00D183E70139002911
:103BE00050D1DB19C5E7002820D1621CD2B2012ACE
:103BF0005EDDDE1B720128D5FE1A0D1CD7E7FF24FF
:103C0000002383E7694B241A33406BE7002958D11E
:103C1000621CD1B201293CDDFF2A37D0FB185B08BA
:103C2000141C5FE7FF2C00D07CE75BE7002C1ED064
:103C3000FF2A23D08024E404404223431B285BDD79
:103C40000123FB1A141C0D1CADE7002EAFD100237D
:103C50000020002478E73A1CCA40944620223E1CEB
:103C6000511A8E406246771EBE41164380E7002BF4
:103C70003ED0C0430028E4D0FF2ADFD13B1CFF2404
:103C80000D1C2FE7FF2C00D06FE72BE7FF2400234C
:103C90005AE7002C5AD1002B7FD0002F00D121E70A
:103CA000DB195A0100D44CE7404A0134134019E7AC
:103CB000002C15D1002B2FD1002F5DD03B1C0D1CEB
:103CC00010E7002C21D1002B53D0C943002904D088
:103CD000FF2A4BD01B2957DD0123DB19141C48E7B1
:103CE000002B22D1002F4AD03B1C0D1CFF24F9E6EB
:103CF0003B1C141C0D1CF5E61D1C2024C540201A7D
:103D00008340581E83412B439BE7FF2A2ED08024FB
:103D1000E40449422343DDE7002F00D1E2E6DA1B49
:103D200050013CD5FB1A0D1CDCE6FF24002F00D10E
:103D3000D8E68022DB08D203134204D0FE081642E4
:103D400001D1331C0D1CDB00FF24CBE6002B0DD072
:103D5000FF24002F00D1C5E68022DB08D2031342E6
:103D6000F1D0FE081642EED1331CECE73B1CFF24D9
:103D7000B8E63B1C141CB5E6231C0020E4E68023B7
:103D800000209B04FF24DFE61E1C2024CE40611A85
:103D90008B40591E8B4133439FE73B1CA2E6131E09
:103DA00000D0CEE600230020CEE6C046FFFFFFFB9A
:103DB000F0B556464D465F464446F0B443024500D2
:103DC000C70F83B08A465C0A2E0EB94641D0FF2E3B
:103DD00026D080231B042343DC00002398469B4607
:103DE0007F3E53465B025D0A53465A00DB0F120EBC
:103DF0009A4639D0FF2A33D080231B042B43DD00A1
:103E000000237F3A5146B21A46467940081C019277
:103E10001E430F2E00D976E07E4AB6009659B7466B
:103E2000002C30D108239846063B9B46D9E78023D7
:103E30000021DB03FF245B02E4055B0AC90723437F
:103E40000B43181C03B03CBC90469946A246AB46B7
:103E5000F0BD002C28D104239846033B9B46C0E7C5
:103E6000002D1FD1022302E0002D11D10123B21A2F
:103E700050464646784001921E430F2E27D8664989
:103E8000B60089598F460C239846093B9B46A8E704
:103E9000281C02F0CBFA7622431F52429D40121A90
:103EA0000023AFE70323ADE7201C02F0BFFA431F56
:103EB0009C4076235B421E1A002398469B4690E75F
:103EC0000025D1469B465B464846022B6FD1012117
:103ED000FF2401400023AEE77E23019A5B429B1A38
:103EE0001B2B6DDD01214B46194000240023A2E766
:103EF0008023DB031C4249D18023DB0323435B0285
:103F00005B0A391C96E763016D01AB4237D38946E2
:103F10001A2001215B1B01241E1C49005B00002E9E
:103F200001DBAB4201D35B1B214301380028F3D1F5
:103F3000581E83410B431D1C019C7F34002CCBDD9C
:103F40006B0704D00F232B40042B00D004352B012A
:103F500004D5019A314B8032141C1D40FE2C07DD24
:103F60004B460121FF241940002364E7251CAAE7E2
:103F700001214A46AB015B0AE4B211405BE7019ABA
:103F80008946013A01921B200021C4E71D4207D057
:103F900023435B025B0A391C4CE700256302ABD567
:103FA0008023DB032B435B025B0A514642E7032B72
:103FB00025D0012BC0D101210024014000233AE784
:103FC000291CD9402B1C019A9E3293405D1EAB41A7
:103FD0000B435A0704D00F221A40042A00D004339E
:103FE0005A0105D54B46012101241940002322E73F
:103FF00001214A469B015B0A114000241BE78023F4
:1040000001214A46DB032B435B020A405B0A111C79
:1040100010E7C046186D0008586D0008FFFFFFF755
:10402000430270B542004C005D0AC30F4802120EF5
:10403000460A240EC90FFF2A05D0FF2C08D0012004
:10404000A2420BD070BD0120002DFBD1FF2CF6D178
:104050000120002EF6D10120A242F3D1B542F1D1C8
:104060008B4205D0002AEDD1281C431E9841E9E778
:104070000020E7E7F0B543024D024A0044005E0A23
:10408000240EC30F6D0A120EC90FFF2C0DD0FF2A8C
:1040900031D0002C0DD177427741002A23D1002D59
:1040A00021D10020002F0BD107E0002E28D1FF2ABC
:1040B00021D0002A05D08B4207D058420123184353
:1040C000F0BD002DF9D08B42F7D19442F5DC04DB32
:1040D000AE42F2D80020AE42F2D258424341012013
:1040E0005B421843ECE7002FE5D0484241410120F4
:1040F00049420843E4E7002D02D1002CCBD0DAE797
:1041000002204042DCE7C0464302F0B542004C00CA
:104110005E0AC30F4802120E450A240EC90FFF2A79
:104120000FD0FF2C1AD0002A10D177427741002CF3
:1041300029D0002F17D0484241410120494208436D
:104140000BE00220002E08D1FF2C07D0002C0AD152
:10415000002D08D1584201231843F0BD0220002D44
:10416000FBD1002AE1D08B42F4D1A242F2DC04DB85
:10417000AE42EFD80020AE42EFD258424341012078
:104180005B421843E9E7002DD3D10020002FE4D192
:10419000E0E7C046F0B55F4656464D464446F0B4AB
:1041A00045024600C40F83B00F1C6D0A360EA346AD
:1041B00045D0FF2E25D080231B041D4300239A46A3
:1041C000ED007F3E01937B025B0A98467800FB0F6F
:1041D000000E994640D0FF2838D0802342461B0469
:1041E0001343DB00984600237F384A46019F30186E
:1041F0006240411C1F430F2F69D87D4EBF00F65906
:10420000B746002D45D108230193063B9A46DAE7CD
:1042100093465346022B2FD15B46012400251C40B8
:10422000FF236D02DB056D0AE4071D432543281CAF
:1042300003B03CBC90469946A246AB46F0BD002D6B
:104240002CD104230193033B9A46BCE743465A42D0
:1042500053410322D31AC8E742460123002AC4D09F
:10426000404602F0E3F84246431F9A4076235B4201
:10427000181A90460023B8E7032B00D1ADE0012BBC
:1042800000D08CE05B4654461C40E4B2002300257D
:10429000C7E70C230193093B9A4694E7281C02F0D8
:1042A000C5F87626431F9D4000237642361A0193B7
:1042B0009A4688E780250024ED03FF23B1E74546B1
:1042C000CB469A46A5E7454693469A46A1E743461C
:1042D0002C041B0C9C46230C444626041C1C360C48
:1042E0002F0C7443351C66467D4373437743EB18AC
:1042F000260C9E19B54203D980235B029C46674475
:1043000024043304240C1B199D016C1EA5419B0E33
:10431000360C2B43BD19AD011D432B0104D50123E0
:1043200068081D400543081C031C7F33002B2CDD4F
:10433000690704D00F212940042900D00435290140
:1043400003D52C4B1D40031C8033FE2B17DD0124AD
:10435000FF231440002564E78020C003054209D0F4
:104360004346034206D1454605436D026D0A4C465D
:10437000FF2356E705436D026D0AFF2351E7012431
:10438000AD016D0ADBB214404BE77E235B421B1A82
:104390001B2B07DD012400231440002541E7081CE6
:1043A0005A46C1E79E30291C8540D940681E854188
:1043B0000D436B0704D00F232B40042B00D0043592
:1043C0006B0104D5012401231440002529E70124B1
:1043D000AD016D0A1440002323E78023DB031D4356
:1043E00001245B466D0223401C1C6D0AFF2318E765
:1043F000986D0008FFFFFFF7F8B54A00430244003C
:104400004D02C00F240E061C9B09120EC90FAD09E8
:10441000FF2A00D175E001277940884250D0A01AC8
:10442000002800DC8FE0002A1ED1002D00D075E0AE
:104430005A0704D00F221A40042A00D004338022E5
:104440000120D2041A403040002A32D00134FF2C1F
:1044500000D184E09B015B0AE4B25B02E4055B0AE5
:104460002343C0071843F8BDFF2CE1D08022D204BB
:1044700015431B287ADD01255B1B5A015DD59B0185
:104480009F09381C01F0D2FF05388740844269DC5F
:10449000001B1F243A1C431C201ADA408740131CBF
:1044A0007C1EA74100243B43C2E7131E45D10023D5
:1044B0000020DB08FF2C28D05B025B0AE4B2CCE7CB
:1044C000A11A00295BDD002A2ED0FF2CB0D080225B
:1044D000D20415431B2974DC2F1C2022CF40511A13
:1044E0008D40691E8D413D435B195A0125D501342C
:1044F000FF2C74D001217E4A194013405B080B4306
:1045000096E7002D00D088E785E7002B27D0802292
:10451000D20313435B025B0AFF249EE701380028A5
:10452000AAD0FF2CA5D183E7002D00D180E7013967
:104530000029D9D0FF2CCDD17AE75A0700D079E7EE
:1045400001203040B5E7002825D1621CD2B2012AF3
:1045500055DD5F1B7A012DD5EF1A0E1C91E7FF2464
:1045600000237AE7624B241A3B4061E7291C202292
:10457000C140101A8540681E85410D437CE7002923
:1045800046D1621CD1B201292BDDFF2A26D0EB18BF
:104590005B08141C4CE7002C15D0FF2A1AD080248D
:1045A000E404404223431B284DDD0123EB1A141C75
:1045B0000E1C62E7002F00D063E7002300200024D8
:1045C00077E7012590E7002B39D0C0430028EDD0D4
:1045D000FF2AE8D12B1CFF240E1C29E7FF2400230F
:1045E00067E7002C5AD1002B7FD0002D00D11FE7A8
:1045F0005B195A01A1D53E4A0134134018E7002C3B
:1046000015D1002B2FD1002D5ED02B1C0E1C0FE7D7
:10461000002C21D1002B54D0C943002904D0FF2AFB
:104620004CD01B2958DD01235B19141C5DE7002BBE
:1046300023D1002D4BD02B1C0E1CFF24F8E62B1C85
:10464000141C0E1CF4E61E1C2024C640201A8340B5
:10465000581E83413343A9E7FF2A2FD08024E40466
:1046600049422343DDE7002D00D1E1E65A1B50010A
:1046700000D41AE7EB1A0E1CDAE6FF24002D00D155
:10468000D6E68022DB08D203134204D0ED0815429F
:1046900001D12B1C0E1CDB00FF24C9E6002B0DD022
:1046A000FF24002D00D1C3E68022DB08D203134291
:1046B000F1D0ED081542EED12B1CECE72B1CFF24AA
:1046C000B6E62B1C141CB3E6231C0020F1E6802365
:1046D00000209B04FF24ECE61F1C2024CF40611A1D
:1046E0008B40591E8B413B439EE72B1CA0E6C046E6
:1046F000FFFFFFFB4202510A4200C30F120E0020CF
:104700007E2A0DDD9D2A0CDC802000040143952AC1
:104710000ADC9620821AD1400A1C58424240D01826
:104720007047034A9818FBE7963A91400A1CF4E751
:10473000FFFFFF7F70B5041E39D0C50F00D0444283
:10474000201C01F073FE9E23261C1B1A962B07DCEF
:10475000082801DD083884406402640AD8B21EE0EB
:10476000992B0ADD0522211C121AD1400A1C011CBA
:104770001B318E40711E8E411643052801DD421FFC
:1047800096400F4C3440720704D00F221640042E7E
:1047900000D0043462010ED4A401640AD8B26402C9
:1047A000C005640AED0704432C43201C70BD00259E
:1047B00000200024F3E7024B1C409F231B1AEBE769
:1047C000FFFFFFFB10B5041E35D001F02FFE9E2128
:1047D000091A962909DC082830DD021C231C083A36
:1047E00093405B025B0AC8B220E099290CDD0522E8
:1047F000231C121AD3401A1C031C1B339C40231C7D
:104800005C1EA34113431C1C052801DD431F9C4073
:104810000F4B2340620704D00F221440042C00D019
:1048200004335A010ED49B015B0AC8B25B025B0AD7
:10483000C005184310BD00200023F7E763025B0AA0
:10484000C8B2F3E79F21024A091A1340EBE7C046BA
:10485000FFFFFFFBF0B5454657464E4694464C00D9
:104860000A03C90FE0B488460E1C1903470FC500A0
:10487000480A6146490F01436046520A1743C00087
:104880005A00640D520DDB0F8446984500D1A7E015
:10489000A01A002800DC01E1002A3DD163460B4349
:1048A00000D0D4E06B0700D188E00F232B40042B0D
:1048B00000D183E02A1DAA42AD4180236D427F19B9
:1048C0001B043B404646151C002B00D17CE0CC4B22
:1048D00001349C4200D1FDE03A1CCA4BED081A405D
:1048E0005007640552020543120B640D00211203A8
:1048F0000B0D1B056405120B1A436308C24CF60727
:1049000014401C43640064083443281C211C1CBC54
:1049100090469946A246F0BDB94B9C42C2D0802336
:104920001B041943382800DDECE01F2800DD21E1DD
:1049300020220E1C6346121A9640C340334366463B
:104940009640321C561EB24113430A1CC240EB1A59
:104950009D42B6411D1CBA1A7642971B3B0200D4F9
:1049600097E07A02560A002E00D1B6E0301C01F022
:104970005DFD031C083B1F2B00DDB7E09E40371C8C
:1049800028262A1C361AF240161C9D403E439C42A3
:1049900000DDB2E01C1B621C1F2A00DDD8E01F23D3
:1049A000291C1C1B331CA540A340D1406C1EA541F3
:1049B000D64019430D43371C002473E780231B04A2
:1049C0003B40464600D082E78D4BED087807054313
:1049D000FA089C4232D012036405120B640D85E77D
:1049E000A31A002B00DC94E0002A3CD0844A9442B5
:1049F00000D157E7802212041143382B00DC05E177
:104A000063461943481E81410022C8B24019A8429A
:104A10009B41051CD2195B42D7183B0239D5784B14
:104A200001349C4200D14CE10120764A6B083A40A7
:104A300028401843D5070543570833E72B1C134379
:104A400048D080231B031A431203120B4EE7013890
:104A5000002878D16346EE1AB5429B417A1A5B4230
:104A6000D71A351C7AE7021C0A4300D11AE7013B2A
:104A7000002B00D0F2E04019A8429B41CA195B42CA
:104A8000D718051CC9E7131C334300D118E1171CC4
:104A9000351C46466B0700D007E795E700287AD11A
:104AA000621C5205520D012A00DCFBE06246AA1A84
:104AB0009542B6419146781A7242861A320200D463
:104AC00093E06246551BAC458041CF1B40423E1AE5
:104AD000984648E70022002508E7281C01F0A6FCBC
:104AE0002030031C083B1F2B00DC47E7283885409B
:104AF0002E1C00259C4200DC4CE7424AE41A16407A
:104B0000371CCFE6634619434B1E99410022CBB2B6
:104B10001DE7002B00D0F2E0601C43055B0D012B6C
:104B200000DCA4E0364B984200D121E163465C19D9
:104B3000AC429B41CF195B42FA186408D507254364
:104B40005708041CAEE62E4B9C4200D0EAE6A9E6CC
:104B5000211C331C1F39CB40191C202A00D182E0B4
:104B60003F231C1BA64035436E1EB54100270D4355
:104B700000248EE7031C0E1C203BDE40202874D04E
:104B800040231B1A99400B1C62461343591E8B414C
:104B900000223343DBE6002C50D0194CA24200D156
:104BA000A8E08024240440422743382800DDD9E0CF
:104BB0001F2800DD39E120243E1C241AA640B046FF
:104BC0002E1CA146C640444626434C46A5406C1EBA
:104BD000A541C74035436046451BCF1BAC458941C5
:104BE00049427F1A141C9846B8E64B464D4633435B
:104BF00000D0B8E60026002700240025E4E6C046E1
:104C0000FF070000FFFF7FFFFFFF0F801F2B5BDC14
:104C10002022081CD21A9040814660469246D84015
:104C20004A4610438146524660469040021C501E40
:104C30008241484610430A1CDA40E7E63C1C2C43FC
:104C400058D0C043002851D16046451BAC45804137
:104C5000CF1B40423F1A141C98467FE68F4A94426D
:104C600000D0CAE61EE600267DE700238CE73B1C49
:104C70002B43002C00D0BDE0002B00D1F5E06346B3
:104C80000B4300D10EE663465B19AB428041CA1963
:104C9000404217183A0200D4FCE0814A1D1C17401C
:104CA0000134FFE53A1C2A43002C51D1002A00D0E0
:104CB00085E062460A4303D00F1C65469846F1E53D
:104CC0000026002700257FE6181C0A1C2038C24059
:104CD000202B00D1A7E04020C01A8140081C634669
:104CE0001843411E8841104300228FE66B4CA242BC
:104CF00000D05AE70F1C6546141C9846D2E5002CDC
:104D00003AD1381C284371D0DB43002B18D06348BC
:104D100082426BD0382B00DD9DE01F2B00DDA7E029
:104D200020203C1CC01A8440A1462C1C8246DC403A
:104D30004846044350468540681E8541DF40254370
:104D4000654465459B417F185B42FF18141C64E66F
:104D5000002A19D162460A4377D00F1C654698464F
:104D60004E4C9FE53D436F1EBD410027EDB232E73B
:104D7000041C0027002527E64848824236D08020C0
:104D800000045B420743C5E762460A4349D08024DA
:104D9000ED087807FA0824032843224209D0CE08F8
:104DA000264206D162464F07381CD2081043984667
:104DB000321CD200470F1743C500384C72E56246DB
:104DC0000A4300D16EE56246AE1AB5429241781AA6
:104DD0005242821A100200D455E66246551BAC4579
:104DE0008041CA1B4042171A98465BE50F1C654676
:104DF000141C57E5002B34D063460B4311D080249C
:104E0000ED087807FA08240328432242D1D0CB08C2
:104E10002342CED162464F07381CD20810431A1CD9
:104E2000C7E71E4C3EE5002059E7041C3E1C203C11
:104E3000E640341C20282BD04026301A87403D43C2
:104E40006F1EBD4100272543C5E680270026FF03CE
:104E5000124C0025B8E53D436F1EBD410027EDB261
:104E60006EE70F1C65460D4C1CE50F1C654619E5E9
:104E70001C1C381C203CE040041C202B0CD0402083
:104E8000C31A9F403D436F1EBD410027254357E78E
:104E90000027D4E71D1CFCE50027F3E7FF0700000F
:104EA000FFFF7FFFF0B55F4656464D464446F0B4DF
:104EB0000F0387B098464D003B0BCC0F061C924663
:104EC00081469B466D0D01946BD0664B9D4235D05B
:104ED00080275B467F031F43F3009946624BFF0028
:104EE000400F9C4607430023BB46002665440093C1
:104EF000424617035000D20F53463F0B400D9046D9
:104F000000D172E0574A904267D080235B031F4371
:104F10005346554A5B0FFF001F43944653460021FA
:104F2000DB0060444246624092462D1A0E430F2E2B
:104F300000D9A1E04D48B600805987465B461E4324
:104F400000D076E000239B46994602330826009362
:104F5000CEE799464346BB4601930091009B022B46
:104F60006BD1019B9A4600215346012200278946B6
:104F70001A403C4B00213F030C0D24053F0B2743F7
:104F80003B4C1B0527401F437F00D2077F08174378
:104F90004846391C07B03CBC90469946A246AB46F1
:104FA000F0BD03433ED05B46002B00D19CE1584648
:104FB00001F03CFA2823311C1B1A021C5F46D94021
:104FC000083A97400B1C96403B439B46B146002352
:104FD000284D00262D1A00938AE7524603213A43B2
:104FE000A0D10027002302219CE752463A4315D066
:104FF000002F00D185E1381C01F018FA021C28218D
:105000005046891A131CC8405146083B99409F409E
:105010000B1C074317480021801A83E70027002351
:1050200001217FE700239B46994601330426009324
:105030005EE703230C2600935AE7032B00D13CE2E2
:10504000012B00D0BFE11A1C019B1A400021002354
:10505000002789468EE700238027994600223F03D8
:10506000004B87E7FF07000001FCFFFFD86D000839
:10507000FFFF0F800DFCFFFFBB4500D951E100D1C0
:105080004CE14A46039200225C469046013D180ED0
:105090003F0238431B020193030C994603041B0C87
:1050A0004946061C201C1F1C0093FEF7F3FA021C45
:1050B0007A4302904946201C171CFEF771FB039BA4
:1050C00009041B0C19438F420CD9029B8919013B1F
:1050D0008E4200D952E18F4200D84FE1029B8919DC
:1050E000023B0293CC1B201C4946FEF7D3FA009FDB
:1050F000834647434946201CFEF752FB039A0B04A4
:105100001404240C23439F420DD95A469B19013A9B
:105110009E4200D930E19F4200D82DE10222524246
:1051200094469B19E344029ADB1B17045A463A4300
:105130009346019C170C220C101C04925A46110431
:105140002204120C141C090C7C4305924A4341436F
:1051500047436118100C09188C4203D98020400283
:10516000844667440C0C12040804120C3C19811884
:10517000A34200D2E5E000D1DFE01F1B43465C1AEA
:10518000A04592415242BF1AB74200D10EE1381CED
:105190004946FEF77FFA009B029043434946381C7C
:1051A0009846FEF7FDFA230C0F041F43B8450CD9AF
:1051B000029BBF19013BBE4200D9FBE0B84500D8B5
:1051C000F8E0029BBF19023B02934346FF1A49468F
:1051D000381CFEF75FFA009B039043434946381C96
:1051E0009846FEF7DDFA24040904240C214388457F
:1051F0000CD9039B8919013B8E4200D9DCE088451C
:1052000000D8D9E0039B8919023B03934346C91A8E
:10521000029B039A1B04059C1A43100C130491462D
:10522000221C049F1B0C5A4344437B437843E318DE
:10523000170CDB199C4203D980246402A446604405
:105240001C0C12041B04120C00199B18814200D282
:1052500096E000D1FCE04A4601231A4391469B4B5D
:10526000EB18002B00DC99E04A4652070AD00F22C7
:1052700049460A40042A05D00431494592418946ED
:10528000524293445A46D20106D55A46904B1A4090
:1052900080239346DB00EB188E4A934200DD62E6E2
:1052A0004A465946D208490711435A468946570289
:1052B000514601225B053F0B5B0D0A405AE68020F8
:1052C0005A460003024208D0074206D107433F0373
:1052D00099463F0B4246804B4CE65F4607433F03EF
:1052E0003F0B221C7C4B45E601F0A0F8031C20304C
:1052F000272800DC5EE6083B9E400023B346994623
:1053000065E6504601F092F8021C2032272A00DCA4
:1053100075E657460838874000237BE6994500D25A
:10532000AFE65A46594654084A46C807520802434F
:1053300003924A46D2079046A9E60027884500D343
:105340001CE7019F5A46BC46E044B845BF417F4236
:10535000BF19FF18013ABE4206D2BC425FD800D145
:105360009FE03F1B934609E7B742FAD1019B4345B3
:10537000F3D9371B934601E79346D4E60293B1E68F
:105380004A468919013A8E4218D99146814200D085
:1053900061E7019A9A4200D05DE760E74F4F7F1BBB
:1053A000382F13DD012253461A404FE601235B429A
:1053B000994654E7029308E7039327E788423CD8CD
:1053C00074D0914647E7019B9A4648E71F2F44DC7B
:1053D000434B4A469C465B466544FA40AB40134308
:1053E0004A46AA40151C6A1E95415A46FA402B436C
:1053F000171C5A0709D00F221A40042A05D01A1D7B
:105400009A429B415B42FF18131C3A023ED5534619
:10541000012200211A40002701238946AAE5022320
:105420005B429C46019AE3449446E04490459B418C
:105430005B429B19DF193F1BA0E6019F4A467C0097
:10544000BC42BF417F42BF19023AC91901949CE78F
:10545000002B95D1002201929BE75A46214B5B1B02
:10546000DA40202F27D0204B9C465B466544AB405A
:1054700049460B43591E8B411343072200271A400C
:1054800007D00F2200271A40042AB8D17A077F02DA
:105490003F0BDB0813439946012253461A40002371
:1054A00068E54145BBD89346002767E6019C9C42CE
:1054B000C3D391466DE70023DAE780275B463F03BD
:1054C0001F433F033F0B019A034B53E5FF030000CB
:1054D000FFFFFFFEFE070000FF07000002FCFFFFCA
:1054E0001E040000E2FBFFFF3E040000F0B55F4633
:1054F0004D4644465646F0B41F035C00DB0F994608
:105500001B4B0E034D00C90F8446360B6D0D8B46A9
:1055100090463F0B640D9D420CD0154B9C4210D021
:105520000123A54214D0181C3CBC90469946A246C3
:10553000AB46F0BD311C01230143F4D10C4B9C421E
:10554000EED13A430123002AEDD10123A542EAD14D
:10555000BE42E8D1C445E6D1CB4506D0002DE2D10C
:105560003043031C581E8341DDE70023DBE7C046C0
:10557000FF070000F0B5574645464E46E0B40F031E
:105580004E00C90F8A4632491D035C0084463F0B1A
:10559000760D90462D0B640DDB0F8E420FD08C42A2
:1055A00039D0002E10D13843414241418946002C68
:1055B00027D12A4325D1002000290ED108E0391C2B
:1055C00001432ED1B44226D0002C0BD09A450DD0E9
:1055D0005346594201231943081C1CBC9046994666
:1055E000A246F0BD2A43F3D09A45F1D1A642EFDCA2
:1055F0001ADA504641424841012341421943081CEE
:10560000EBE74A46002AE1D0584258410122414284
:105610001143081CE1E7291C114302D1002EC2D01E
:10562000D4E702204042D8E7AF42D1D809D00020C9
:10563000AF42D2D250464142484101234042184332
:10564000CBE7C445C4D80020C445F3D3C5E7C04662
:10565000FF070000F0B55F464D464446564680467B
:10566000F0B4061C0803000B84462C484C001F03B2
:105670005D00C90F640D8B4691463F0B6D0DDB0F2E
:10568000844212D0854225D0002C14D161460E43AD
:1056900070424641002D35D0002E21D0584258414D
:1056A000012143420B43181C0EE0614602203143A6
:1056B0000AD1A5420ED0002D12D13A4310D15B463B
:1056C000594201231943081C3CBC90469946A24606
:1056D000AB46F0BD391C02201143F5D1002CD5D0CA
:1056E0009B45ECD1AC42EADC05DBBC45E7D80FD0EA
:1056F0000020BC45E8D25846414248414142012081
:105700000843E1E73A43C7D10020002EDCD1D6E7B9
:10571000C845D4D80020C845EDD3D5E7FF07000021
:10572000F0B55F4656464D464446F0B4051C061C8F
:10573000080387B099464F00030BCC0F92469B4657
:105740007F0D019467D06C4B9F4236D080205B4622
:1057500040031843C0006B0F1843684B83469C46B8
:1057600000239846EE00674400934B4649461D03CC
:10577000C90F5B0052462D0B5B0D894600D16EE0D0
:105780005D498B4264D080205C4940038C460021F7
:105790000543ED00500F0543D20063444846FF180F
:1057A0007B1C9A46009B604002900B430F2B00D954
:1057B000ACE053489B00C3589F465B461D4300D056
:1057C00082E00823009300239B460233002698467C
:1057D000CBE7029B01934346022B59D101240025BC
:1057E0000026019B1C40444B00212D030A0D12058D
:1057F0002D0B1543434A1B0515401D436D00E4075F
:105800006D082543301C291C07B03CBC90469946C6
:10581000A246AB46F0BD2B434ED05B46002B00D1D9
:1058200085E1584600F002FE021C2823291C9B1A21
:10583000161C5846D940083EB0400B1CB5400343E7
:105840009B462E1C0023304F0093BF1A98468CE7CE
:10585000514629432ED10025002202219EE75146C0
:10586000294323D0002D00D154E1281C00F0DEFD97
:10587000031C28215046C91A1A1CC8405146083A30
:10588000914095400A1C05431F480021C31A85E733
:10589000032B00D1C2E1012B00D06DE14446019BF6
:1058A00000251C40E4B2002300269DE700250022CD
:1058B000012173E7032171E70423009300239B4632
:1058C00001330026984650E70C230093093B984685
:1058D0004BE7802500242D030026074B84E74B4629
:1058E000AB46161C0193884675E7029BAB46161C17
:1058F000019388466FE7C046FF07000001FCFFFFE9
:10590000186E0008FFFF0F800DFCFFFF330C3604FC
:10591000360C9C46331C140C1204120C534398464C
:10592000634653439946634663430193331C4146A0
:105930006343090C4B445B18994505D9802040020C
:105940008146019949440191190C0391414609048A
:10595000090C1B045B1804932B0C9846331C2D0474
:10596000290C4B43604600934346654658435E43CB
:10597000009B4D431B0C9946AE194E448446B542DC
:1059800003D980235B029946CC44350C2B1C039829
:10599000634484460593009B36041B041B0CF318D8
:1059A0009C446046039058460504060C280C844627
:1059B0005043351C81466046654344434846000CCD
:1059C0008346724314195C44A24203D980225202D6
:1059D00093465D44220CAD184A461204120C24046E
:1059E0004046A41862464A437143464360460096C7
:1059F000464670438046100C84468844E044414546
:105A000005D9802149028C46009961440091019892
:105A100003998446614499429B415B4299460598AB
:105A2000434684461204120C1B049B1863449C4694
:105A3000AB4683429B4140460A19CC44A24289416D
:105A4000E344CC45B6415C46000C80464942764270
:105A50005B426418334398448C428941AB459B4177
:105A600049425B4219430D1C009B4544EE187602E7
:105A7000E50D2E43B346049B56021E43731E9E4102
:105A80005B46D20D324366021643DB010AD5012381
:105A9000334076081E435B46DB071E435B465B08CC
:105AA0009B465746634BFB18002B5ADD720709D003
:105AB0000F223240042A05D0321DB242B64176424E
:105AC000B344161C5A46D20106D55A465A4B1A40C0
:105AD00080239346DB00FB18584A934234DD0124AF
