:020000040800F2
:10000000001800207D530008F9530008F953000838
:1000100000000000000000000000000000000000E0
:10002000000000000000000000000000F95300087C
:100030000000000000000000F9530008F953000818
:10004000F9530008F9530008F9530008F953000860
:10005000F9530008F9530008F9530008F953000850
:10006000F9530008F9530008F9530008F953000840
:10007000F9530008D9040008F9530008F95300089F
:10008000F95300080000000000000000F9530008C8
:1000900000000000F9530008F9530008F953000864
:1000A00000000000F9530008F9530008390E000859
:1000B000A50F000800000000F9530008F9530008DC
:1000C0000121114B1A680A431A6058680F4A02400E
:1000D0005A6018680E4A02401A6018680D4A0240B9
:1000E0001A6058680C4A02400F205A60DA6A82434C
:1000F000DA62186B094A02401A635A6B8A435A63E0
:1001000000229A607047C046001002400CB8FF08F9
:10011000FFFFF6FEFFFFFBFFFFFFC0FF2CFEFFFF10
:100120000C21164A70B553680B40082B16D1506845
:100130005568D36AC02603311940802380027602B5
:10014000000F3540841C01315B029D4201D0B54255
:100150000FD00B4802F0D4FE604300E00848074B84
:10016000084A5B681B061B0FD35CD840064B18601F
:1001700070BD064802F0C4FE6043F0E70010024084
:1001800000127A00305B000800000020006CDC02E6
:100190000022024B5A609A60DA60704700580140B2
:1001A0000E490F4B0A68022013400B600B680123B5
:1001B0000A6813430B600A68084B1042FBD0012207
:1001C0000220596A0A435A625A6A04491042FBD013
:1001D00000234B60A023DB044B60704700100240FB
:1001E000FFFFFFFE0022034B5A60A022D2045A6098
:1001F0007047C046001002400123044A516A0B4375
:1002000002215362536A1942FCD070470010024029
:100210000121024A536A8B43536270470010024027
:100220000123044A11680B43022113601368194229
:10023000FCD07047001002400121024A13688B4332
:1002400013607047001002408021054A490213687C
:100250000B4380211360890213680B42FCD0704766
:10026000001002408021054A490413680B43802195
:100270001360890413680B42FCD0704700100240E1
:10028000034B044A19680A401A601B687047C0464D
:1002900000100240FFFFFFFEF0B556465F464D4698
:1002A00044460023F0B483B0019300939C469846E3
:1002B000203381460026002700229A460CE0181CB5
:1002C000A040041C584683401E43019B0132234337
:1002D00001930231102A2CD00B7854009807800F1C
:1002E000A040834640465D46284380461807800F5D
:1002F000A040834660465D46284384465806800FEA
:10030000A040041CDB06DB0F009893402043202410
:100310001F430B8800905B05900064421B0F8346CF
:100320000419CCD550465C46041B181CE040041C44
:10033000C8E74B4642461A6062469A60009ADA6005
:10034000019A5F601E625A6203B03CBC90469946B7
:10035000A246AB46F0BDC0468C2190200A4A10B59B
:1003600053690A4CC9030B435361211CC005FFF7B5
:1003700093FF211C06482031FFF78EFF211C054802
:100380004031FFF789FF10BD00100240485B0008B4
:1003900000040048001400480123024A51690B433D
:1003A00053617047001400480121024A53698B438E
:1003B00053617047001400480123064A51690B42FB
:1003C00003D151690B43536170475169994351619E
:1003D000FAE7C0460014004838B50125044C6369AB
:1003E0002B43636100F02CF96369AB43636138BD53
:1003F000001400480223054A51690B435361082346
:10040000034A51690B4353617047C04600140048CA
:10041000000400480221054A53698B435361044A92
:10042000063153698B4353617047C046001400483E
:100430000004004802230B4A51690B4208D151695C
:100440000B4353610823084A51690B4353617047BA
:100450005169994351610821034A53698B435361A0
:10046000F5E7C0460014004800040048F8B502262D
:100470000827084C084D6369334363616B693B434C
:100480006B6100F0DDF86B69BB436B616369B3437B
:100490006361F8BD00140048000400489022D205B2
:1004A000002804D1202153698B43536170472023D6
:1004B00051690B435361F9E70223024A51690B4327
:1004C00053617047000400480221024A53698B437C
:1004D00053617047000400480021134B1961134B0E
:1004E0001A780132D2B21A70092A0AD85A780A2A1E
:1004F00010D0DA780A2A03D1093A5A710022DA7048
:10050000704701229A705A7819700132D2B25A702B
:100510000A2AEED101221A7100225A70DA780132C9
:10052000D2B2DA70E6E7C046002C01404404002055
:10053000C121354BC9029A69F0B50A4304219A6179
:10054000DA69FF310A43DA610020012307242F4AC8
:100550002F4990625361D162D36013602D4AC1313B
:1005600011602D4A63259462536113608022D02666
:10057000D2059462D56290639169F601314391612D
:100580001021166A80273143116211683F02194316
:1005900011605169194351616821204A9462D56202
:1005A000506396690E439661166A1E43166216687A
:1005B0001E43166056691E435661194A9462D562FD
:1005C000506396690E439661166A1E431662566C16
:1005D0003E43566416681E43166056691E435661B4
:1005E000104A9462D5625063906901439161106A28
:1005F00018431062516C39435164116819431160FA
:1006000051690B435361F0BD00100240002C0140C2
:100610003F1F000000E100E0000400400020004017
:100620000044014000480140044A536AC01880B2A7
:10063000536A1B1A1B04FBD47047C04600040040D9
:1006400010B50949094C09E0FA22920094464B6A18
:1006500063449BB24A6AD21A1204FBD4013880B2B6
:10066000A042F1D110BDC04600040040FFFF0000D1
:1006700010B5041C0020002907D048014018400094
:10068000642102F0CDFC0A3080B2012C17D0002C7E
:100690000ED0022C07D0042C04D10B4BDA6A904206
:1006A00000D2586310BD094BDA6A9042FAD2F8E7DB
:1006B0008023DB05DA6A9042F4D29863F2E7044BB8
:1006C000DA6A9042EED2ECE7004801400044014073
:1006D00000200040174830B503684368036801688C
:1006E0009B029B0F9A00D3180903134C5B00090F60
:1006F0005918E160026803685204520F9500AA1865
:100700001B051B0F5200D2182261036800685B06AC
:100710005B0F9D00EB180F255B0028401818E123A4
:100720001B014B431501AA1A92009B181B1860610C
:10073000A36130BD0028004084080020E120074A62
:100740000001D168414310690301181A8300C818D9
:1007500053699C46604490617047C04684080020FD
:100760000122014B1A7070474A0400200022014BFD
:100770001A7070474A04002000B583B0FFF7AAFF43
:100780000548C1680269436980690090034800F028
:10079000D7FF03B000BDC04684080020705D00088C
:1007A00008B5034B1B78002B01D0FFF7E5FF08BD10
:1007B0004A040020802370B5094DEA681343EB60BA
:1007C000EB685B060BD4074C402602E0013C002C92
:1007D00005D00A20FFF728FFEB681E42F6D070BD57
:1007E00000280040E7030000802270B5094DEB6847
:1007F0009343EB60EB685B060BD5074C402602E0A9
:10080000013C002C05D00A20FFF70EFFEB681E42CA
:10081000F6D170BD00280040E70300008021802051
:10082000174B4905DA6910B50A43DA61154A4000E9
:100830001168154C01431160822112681A6A09027D
:100840000A431A62CA236362773B6362FFF7B2FF0F
:100850000E4B2361002323606360FFF7C5FF8020F8
:10086000221C4002D36808490342FBD17123054A88
:10087000CB638E334B621168054B0B40136010BD88
:1008800000100240007000400028004041017F003D
:10089000FFFEFFFFF8B54F464646C0B4172803D801
:1008A0003B2901D83B2A03D90CBC90469946F8BD98
:1008B000161C8022234F52003B680D1C13433B60E3
:1008C0003B68214B041C9846CA2342465362773B3F
:1008D0005362FFF76FFF301C0A2102F011FBC0B218
:1008E00003019946301C0A2102F090FB4E46C9B222
:1008F0000E43281C0A2102F003FBC1B209030E4378
:10090000281C0A2102F082FB351CC9B209020D43E2
:10091000201C0A2102F0F4FAC1B209050D43201C83
:100920000A2102F073FB4346C9B209042943196046
:10093000FFF75AFFFF23424653623A68034B1340C6
:100940003B60B1E70070004000280040FFFEFFFF61
:10095000F0B5474680B4232803D85F2901D85F2A21
:1009600002D904BC9046F0BD904680220E4E520043
:1009700033680E4F134333603368CA237B62773B7F
:100980007B620D1C041CFFF715FF424629020A4337
:10099000200410433860FFF727FFFF237B62326893
:1009A000034B13403360DCE7007000400028004038
:1009B000FFFEFFFF10B52E4C2E4800F0C1FE21684F
:1009C0002D4800F0BDFE61682C4800F0B9FEA1681A
:1009D0002B4800F0B5FEE1682A4800F0B1FE21691D
:1009E000294800F0ADFEE169284800F0A9FE616ADF
:1009F000274800F0A5FEA16A264800F0A1FEE16AA2
:100A0000254800F09DFE216B244800F099FE616BA3
:100A1000234800F095FEA16B224800F091FEE16BA7
:100A2000214800F08DFE216C204800F089FE616CA9
:100A30001F4800F085FE216D1E4800F081FE616DAB
:100A40001D4800F07DFEA16D1C4800F079FEE16DAF
:100A50001B4800F075FE216E1A4800F071FE1A481E
:100A600000F06EFE194B1A48196800F069FE10BDBF
:100A700000280040885D0008985D0008B05D00080F
:100A8000C85D0008E05D0008F85D0008105E000821
:100A9000285E0008405E0008585E0008705E00088E
:100AA000885E0008A05E0008B85E0008D05E0008FE
:100AB000E85E0008005F0008185F0008305F00086B
:100AC000485F0008605F0008306100080070004067
:100AD000785F0008002906D0034B1A6802600129DC
:100AE00001D05B6843607047007C00080B4B70B519
:100AF0001C680123E517201C0A211D4302F090FA0F
:100B0000061C201C0A21684302F070FB321C0B1CDF
:100B10000348002100F014FE70BDC046007C0008B0
:100B2000905F000830B50124114DEB68104A1C425B
:100B3000FBD113691B0603D50E4B53600E4B53605C
:100B400001230B4A1469234313610180090C41807E
:100B50000120D36806491842FBD12023CA681342FA
:100B600000D0CB600121024A13698B43136130BD71
:100B70000020024023016745AB89EFCD012110B56C
:100B8000124CE368114A1942FBD113691B0603D5C5
:100B90000F4B53600F4B536002230C4A11690B43F8
:100BA000136140235061012011690B431361D36825
:100BB00006491842FBD12023CA68134200D0CB60FB
:100BC0000221024A13698B43136110BD00200240C9
:100BD00023016745AB89EFCD08B5094B5A68094B2E
:100BE0009A4207D00848FFF7C9FF0120074900F0E3
:100BF000BFFD08BD0649012000F0BAFDF9E7C04677
:100C0000007C0008D2040000007C0008A05F0008FF
:100C1000D85F0008F0B54746804680B40D480F1CE9
:100C2000FFF7ACFF002F12D0002400250A4E4346E8
:100C3000301919590135FFF775FF0434BD42F6DB51
:100C4000301D0649FFF76EFF04BC9046F0BD024E12
:100C5000F6E7C046007C0008007C0008D2040000D3
:100C6000FF20054B00041B681840020AFF200340C8
:100C70001A43101C7047C04604F8FF1F01210648A4
:100C8000C368054A1942FBD113691B0603D5034B00
:100C90005360034B536070470020024023016745B7
:100CA000AB89EFCD01210A48C368094A1942FBD13B
:100CB00013691B0603D5074B5360074B5360044B66
:100CC0001A69920503D4034A9A60034A9A607047EE
:100CD0000020024023016745AB89EFCD10230E4A67
:100CE00010B51469800023431361FF230B4C0B40A4
:100CF00003530B4B090AC1520120D368064918421D
:100D0000FBD12023CA68134200D0CB601021024AD5
:100D100013698B43136110BD0020024000F8FF1FD0
:100D200002F8FF1F20230C4A012011690B431361B5
:100D3000402311690B431361D36807491842FBD163
:100D40002023CA68134200D0CB602021024A1369D5
:100D50008B4313617047C0460020024010B5041C4D
:100D6000FFF7A0FFFFF7DEFF00200849FFF7B6FFFF
:100D7000211C074C0120FFF7B1FF211C0220FFF7C7
:100D8000ADFF0320211CFFF7A9FF10BDAAFF000043
:100D9000FFFF000070B50024074D084E211C2A1CDF
:100DA0002B68301C013400F0CBFC0435042CF5D149
:100DB000034800F0C5FC70BD00F8FF1F0C60000880
:100DC00038600008044B1868044B1B685840044BFB
:100DD0001B6858407047C046B0F7FF1FACF7FF1FB5
:100DE000B4F7FF1F10B50D4C0D48216800F0A8FCAA
:100DF000E1680C4800F0A4FC21690B4800F0A0FC5D
:100E000061690A4800F09CFCE169094800F098FC1F
:100E1000216A084800F094FC10BDC0460020024042
:100E20004060000858600008706000088860000892
:100E3000A0600008B8600008154A10B5D36999068B
:100E400007D5928C90B2134A11685468091B7F2908
:100E500011DD802119420DD00F4A9368D068984265
:100E600011D09368591C91607F210B40D3181A7CD4
:100E7000074B1A8510BD11684C1C14607F2421405B
:100E800052181072E5E7024A13688B431360F1E7CA
:100E9000003801404C040020CC0400200849CA68F6
:100EA0008B68D31A7F2BFBDC531CCB607F231A404B
:100EB0008A181074034A013311680B43136070479A
:100EC000CC04002000380140034AD16893688B426B
:100ED000FCD100207047C046CC040020F0B5474646
:100EE00080B40678002E1BD00F497F27CA680D1CDE
:100EF000831A984680239C460C4C8B68D31A7F2B10
:100F0000FBDC501C3A40AA1816746246236813434F
:100F1000236043461E5C002E01D0021CEDE7E86012
:100F200004BC9046F0BDC046CC040020003801400F
:100F300080220A495202CB691342FCD1084A116847
:100F40005368994206D0591C51607F210B40D31839
:100F5000187A704701204042FBE7C0460038014044
:100F60004C040020011C80200A4AC001936910B57E
:100F7000034393610023084C0848A360636001F0B9
:100F8000BFFF2D2380220009E0602360044B12057F
:100F90001A6010BD00100240003801400020A10777
:100FA00000E100E0154A10B5D369990607D5928C87
:100FB00090B2134A11685468091B7F2911DD802102
:100FC00019420DD00F4A9368D068984211D09368A7
:100FD000591C91607F210B40D3181A7C074B1A854E
:100FE00010BD11684C1C14607F24214052181072EF
:100FF000E5E7024A13688B431360F1E700440040C1
:101000005C050020DC05002010B5041E0A2C11D060
:101010000A49CA688B68D31A7F2BFBDC531CCB6050
:101020007F231A408A181474054A013311680B4350
:10103000136010BD0D20FFF7E7FFE9E7DC05002096
:1010400000440040034AD16893688B42FCD10020E1
:101050007047C046DC05002010B5041C0078013440
:10106000002805D0FFF7D0FF207801340028F9D1FF
:1010700010BDC046074A11685368994206D0591CF2
:1010800051607F210B40D318187A704701204042ED
:10109000FBE7C0465C050020011C80200A4A800254
:1010A000D36910B50343D3610023084C0848A360FB
:1010B000636001F025FF2D2380220009E06023609A
:1010C000044B52051A6010BD00100240004400405D
:1010D0000020A10700E100E00EB400B582B004AA30
:1010E0000349019200F006F802B008BC03B01847AB
:1010F000D0600008F0B54D465F46564644468B46E4
:10110000F0B49146051C8FB005905A465B461278A4
:101110000133002A0AD0252A12D09B462A705A464B
:101120005B46127801350133002AF4D1059B2A7001
:10113000E81A0FB03CBC90469946A246AB46F0BDBB
:101140005A465278302A00D00FE101331A78302AFB
:10115000FBD001210391111C3039C8B200240928A9
:101160000AD8A200013314191A7864006418111CFB
:101170003039C8B20928F4D92E2A15D00126197899
:1011800076420422081C9043682801D15978013323
:1011900001339B460B1C583BDBB2202B00D9D9E016
:1011A000824A9B00D3589F465978581C0A1C303AF3
:1011B000D3B2092B00D9F6E0031C0026B10001339D
:1011C0008E1919787600B6180A1C303AD0B2092860
:1011D000F4D9D6E70A239A464B46043304934B4688
:1011E0001B68994664297AD0714F002206ABDA77E2
:1011F0004B46002B00D1C5E004AA94462723221CAD
:101200006344A8464C461D1CB14656469246201CD7
:10121000311C01F0FBFE674B013D5B5C201C2B7019
:10122000311C01F06DFE041EF1D12B1C4E464546CB
:1012300054469846731C00D18FE0049B5E49994642
:10124000404604F049FC361AF3438246DB17381C4B
:101250001E4004F00DFC5346241AF0183B78241A63
:10126000002B06D001356A1E013713703B78002B26
:10127000F8D1002E06D030222B1CAD191A70013384
:101280009D42FBD15346002B08DD002341465046CA
:10129000CA5CEA5401338342FAD1ED18002C00DC19
:1012A00033E720222B1C2D191A7001339D42FBD1EC
:1012B0002BE74A46127806AB1A70042294460121A5
:1012C000E144002698463A4FBAE710239A464B4627
:1012D000043304934B461B689946642984D1002B40
:1012E00082DA5B429946354F7FE74A464B461268A1
:1012F00004339046721C40D0311C994600262C4F76
:101300009EE74B46043304934B461B6800229946E4
:1013100006ABDA774B46002B3AD0102308269A46C4
:10132000234F69E7FF274B463A1C19681E1D080C1E
:1013300038400A400B0A090E3B400090019106A874
:101340001F49FFF7C9FE06ABB1461B490026984668
:10135000174F75E729700135D7E6039B002B07D09F
:10136000381C04F085FB261A67E700210391F2E69A
:10137000049B11499946012662E799460E490026C9
:101380000B4F5DE704AA272394466344984651E730
:10139000049B04AA994694462723634406490826D9
:1013A0009846034F4CE7031C0026EAE6A85B0008BA
:1013B00048610008E0600008FFFFFF7FDC60000874
:1013C000D06000080FB410B582B004AA084C02CA5D
:1013D000201C0192FFF78EFE201CFFF77FFD201CD2
:1013E00004F046FB02B010BC08BC04B01847C0466D
:1013F0006C0600200EB410B583B0002812D00B4C40
:1014000006AA78340599201C0192FFF773FE201C70
:10141000FFF764FD201C04F02BFB03B010BC08BCDC
:1014200003B0184701204042F7E7C0466C06002091
:1014300008B5FFF733FD002008BDC04608B5FFF72B
:101440004DFD0A20FFF72AFD002008BD08B5FFF773
:101450006FFD08BDF0B54D465F46564644468B4687
:10146000F0B49146051C8FB005905A465B46127841
:101470000133002A0AD0252A12D09B462A705A46E8
:101480005B46127801350133002AF4D1059B2A709E
:10149000E81A0FB03CBC90469946A246AB46F0BD58
:1014A0005A465278302A00D00FE101331A78302A98
:1014B000FBD001210391111C3039C8B20024092846
:1014C0000AD8A200013314191A7864006418111C98
:1014D0003039C8B20928F4D92E2A15D00126197836
:1014E00076420422081C9043682801D159780133C0
:1014F00001339B460B1C583BDBB2202B00D9D9E0B3
:10150000824A9B00D3589F465978581C0A1C303A8F
:10151000D3B2092B00D9F6E0031C0026B100013339
:101520008E1919787600B6180A1C303AD0B20928FC
:10153000F4D9D6E70A239A464B46043304934B4624
:101540001B68994664297AD0714F002206ABDA777E
:101550004B46002B00D1C5E004AA94462723221C49
:101560006344A8464C461D1CB14656469246201C74
:10157000311C01F04BFD674B013D5B5C201C2B7067
:10158000311C01F0BDFC041EF1D12B1C4E4645461A
:1015900054469846731C00D18FE0049B5E499946DF
:1015A000404604F099FA361AF3438246DB17381C9A
:1015B0001E4004F05DFA5346241AF0183B78241AB2
:1015C000002B06D001356A1E013713703B78002BC3
:1015D000F8D1002E06D030222B1CAD191A70013321
:1015E0009D42FBD15346002B08DD00234146504667
:1015F000CA5CEA5401338342FAD1ED18002C00DCB6
:1016000033E720222B1C2D191A7001339D42FBD188
:101610002BE74A46127806AB1A7004229446012141
:10162000E144002698463A4FBAE710239A464B46C3
:10163000043304934B461B689946642984D1002BDC
:1016400082DA5B429946354F7FE74A464B4612683D
:1016500004339046721C40D0311C994600262C4F12
:101660009EE74B46043304934B461B680022994681
:1016700006ABDA774B46002B3AD0102308269A4661
:10168000234F69E7FF274B463A1C19681E1D080CBB
:1016900038400A400B0A090E3B400090019106A811
:1016A0001F4900F03FF806ABB1461B49002698469B
:1016B000174F75E729700135D7E6039B002B07D03C
:1016C000381C04F0D5F9261A67E700210391F2E6E9
:1016D000049B11499946012662E799460E49002666
:1016E0000B4F5DE704AA272394466344984651E7CD
:1016F000049B04AA99469446272363440649082676
:101700009846034F4CE7031C0026EAE62C5C0008D1
:1017100048610008E0600008FFFFFF7FDC60000810
:10172000D06000080EB400B582B004AA034901924B
:10173000FFF790FE02B008BC03B01847D060000865
:101740000FB410B582B004AA084C02CA201C019242
:10175000FFF780FE201CFFF77FFC201C04F088F9B7
:1017600002B010BC08BC04B01847C0465C0700209B
:101770000EB410B583B0002812D00B4C06AA7834F2
:101780000599201C0192FFF765FE201CFFF764FC01
:10179000201C04F06DF903B010BC08BC03B018475E
:1017A00001204042F7E7C0465C07002008B5024828
:1017B000FFF7C6FF08BDC046F460000808B5024840
:1017C000FFF7BEFF08BDC046F860000830B50378DB
:1017D0002D2B17D0002201250021825C141C303CE7
:1017E000092C14D8002341189C00E3185B009B18B7
:1017F0004A78303B141C303C0131092CF4D96B433E
:10180000181C30BD012501226D420121E5E70020B1
:10181000F7E7C04630B503782D2B17D000220125FD
:101820000021825C141C303C092C14D80023411880
:101830009C00E3185B009B184A78303B141C303C3A
:101840000131092CF4D96B43181C30BD012501224C
:101850006D420121E5E70020F7E7C046021C13783E
:101860000020191C303909290ED93139052910D920
:101870002031052911D800013738C01801321378FA
:10188000191C30390929F0D800013038C01801324C
:10189000F5E700015738C018F0E77047002801D17C
:1018A00003E001300378202BFBD07047F0B54746AA
:1018B000021C80B48846002821D00E1C0025002779
:1018C0001378141C202B03D101342378202BFBD058
:1018D000002B0BD0201C202104F05EF8002807D03C
:1018E000421C0770013510C6002AE9D1281C03E00C
:1018F0004346681CAD00EC5004BC9046F0BD00208F
:10190000FAE7C04608B50248FFF71AFF08BDC0460F
:10191000FC60000808B52348FFF712FF2248FFF7D4
:101920000FFF2248FFF70CFF2148FFF709FF21486E
:10193000FFF706FF2048FFF703FF2048FFF700FFEF
:101940001F48FFF7FDFE1F48FFF7FAFE1E48FFF78E
:10195000F7FE1E48FFF7F4FE1D48FFF7F1FE1D4895
:10196000FFF7EEFE1C48FFF7EBFE1C48FFF7E8FE12
:101970001B48FFF7E5FE1B48FFF7E2FE1A48FFF79A
:10198000DFFE1A48FFF7DCFE1948FFF7D9FE1948B9
:10199000FFF7D6FE1848FFF7D3FE1848FFF7D0FE32
:1019A00008BDC046346100084C6100085861000859
:1019B00064610008706100088C610008A86100087B
:1019C000B8610008C8610008D8610008E861000833
:1019D000F86100080862000824620008306200080C
:1019E0003C62000848620008546200086462000813
:1019F0006C6200087C620008806200088C6200084B
:101A0000F8B50C68071C0E1C201CB349251C03F0FC
:101A10002DFC002800D101E3201CB04903F026FC76
:101A2000002800D1F5E2201CAD4903F01FFC00287E
:101A300000D1E0E2201CAB4903F018FC002800D0E4
:101A400075E0042F00D175E1201CA74903F00EFCBE
:101A5000002800D0D4E0022F00D1E9E1201CA349E6
:101A600003F004FC002800D010E2201CA04903F081
:101A7000FDFB002800D0D4E0022F00D13FE2201C63
:101A80009C4903F0F3FB002802D1042F00D1CAE2E5
:101A9000281C994903F0EAFB002800D1F3E0281C38
:101AA000964903F0E3FB002800D1F8E0281C944994
:101AB00003F0DCFB002800D100E1281C914903F071
:101AC000D5FB002800D103E1281C8F4903F0CEFB91
:101AD000002805D1022F00D10AE300F087FD356808
:101AE000281C8A4903F0C2FB002800D17BE2281C95
:101AF000874903F0BBFB002802D1022F00D117E376
:101B0000281C844903F0B2FB002800D17DE2281C88
:101B1000814903F0ABFB002800D171E2281C7F490A
:101B200003F0A4FB002801D1FFF7F4FEF8BD201C50
:101B30007B4903F09BFB002800D085E7042F00D0F1
:101B400082E7746823782D2B00D125E30023012040
:101B50000021E25C131C303B092B00D97CE30023FD
:101B600061189C00E3185B009B184A78303B141CFA
:101B7000303C0131092CF4D95843C0B2B3681A780B
:101B80002D2A00D123E30024012100221C5D251C05
:101B9000303D092D00D94FE39A1800239D00EB1822
:101BA0005B001B195478303B251C303D0132092D58
:101BB000F4D95943C9B2F3681A782D2A00D100E349
:101BC00001240022A44600249D5C2A1C303A092AE4
:101BD00000D92FE31C1900239A00D3185B005B196E
:101BE0006578303B2A1C303A0134092AF4D9624620
:101BF0005A43D2B200F080FD00F0B0FD3468251CDD
:101C0000201C484903F032FB002800D0FFE0022FDF
:101C100000D1C6E1201C444903F028FB002800D075
:101C200023E7201C414903F021FB002800D026E7D0
:101C3000022F00D023E773681A782D2A00D185E29D
:101C4000002101200022595C0D1C303D092D00D9D6
:101C5000ACE29A1800239D00EB185B005B185178EA
:101C6000303B0D1C303D0132092DF4D94343D8B22D
:101C7000642800D89BE2251C281C1F4903F0F6FAB3
:101C8000002800D00BE7FEF725FDFEF775FD35684F
:101C90001A49281C03F0EAFA002800D006E70021C0
:101CA0000022FEF7F7FD0122214B15491A70356815
:101CB000281C03F0DBFA002800D0FEE6FEF750FDFA
:101CC00035681049281C03F0D1FA002800D0FBE643
:101CD00000F058FC3568F7E694620008A06200083E
:101CE000A8620008B4620008CC620008E462000840
:101CF000FC620008146300081C63000824630008E9
:101D00003063000838630008406300084863000837
:101D1000646300086C63000870630008786300085F
:101D2000C0620008D8620008F0620008086300087A
:101D30004C080020746823782D2B00D154E2002336
:101D400001200021E25C131C303B092B00D979E211
:101D5000002361189C00E3185B009B184A78303B15
:101D6000141C303C0131092CF4D95843C0B2B3687B
:101D70001A782D2A00D150E20024012100221C5D96
:101D8000251C303D092D00D94EE29A1800239D00F4
:101D9000EB185B001B195478303B251C303D013299
:101DA000092DF4D95943C9B2F3681A782D2A00D104
:101DB0002DE201240022A44600249D5C2A1C303A16
:101DC000092A00D92EE21C1900239A00D3185B00BF
:101DD0005B196578303B2A1C303A0134092AF4D962
:101DE00062465A43D2B200F073FC00F0B7FC34688C
:101DF000DB49201C251C03F039FA002800D1A0E69D
:101E0000201CD84903F032FA002800D0F8E6201C44
:101E1000D54903F02BFA002838D1022F00D197E0E2
:101E2000201CD24903F022FA002800D127E6F8E668
:101E300073681A782D2A00D1CEE1002201200021FA
:101E40009A5C141C303C092C00D9F7E15918002386
:101E50009C00E3185B009B184A78303B141C303C14
:101E60000131092CF4D95843C0B200F0B5FA3468F6
:101E7000BF49201C251C03F0F9F9002800D190E08F
:101E8000201CB94903F0F2F9002861D0201CB9499F
:101E900003F0ECF9002800D0E7E5022F00D0EEE5D2
:101EA00073681A782D2A00D16CE1002201200021EC
:101EB0009A5C141C303C092C00D9C7E15918002346
:101EC0009C00E3185B009B184A78303B141C303CA4
:101ED0000131092CF4D94343DCB2201C00F07CFA18
:101EE000201C00F0B1FA201C00F09AFA34689F49D7
:101EF000201C251C03F0BAF9002800D091E6736875
:101F00001A782D2A00D142E1002101200022595CDB
:101F10000D1C303D092D00D94EE19A1800239D007B
:101F2000EB185B005B185178303B0D1C303D0132E3
:101F3000092DF4D94343D8B2642800D83DE1201CD0
:101F40008D49251C03F092F9002800D173E696E52F
:101F500073681A782D2A00D1FDE0002201200021AB
:101F60009A5C141C303C092C00D971E159180023EB
:101F70009C00E3185B009B184A78303B141C303CF3
:101F80000131092CF4D95843C0B200F05DFA34682D
:101F90007849201C251C03F069F9002800D064E56D
:101FA0007EE773681A782D2A00D1FAE0002201201A
:101FB00000219A5C141C303C092C00D94AE15918C4
:101FC00000239C00E3185B009B184A78303B141CEC
:101FD000303C0131092CF4D95843C0B200F020FA4A
:101FE0003468251C4CE7FEF73BFE011C6348FFF7F5
:101FF000A7FB35687BE500F0B1FB3468251C19E5CB
:102000005F48FFF79DFB356888E5FEF7AFFB356855
:102010007DE500F055FB3468251C04E500F04AFB23
:102020003468251CF8E4746823782D2B00D1DFE098
:10203000002301200021E25C131C303B092B00D956
:1020400002E1002361189C00E3185B009B184A78AA
:10205000303B141C303C0131092CF4D95843C0B238
:10206000B3681A782D2A00D1CCE000240121002287
:102070001C5D251C303D092D00D9D9E09A1800239C
:102080009D00EB185B001B195478303B251C303D3C
:102090000132092DF4D95943C9B2F3681A782D2AAF
:1020A00000D1A9E001240022A44600249D5C2A1C42
:1020B000303A092A00D9B9E01C1900239A00D31834
:1020C0005B005B196578303B2A1C303A0134092AE1
:1020D000F4D962465A43D2B2FEF7DCFBFA20400044
:1020E000FEF7A2FAFEF7F6FAFEF746FB3568CFE4F4
:1020F00073681A782D2A73D00022012000219A5C7F
:10210000141C303C092C00D99AE0591800239C007B
:10211000E3185B009B184A78303B141C303C0131BB
:10212000092CF4D9584380B200B200F055FAD4E437
:102130007068FFF793FBC0B2FEF710FEFEF790FD4C
:10214000011C0E48FFF7FCFA3568D9E40120012193
:1021500040422C3A77E501202C3A40420121FFE62B
:10216000C0620008CC620008E4620008FC6200085B
:10217000D8620008F0620008086300085063000895
:10218000FC60000801202C3A4042012190E6012029
:10219000012140422C3ABAE601202C3B4042012169
:1021A000D7E401202C3A4042012102E7002000F050
:1021B000BDFA3468251C5FE5002000F0B1FA3468F0
:1021C000BDE601246442A4462C3A0234FCE4012119
:1021D000012449422C3AD9E42C3A013801212FE656
:1021E0002C3A013801218AE72C3B01380121A9E56D
:1021F0002C3B013801211EE701246442A4462C3AFD
:10220000023453E70121012449422C3A30E70124EA
:102210006442A4462C3A0234CFE50121012449420C
:102220002C3AACE50022DEE50021BDE5002253E7B3
:10223000002132E70022DDE40021BCE4002014E6A6
:10224000002071E7002092E5002009E7002444E621
:1022500000209AE60020C1E600208FE408B500289F
:1022600001D0FFF7CDFB08BD10B5FEF703FF002836
:1022700017DB0A281DD00D281BD0082812D07F2874
:1022800010D06822174B1B681B185B78934308D04B
:10229000154A137859B2002903DB591C1170134AEF
:1022A000D05410BD104A1378002BFAD0013B1370A4
:1022B000F7E70F48FFF744FA00220B4B0B48197859
:1022C0000C4C4254211C1A70FFF7F0FA0A4B1860AC
:1022D000002803D10948FFF733FAE2E7211CFFF792
:1022E0008FFBF7E710000020CC080020D00800206A
:1022F00030610008A0080020C8080020F460000831
:102300008021074A890093690B4393618022054B22
:10231000D2051A6103225A6100229A607047C046B2
:10232000001002400024014001230A4A9168194329
:102330008340916093620423042091680B4393606F
:10234000136804491842FBD001228B6893438B60C9
:10235000086C70470024014010B5144C1448FFF776
:102360006DF821681348FFF72DF861681248FFF7F0
:1023700029F8A1681148FFF725F8E1681048FFF730
:1023800021F821690F48FFF71DF861690E48FFF732
:1023900019F8216A0D48FFF715F8A16A0C48FFF7F4
:1023A00011F8216C0B48FFF70DF810BD0024014017
:1023B0008063000894630008A8630008BC630008F9
:1023C000D0630008E4630008F86300080C640008A8
:1023D000206400083464000810B5041C0020642C3C
:1023E00010D96421FEF744F901206421FEF740F979
:1023F00002206421FEF73CF90849221C0020FFF767
:10240000B7F910BD211CFEF733F9211C0120FEF79E
:102410002FF90220211CFEF72BF9EDE74864000894
:1024200010B5041C0420642C08D96421FEF720F99F
:102430000449221C0020FFF79BF910BD211CFEF768
:1024400017F9F5E76064000808B5002807D0FEF723
:1024500033F8642200200449FFF78AF908BDFEF72B
:1024600033F80022F6E7C0467864000808B500207B
:10247000FFF7B2FF0020FFF7D3FF0020FFF7E4FFD4
:1024800008BDC046014B18887047C046500900205F
:10249000F0B5474680B4284B82B01868984601F0E2
:1024A0003FF8264900F00AFF02F06EFE041C0D1CE6
:1024B00002F0A4FF00900191201C291C02F09EFF55
:1024C000061C0F1C201C291C02F098FFC022041CB3
:1024D0000D1C301C391CD205194B01F0CFFF221CFA
:1024E0002B1C01F0CBFF8022164B920501F060F807
:1024F000021C0B1C0098019901F0C0FFC022124B76
:10250000120601F055F8021C0B1C00200F4901F0C7
:1025100077FBC0220E4BD20502F04AFA00220D4B87
:1025200001F0ACFF00F0ACFE43465B68C01880B21F
:1025300002B004BC9046F0BD50080020014DCA40D6
:10254000DE708A3EAC6C303F40354D3F0000F03FBE
:10255000661271400000244008B50020FFF7E4FE39
:10256000064A91689060CB015B1AC318DB091360BF
:10257000FFF78EFF024B188008BDC04650080020B0
:102580005009002038B5084B0A211D88281C00F08E
:10259000B7FC0A2184B2281C00F038FD03488AB237
:1025A000211CFFF7CDF838BD5009002090640008C9
:1025B00010B5054C0121201DFEF78CFA6168034817
:1025C000FFF7BEF810BDC04650080020A464000804
:1025D00008B5FFF7EDFF08BD08B5034B01215860B2
:1025E000181DFEF717FB08BD500800200A4B70B5F8
:1025F0005C680123E517201C0A211D4300F010FD33
:10260000061C201C0A21684300F0F0FD03480A1C48
:10261000311CFFF795F870BD50080020BC6400081D
:10262000074B084A1A60084B084A1A600022084BF8
:102630001A705A705A60074B01321A607047C046D0
:1026400054090020917E00005C0900205127010000
:102650005C0800200400002010B5114C237A002BE8
:1026600000D110BDFEF736F8FEF768F80D4B186084
:102670000D4B1B68984209D90C4B1B68984205D238
:102680000B4B18795B792070637003E00023002006
:1026900023706370FFF7A0FE6078FFF7C1FEE0E7EC
:1026A0005C08002058090020540900205C09002023
:1026B000040000200122014B1A7270475C080020C0
:1026C0000022024B1A721A705A7070475C08002080
:1026D00017280DD83B290BD83B2A09D8E1231B0129
:1026E00058430B01591A89004018024B82181A608E
:1026F0007047C0465409002017280DD83B290BD835
:102700003B2A09D8E1231B0158430B01591A8900C0
:102710004018024B82181A607047C0465C090020BE
:10272000014B18717047C04604000020014B5871DE
:102730007047C04604000020014B18787047C0461F
:102740005C080020014B58787047C0465C080020A8
:10275000014B587A7047C0465C08002038B50F4BD3
:102760000F481968FEF7ECFF0E4B0F481968FEF78B
:10277000E7FF0E4B0E481968FEF7E2FF0D4D0E4CB9
:10278000297822790D48FEF7DBFF697862790C48D9
:10279000FEF7D6FFFFF7F6FE38BDC0465809002009
:1027A000D064000854090020DC6400085C090020A3
:1027B000E86400085C08002004000020F8640008B9
:1027C0000865000808B5FEF74BFA014B187008BD04
:1027D0008009002038B5FEF7ABFB011E13DB464C29
:1027E0002368032B4DD00FD9052B3ED034D3622B59
:1027F0001CD0632B07D10123002040492373FEF72F
:10280000B7FF0023236038BD012B50D014D85528C2
:10281000F9D1002301252371394B3A49187055220B
:1028200000206571FEF7A4FF2560ECE73648FEF74F
:1028300087FF00232360E6E76079314A431CDBB25F
:102840006371D3181154013B1A7800202F49FEF709
:102850008FFF03232360D6E72379A2680133DBB21D
:102860002371934241D9052323606379244A0020D0
:10287000D154FF220A402649FEF77AFF63232360E2
:10288000B9E7102826DCA06060791D4A431CDBB242
:102890006371D3181154013B1A7800201D49FEF7CB
:1028A00067FFA368002B12D004232360ABE7607995
:1028B000134A431CDBB26371D3181154013B1A78DD
:1028C00000201549FEF754FF022323609BE70523F0
:1028D000236098E70A4A63791048D318013B1A78B5
:1028E000FEF72EFF622323608DE763795A1C627125
:1028F000034AD05487E7C04668080020C465000832
:10290000600900201C650008E065000858650008A3
:10291000A8650008906500083C650008746500081B
:1029200038B5124D00222B1CEC78E01C2818597881
:1029300001334A408342FAD12C192379934209D0BA
:102940000B4B0C485A69196901325A61FEF7F8FEBF
:10295000002038BD064B00201A69074901321A6170
:102960005B69FEF705FF0120F3E7C0466009002020
:102970006808002010660008F465000808B5094BD7
:102980009A78A12A00D008BD5A78074B1B789A4242
:10299000F9D10122054B064901201A76FEF7E8FE1F
:1029A000F1E7C04660090020800900206808002087
:1029B0002C66000830B555240C4DA9702C70687039
:1029C000EA700021002A05D05C5C681801310471AE
:1029D0009142F9DB2B1C0021D41C2C1958780133AF
:1029E0004140A342FAD1AA18117130BD70090020EC
:1029F000F8B5114E0A20F478FDF722FE05340120C7
:102A0000FDF74CFDE4B26420FDF70EFE3719002CF3
:102A10000AD08024094D3078FEF740FAEB691C4259
:102A2000FCD00136BE42F6D10520FDF709FE00209C
:102A3000FDF734FDF8BDC0467009002000380140A4
:102A400010B50C4B0C4C5B782078984200D010BD30
:102A5000A02100220023FFF7ADFFFFF7C9FF0122ED
:102A6000064B07495A76002201201A762278FEF793
:102A70007FFEECE760090020800900206808002044
:102A80004C66000808B5034B9B78A02B01D1FFF7DB
:102A9000D7FF08BD6009002030B57A4C102263785A
:102AA00085B0191C914305D0774A12789A4201D01B
:102AB00005B030BDA178172900D1B8E011D813298D
:102AC00000D1BBE028D9152900D1D2E000D9C7E058
:102AD0002079FFF7B9FC22796C490120FEF748FE06
:102AE000E6E7A22900D1B2E009D9B1295AD0B2292A
:102AF00030D0B02923D06648FEF722FED8E7192946
:102B000071D048D31A29F6D12079637900021818B8
:102B100000B2FFF761FDCBE7112956D04CD8102940
:102B2000E9D120796179A279FFF7D2FDA1792279E3
:102B30006379012000915749FEF71AFEB8E7207922
:102B4000FEF70CF9FEF78CF85349021C0120FEF742
:102B50000FFEADE720796179A279FDF7F9FE2279C0
:102B600061791309A0799C00E3180F245B002240CF
:102B70009A180B099D00EB1821405B005B180109B6
:102B80008D00691849002040081800904349012031
:102B9000FEF7EEFD8CE7FFF793FD41490120FEF7BC
:102BA000E7FD85E7002000210022FDF773FE3D4987
:102BB0000120FEF7DDFD7BE72079FFF70DFC227990
:102BC00039490120FEF7D4FD72E720796179A279B5
:102BD000FFF792FDA17922796379012000913349B1
:102BE000FEF7C6FD64E7FFF74DFC02AC030A237055
:102BF000051C6070FFF7A0FDA070FFF7A3FDE0705B
:102C0000FFF7A6FD204B2071192118780522231CFF
:102C1000FFF7D0FEFFF7ECFEE278A378009222796E
:102C20002349019201202A1CFEF7A2FD40E7FFF78D
:102C300041FD20490120FEF79BFD39E72079FFF790
:102C4000EFFB22791C490120FEF792FD30E70022BC
:102C50001A4B1B4901205A761A76FEF789FD27E7A1
:102C60002079FFF763FD227916490120FEF780FDE8
:102C70001EE72079FFF754FD227913490120FEF762
:102C800077FD15E76009002080090020C066000874
:102C9000106800087066000850630008B8670008F4
:102CA00050670008DC670008EC66000898660008BA
:102CB000606700084067000818670008680800207F
:102CC0009467000810670008E466000810B5124C0D
:102CD000A37E012B14D0002B08D0022B05D1FFF7C7
:102CE000DBFE237E002B00D1A37610BD0B4B9B781F
:102CF000A02B0DD0637E002BF7D00123A376F4E741
:102D0000FFF73CFE237E002BEFD00223A376ECE7F7
:102D1000FFF796FEEEE7C046680800206009002035
:102D200010B5074C237B002B00D110BDFFF7F8FD39
:102D3000002802D100232373F7E7FFF7C7FFF9E765
:102D40006808002008B50448FEF7FAFC0348C1787B
:102D5000053100F017F808BD34680008700900203C
:102D600008B50548FEF7ECFC044B0548D978053159
:102D700000F008F808BDC0463C6800087009002053
:102D800060090020F0B5002356468A465F464D464E
:102D900044469B46534600218246F0B48DB00193D1
:102DA00004AC0122231C0CAD52421A800233AB4208
:102DB000FBD1019B102B64D8019A0023002A11D06B
:102DC0005E46A04657468C460199F8185A00805D29
:102DD000013304ACDBB210538B42F6D3B346444606
:102DE0006146BA46012302934B1CDBB20901354808
:102DF00004AF0393FEF7A4FC398800260BB201331D
:102E00000ED00136C9B23048F6B2FEF799FC102E4A
:102E10000DD0082E51D0023739880BB20133F0D1D2
:102E200001362A48F6B2FEF78BFC102EF1D1284865
:102E3000FEF786FC274B284E9946284B984605E01E
:102E40004046FEF77DFC0234AC420ED021782A29A0
:102E500013D0682233685B185B789343F0D14846FF
:102E60000234FEF76DFCAC42F0D11D48FEF768FC61
:102E7000029B002B1AD1039992E71A48FEF760FCD7
:102E8000E1E7564600235E44F05C5A0004AF01338C
:102E9000D053102BF8D1019F103FBBB201935B467A
:102EA00010339BB29B46002302939DE70DB03CBCC0
:102EB00090469946A246AB46F0BD0B48FEF740FC53
:102EC0000237A9E7446800085068000858680008FD
:102ED0005C68000864680008100000206068000852
:102EE00030610008DC6000084C6800087869000860
:102EF0000000002044040020440400208409002035
:102F0000002243088B4274D303098B425FD3030A28
:102F10008B4244D3030B8B4228D3030C8B420DD33B
:102F2000FF22090212BA030C8B4202D312120902C9
:102F300065D0030B8B4219D300E0090AC30B8B4207
:102F400001D3CB03C01A5241830B8B4201D38B03B5
:102F5000C01A5241430B8B4201D34B03C01A52415A
:102F6000030B8B4201D30B03C01A5241C30A8B429D
:102F700001D3CB02C01A5241830A8B4201D38B0288
:102F8000C01A5241430A8B4201D34B02C01A52412C
:102F9000030A8B4201D30B02C01A5241CDD2C3099E
:102FA0008B4201D3CB01C01A524183098B4201D31A
:102FB0008B01C01A524143098B4201D34B01C01A05
:102FC000524103098B4201D30B01C01A5241C3087D
:102FD0008B4201D3CB00C01A524183088B4201D3EC
:102FE0008B00C01A524143088B4201D34B00C01AD8
:102FF0005241411A00D20146524110467047FFE744
:1030000001B5002000F0FCF802BDC0460029F7D051
:1030100003B5FFF775FF0EBC4243891A1847C04637
:1030200003460B437FD4002243088B4274D3030929
:103030008B425FD3030A8B4244D3030B8B4228D3CA
:10304000030C8B420DD3FF22090212BA030C8B42F0
:1030500002D31212090265D0030B8B4219D300E090
:10306000090AC30B8B4201D3CB03C01A5241830B15
:103070008B4201D38B03C01A5241430B8B4201D3C5
:103080004B03C01A5241030B8B4201D30B03C01AEE
:103090005241C30A8B4201D3CB02C01A5241830A68
:1030A0008B4201D38B02C01A5241430A8B4201D397
:1030B0004B02C01A5241030A8B4201D30B02C01AC1
:1030C0005241CDD2C3098B4201D3CB01C01A524128
:1030D00083098B4201D38B01C01A524143098B42B1
:1030E00001D34B01C01A524103098B4201D30B019A
:1030F000C01A5241C3088B4201D3CB00C01A5241BF
:1031000083088B4201D38B00C01A524143088B4283
:1031100001D34B00C01A5241411A00D2014652411C
:10312000104670475DE0CA0F00D04942031000D33B
:103130004042534000229C4603098B422DD3030A90
:103140008B4212D3FC22890112BA030A8B420CD3A0
:10315000890192118B4208D3890192118B4204D3C9
:1031600089013AD0921100E08909C3098B4201D349
:10317000CB01C01A524183098B4201D38B01C01A83
:10318000524143098B4201D34B01C01A52410309FA
:103190008B4201D30B01C01A5241C3088B4201D3A9
:1031A000CB00C01A524183088B4201D38B00C01A56
:1031B0005241D9D243088B4201D34B00C01A52412D
:1031C000411A00D20146634652415B10104601D3BA
:1031D0004042002B00D54942704763465B1000D344
:1031E000404201B5002000F00BF802BD0029F8D0E4
:1031F00003B5FFF715FF0EBC4243891A1847C046B6
:103200007047C0468446101C62468C46191C6346B3
:1032100000E0C0461FB501F0CBF8002801D4002122
:10322000C8421FBD10B501F00FF84042013010BD7B
:1032300010B501F0BDF8002801DB002010BD012011
:1032400010BDC04610B501F0B3F8002801DD002024
:1032500010BD012010BDC04610B501F039F800289E
:1032600001DC002010BD012010BDC04610B501F0EA
:103270002FF8002801DA002010BD012010BDC04643
:1032800038B500220C4B041C0D1CFFF7EFFF002883
:1032900004D1201C291C01F005FF38BD064B00227B
:1032A000201C291C01F084FB01F0FCFE80231B067E
:1032B0009C466044F1E7C0460000E041F0B55F463F
:1032C00056464D464446F0B445024600C40F83B00E
:1032D0000F1C6D0A360EA34645D0FF2E25D0802345
:1032E0001B041D4300239A46ED007F3E01937B02A1
:1032F0005B0A98467800FB0F000E994640D0FF28E5
:1033000038D0802342461B041343DB009846002339
:103310007F384A46019F30186240411C1F430F2FDF
:1033200069D87D4EBF00F659B746002D45D1082318
:103330000193063B9A46DAE793465346022B2FD178
:103340005B46012400251C40FF236D02DB056D0A4E
:10335000E4071D432543281C03B03CBC9046994616
:10336000A246AB46F0BD002D2CD104230193033BB4
:103370009A46BCE743465A4253410322D31AC8E750
:1033800042460123002AC4D0404601F051FF424684
:10339000431F9A4076235B42181A90460023B8E7F1
:1033A000032B00D1ADE0012B00D08CE05B465446EE
:1033B0001C40E4B200230025C7E70C230193093B1E
:1033C0009A4694E7281C01F033FF7626431F9D4060
:1033D00000237642361A01939A4688E78025002416
:1033E000ED03FF23B1E74546CB469A46A5E74546A0
:1033F00093469A46A1E743462C041B0C9C46230C9B
:10340000444626041C1C360C2F0C7443351C66469F
:103410007D4373437743EB18260C9E19B54203D9BD
:1034200080235B029C46674424043304240C1B194C
:103430009D016C1EA5419B0E360C2B43BD19AD01A1
:103440001D432B0104D5012368081D400543081CBA
:10345000031C7F33002B2CDD690704D00F2129408A
:10346000042900D00435290103D52C4B1D40031C31
:103470008033FE2B17DD0124FF231440002564E771
:103480008020C003054209D04346034206D1454689
:1034900005436D026D0A4C46FF2356E705436D0256
:1034A0006D0AFF2351E70124AD016D0ADBB2144020
:1034B0004BE77E235B421B1A1B2B07DD01240023F5
:1034C0001440002541E7081C5A46C1E79E30291CDC
:1034D0008540D940681E85410D436B0704D00F23FA
:1034E0002B40042B00D004356B0104D501240123AB
:1034F0001440002529E70124AD016D0A1440002382
:1035000023E78023DB031D4301245B466D02234038
:103510001C1C6D0AFF2318E7B05C0008FFFFFFF7D3
:1035200010B5041E35D001F083FE9E21091A96299C
:1035300009DC082830DD021C231C083A93405B029A
:103540005B0AC8B220E099290CDD0522231C121A5F
:10355000D3401A1C031C1B339C40231C5C1EA3413C
:1035600013431C1C052801DD431F9C400F4B2340C7
:10357000620704D00F221440042C00D004335A01F7
:103580000ED49B015B0AC8B25B025B0AC0051843FC
:1035900010BD00200023F7E763025B0AC8B2F3E71F
:1035A0009F21024A091A1340EBE7C046FFFFFFFBC9
:1035B000F0B5454657464E4694464C000A03C90F9F
:1035C000E0B488460E1C1903470FC500480A61463F
:1035D000490F01436046520A1743C0005A00640D68
:1035E000520DDB0F8446984500D1A7E0A01A0028B1
:1035F00000DC01E1002A3DD163460B4300D0D4E05A
:103600006B0700D188E00F232B40042B00D183E00F
:103610002A1DAA42AD4180236D427F191B043B4005
:103620004646151C002B00D17CE0CC4B01349C425B
:1036300000D1FDE03A1CCA4BED081A405007640562
:1036400052020543120B640D002112030B0D1B05E2
:103650006405120B1A436308C24CF60714401C435E
:10366000640064083443281C211C1CBC9046994605
:10367000A246F0BDB94B9C42C2D080231B04194323
:10368000382800DDECE01F2800DD21E120220E1C9F
:103690006346121A9640C340334366469640321C36
:1036A000561EB24113430A1CC240EB1A9D42B6415A
:1036B0001D1CBA1A7642971B3B0200D497E07A028F
:1036C000560A002E00D1B6E0301C01F0B1FD031CFB
:1036D000083B1F2B00DDB7E09E40371C28262A1C24
:1036E000361AF240161C9D403E439C4200DDB2E07B
:1036F0001C1B621C1F2A00DDD8E01F23291C1C1B79
:10370000331CA540A340D1406C1EA541D6401943AF
:103710000D43371C002473E780231B043B404646BF
:1037200000D082E78D4BED0878070543FA089C42EC
:1037300032D012036405120B640D85E7A31A002B27
:1037400000DC94E0002A3CD0844A944200D157E740
:10375000802212041143382B00DC05E16346194333
:10376000481E81410022C8B24019A8429B41051C55
:10377000D2195B42D7183B0239D5784B01349C42B1
:1037800000D14CE10120764A6B083A4028401843AA
:10379000D5070543570833E72B1C134348D0802334
:1037A0001B031A431203120B4EE70138002878D18D
:1037B0006346EE1AB5429B417A1A5B42D71A351C12
:1037C0007AE7021C0A4300D11AE7013B002B00D024
:1037D000F2E04019A8429B41CA195B42D718051C68
:1037E000C9E7131C334300D118E1171C351C4646AA
:1037F0006B0700D007E795E700287AD1621C5205D5
:10380000520D012A00DCFBE06246AA1A9542B6413D
:103810009146781A7242861A320200D493E06246C8
:10382000551BAC458041CF1B40423E1A984648E7A5
:103830000022002508E7281C01F0FAFC2030031CB8
:10384000083B1F2B00DC47E7283885402E1C00254D
:103850009C4200DC4CE7424AE41A1640371CCFE693
:10386000634619434B1E99410022CBB21DE7002B42
:1038700000D0F2E0601C43055B0D012B00DCA4E0EE
:10388000364B984200D121E163465C19AC429B4122
:10389000CF195B42FA186408D50725435708041C62
:1038A000AEE62E4B9C4200D0EAE6A9E6211C331C72
:1038B0001F39CB40191C202A00D182E03F231C1B5A
:1038C000A64035436E1EB54100270D4300248EE708
:1038D000031C0E1C203BDE40202874D040231B1A02
:1038E00099400B1C62461343591E8B4100223343FF
:1038F000DBE6002C50D0194CA24200D1A8E0802475
:10390000240440422743382800DDD9E01F2800DD89
:1039100039E120243E1C241AA640B0462E1CA146A4
:10392000C640444626434C46A5406C1EA541C740B0
:1039300035436046451BCF1BAC45894149427F1A40
:10394000141C9846B8E64B464D46334300D0B8E6C3
:103950000026002700240025E4E6C046FF070000FB
:10396000FFFF7FFFFFFF0F801F2B5BDC2022081C67
:10397000D21A9040814660469246D8404A4610434B
:103980008146524660469040021C501E8241484685
:1039900010430A1CDA40E7E63C1C2C4358D0C043D5
:1039A000002851D16046451BAC458041CF1B4042A9
:1039B0003F1A141C98467FE68F4A944200D0CAE60C
:1039C0001EE600267DE700238CE73B1C2B43002CE2
:1039D00000D0BDE0002B00D1F5E063460B4300D1E1
:1039E0000EE663465B19AB428041CA194042171884
:1039F0003A0200D4FCE0814A1D1C17400134FFE567
:103A00003A1C2A43002C51D1002A00D085E062469E
:103A10000A4303D00F1C65469846F1E500260027AF
:103A200000257FE6181C0A1C2038C240202B00D13C
:103A3000A7E04020C01A8140081C63461843411E7D
:103A40008841104300228FE66B4CA24200D05AE717
:103A50000F1C6546141C9846D2E5002C3AD1381C40
:103A6000284371D0DB43002B18D0634882426BD0CF
:103A7000382B00DD9DE01F2B00DDA7E020203C1C43
:103A8000C01A8440A1462C1C8246DC4048460443B0
:103A900050468540681E8541DF40254365446545A5
:103AA0009B417F185B42FF18141C64E6002A19D161
:103AB00062460A4377D00F1C654698464E4C9FE5F8
:103AC0003D436F1EBD410027EDB232E7041C0027C5
:103AD000002527E64848824236D0802000045B4219
:103AE0000743C5E762460A4349D08024ED087807BA
:103AF000FA0824032843224209D0CE08264206D1E0
:103B000062464F07381CD20810439846321CD20038
:103B1000470F1743C500384C72E562460A4300D18F
:103B20006EE56246AE1AB5429241781A5242821A46
:103B3000100200D455E66246551BAC458041CA1BB5
:103B40004042171A98465BE50F1C6546141C57E562
:103B5000002B34D063460B4311D08024ED08780746
:103B6000FA08240328432242D1D0CB082342CED1E5
:103B700062464F07381CD20810431A1CC7E71E4C78
:103B80003EE5002059E7041C3E1C203CE640341C66
:103B900020282BD04026301A87403D436F1EBD4160
:103BA00000272543C5E680270026FF03124C002589
:103BB000B8E53D436F1EBD410027EDB26EE70F1C17
:103BC00065460D4C1CE50F1C654619E51C1C381C90
:103BD000203CE040041C202B0CD04020C31A9F4006
:103BE0003D436F1EBD410027254357E70027D4E71B
:103BF0001D1CFCE50027F3E7FF070000FFFF7FFF28
:103C0000F0B55F4656464D464446F0B40F0387B0C4
:103C100098464D003B0BCC0F061C924681469B46B6
:103C20006D0D01946BD0664B9D4235D080275B466D
:103C30007F031F43F3009946624BFF00400F9C46F1
:103C400007430023BB460026654400934246170302
:103C50005000D20F53463F0B400D904600D172E00A
:103C6000574A904267D080235B031F435346554A0F
:103C70005B0FFF001F43944653460021DB00604466
:103C80004246624092462D1A0E430F2E00D9A1E003
:103C90004D48B600805987465B461E4300D076E00B
:103CA00000239B469946023308260093CEE79946A7
:103CB0004346BB4601930091009B022B6BD1019BB5
:103CC0009A46002153460122002789461A403C4B60
:103CD00000213F030C0D24053F0B27433B4C1B05E4
:103CE00027401F437F00D2077F0817434846391CEF
:103CF00007B03CBC90469946A246AB46F0BD034394
:103D00003ED05B46002B00D19CE1584601F090FA72
:103D10002823311C1B1A021C5F46D940083A9740E1
:103D20000B1C96403B439B46B1460023284D002682
:103D30002D1A00938AE7524603213A43A0D1002767
:103D4000002302219CE752463A4315D0002F00D1B0
:103D500085E1381C01F06CFA021C28215046891AB2
:103D6000131CC8405146083B99409F400B1C074319
:103D700017480021801A83E70027002301217FE7ED
:103D800000239B4699460133042600935EE70323F4
:103D90000C2600935AE7032B00D13CE2012B00D004
:103DA000BFE11A1C019B1A4000210023002789460D
:103DB0008EE700238027994600223F03004B87E7C8
:103DC000FF07000001FCFFFFF05C0008FFFF0F8011
:103DD0000DFCFFFFBB4500D951E100D14CE14A4643
:103DE000039200225C469046013D180E3F02384384
:103DF0001B020193030C994603041B0C4946061C45
:103E0000201C1F1C0093FFF77BF8021C7A430290D2
:103E10004946201C171CFFF7F9F8039B09041B0CEB
:103E200019438F420CD9029B8919013B8E4200D95C
:103E300052E18F4200D84FE1029B8919023B029365
:103E4000CC1B201C4946FFF75BF8009F8346474385
:103E50004946201CFFF7DAF8039A0B041404240CDB
:103E600023439F420DD95A469B19013A9E4200D9DD
:103E700030E19F4200D82DE10222524294469B1924
:103E8000E344029ADB1B17045A463A439346019CCB
:103E9000170C220C101C04925A4611042204120C16
:103EA000141C090C7C4305924A4341434743611863
:103EB000100C09188C4203D98020400284466744C4
:103EC0000C0C12040804120C3C198118A34200D2F5
:103ED000E5E000D1DFE01F1B43465C1AA04592419C
:103EE0005242BF1AB74200D10EE1381C4946FFF7D3
:103EF00007F8009B029043434946381C9846FFF759
:103F000085F8230C0F041F43B8450CD9029BBF1939
:103F1000013BBE4200D9FBE0B84500D8F8E0029B67
:103F2000BF19023B02934346FF1A4946381CFEF76D
:103F3000E7FF009B039043434946381C9846FFF730
:103F400065F824040904240C214388450CD9039BFB
:103F50008919013B8E4200D9DCE0884500D8D9E0C0
:103F6000039B8919023B03934346C91A029B039A98
:103F70001B04059C1A43100C13049146221C049F39
:103F80001B0C5A4344437B437843E318170CDB195B
:103F90009C4203D980246402A44660441C0C120491
:103FA0001B04120C00199B18814200D296E000D12C
:103FB000FCE04A4601231A4391469B4BEB18002B29
:103FC00000DC99E04A4652070AD00F2249460A40CF
:103FD000042A05D00431494592418946524293440E
:103FE0005A46D20106D55A46904B1A408023934632
:103FF000DB00EB188E4A934200DD62E64A465946E2
:10400000D208490711435A468946570251460122B0
:104010005B053F0B5B0D0A405AE680205A460003C1
:10402000024208D0074206D107433F0399463F0B9F
:104030004246804B4CE65F4607433F033F0B221C42
:104040007C4B45E601F0F4F8031C2030272800DC07
:104050005EE6083B9E400023B346994665E650461F
:1040600001F0E6F8021C2032272A00DC75E65746EC
:104070000838874000237BE6994500D2AFE65A46D0
:10408000594654084A46C8075208024303924A4612
:10409000D2079046A9E60027884500D31CE7019F78
:1040A0005A46BC46E044B845BF417F42BF19FF189D
:1040B000013ABE4206D2BC425FD800D19FE03F1B0E
:1040C000934609E7B742FAD1019B4345F3D9371B21
:1040D000934601E79346D4E60293B1E64A4689192E
:1040E000013A8E4218D99146814200D061E7019A87
:1040F0009A4200D05DE760E74F4F7F1B382F13DDFA
:10410000012253461A404FE601235B42994654E789
:10411000029308E7039327E788423CD874D091467E
:1041200047E7019B9A4648E71F2F44DC434B4A462A
:104130009C465B466544FA40AB4013434A46AA405E
:10414000151C6A1E95415A46FA402B43171C5A0704
:1041500009D00F221A40042A05D01A1D9A429B4109
:104160005B42FF18131C3A023ED553460122002140
:104170001A40002701238946AAE502235B429C4698
:10418000019AE3449446E04490459B415B429B196D
:10419000DF193F1BA0E6019F4A467C00BC42BF419D
:1041A0007F42BF19023AC91901949CE7002B95D1AF
:1041B000002201929BE75A46214B5B1BDA40202FDD
:1041C00027D0204B9C465B466544AB4049460B4399
:1041D000591E8B411343072200271A4007D00F2294
:1041E00000271A40042AB8D17A077F023F0BDB0868
:1041F00013439946012253461A40002368E541457E
:10420000BBD89346002767E6019C9C42C3D39146E6
:104210006DE70023DAE780275B463F031F433F0338
:104220003F0B019A034B53E5FF030000FFFFFFFE26
:10423000FE070000FF07000002FCFFFF1E04000055
:10424000E2FBFFFF3E040000F0B55F464D464446EA
:104250005646F0B41F035C00DB0F99461B4B0E0360
:104260004D00C90F8446360B6D0D8B4690463F0BB3
:10427000640D9D420CD0154B9C4210D00123A542E9
:1042800014D0181C3CBC90469946A246AB46F0BDE3
:10429000311C01230143F4D10C4B9C42EED13A4333
:1042A0000123002AEDD10123A542EAD1BE42E8D183
:1042B000C445E6D1CB4506D0002DE2D13043031CE6
:1042C000581E8341DDE70023DBE7C046FF070000FF
:1042D000F0B5574645464E46E0B40F034E00C90FB1
:1042E0008A4632491D035C0084463F0B760D90469A
:1042F0002D0B640DDB0F8E420FD08C4239D0002E77
:1043000010D13843414241418946002C27D12A43EC
:1043100025D1002000290ED108E0391C01432ED1FF
:10432000B44226D0002C0BD09A450DD053465942AA
:1043300001231943081C1CBC90469946A246F0BDB7
:104340002A43F3D09A45F1D1A642EFDC1ADA50465F
:1043500041424841012341421943081CEBE74A46C8
:10436000002AE1D058425841012241421143081C21
:10437000E1E7291C114302D1002EC2D0D4E702206C
:104380004042D8E7AF42D1D809D00020AF42D2D2C4
:10439000504641424841012340421843CBE7C445BF
:1043A000C4D80020C445F3D3C5E7C046FF070000CA
:1043B000F0B55F464D46444656468046F0B4061C6E
:1043C0000803000B84462C484C001F035D00C90FF6
:1043D000640D8B4691463F0B6D0DDB0F844212D06E
:1043E000854225D0002C14D161460E4370424641CF
:1043F000002D35D0002E21D0584258410121434292
:104400000B43181C0EE06146022031430AD1A5423D
:104410000ED0002D12D13A4310D15B4659420123F0
:104420001943081C3CBC90469946A246AB46F0BDD9
:10443000391C02201143F5D1002CD5D09B45ECD17D
:10444000AC42EADC05DBBC45E7D80FD00020BC4518
:10445000E8D2584641424841414201200843E1E741
:104460003A43C7D10020002EDCD1D6E7C845D4D8C6
:104470000020C845EDD3D5E7FF070000F0B55F4643
:1044800056464D464446F0B4051C061C080387B04A
:1044900099464F00030BCC0F92469B467F0D01942B
:1044A00067D06C4B9F4236D080205B464003184358
:1044B000C0006B0F1843684B83469C460023984608
:1044C000EE00674400934B4649461D03C90F5B004D
:1044D00052462D0B5B0D894600D16EE05D498B4243
:1044E00064D080205C4940038C4600210543ED00E8
:1044F000500F0543D20063444846FF187B1C9A4680
:10450000009B604002900B430F2B00D9ACE0534856
:104510009B00C3589F465B461D4300D082E00823A2
:10452000009300239B46023300269846CBE7029B6C
:1045300001934346022B59D1012400250026019BFB
:104540001C40444B00212D030A0D12052D0B154371
:10455000434A1B0515401D436D00E4076D082543C4
:10456000301C291C07B03CBC90469946A246AB467D
:10457000F0BD2B434ED05B46002B00D185E1584661
:1045800000F056FE021C2823291C9B1A161C5846B4
:10459000D940083EB0400B1CB54003439B462E1C3F
:1045A0000023304F0093BF1A98468CE751462943A9
:1045B0002ED10025002202219EE75146294323D017
:1045C000002D00D154E1281C00F032FE031C2821EC
:1045D0005046C91A1A1CC8405146083A91409540A5
:1045E0000A1C05431F480021C31A85E7032B00D18D
:1045F000C2E1012B00D06DE14446019B00251C4027
:10460000E4B2002300269DE700250022012173E784
:10461000032171E70423009300239B460133002606
:10462000984650E70C230093093B98464BE78025BA
:1046300000242D030026074B84E74B46AB46161C8F
:104640000193884675E7029BAB46161C019388468A
:104650006FE7C046FF07000001FCFFFF305D000868
:10466000FFFF0F800DFCFFFF330C3604360C9C4619
:10467000331C140C1204120C5343984663465343E4
:104680009946634663430193331C41466343090CD7
:104690004B445B18994505D9802040028146019919
:1046A00049440191190C039141460904090C1B046A
:1046B0005B1804932B0C9846331C2D04290C4B4398
:1046C000604600934346654658435E43009B4D4316
:1046D0001B0C9946AE194E448446B54203D980233B
:1046E0005B029946CC44350C2B1C039863448446EA
:1046F0000593009B36041B041B0CF3189C44604676
:10470000039058460504060C280C84465043351C7B
:1047100081466046654344434846000C83467243E5
:1047200014195C44A24203D98022520293465D448C
:10473000220CAD184A461204120C24044046A41858
:1047400062464A437143464360460096464670437C
:104750008046100C84468844E044414505D98021B8
:1047600049028C460099614400910198039984465E
:10477000614499429B415B42994605984346844671
:104780001204120C1B049B1863449C46AB468342E4
:104790009B4140460A19CC44A2428941E344CC459E
:1047A000B6415C46000C8046494276425B42641842
:1047B000334398448C428941AB459B4149425B421B
:1047C00019430D1C009B4544EE187602E50D2E435F
:1047D000B346049B56021E43731E9E415B46D20D98
:1047E000324366021643DB010AD5012333407608C3
:1047F0001E435B46DB071E435B465B089B465746F2
:10480000634BFB18002B5ADD720709D00F22324090
:10481000042A05D0321DB242B6417642B344161C7A
:104820005A46D20106D55A465A4B1A40802393461F
:10483000DB00FB18584A934234DD0124029B00251B
:104840001C400026554B7DE680205B46000303425A
:1048500008D0054206D105432D032D0B4C46161CEE
:104860004E4B6FE65D4605432D032D0B4B4B69E622
:10487000504600F0DDFC031C2033272B00DCA6E6AD
:104880005546083885400022ACE6281C00F0D0FCD4
:10489000021C2032272A00DC75E6083885400026F5
:1048A000AB467DE65A46F608520716435A4601249F
:1048B0005502029A5B052D0B5B0D144042E6384D04
:1048C000ED1B382D0ADD0124029B00251C4000262B
:1048D000002337E6019B5746029391E71F2D25DC05
:1048E000304B321C9C466744BE405B46BB40371C85
:1048F000EA407E1EB74113433B431E1C5B46EB4020
:104900001D1C730709D00F233340042B05D0331D22
:10491000B342B6417642AD191E1C2B0220D50124AC
:10492000029B00251C40002601230BE65A461E4B25
:10493000DB1BDA40131C202D1CD01C4A94465A461F
:104940006744BA40171C3E43721E96411E4307231C
:104950000025334007D00F2300253340042BD6D148
:104960006B076D022D0B0124F6081E43029B1C40B1
:104970000023E7E50027E6E780255B4601242D03B9
:104980001D43019B2D0323401C1C2D0B034BD9E51C
:10499000FF030000FFFFFFFEFE070000FF0700000F
:1049A00002FCFFFF1E040000E2FBFFFF3E040000CC
:1049B000F0B54D4644465F465646F0B40E1C111CF9
:1049C0003203520A470F1743C5001A035800DB0F82
:1049D0009946520A4B0F83B01A43CB000193CF4B39
:1049E0007400F60F640DB046400D984200D1E8E027
:1049F0000123494659400B1C9E4200D1B1E0261AC2
:104A0000002E00DC1CE1002842D1131C01990B434D
:104A100000D0E6E06B0700D18EE00F232B40042B83
:104A200000D189E02A1DAA42AD41802301264146DA
:104A30006D427F191B043B400E40151C002B00D11A
:104A400083E0B64B01349C4200D116E13A1CB44BD2
:104A5000ED081A405007640552020543120B640D1D
:104A6000002112030B0D1B056405120B1A4363088A
:104A7000AC4CF60714401C43640064083443281C03
:104A8000211C03B03CBC90469946A246AB46F0BD03
:104A9000A24B9C42BED080231B041A43382E00DD5B
:104AA00003E11F2E00DD3FE12020831B9946131CEC
:104AB00049468B409C46019B6046F3400343019866
:104AC000F2408840011C481E81410B43EB1A9D4275
:104AD00080411D1CBA1A4042171A3B0200D4A8E0BC
:104AE0007A02560A002E00D1CAE0301C00F0A0FB6A
:104AF000031C083B1F2B00DDCBE02822291C121AC7
:104B0000D1409E400A1C9D4032439C4200DDC8E0DB
:104B10001C1B671C1F2F00DDEDE01F23291C1C1B25
:104B2000131CA540A340F9406C1EA541FA4019434F
:104B30000D43171C00246DE78023012642461B0409
:104B40003B401640002B00D07BE7744BED08780704
:104B50000543FA089C423BD012036405120B640D16
:104B60007EE7231A9A46002B00DCA5E0002844D0FB
:104B70006A48844200D14DE7802000040243534636
:104B8000382B00DC1CE1019B1A43511E8A41D1B233
:104B900000224919A94280410D1CD2194042171820
:104BA0003B0246D55D4B01349C4200D169E10120B6
:104BB0005B4A6B083A4028401843D507054357081D
:104BC00028E7131C01990B4300D111E74B4613E76B
:104BD0002B1C134351D080231B031A431203120BC7
:104BE0003EE7013E002E00D080E0691A8D429B41D5
:104BF000BA1A5B42D71A0D1C6FE7101C019B1843B1
:104C000000D107E701235B429C46E2445346002B58
:104C100000D002E1019BD2195919A9429B415B4284
:104C2000D7180D1CBCE76346034300D128E1071CDD
:104C300065466B0700D0F0E6012643461E4084E738
:104C4000002E00D081E0601C4005400D012800DCF2
:104C500007E10199681A84466545B641B81A76425B
:104C6000861B300200D4A1E08C464D1BAC45894127
:104C7000D21B4942561A984634E700220025EFE637
:104C8000281C00F0D5FA2030031C083B1F2B00DC49
:104C900033E7021C283A95402A1C00259C4200DC80
:104CA00036E71F4FE41A1740B4E6019B1A43511E22
:104CB0008A41D3B2002209E7002B00D001E1601C39
:104CC00043055B0D012B00DCB0E0144B984200D192
:104CD0001EE1019BD2195919A9429B415B42D2188E
:104CE0004908D5070D435708041C93E60B4B9C421B
:104CF00000D0D3E68EE6211C131C1F39CB40191CB3
:104D0000202F00D18EE03F231C1BA24015436A1EBA
:104D1000954100270D4300248BE7C046FF070000A4
:104D2000FFFF7FFFFFFF0F80331C101C203BD8408C
:104D3000202E79D040239B1B9A40131C019A1343C9
:104D4000591E8B4100220343C0E6002C53D0C74CB0
:104D5000A04200D1B0E08024714289462404274358
:104D60004946382900DDCDE01F2900DD59E1202426
:104D70003E1C611A8E408A46B04649462E1CCE40E3
:104D80005146B4468D4064464646494626436C1E0D
:104D9000A541CF4035430199D71B8C464D1BAC45EF
:104DA00092415242BF1A041C984696E663466546F5
:104DB000334300D096E60026002700240025C4E6F1
:104DC0001F2B61DC2020C31A9B46131C59468B40C5
:104DD00051469946019BCB409C464B466046034357
:104DE0009C465B46019999406346481E81411943A0
:104DF0005346DA40CDE63C1C2C435DD0F143894656
:104E0000002955D10199D21B8C464D1BAC458941D7
:104E10004942571A041C98465FE69448844200D0E1
:104E2000ADE6F7E5002271E7002387E73B1C2B4343
:104E3000002C00D0DAE0002B00D113E1131C019903
:104E40000B4300D1E6E54919A9429B41D2195B42C7
:104E5000D7183B0200D421E1854B0D1C1F40041CD8
:104E6000D8E5381C2843002C40D1002800D083E02E
:104E7000101C0199084303D0171C0D1C9846C9E566
:104E800000260027002560E65046131C2038C3404A
:104E9000181C5346202B00D1C1E0402351465B1A19
:104EA0009A40019911434A1E91410022014370E644
:104EB0006E4CA04200D053E7171C019D041C98467D
:104EC000A8E5002C28D13C1C2C4300D18AE0DB4310
:104ED0009A46002B00D082E0019BD2199C46654483
:104EE0009D42894149425718041C59E600285BD16C
:104EF000101C0199084300D1A4E0171C0D1C984612
:104F00005A4C87E53D436F1EBD410027EDB242E795
:104F1000041C0027002518E6544CA04262D05346DA
:104F200080245B429A46240427435346382B00DDF5
:104F30008EE01F2B00DD9DE02024E31A9B463B1CE6
:104F400059468B40514699462B1CCB409C464B46BC
:104F5000644623439C465B469D4063466C1EA541C8
:104F6000CF401D43019BBF189C4665449D42924122
:104F70005242BF18041C13E6101C0199084300D1CB
:104F800048E5681A844685428041BE1A4042301A7C
:104F9000060200D447E68C464D1BAC458941D21B26
:104FA0004942571A984635E5101C0199084334D0F8
:104FB00080247807ED08FF0824032843274208D0FF
:104FC000D608264205D1C90852070A43101C371CCF
:104FD0009846FF00420F1743C500244C1AE5234CA6
:104FE000A042A2D1171C019D041C13E5002B35D053
:104FF000131C01990B4310D080247807ED08FF089B
:10500000240328432742E4D0D3082342E1D1C9082E
:1050100052070A43101C1F1CDBE7144CFAE4002261
:105020003FE74C463E1C203CE6404946341C2029C4
:1050300032D04026761AB7403D436F1EBD4100274F
:105040002543A8E680270026FF03084C00257CE5C1
:105050003D436F1EBD410027EDB283E7171C019D44
:10506000024CD7E4171C019DD4E4C046FF070000A2
:10507000FFFF7FFF54463B1C203CE3401C1C534673
:10508000202B0DD0402351465B1A9F403D436F1E9D
:10509000BD410027254365E70027CDE70D1CC8E586
:1050A0000027F3E70B0330B5134C1A0B4B00051C1C
:1050B0005B0DC90F0020A34210DD104883420EDCB7
:1050C00080200F4C40030243E41A1F2C0ADD0D48D8
:1050D000C31ADA40131C48424340581830BD0A4BEB
:1050E000C818FBE7281CE040084CA44663449A40DB
:1050F000131C0343EFE7C046FE0300001D0400003D
:105100003304000013040000FFFFFF7FEDFBFFFFEF
:1051100038B5041E16D0C50F00D04442201C00F044
:1051200087F8174B1B1A0A2821DC021C211C153298
:1051300091400A1C0B21081AC4405B052403240B70
:105140005B0D03E000250023002400220021101C39
:1051500024030A0D1205240B14430A4A1B051440AC
:105160001C436400ED0764082C43211C38BD0B3838
:1051700084405B052403240B5B0D0022E6E7C04658
:105180001E040000FFFF0F804200120E511C38B5B4
:10519000C9B243025D0AC40F012915DDE02189006F
:1051A0008C466D071B0B62440021281C0D0D2D053C
:1051B0002B431C4D52052B40520813435B00E40760
:1051C0005B082343191C38BD002A15D1002D1FD0C0
:1051D000281C00F02DF80A281DDC0B232A1C1B1AA2
:1051E000DA40131C021C153295400F4A1B03121A99
:1051F00052051B0B520DD7E7002D06D080221B0B4A
:10520000120313436D07094ACEE7084A0023CBE790
:1052100000220023C8E7031C0B3B9D402B1C0025EC
:10522000E3E7C046FFFF0F8089030000FF0700008F
:105230001C2101231B04984201D3000C10391B0AC6
:10524000984201D3000A08391B09984201D300098A
:10525000043902A2105C40187047C04604030202E1
:10526000010101010000000000000000024670B5CD
:105270000A4392072AD11E4DEE0104C808C9541BE7
:105280009443344017D0D0B2D9B2401A210601431A
:1052900010D190B299B2401A210401430AD11002F0
:1052A0001902000A090A401A2102014302D1100E14
:1052B000190E401A70BD9A42DFD010BA19BA88424E
:1052C00001D9012070BD0020C04370BD02780B7869
:1052D00001300131002A09D09A4207D102780B78B7
:1052E00001300131002A01D09A42EFD0D01A70BDAE
:1052F0000101010170B5FAF74BFFFAF751FFFBF717
:105300002BF8FBF715F996208001FBF72BFEE12027
:105310004002FBF7C1FE0026FCF7F2FFFDF7A6F8FE
:10532000FBF77CFAFDF77CF9FDF74CFAFBF754FC30
:10533000FDF74EF9FCF7E6FA0E4C0F4D02E02B7824
:10534000002B0ED1FCF790FFFDF744FAFDF7E8FCC7
:105350002378002BF3D0FDF7FFF826702B78002B75
:10536000F0D0FBF767F8FDF777F9FBF719FA2E7025
:10537000E8E7C0464604002049040020124885465C
:1053800012480168090E124A914205D1114812498A
:10539000016012481249016012481349134A002360
:1053A00002E0D458C4500433C4188C42F9D3104AD4
:1053B000104C002301E013600432A242FBD3FAF741
:1053C0007FFEFFF797FFFEE70018002004000000B3
:1053D0001F00000018100240010000000000014002
:1053E000000000000000002044040020786900084C
:1053F0004404002084090020FEE70000F0B5474681
:1054000080B48CB0041C0D1C00F084F80F1C00212B
:10541000061C3B4B321C595698463B1C013111D09F
:10542000201C291C00F07CFA321C3B1C002809D0EF
:1054300000220023201C291CFDF70EFF321C3B1C00
:10544000002805D0101C191C0CB004BC9046F0BDFF
:105450002C4B0A90039343461E78049405950694BA
:105460000795002E14D1E022274B120608920993CB
:10547000201C291C00220023FDF7D4FE002835D172
:105480000123029302A800F079FA002814D10FE05A
:1054900000221E4B201C08920993291C0022002385
:1054A000FDF7C0FE002813D101230293022EE9D19B
:1054B00000F06CFA21230360154800F061FA0890AF
:1054C00009910A9B0193002B13D1089A099BB9E714
:1054D00002230293022E04D002A800F04FFA002803
:1054E000EFD100F053FA22230360EAE7022302938C
:1054F000F2E700F04BFA0A9B01930360E5E7C04630
:105500000C00002068680008FFFFEFC70000F0FFF4
:1055100048610008F0B5454657464E46E0B4DC4ABF
:1055200088B0041C0D1C0B1E934258DC4A00520824
:10553000024300D1F0E0002D00DA7AE10022D54BE1
:10554000FEF79CFF3626D44A041C0D1C0B1C764229
:10555000934248DC1A151B031B0B9846CF49802346
:105560008C46201C444662449619CD4A5B03424453
:105570001340CC4A5A4014431B1599460022C94B8C
:10558000211CFFF715FA434602331B03B1440F1CDD
:10559000061C1B0B0022022B31DC0023FDF742FE10
:1055A000002800D1BFE04B46002B00D14AE148461D
:1055B000FFF7AEFDBC4ABD4B041C0D1CFEF75EFFA1
:1055C000BB4A061C0F1C201C291CBA4BFEF756FFB9
:1055D000021C0B1C301C391CFDF7EAFF09E0AE4A27
:1055E00000269342B6DD201C291C221C2B1CFDF733
:1055F000DFFF08B01CBC90469946A246F0BD802350
:10560000DB05FDF7D5FF021C0B1C301C391CFEF717
:10561000F7FA041C0D1C484604940595FFF778FD25
:10562000221C029003912B1C201C291CFEF726FF34
:10563000031C0C1CA04A00930194424492461A1C7D
:10564000231CFEF71BFF041C0D1C9C4A9C4BFEF701
:1056500015FF9C4A9C4BFDF7ABFF221C2B1CFEF751
:105660000DFF9A4A9A4BFDF7A3FF221C2B1CFEF755
:1056700005FF984A984BFDF79BFF009A019BFEF7A8
:10568000FDFE964A00900191954B201C291CFEF7C7
:10569000F5FE944A944BFDF78BFF221C2B1CFEF762
:1056A000EDFE924A924BFDF783FF221C2B1CFEF766
:1056B000E5FE021C0B1C00980199FDF779FF42469C
:1056C0008C4B041C9B1A52460D1C1343002B50DDBF
:1056D0000022894B301C391CFEF7D0FE3B1C321CCB
:1056E000FEF7CCFE4B4600900191002B70D1221C9E
:1056F0002B1CFDF75DFF049A059BFEF7BFFE021C05
:105700000B1C00980199FFF753F9021C0B1C301C6D
:10571000391CFFF74DF96CE7002200230020774980
:10572000FEF76EFA65E7321C3B1C301C391CFEF795
:10573000A5FE734A041C0D1C724B301C391CFEF76D
:105740009DFE021C0B1C00206B49FFF731F90B1C5E
:10575000021C291C201CFEF791FE4B46041C0D1C4C
:10576000002B72D1301C391C221C2B1CFFF720F996
:105770003FE74B46002B00D1C6E0029803994A4A06
:105780004A4BFEF77BFE221C009001912B1C301C23
:10579000391CFFF70DF9049A059BFEF76FFE444A8A
:1057A000041C0D1C02980399424BFEF767FE021C75
:1057B0000B1C201C291CFFF7FBF8321C3B1CFFF7BD
:1057C000F7F8021C0B1C00980199FFF7F1F810E79D
:1057D00002980399344A354BFEF750FE221C06907E
:1057E0000791009801992B1CFDF7E2FE049A059B96
:1057F000FEF744FE2E4A041C0D1C029803992D4B03
:10580000FEF73CFE021C0B1C201C291CFDF7D0FEE1
:10581000021C0B1C00980199FFF7CAF8321C3B1CB4
:10582000FFF7C6F8021C0B1C06980799FFF7C0F893
:10583000DFE6221C2B1CFFF7BBF800220023FEF73B
:10584000DFF9D6E600200021D3E64846FFF760FCEA
:10585000154A164B00900191FEF710FE144A029073
:10586000039100980199134BFEF708FE021C0B1CD4
:10587000201C291CFFF79CF8321C3B1CFFF798F8F2
:10588000021C0B1C02980399FFF792F8B1E6C04680
:10589000FFFF0F0000005043FFFFEF7F01FCFFFF01
:1058A000645F09000000F03F0000E0FE422EE63F8A
:1058B000763C7935EF39EA3D86EBF9FF44523EDF1D
:1058C00012F1C23FDE03CB966446C73F5993229440
:1058D0002449D23F935555555555E53F9FC678D03D
:1058E000099AC33FAF788E1DC571CC3F04FA9799D2
:1058F0009999D93F51B806000000E03F000050C31D
:10590000555555555555D53F221C2B1C301C391C5F
:10591000FFF74EF8049A059BFEF7B0FDF5E6C0468A
:105920000A1C031C024330B50220002A00D130BDFE
:1059300080221206914216D00C4A04208C180C4A80
:105940009442F4D90B4C0C199442F0D90A4A4900FC
:10595000490803209142EAD9064A00209142E6D143
:1059600058425841E3E7002BE1D0EFE70000F0FF99
:10597000FFFFDF7F0000F07FFFFF0F000020704778
:10598000002001497047C0460000F87F014B1868AD
:105990007047C04640040020CAB270B5002A3DD00E
:1059A00083070ED00378002B5BD003249A4205D1E5
:1059B00033E00378002B54D09A422ED0013020429D
:1059C000F7D1FF23056819402C1C0B0219430B0467
:1059D0001943254B4C40E318A3431C1C224B234E78
:1059E000EB18AB43234333420DD10C1C0430056844
:1059F0001D4B6C40E318A3431C1C1B4BEB18AB4323
:105A000023433342F1D00378002B04D129E0013045
:105A10000378002B25D09A42F9D170BD83070AD0B4
:105A200003780322002B03D1F7E70378002BF4D08F
:105A300001301042F9D102680B4B0C49D318934343
:105A40000B4206D104300268074BD31893430B4234
:105A5000F8D00378002BE0D001300378002BFBD185
:105A6000DBE70020D9E7C046FFFEFEFE8080808095
:105A700010B5830727D00378002B26D0031C032101
:105A800002E01A78002A1CD001330B42F9D11968C0
:105A90000F4A104C8A188A4322420FD104331968E6
:105AA0000B4A8A188A43224208D104331968084AEB
:105AB0008A188A432242F1D000E001331A78002A82
:105AC000FBD1181A10BD031CE1E70020FAE7C0461D
:105AD000FFFEFEFE8080808010B5002911D0037883
